{
  "abi": [
    {
      "inputs": [],
      "stateMutability": "nonpayable",
      "type": "constructor"
    },
    {
      "inputs": [],
      "name": "bar",
      "outputs": [
        {
          "internalType": "int256",
          "name": "",
          "type": "int256"
        }
      ],
      "stateMutability": "pure",
      "type": "function"
    },
    {
      "inputs": [],
      "name": "foo",
      "outputs": [
        {
          "internalType": "int256",
          "name": "",
          "type": "int256"
        }
      ],
      "stateMutability": "pure",
      "type": "function"
    },
    {
      "inputs": [],
      "name": "fooBar",
      "outputs": [
        {
          "internalType": "int256",
          "name": "",
          "type": "int256"
        }
      ],
      "stateMutability": "nonpayable",
      "type": "function"
    },
    {
      "inputs": [],
      "name": "res",
      "outputs": [
        {
          "internalType": "int256",
          "name": "",
          "type": "int256"
        }
      ],
      "stateMutability": "view",
      "type": "function"
    }
  ],
  "bytecode": "608060405234801561001057600080fd5b5060176000556101ab806100256000396000f3fe608060405234801561001057600080fd5b506004361061004c5760003560e01c80636f10e2851461005157806390c0414d1461006f578063c298557814610077578063febb0f7e1461007f575b600080fd5b610059610087565b60405161006691906100fa565b60405180910390f35b61005961008d565b6100596100f0565b6100596100f5565b60005481565b6000805b60648110156100e8576100a26100f0565b6000808282546100b29190610103565b909155506100c090506100f5565b6000808282546100d09190610103565b909155508190506100e081610144565b915050610091565b505060005490565b600a90565b601490565b90815260200190565b600080821280156001600160ff1b03849003851316156101255761012561015f565b600160ff1b839003841281161561013e5761013e61015f565b50500190565b60006000198214156101585761015861015f565b5060010190565b634e487b7160e01b600052601160045260246000fdfea2646970667358221220e57dc16dc00fd0b496b82cabe99d9feae7451b64f6ed2983b7a2b0d5b1e4aab764736f6c63430008000033",
  "bytecodeSha1": "0747e49751c4a6e746dbafa9d711ef2ae8fbb907",
  "compiler": {
    "evm_version": "istanbul",
    "optimizer": {
      "enabled": true,
      "runs": 200
    },
    "version": "0.8.0+commit.c7dfd78e"
  },
  "contractName": "A",
  "language": "Solidity",
  "natspec": {
    "kind": "dev",
    "methods": {},
    "version": 1
  },
  "opcodes": "PUSH1 0x80 PUSH1 0x40 MSTORE CALLVALUE DUP1 ISZERO PUSH2 0x10 JUMPI PUSH1 0x0 DUP1 REVERT JUMPDEST POP PUSH1 0x4 CALLDATASIZE LT PUSH2 0x4C JUMPI PUSH1 0x0 CALLDATALOAD PUSH1 0xE0 SHR DUP1 PUSH4 0x6F10E285 EQ PUSH2 0x51 JUMPI DUP1 PUSH4 0x90C0414D EQ PUSH2 0x6F JUMPI DUP1 PUSH4 0xC2985578 EQ PUSH2 0x77 JUMPI DUP1 PUSH4 0xFEBB0F7E EQ PUSH2 0x7F JUMPI JUMPDEST PUSH1 0x0 DUP1 REVERT JUMPDEST PUSH2 0x59 PUSH2 0x87 JUMP JUMPDEST PUSH1 0x40 MLOAD PUSH2 0x66 SWAP2 SWAP1 PUSH2 0xFA JUMP JUMPDEST PUSH1 0x40 MLOAD DUP1 SWAP2 SUB SWAP1 RETURN JUMPDEST PUSH2 0x59 PUSH2 0x8D JUMP JUMPDEST PUSH2 0x59 PUSH2 0xF0 JUMP JUMPDEST PUSH2 0x59 PUSH2 0xF5 JUMP JUMPDEST PUSH1 0x0 SLOAD DUP2 JUMP JUMPDEST PUSH1 0x0 DUP1 JUMPDEST PUSH1 0x64 DUP2 LT ISZERO PUSH2 0xE8 JUMPI PUSH2 0xA2 PUSH2 0xF0 JUMP JUMPDEST PUSH1 0x0 DUP1 DUP3 DUP3 SLOAD PUSH2 0xB2 SWAP2 SWAP1 PUSH2 0x103 JUMP JUMPDEST SWAP1 SWAP2 SSTORE POP PUSH2 0xC0 SWAP1 POP PUSH2 0xF5 JUMP JUMPDEST PUSH1 0x0 DUP1 DUP3 DUP3 SLOAD PUSH2 0xD0 SWAP2 SWAP1 PUSH2 0x103 JUMP JUMPDEST SWAP1 SWAP2 SSTORE POP DUP2 SWAP1 POP PUSH2 0xE0 DUP2 PUSH2 0x144 JUMP JUMPDEST SWAP2 POP POP PUSH2 0x91 JUMP JUMPDEST POP POP PUSH1 0x0 SLOAD SWAP1 JUMP JUMPDEST PUSH1 0xA SWAP1 JUMP JUMPDEST PUSH1 0x14 SWAP1 JUMP JUMPDEST SWAP1 DUP2 MSTORE PUSH1 0x20 ADD SWAP1 JUMP JUMPDEST PUSH1 0x0 DUP1 DUP3 SLT DUP1 ISZERO PUSH1 0x1 PUSH1 0x1 PUSH1 0xFF SHL SUB DUP5 SWAP1 SUB DUP6 SGT AND ISZERO PUSH2 0x125 JUMPI PUSH2 0x125 PUSH2 0x15F JUMP JUMPDEST PUSH1 0x1 PUSH1 0xFF SHL DUP4 SWAP1 SUB DUP5 SLT DUP2 AND ISZERO PUSH2 0x13E JUMPI PUSH2 0x13E PUSH2 0x15F JUMP JUMPDEST POP POP ADD SWAP1 JUMP JUMPDEST PUSH1 0x0 PUSH1 0x0 NOT DUP3 EQ ISZERO PUSH2 0x158 JUMPI PUSH2 0x158 PUSH2 0x15F JUMP JUMPDEST POP PUSH1 0x1 ADD SWAP1 JUMP JUMPDEST PUSH4 0x4E487B71 PUSH1 0xE0 SHL PUSH1 0x0 MSTORE PUSH1 0x11 PUSH1 0x4 MSTORE PUSH1 0x24 PUSH1 0x0 REVERT INVALID LOG2 PUSH5 0x6970667358 0x22 SLT KECCAK256 0xE5 PUSH30 0xC16DC00FD0B496B82CABE99D9FEAE7451B64F6ED2983B7A2B0D5B1E4AAB7 PUSH5 0x736F6C6343 STOP ADDMOD STOP STOP CALLER ",
  "sha1": "784f84f3c1587b180f3adcbc08d59223086e85b6",
  "source": "// SPDX-License-Identifier: UNLICENSED\npragma solidity ^0.8.0;\n\ncontract A {\n    int public res;\n\n    constructor(){\n        // do something\n        res = 23;\n    }\n\n    function foo() public pure returns(int){\n        return 10;\n    }\n\n    function bar() public pure returns(int){\n        return 20;\n    }\n\n    function fooBar() public returns(int){\n        for(uint i=0; i<100; i++){\n            res += foo();\n            res += bar();\n        }\n        return res;\n    }\n}\n",
  "sourcePath": "contracts/unOptimized_contracts/A.sol",
  "type": "contract"
}