{
  "abi": [
    {
      "inputs": [],
      "stateMutability": "nonpayable",
      "type": "constructor"
    },
    {
      "inputs": [],
      "name": "counter",
      "outputs": [
        {
          "internalType": "uint256",
          "name": "",
          "type": "uint256"
        }
      ],
      "stateMutability": "view",
      "type": "function"
    },
    {
      "inputs": [],
      "name": "loopIt",
      "outputs": [],
      "stateMutability": "nonpayable",
      "type": "function"
    }
  ],
  "bytecode": "608060405234801561001057600080fd5b506000805560b2806100236000396000f3fe6080604052348015600f57600080fd5b506004361060325760003560e01c80634757f20f14603757806361bc221a14603f575b600080fd5b603d6057565b005b60456076565b60408051918252519081900360200190f35b60005b601981101560735760008054600190810190915501605a565b50565b6000548156fea26469706673582212204bb7a9fdce44c8e7821a6754ecf0266fcc70019ac4cfaa2e692188c2de53c1c364736f6c63430007060033",
  "bytecodeSha1": "75ac3d79a1f1d714bebe3bc15ccc96104c4363b7",
  "compiler": {
    "evm_version": "istanbul",
    "optimizer": {
      "enabled": true,
      "runs": 200
    },
    "version": "0.7.6+commit.7338295f"
  },
  "contractName": "loops25",
  "language": "Solidity",
  "natspec": {
    "kind": "dev",
    "methods": {},
    "version": 1
  },
  "opcodes": "PUSH1 0x80 PUSH1 0x40 MSTORE CALLVALUE DUP1 ISZERO PUSH1 0xF JUMPI PUSH1 0x0 DUP1 REVERT JUMPDEST POP PUSH1 0x4 CALLDATASIZE LT PUSH1 0x32 JUMPI PUSH1 0x0 CALLDATALOAD PUSH1 0xE0 SHR DUP1 PUSH4 0x4757F20F EQ PUSH1 0x37 JUMPI DUP1 PUSH4 0x61BC221A EQ PUSH1 0x3F JUMPI JUMPDEST PUSH1 0x0 DUP1 REVERT JUMPDEST PUSH1 0x3D PUSH1 0x57 JUMP JUMPDEST STOP JUMPDEST PUSH1 0x45 PUSH1 0x76 JUMP JUMPDEST PUSH1 0x40 DUP1 MLOAD SWAP2 DUP3 MSTORE MLOAD SWAP1 DUP2 SWAP1 SUB PUSH1 0x20 ADD SWAP1 RETURN JUMPDEST PUSH1 0x0 JUMPDEST PUSH1 0x19 DUP2 LT ISZERO PUSH1 0x73 JUMPI PUSH1 0x0 DUP1 SLOAD PUSH1 0x1 SWAP1 DUP2 ADD SWAP1 SWAP2 SSTORE ADD PUSH1 0x5A JUMP JUMPDEST POP JUMP JUMPDEST PUSH1 0x0 SLOAD DUP2 JUMP INVALID LOG2 PUSH5 0x6970667358 0x22 SLT KECCAK256 0x4B 0xB7 0xA9 REVERT 0xCE DIFFICULTY 0xC8 0xE7 DUP3 BYTE PUSH8 0x54ECF0266FCC7001 SWAP11 0xC4 0xCF 0xAA 0x2E PUSH10 0x2188C2DE53C1C364736F PUSH13 0x63430007060033000000000000 ",
  "sha1": "d338c57ca0f818c9fdeb41c806991f95c69deb91",
  "source": "pragma solidity ^0.7.0;\n\ncontract loops25 {\n\n    uint256 public counter;\n\n    constructor() public {\n        counter = 0;\n    }\n\n    function loopIt() public {\n        for (uint256 i = 0; i < 25; i++) {\n            counter++;\n        }\n    }\n\n}",
  "sourcePath": "contracts/unOptimized_contracts/Loops25.sol",
  "type": "contract"
}