{
  "abi": [
    {
      "inputs": [],
      "stateMutability": "nonpayable",
      "type": "constructor"
    },
    {
      "inputs": [],
      "name": "count",
      "outputs": [
        {
          "internalType": "uint256",
          "name": "",
          "type": "uint256"
        }
      ],
      "stateMutability": "view",
      "type": "function"
    },
    {
      "inputs": [],
      "name": "incrementCounter",
      "outputs": [],
      "stateMutability": "nonpayable",
      "type": "function"
    },
    {
      "inputs": [],
      "name": "loopCounter",
      "outputs": [],
      "stateMutability": "nonpayable",
      "type": "function"
    }
  ],
  "bytecode": "608060405234801561001057600080fd5b506000805560ca806100236000396000f3fe6080604052348015600f57600080fd5b5060043610603c5760003560e01c806306661abd1460415780635b34b966146059578063fd192820146061575b600080fd5b60476067565b60408051918252519081900360200190f35b605f606d565b005b605f6078565b60005481565b600080546001019055565b60005b600054811015609157608a606d565b600101607b565b5056fea26469706673582212205840c4aba08c82df77715f0ca17b3aafb1be20ec7600a0487a3c3736a5c26aaa64736f6c634300060c0033",
  "bytecodeSha1": "cfaadeecd6d5fbfe5c5f55ebfefddebdaaecd4cc",
  "compiler": {
    "evm_version": "istanbul",
    "optimizer": {
      "enabled": true,
      "runs": 200
    },
    "version": "0.6.12+commit.27d51765"
  },
  "contractName": "loops63",
  "language": "Solidity",
  "natspec": {
    "kind": "dev",
    "methods": {},
    "version": 1
  },
  "opcodes": "PUSH1 0x80 PUSH1 0x40 MSTORE CALLVALUE DUP1 ISZERO PUSH1 0xF JUMPI PUSH1 0x0 DUP1 REVERT JUMPDEST POP PUSH1 0x4 CALLDATASIZE LT PUSH1 0x3C JUMPI PUSH1 0x0 CALLDATALOAD PUSH1 0xE0 SHR DUP1 PUSH4 0x6661ABD EQ PUSH1 0x41 JUMPI DUP1 PUSH4 0x5B34B966 EQ PUSH1 0x59 JUMPI DUP1 PUSH4 0xFD192820 EQ PUSH1 0x61 JUMPI JUMPDEST PUSH1 0x0 DUP1 REVERT JUMPDEST PUSH1 0x47 PUSH1 0x67 JUMP JUMPDEST PUSH1 0x40 DUP1 MLOAD SWAP2 DUP3 MSTORE MLOAD SWAP1 DUP2 SWAP1 SUB PUSH1 0x20 ADD SWAP1 RETURN JUMPDEST PUSH1 0x5F PUSH1 0x6D JUMP JUMPDEST STOP JUMPDEST PUSH1 0x5F PUSH1 0x78 JUMP JUMPDEST PUSH1 0x0 SLOAD DUP2 JUMP JUMPDEST PUSH1 0x0 DUP1 SLOAD PUSH1 0x1 ADD SWAP1 SSTORE JUMP JUMPDEST PUSH1 0x0 JUMPDEST PUSH1 0x0 SLOAD DUP2 LT ISZERO PUSH1 0x91 JUMPI PUSH1 0x8A PUSH1 0x6D JUMP JUMPDEST PUSH1 0x1 ADD PUSH1 0x7B JUMP JUMPDEST POP JUMP INVALID LOG2 PUSH5 0x6970667358 0x22 SLT KECCAK256 PC BLOCKHASH 0xC4 0xAB LOG0 DUP13 DUP3 0xDF PUSH24 0x715F0CA17B3AAFB1BE20EC7600A0487A3C3736A5C26AAA64 PUSH20 0x6F6C634300060C00330000000000000000000000 ",
  "sha1": "ebfbb31c4fa04da6ad7639f4574891cd73991cae",
  "source": "pragma solidity ^0.6.3;\n\ncontract loops63 {\n    uint256 public count;\n\n    constructor() public {\n        count = 0;\n    }\n\n    function incrementCounter() public {\n        count++;\n    }\n\n    function loopCounter() public {\n        for (uint256 i = 0; i < count; i++) {\n            incrementCounter();\n        }\n    }\n\n}",
  "sourcePath": "contracts/verifiable_contracts_gpt/Loops63.sol",
  "type": "contract"
}