{
  "abi": [
    {
      "inputs": [],
      "payable": false,
      "stateMutability": "nonpayable",
      "type": "constructor"
    },
    {
      "constant": true,
      "inputs": [],
      "name": "count",
      "outputs": [
        {
          "internalType": "uint256",
          "name": "",
          "type": "uint256"
        }
      ],
      "payable": false,
      "stateMutability": "view",
      "type": "function"
    },
    {
      "constant": false,
      "inputs": [],
      "name": "loop",
      "outputs": [],
      "payable": false,
      "stateMutability": "nonpayable",
      "type": "function"
    }
  ],
  "bytecode": "608060405234801561001057600080fd5b506000805560b1806100236000396000f3fe6080604052348015600f57600080fd5b506004361060325760003560e01c806306661abd146037578063a92100cb14604f575b600080fd5b603d6057565b60408051918252519081900360200190f35b6055605d565b005b60005481565b60005b600a811015607957600080546001908101909155016060565b5056fea265627a7a723158206d0207673119d1f5abff5991f717fe581e70f0d2a0fa75d5ba321b8ea00fa54e64736f6c63430005110032",
  "bytecodeSha1": "4a8fbcd52feb3eac6431187f1a3dc43e4491323f",
  "compiler": {
    "evm_version": "istanbul",
    "optimizer": {
      "enabled": true,
      "runs": 200
    },
    "version": "0.5.17+commit.d19bba13"
  },
  "contractName": "loops41",
  "language": "Solidity",
  "natspec": {
    "methods": {}
  },
  "opcodes": "PUSH1 0x80 PUSH1 0x40 MSTORE CALLVALUE DUP1 ISZERO PUSH1 0xF JUMPI PUSH1 0x0 DUP1 REVERT JUMPDEST POP PUSH1 0x4 CALLDATASIZE LT PUSH1 0x32 JUMPI PUSH1 0x0 CALLDATALOAD PUSH1 0xE0 SHR DUP1 PUSH4 0x6661ABD EQ PUSH1 0x37 JUMPI DUP1 PUSH4 0xA92100CB EQ PUSH1 0x4F JUMPI JUMPDEST PUSH1 0x0 DUP1 REVERT JUMPDEST PUSH1 0x3D PUSH1 0x57 JUMP JUMPDEST PUSH1 0x40 DUP1 MLOAD SWAP2 DUP3 MSTORE MLOAD SWAP1 DUP2 SWAP1 SUB PUSH1 0x20 ADD SWAP1 RETURN JUMPDEST PUSH1 0x55 PUSH1 0x5D JUMP JUMPDEST STOP JUMPDEST PUSH1 0x0 SLOAD DUP2 JUMP JUMPDEST PUSH1 0x0 JUMPDEST PUSH1 0xA DUP2 LT ISZERO PUSH1 0x79 JUMPI PUSH1 0x0 DUP1 SLOAD PUSH1 0x1 SWAP1 DUP2 ADD SWAP1 SWAP2 SSTORE ADD PUSH1 0x60 JUMP JUMPDEST POP JUMP INVALID LOG2 PUSH6 0x627A7A723158 KECCAK256 PUSH14 0x207673119D1F5ABFF5991F717FE PC 0x1E PUSH17 0xF0D2A0FA75D5BA321B8EA00FA54E64736F PUSH13 0x63430005110032000000000000 ",
  "sha1": "001f4a50a3b7831ce03040a5c8e68db43914c8b6",
  "source": "pragma solidity ^0.5.0;\n\ncontract loops41 {\n    uint256 public count;\n\n    constructor() public {\n        count = 0;\n    }\n\n    function loop() public {\n        for (uint256 i = 0; i < 10; i++) {\n            count++;\n        }\n    }\n}",
  "sourcePath": "contracts/unOptimized_contracts/Loops41.sol",
  "type": "contract"
}