{
  "abi": [
    {
      "constant": false,
      "inputs": [],
      "name": "loopPattern",
      "outputs": [],
      "payable": false,
      "stateMutability": "nonpayable",
      "type": "function"
    }
  ],
  "bytecode": "6080604052348015600f57600080fd5b50607f8061001e6000396000f3fe6080604052348015600f57600080fd5b506004361060285760003560e01c8063b775c05014602d575b600080fd5b60336035565b005b60005b600a8110156047576001016038565b5056fea265627a7a72315820d578d62595da1b7e97f9150d85d131beda9daa19ffca538dfb311c21ded16aea64736f6c63430005110032",
  "bytecodeSha1": "4c7b6f719c0aa1308dbe304662d2a04575ded4e2",
  "compiler": {
    "evm_version": "istanbul",
    "optimizer": {
      "enabled": true,
      "runs": 200
    },
    "version": "0.5.17+commit.d19bba13"
  },
  "contractName": "loops4",
  "language": "Solidity",
  "natspec": {
    "methods": {}
  },
  "opcodes": "PUSH1 0x80 PUSH1 0x40 MSTORE CALLVALUE DUP1 ISZERO PUSH1 0xF JUMPI PUSH1 0x0 DUP1 REVERT JUMPDEST POP PUSH1 0x4 CALLDATASIZE LT PUSH1 0x28 JUMPI PUSH1 0x0 CALLDATALOAD PUSH1 0xE0 SHR DUP1 PUSH4 0xB775C050 EQ PUSH1 0x2D JUMPI JUMPDEST PUSH1 0x0 DUP1 REVERT JUMPDEST PUSH1 0x33 PUSH1 0x35 JUMP JUMPDEST STOP JUMPDEST PUSH1 0x0 JUMPDEST PUSH1 0xA DUP2 LT ISZERO PUSH1 0x47 JUMPI PUSH1 0x1 ADD PUSH1 0x38 JUMP JUMPDEST POP JUMP INVALID LOG2 PUSH6 0x627A7A723158 KECCAK256 0xD5 PUSH25 0xD62595DA1B7E97F9150D85D131BEDA9DAA19FFCA538DFB311C 0x21 0xDE 0xD1 PUSH11 0xEA64736F6C634300051100 ORIGIN ",
  "sha1": "c4912f4ea1c313c6db630902c4d4c0fb589dd901",
  "source": "pragma solidity ^0.5.0;\n\ncontract loops4 {\n\n    // The loop pattern\n    function loopPattern() public {\n        uint256 i;\n\n        // Loop from 0 to 9\n        for(i = 0; i < 10; i++) {\n            // Do something with i\n        }\n    }\n}",
  "sourcePath": "contracts/unOptimized_contracts/Loops4.sol",
  "type": "contract"
}