{
  "abi": [
    {
      "inputs": [],
      "payable": false,
      "stateMutability": "nonpayable",
      "type": "constructor"
    },
    {
      "constant": true,
      "inputs": [],
      "name": "counter",
      "outputs": [
        {
          "internalType": "uint256",
          "name": "",
          "type": "uint256"
        }
      ],
      "payable": false,
      "stateMutability": "view",
      "type": "function"
    },
    {
      "constant": false,
      "inputs": [],
      "name": "loopPattern",
      "outputs": [],
      "payable": false,
      "stateMutability": "nonpayable",
      "type": "function"
    }
  ],
  "bytecode": "608060405234801561001057600080fd5b506000805560b1806100236000396000f3fe6080604052348015600f57600080fd5b506004361060325760003560e01c806361bc221a146037578063b775c05014604f575b600080fd5b603d6057565b60408051918252519081900360200190f35b6055605d565b005b60005481565b60005b600a811015607957600080546001908101909155016060565b5056fea265627a7a7231582098e8a88b91f5278891effb89e2804b0a5286492a7204a9bb4f2a6f62814b600064736f6c63430005110032",
  "bytecodeSha1": "7a94d7241aed7facce18b2dcea67357ef045b166",
  "compiler": {
    "evm_version": "istanbul",
    "optimizer": {
      "enabled": true,
      "runs": 200
    },
    "version": "0.5.17+commit.d19bba13"
  },
  "contractName": "loops19",
  "language": "Solidity",
  "natspec": {
    "methods": {}
  },
  "opcodes": "PUSH1 0x80 PUSH1 0x40 MSTORE CALLVALUE DUP1 ISZERO PUSH1 0xF JUMPI PUSH1 0x0 DUP1 REVERT JUMPDEST POP PUSH1 0x4 CALLDATASIZE LT PUSH1 0x32 JUMPI PUSH1 0x0 CALLDATALOAD PUSH1 0xE0 SHR DUP1 PUSH4 0x61BC221A EQ PUSH1 0x37 JUMPI DUP1 PUSH4 0xB775C050 EQ PUSH1 0x4F JUMPI JUMPDEST PUSH1 0x0 DUP1 REVERT JUMPDEST PUSH1 0x3D PUSH1 0x57 JUMP JUMPDEST PUSH1 0x40 DUP1 MLOAD SWAP2 DUP3 MSTORE MLOAD SWAP1 DUP2 SWAP1 SUB PUSH1 0x20 ADD SWAP1 RETURN JUMPDEST PUSH1 0x55 PUSH1 0x5D JUMP JUMPDEST STOP JUMPDEST PUSH1 0x0 SLOAD DUP2 JUMP JUMPDEST PUSH1 0x0 JUMPDEST PUSH1 0xA DUP2 LT ISZERO PUSH1 0x79 JUMPI PUSH1 0x0 DUP1 SLOAD PUSH1 0x1 SWAP1 DUP2 ADD SWAP1 SWAP2 SSTORE ADD PUSH1 0x60 JUMP JUMPDEST POP JUMP INVALID LOG2 PUSH6 0x627A7A723158 KECCAK256 SWAP9 0xE8 0xA8 DUP12 SWAP2 CREATE2 0x27 DUP9 SWAP2 0xEF 0xFB DUP10 0xE2 DUP1 0x4B EXP MSTORE DUP7 0x49 0x2A PUSH19 0x4A9BB4F2A6F62814B600064736F6C63430005 GT STOP ORIGIN ",
  "sha1": "7288d7cb88d53c6f3cd58dce9c2044403610991b",
  "source": "pragma solidity ^0.5.0;\n\ncontract loops19 {\n    \n    // storage variables\n    uint256 public counter;\n    \n    // constructor\n    constructor() public {\n        counter = 0;\n    }\n    \n    // loop based pattern\n    function loopPattern() public {\n        for (uint i = 0; i < 10; i++) {\n            counter++;\n        }\n    }\n}",
  "sourcePath": "contracts/verifiable_contracts_gpt/Loops19.sol",
  "type": "contract"
}