{
  "abi": [
    {
      "inputs": [],
      "payable": false,
      "stateMutability": "nonpayable",
      "type": "constructor"
    },
    {
      "constant": true,
      "inputs": [],
      "name": "counter",
      "outputs": [
        {
          "internalType": "uint256",
          "name": "",
          "type": "uint256"
        }
      ],
      "payable": false,
      "stateMutability": "view",
      "type": "function"
    },
    {
      "constant": false,
      "inputs": [],
      "name": "looping",
      "outputs": [],
      "payable": false,
      "stateMutability": "nonpayable",
      "type": "function"
    }
  ],
  "bytecode": "608060405234801561001057600080fd5b506000805560b1806100236000396000f3fe6080604052348015600f57600080fd5b506004361060325760003560e01c8063434e405914603757806361bc221a14603f575b600080fd5b603d6057565b005b60456076565b60408051918252519081900360200190f35b60005b600a81101560735760008054600190810190915501605a565b50565b6000548156fea265627a7a72315820cc13aca78cca2d31c4c31b4c8bbbbff05056a67a4ed0bc815571a2c3075b150464736f6c63430005110032",
  "bytecodeSha1": "1ee6ebaf8d672cd8e6a99214404987e238881cb4",
  "compiler": {
    "evm_version": "istanbul",
    "optimizer": {
      "enabled": true,
      "runs": 200
    },
    "version": "0.5.17+commit.d19bba13"
  },
  "contractName": "loops54",
  "language": "Solidity",
  "natspec": {
    "methods": {}
  },
  "opcodes": "PUSH1 0x80 PUSH1 0x40 MSTORE CALLVALUE DUP1 ISZERO PUSH1 0xF JUMPI PUSH1 0x0 DUP1 REVERT JUMPDEST POP PUSH1 0x4 CALLDATASIZE LT PUSH1 0x32 JUMPI PUSH1 0x0 CALLDATALOAD PUSH1 0xE0 SHR DUP1 PUSH4 0x434E4059 EQ PUSH1 0x37 JUMPI DUP1 PUSH4 0x61BC221A EQ PUSH1 0x3F JUMPI JUMPDEST PUSH1 0x0 DUP1 REVERT JUMPDEST PUSH1 0x3D PUSH1 0x57 JUMP JUMPDEST STOP JUMPDEST PUSH1 0x45 PUSH1 0x76 JUMP JUMPDEST PUSH1 0x40 DUP1 MLOAD SWAP2 DUP3 MSTORE MLOAD SWAP1 DUP2 SWAP1 SUB PUSH1 0x20 ADD SWAP1 RETURN JUMPDEST PUSH1 0x0 JUMPDEST PUSH1 0xA DUP2 LT ISZERO PUSH1 0x73 JUMPI PUSH1 0x0 DUP1 SLOAD PUSH1 0x1 SWAP1 DUP2 ADD SWAP1 SWAP2 SSTORE ADD PUSH1 0x5A JUMP JUMPDEST POP JUMP JUMPDEST PUSH1 0x0 SLOAD DUP2 JUMP INVALID LOG2 PUSH6 0x627A7A723158 KECCAK256 0xCC SGT 0xAC 0xA7 DUP13 0xCA 0x2D BALANCE 0xC4 0xC3 SHL 0x4C DUP12 0xBB 0xBF CREATE POP JUMP 0xA6 PUSH27 0x4ED0BC815571A2C3075B150464736F6C6343000511003200000000 ",
  "sha1": "6a609cf6f1b80f313d37d4dc7d85152e3d776c11",
  "source": "pragma solidity ^0.5.0;\n\ncontract loops54 {\n    uint256 public counter;\n\n    constructor() public {\n        counter = 0;\n    }\n\n    function looping() public {\n        for (uint256 i = 0; i < 10; i++) {\n            counter++;\n        }\n    }\n}",
  "sourcePath": "contracts/unOptimized_contracts/Loops54.sol",
  "type": "contract"
}