{
  "abi": [
    {
      "constant": false,
      "inputs": [],
      "name": "loop75",
      "outputs": [],
      "payable": false,
      "stateMutability": "nonpayable",
      "type": "function"
    },
    {
      "constant": true,
      "inputs": [],
      "name": "total",
      "outputs": [
        {
          "internalType": "uint256",
          "name": "",
          "type": "uint256"
        }
      ],
      "payable": false,
      "stateMutability": "view",
      "type": "function"
    }
  ],
  "bytecode": "608060405234801561001057600080fd5b5060b28061001f6000396000f3fe6080604052348015600f57600080fd5b506004361060325760003560e01c80632ddbd13a1460375780638b2c62a114604f575b600080fd5b603d6057565b60408051918252519081900360200190f35b6055605d565b005b60005481565b60008080555b604b811015607a5760008054820190556001016063565b5056fea265627a7a7231582021a2d2e845aa045fbaf0d2ddbe6abaa780edde3c92d29bba4c37ec403ad1646764736f6c63430005110032",
  "bytecodeSha1": "4f389c2c27572daf69b60d0363bb44c022b7196f",
  "compiler": {
    "evm_version": "istanbul",
    "optimizer": {
      "enabled": true,
      "runs": 200
    },
    "version": "0.5.17+commit.d19bba13"
  },
  "contractName": "loops75",
  "language": "Solidity",
  "natspec": {
    "methods": {}
  },
  "opcodes": "PUSH1 0x80 PUSH1 0x40 MSTORE CALLVALUE DUP1 ISZERO PUSH1 0xF JUMPI PUSH1 0x0 DUP1 REVERT JUMPDEST POP PUSH1 0x4 CALLDATASIZE LT PUSH1 0x32 JUMPI PUSH1 0x0 CALLDATALOAD PUSH1 0xE0 SHR DUP1 PUSH4 0x2DDBD13A EQ PUSH1 0x37 JUMPI DUP1 PUSH4 0x8B2C62A1 EQ PUSH1 0x4F JUMPI JUMPDEST PUSH1 0x0 DUP1 REVERT JUMPDEST PUSH1 0x3D PUSH1 0x57 JUMP JUMPDEST PUSH1 0x40 DUP1 MLOAD SWAP2 DUP3 MSTORE MLOAD SWAP1 DUP2 SWAP1 SUB PUSH1 0x20 ADD SWAP1 RETURN JUMPDEST PUSH1 0x55 PUSH1 0x5D JUMP JUMPDEST STOP JUMPDEST PUSH1 0x0 SLOAD DUP2 JUMP JUMPDEST PUSH1 0x0 DUP1 DUP1 SSTORE JUMPDEST PUSH1 0x4B DUP2 LT ISZERO PUSH1 0x7A JUMPI PUSH1 0x0 DUP1 SLOAD DUP3 ADD SWAP1 SSTORE PUSH1 0x1 ADD PUSH1 0x63 JUMP JUMPDEST POP JUMP INVALID LOG2 PUSH6 0x627A7A723158 KECCAK256 0x21 LOG2 0xD2 0xE8 GASLIMIT 0xAA DIV 0x5F 0xBA CREATE 0xD2 0xDD 0xBE PUSH11 0xBAA780EDDE3C92D29BBA4C CALLDATACOPY 0xEC BLOCKHASH GASPRICE 0xD1 PUSH5 0x6764736F6C PUSH4 0x43000511 STOP ORIGIN ",
  "sha1": "c4e518117cdbf0f1e05bcb0127068c00692d98ea",
  "source": "pragma solidity ^0.5.0;\n\ncontract loops75 {\n    uint256 public total;\n\n    function loop75() public {\n        total = 0;\n        for (uint256 i = 0; i < 75; i++) {\n            total += i;\n        }\n    }\n}",
  "sourcePath": "contracts/verifiable_contracts_gpt/Loops75.sol",
  "type": "contract"
}