{
  "abi": [
    {
      "constant": true,
      "inputs": [],
      "name": "getTotal",
      "outputs": [
        {
          "internalType": "uint256",
          "name": "",
          "type": "uint256"
        }
      ],
      "payable": false,
      "stateMutability": "view",
      "type": "function"
    },
    {
      "constant": false,
      "inputs": [],
      "name": "loop95",
      "outputs": [],
      "payable": false,
      "stateMutability": "nonpayable",
      "type": "function"
    },
    {
      "constant": true,
      "inputs": [],
      "name": "total",
      "outputs": [
        {
          "internalType": "uint256",
          "name": "",
          "type": "uint256"
        }
      ],
      "payable": false,
      "stateMutability": "view",
      "type": "function"
    }
  ],
  "bytecode": "608060405234801561001057600080fd5b5060c88061001f6000396000f3fe6080604052348015600f57600080fd5b5060043610603c5760003560e01c80632ddbd13a146041578063775a25e3146059578063848c8aed14605f575b600080fd5b60476067565b60408051918252519081900360200190f35b6047606d565b60656073565b005b60005481565b60005490565b60008080555b605f81101560905760008054820190556001016079565b5056fea265627a7a72315820ec500ea83c8243ad2293476d57b0cff2210a18bcb6ec39aaa78e78322f3c584c64736f6c63430005110032",
  "bytecodeSha1": "8869fa24e66bcef202cba0fc7409f866a04a56d1",
  "compiler": {
    "evm_version": "istanbul",
    "optimizer": {
      "enabled": true,
      "runs": 200
    },
    "version": "0.5.17+commit.d19bba13"
  },
  "contractName": "loops95",
  "language": "Solidity",
  "natspec": {
    "methods": {}
  },
  "opcodes": "PUSH1 0x80 PUSH1 0x40 MSTORE CALLVALUE DUP1 ISZERO PUSH1 0xF JUMPI PUSH1 0x0 DUP1 REVERT JUMPDEST POP PUSH1 0x4 CALLDATASIZE LT PUSH1 0x3C JUMPI PUSH1 0x0 CALLDATALOAD PUSH1 0xE0 SHR DUP1 PUSH4 0x2DDBD13A EQ PUSH1 0x41 JUMPI DUP1 PUSH4 0x775A25E3 EQ PUSH1 0x59 JUMPI DUP1 PUSH4 0x848C8AED EQ PUSH1 0x5F JUMPI JUMPDEST PUSH1 0x0 DUP1 REVERT JUMPDEST PUSH1 0x47 PUSH1 0x67 JUMP JUMPDEST PUSH1 0x40 DUP1 MLOAD SWAP2 DUP3 MSTORE MLOAD SWAP1 DUP2 SWAP1 SUB PUSH1 0x20 ADD SWAP1 RETURN JUMPDEST PUSH1 0x47 PUSH1 0x6D JUMP JUMPDEST PUSH1 0x65 PUSH1 0x73 JUMP JUMPDEST STOP JUMPDEST PUSH1 0x0 SLOAD DUP2 JUMP JUMPDEST PUSH1 0x0 SLOAD SWAP1 JUMP JUMPDEST PUSH1 0x0 DUP1 DUP1 SSTORE JUMPDEST PUSH1 0x5F DUP2 LT ISZERO PUSH1 0x90 JUMPI PUSH1 0x0 DUP1 SLOAD DUP3 ADD SWAP1 SSTORE PUSH1 0x1 ADD PUSH1 0x79 JUMP JUMPDEST POP JUMP INVALID LOG2 PUSH6 0x627A7A723158 KECCAK256 0xEC POP 0xE 0xA8 EXTCODECOPY DUP3 NUMBER 0xAD 0x22 SWAP4 SELFBALANCE PUSH14 0x57B0CFF2210A18BCB6EC39AAA78E PUSH25 0x322F3C584C64736F6C63430005110032000000000000000000 ",
  "sha1": "75645c33b652795cb36fbd71a1c32cd334201ecf",
  "source": "pragma solidity ^0.5.0;\n\ncontract loops95 {\n    uint public total;\n    \n    function loop95() public {\n        total = 0;\n        for(uint i = 0; i < 95; i++) {\n            total += i;\n        }\n    }\n    \n    function getTotal() public view returns (uint) {\n        return total;\n    }\n}",
  "sourcePath": "contracts/unOptimized_contracts/Loops95.sol",
  "type": "contract"
}