{
  "abi": [
    {
      "constant": true,
      "inputs": [],
      "name": "count",
      "outputs": [
        {
          "internalType": "uint256",
          "name": "",
          "type": "uint256"
        }
      ],
      "payable": false,
      "stateMutability": "view",
      "type": "function"
    },
    {
      "constant": false,
      "inputs": [],
      "name": "increment",
      "outputs": [],
      "payable": false,
      "stateMutability": "nonpayable",
      "type": "function"
    },
    {
      "constant": false,
      "inputs": [],
      "name": "loopPattern",
      "outputs": [],
      "payable": false,
      "stateMutability": "nonpayable",
      "type": "function"
    }
  ],
  "bytecode": "608060405234801561001057600080fd5b5060c88061001f6000396000f3fe6080604052348015600f57600080fd5b5060043610603c5760003560e01c806306661abd146041578063b775c050146059578063d09de08a146061575b600080fd5b60476067565b60408051918252519081900360200190f35b605f606d565b005b605f6088565b60005481565b60005b600a811015608557607e6088565b6001016070565b50565b60008054600101905556fea265627a7a7231582082f6a3e5cc1cd955a008d864ce0f414632f1821ade6635c4560e9e19690f0e6664736f6c63430005110032",
  "bytecodeSha1": "33e8ea779519346e1d3a44ecb47f06761cc5a36a",
  "compiler": {
    "evm_version": "istanbul",
    "optimizer": {
      "enabled": true,
      "runs": 200
    },
    "version": "0.5.17+commit.d19bba13"
  },
  "contractName": "loops22",
  "language": "Solidity",
  "natspec": {
    "methods": {}
  },
  "opcodes": "PUSH1 0x80 PUSH1 0x40 MSTORE CALLVALUE DUP1 ISZERO PUSH1 0xF JUMPI PUSH1 0x0 DUP1 REVERT JUMPDEST POP PUSH1 0x4 CALLDATASIZE LT PUSH1 0x3C JUMPI PUSH1 0x0 CALLDATALOAD PUSH1 0xE0 SHR DUP1 PUSH4 0x6661ABD EQ PUSH1 0x41 JUMPI DUP1 PUSH4 0xB775C050 EQ PUSH1 0x59 JUMPI DUP1 PUSH4 0xD09DE08A EQ PUSH1 0x61 JUMPI JUMPDEST PUSH1 0x0 DUP1 REVERT JUMPDEST PUSH1 0x47 PUSH1 0x67 JUMP JUMPDEST PUSH1 0x40 DUP1 MLOAD SWAP2 DUP3 MSTORE MLOAD SWAP1 DUP2 SWAP1 SUB PUSH1 0x20 ADD SWAP1 RETURN JUMPDEST PUSH1 0x5F PUSH1 0x6D JUMP JUMPDEST STOP JUMPDEST PUSH1 0x5F PUSH1 0x88 JUMP JUMPDEST PUSH1 0x0 SLOAD DUP2 JUMP JUMPDEST PUSH1 0x0 JUMPDEST PUSH1 0xA DUP2 LT ISZERO PUSH1 0x85 JUMPI PUSH1 0x7E PUSH1 0x88 JUMP JUMPDEST PUSH1 0x1 ADD PUSH1 0x70 JUMP JUMPDEST POP JUMP JUMPDEST PUSH1 0x0 DUP1 SLOAD PUSH1 0x1 ADD SWAP1 SSTORE JUMP INVALID LOG2 PUSH6 0x627A7A723158 KECCAK256 DUP3 0xF6 LOG3 0xE5 0xCC SHR 0xD9 SSTORE LOG0 ADDMOD 0xD8 PUSH5 0xCE0F414632 CALL DUP3 BYTE 0xDE PUSH7 0x35C4560E9E1969 0xF 0xE PUSH7 0x64736F6C634300 SDIV GT STOP ORIGIN ",
  "sha1": "ed20c633c0433a993eddc7bcce7d9d0a2e5ec139",
  "source": "pragma solidity ^0.5.0;\n\ncontract loops22 {\n\n    uint256 public count;\n\n    function increment() public {\n        count += 1;\n    }\n\n    function loopPattern() public {\n        for (uint256 i = 0; i < 10; i++) {\n            increment();\n        }\n    }\n\n}",
  "sourcePath": "contracts/unOptimized_contracts/Loops22.sol",
  "type": "contract"
}