{
  "abi": [
    {
      "constant": false,
      "inputs": [],
      "name": "loopPattern",
      "outputs": [],
      "payable": false,
      "stateMutability": "nonpayable",
      "type": "function"
    }
  ],
  "bytecode": "6080604052348015600f57600080fd5b5060a58061001e6000396000f3fe6080604052348015600f57600080fd5b506004361060285760003560e01c8063b775c05014602d575b600080fd5b60336035565b005b60005b601b811015606d5760005b601b81101560655760005b601b811015605d57600101604e565b506001016043565b506001016038565b5056fea265627a7a7231582006900558739ac64e789076c1dd458fb986a5a6eb5714563bc12efafcba5898d264736f6c63430005110032",
  "bytecodeSha1": "c008ee581a6082d3cc4cee224e8c2920330c2ac8",
  "compiler": {
    "evm_version": "istanbul",
    "optimizer": {
      "enabled": true,
      "runs": 200
    },
    "version": "0.5.17+commit.d19bba13"
  },
  "contractName": "loops27",
  "language": "Solidity",
  "natspec": {
    "methods": {}
  },
  "opcodes": "PUSH1 0x80 PUSH1 0x40 MSTORE CALLVALUE DUP1 ISZERO PUSH1 0xF JUMPI PUSH1 0x0 DUP1 REVERT JUMPDEST POP PUSH1 0x4 CALLDATASIZE LT PUSH1 0x28 JUMPI PUSH1 0x0 CALLDATALOAD PUSH1 0xE0 SHR DUP1 PUSH4 0xB775C050 EQ PUSH1 0x2D JUMPI JUMPDEST PUSH1 0x0 DUP1 REVERT JUMPDEST PUSH1 0x33 PUSH1 0x35 JUMP JUMPDEST STOP JUMPDEST PUSH1 0x0 JUMPDEST PUSH1 0x1B DUP2 LT ISZERO PUSH1 0x6D JUMPI PUSH1 0x0 JUMPDEST PUSH1 0x1B DUP2 LT ISZERO PUSH1 0x65 JUMPI PUSH1 0x0 JUMPDEST PUSH1 0x1B DUP2 LT ISZERO PUSH1 0x5D JUMPI PUSH1 0x1 ADD PUSH1 0x4E JUMP JUMPDEST POP PUSH1 0x1 ADD PUSH1 0x43 JUMP JUMPDEST POP PUSH1 0x1 ADD PUSH1 0x38 JUMP JUMPDEST POP JUMP INVALID LOG2 PUSH6 0x627A7A723158 KECCAK256 MOD SWAP1 SDIV PC PUSH20 0x9AC64E789076C1DD458FB986A5A6EB5714563BC1 0x2E STATICCALL 0xFC 0xBA PC SWAP9 0xD2 PUSH5 0x736F6C6343 STOP SDIV GT STOP ORIGIN ",
  "sha1": "83f02db3dc5489c9dcde6a96d434708f5ca7904a",
  "source": "pragma solidity ^0.5.0;\n\ncontract loops27 {\n    \n    //Loop based pattern\n    function loopPattern() public {\n        for (uint i = 0; i < 27; i++) {\n            for (uint j = 0; j < 27; j++) {\n                for (uint k = 0; k < 27; k++) {\n                    //Do something\n                }\n            }\n        }\n    }\n}",
  "sourcePath": "contracts/verifiable_contracts_gpt/Loops27.sol",
  "type": "contract"
}