{
  "abi": [
    {
      "inputs": [],
      "payable": false,
      "stateMutability": "nonpayable",
      "type": "constructor"
    },
    {
      "constant": true,
      "inputs": [],
      "name": "count",
      "outputs": [
        {
          "internalType": "uint256",
          "name": "",
          "type": "uint256"
        }
      ],
      "payable": false,
      "stateMutability": "view",
      "type": "function"
    },
    {
      "constant": false,
      "inputs": [],
      "name": "increaseCount",
      "outputs": [],
      "payable": false,
      "stateMutability": "nonpayable",
      "type": "function"
    }
  ],
  "bytecode": "608060405234801561001057600080fd5b506000805560b1806100236000396000f3fe6080604052348015600f57600080fd5b506004361060325760003560e01c806306661abd146037578063abd1b73d14604f575b600080fd5b603d6057565b60408051918252519081900360200190f35b6055605d565b005b60005481565b60005b6033811015607957600080546001908101909155016060565b5056fea265627a7a72315820d5471894d8f7c43e6325647151228e735759a589ed9cbf1bc73aac8bc6174dd264736f6c63430005110032",
  "bytecodeSha1": "ebcb18832e3ff47ed181f181489604e8f796bdfd",
  "compiler": {
    "evm_version": "istanbul",
    "optimizer": {
      "enabled": true,
      "runs": 200
    },
    "version": "0.5.17+commit.d19bba13"
  },
  "contractName": "loops51",
  "language": "Solidity",
  "natspec": {
    "methods": {}
  },
  "opcodes": "PUSH1 0x80 PUSH1 0x40 MSTORE CALLVALUE DUP1 ISZERO PUSH1 0xF JUMPI PUSH1 0x0 DUP1 REVERT JUMPDEST POP PUSH1 0x4 CALLDATASIZE LT PUSH1 0x32 JUMPI PUSH1 0x0 CALLDATALOAD PUSH1 0xE0 SHR DUP1 PUSH4 0x6661ABD EQ PUSH1 0x37 JUMPI DUP1 PUSH4 0xABD1B73D EQ PUSH1 0x4F JUMPI JUMPDEST PUSH1 0x0 DUP1 REVERT JUMPDEST PUSH1 0x3D PUSH1 0x57 JUMP JUMPDEST PUSH1 0x40 DUP1 MLOAD SWAP2 DUP3 MSTORE MLOAD SWAP1 DUP2 SWAP1 SUB PUSH1 0x20 ADD SWAP1 RETURN JUMPDEST PUSH1 0x55 PUSH1 0x5D JUMP JUMPDEST STOP JUMPDEST PUSH1 0x0 SLOAD DUP2 JUMP JUMPDEST PUSH1 0x0 JUMPDEST PUSH1 0x33 DUP2 LT ISZERO PUSH1 0x79 JUMPI PUSH1 0x0 DUP1 SLOAD PUSH1 0x1 SWAP1 DUP2 ADD SWAP1 SWAP2 SSTORE ADD PUSH1 0x60 JUMP JUMPDEST POP JUMP INVALID LOG2 PUSH6 0x627A7A723158 KECCAK256 0xD5 SELFBALANCE XOR SWAP5 0xD8 0xF7 0xC4 RETURNDATACOPY PUSH4 0x25647151 0x22 DUP15 PUSH20 0x5759A589ED9CBF1BC73AAC8BC6174DD264736F6C PUSH4 0x43000511 STOP ORIGIN ",
  "sha1": "a8e3372fad354df74d840faf7c2a6d9f59f0ebf5",
  "source": "pragma solidity ^0.5.1;\n\ncontract loops51 {\n    //Define the state variable\n    uint public count;\n    \n    //Constructor\n    constructor() public {\n        count = 0;\n    }\n    \n    //Function to increase the count\n    function increaseCount() public {\n        for (uint i = 0; i < 51; i++) {\n            count++;\n        }\n    }\n}",
  "sourcePath": "contracts/verifiable_contracts_gpt/Loops51.sol",
  "type": "contract"
}