{
  "abi": [
    {
      "inputs": [],
      "payable": false,
      "stateMutability": "nonpayable",
      "type": "constructor"
    },
    {
      "constant": true,
      "inputs": [],
      "name": "count",
      "outputs": [
        {
          "internalType": "uint256",
          "name": "",
          "type": "uint256"
        }
      ],
      "payable": false,
      "stateMutability": "view",
      "type": "function"
    },
    {
      "constant": false,
      "inputs": [],
      "name": "loop37",
      "outputs": [],
      "payable": false,
      "stateMutability": "nonpayable",
      "type": "function"
    }
  ],
  "bytecode": "608060405234801561001057600080fd5b506000805560b0806100236000396000f3fe6080604052348015600f57600080fd5b506004361060325760003560e01c806306661abd14603757806344df241214604f575b600080fd5b603d6057565b60408051918252519081900360200190f35b6055605d565b005b60005481565b60015b60258111607857600080546001908101909155016060565b5056fea265627a7a72315820ac9930f4eabf61fa6506f52a058e69a7c8c33c0472afbfd65c3be82f4cdfc3b264736f6c63430005110032",
  "bytecodeSha1": "845a33506049e913e1b41e461d1bdf39fd9df6cf",
  "compiler": {
    "evm_version": "istanbul",
    "optimizer": {
      "enabled": true,
      "runs": 200
    },
    "version": "0.5.17+commit.d19bba13"
  },
  "contractName": "loops37",
  "language": "Solidity",
  "natspec": {
    "methods": {}
  },
  "opcodes": "PUSH1 0x80 PUSH1 0x40 MSTORE CALLVALUE DUP1 ISZERO PUSH1 0xF JUMPI PUSH1 0x0 DUP1 REVERT JUMPDEST POP PUSH1 0x4 CALLDATASIZE LT PUSH1 0x32 JUMPI PUSH1 0x0 CALLDATALOAD PUSH1 0xE0 SHR DUP1 PUSH4 0x6661ABD EQ PUSH1 0x37 JUMPI DUP1 PUSH4 0x44DF2412 EQ PUSH1 0x4F JUMPI JUMPDEST PUSH1 0x0 DUP1 REVERT JUMPDEST PUSH1 0x3D PUSH1 0x57 JUMP JUMPDEST PUSH1 0x40 DUP1 MLOAD SWAP2 DUP3 MSTORE MLOAD SWAP1 DUP2 SWAP1 SUB PUSH1 0x20 ADD SWAP1 RETURN JUMPDEST PUSH1 0x55 PUSH1 0x5D JUMP JUMPDEST STOP JUMPDEST PUSH1 0x0 SLOAD DUP2 JUMP JUMPDEST PUSH1 0x1 JUMPDEST PUSH1 0x25 DUP2 GT PUSH1 0x78 JUMPI PUSH1 0x0 DUP1 SLOAD PUSH1 0x1 SWAP1 DUP2 ADD SWAP1 SWAP2 SSTORE ADD PUSH1 0x60 JUMP JUMPDEST POP JUMP INVALID LOG2 PUSH6 0x627A7A723158 KECCAK256 0xAC SWAP10 ADDRESS DELEGATECALL 0xEA 0xBF PUSH2 0xFA65 MOD CREATE2 0x2A SDIV DUP15 PUSH10 0xA7C8C33C0472AFBFD65C EXTCODESIZE 0xE8 0x2F 0x4C 0xDF 0xC3 0xB2 PUSH5 0x736F6C6343 STOP SDIV GT STOP ORIGIN ",
  "sha1": "24e72fd61f40bd38f31710b50e3762d4ad4a8990",
  "source": "pragma solidity ^0.5.0;\n\ncontract loops37 {\n    uint public count;\n\n    constructor() public {\n        count = 0;\n    }\n\n    function loop37() public {\n        for (uint i=1; i<=37; i++) {\n            count++;\n        }\n    }\n}",
  "sourcePath": "contracts/unOptimized_contracts/Loops37.sol",
  "type": "contract"
}