{
  "abi": [
    {
      "inputs": [],
      "payable": false,
      "stateMutability": "nonpayable",
      "type": "constructor"
    },
    {
      "constant": true,
      "inputs": [],
      "name": "counter",
      "outputs": [
        {
          "internalType": "uint256",
          "name": "",
          "type": "uint256"
        }
      ],
      "payable": false,
      "stateMutability": "view",
      "type": "function"
    },
    {
      "constant": false,
      "inputs": [],
      "name": "loop1",
      "outputs": [],
      "payable": false,
      "stateMutability": "nonpayable",
      "type": "function"
    },
    {
      "constant": false,
      "inputs": [],
      "name": "loop2",
      "outputs": [],
      "payable": false,
      "stateMutability": "nonpayable",
      "type": "function"
    },
    {
      "constant": false,
      "inputs": [],
      "name": "loop3",
      "outputs": [],
      "payable": false,
      "stateMutability": "nonpayable",
      "type": "function"
    }
  ],
  "bytecode": "608060405234801561001057600080fd5b506000805561015c806100246000396000f3fe608060405234801561001057600080fd5b506004361061004c5760003560e01c806361bc221a146100515780639dfeea2b1461006b578063a89edd5914610075578063f5fb1bf81461007d575b600080fd5b610059610085565b60408051918252519081900360200190f35b61007361008b565b005b6100736100d6565b610073610109565b60005481565b60005b600a8110156100d35760005b600a8110156100ca5760005b600a8110156100c157600080546001908101909155016100a6565b5060010161009a565b5060010161008e565b50565b60005b600a8110156100d35760005b600a81101561010057600080546001908101909155016100e5565b506001016100d9565b60005b600a8110156100d3576000805460019081019091550161010c56fea265627a7a72315820c0603710977d2d299fa4b43dfb78a6f76f4534a5b8d23be96292f73f048ed51c64736f6c63430005110032",
  "bytecodeSha1": "3fd9db0c99fc0971ca4dff733e1056cd0b6bc9cc",
  "compiler": {
    "evm_version": "istanbul",
    "optimizer": {
      "enabled": true,
      "runs": 200
    },
    "version": "0.5.17+commit.d19bba13"
  },
  "contractName": "loops3",
  "language": "Solidity",
  "natspec": {
    "methods": {}
  },
  "opcodes": "PUSH1 0x80 PUSH1 0x40 MSTORE CALLVALUE DUP1 ISZERO PUSH2 0x10 JUMPI PUSH1 0x0 DUP1 REVERT JUMPDEST POP PUSH1 0x4 CALLDATASIZE LT PUSH2 0x4C JUMPI PUSH1 0x0 CALLDATALOAD PUSH1 0xE0 SHR DUP1 PUSH4 0x61BC221A EQ PUSH2 0x51 JUMPI DUP1 PUSH4 0x9DFEEA2B EQ PUSH2 0x6B JUMPI DUP1 PUSH4 0xA89EDD59 EQ PUSH2 0x75 JUMPI DUP1 PUSH4 0xF5FB1BF8 EQ PUSH2 0x7D JUMPI JUMPDEST PUSH1 0x0 DUP1 REVERT JUMPDEST PUSH2 0x59 PUSH2 0x85 JUMP JUMPDEST PUSH1 0x40 DUP1 MLOAD SWAP2 DUP3 MSTORE MLOAD SWAP1 DUP2 SWAP1 SUB PUSH1 0x20 ADD SWAP1 RETURN JUMPDEST PUSH2 0x73 PUSH2 0x8B JUMP JUMPDEST STOP JUMPDEST PUSH2 0x73 PUSH2 0xD6 JUMP JUMPDEST PUSH2 0x73 PUSH2 0x109 JUMP JUMPDEST PUSH1 0x0 SLOAD DUP2 JUMP JUMPDEST PUSH1 0x0 JUMPDEST PUSH1 0xA DUP2 LT ISZERO PUSH2 0xD3 JUMPI PUSH1 0x0 JUMPDEST PUSH1 0xA DUP2 LT ISZERO PUSH2 0xCA JUMPI PUSH1 0x0 JUMPDEST PUSH1 0xA DUP2 LT ISZERO PUSH2 0xC1 JUMPI PUSH1 0x0 DUP1 SLOAD PUSH1 0x1 SWAP1 DUP2 ADD SWAP1 SWAP2 SSTORE ADD PUSH2 0xA6 JUMP JUMPDEST POP PUSH1 0x1 ADD PUSH2 0x9A JUMP JUMPDEST POP PUSH1 0x1 ADD PUSH2 0x8E JUMP JUMPDEST POP JUMP JUMPDEST PUSH1 0x0 JUMPDEST PUSH1 0xA DUP2 LT ISZERO PUSH2 0xD3 JUMPI PUSH1 0x0 JUMPDEST PUSH1 0xA DUP2 LT ISZERO PUSH2 0x100 JUMPI PUSH1 0x0 DUP1 SLOAD PUSH1 0x1 SWAP1 DUP2 ADD SWAP1 SWAP2 SSTORE ADD PUSH2 0xE5 JUMP JUMPDEST POP PUSH1 0x1 ADD PUSH2 0xD9 JUMP JUMPDEST PUSH1 0x0 JUMPDEST PUSH1 0xA DUP2 LT ISZERO PUSH2 0xD3 JUMPI PUSH1 0x0 DUP1 SLOAD PUSH1 0x1 SWAP1 DUP2 ADD SWAP1 SWAP2 SSTORE ADD PUSH2 0x10C JUMP INVALID LOG2 PUSH6 0x627A7A723158 KECCAK256 0xC0 PUSH1 0x37 LT SWAP8 PUSH30 0x2D299FA4B43DFB78A6F76F4534A5B8D23BE96292F73F048ED51C64736F6C PUSH4 0x43000511 STOP ORIGIN ",
  "sha1": "aab89291310f654805ca8790701ad9345421230c",
  "source": "pragma solidity ^0.5.0;\n\ncontract loops3 {\n    uint256 public counter;\n    \n    constructor() public {\n        counter = 0;\n    }\n    \n    function loop1() public {\n        for (uint256 i = 0; i < 10; i++) {\n            counter++;\n        }\n    }\n    \n    function loop2() public {\n        for (uint256 j = 0; j < 10; j++) {\n            for (uint256 k = 0; k < 10; k++) {\n                counter++;\n            }\n        }\n    }\n    \n    function loop3() public {\n        for (uint256 l = 0; l < 10; l++) {\n            for (uint256 m = 0; m < 10; m++) {\n                for (uint256 n = 0; n < 10; n++) {\n                    counter++;\n                }\n            }\n        }\n    }\n}",
  "sourcePath": "contracts/verifiable_contracts_gpt/Loops3.sol",
  "type": "contract"
}