{
  "abi": [
    {
      "constant": true,
      "inputs": [],
      "name": "getLoopResult",
      "outputs": [
        {
          "internalType": "uint256",
          "name": "",
          "type": "uint256"
        }
      ],
      "payable": false,
      "stateMutability": "view",
      "type": "function"
    },
    {
      "constant": false,
      "inputs": [],
      "name": "startLoop",
      "outputs": [],
      "payable": false,
      "stateMutability": "nonpayable",
      "type": "function"
    }
  ],
  "bytecode": "6080604052600a60009081556001808055600b60025560035560045534801561002757600080fd5b5060b5806100366000396000f3fe6080604052348015600f57600080fd5b506004361060325760003560e01c8063ca4ff4d3146037578063f6889d5d14603f575b600080fd5b603d6057565b005b6045607a565b60408051918252519081900360200190f35b5b600254600354101560785760038054600480548201905560010190556058565b565b6004549056fea265627a7a723158203cdf7c77b070d344524a5e25098b6d141db2e49d5bf668ce2434052fa39d135f64736f6c63430005110032",
  "bytecodeSha1": "65d8f80897f6f311fe21347cb4beb03ba1c9df61",
  "compiler": {
    "evm_version": "istanbul",
    "optimizer": {
      "enabled": true,
      "runs": 200
    },
    "version": "0.5.17+commit.d19bba13"
  },
  "contractName": "loops91",
  "language": "Solidity",
  "natspec": {
    "methods": {}
  },
  "opcodes": "PUSH1 0x80 PUSH1 0x40 MSTORE CALLVALUE DUP1 ISZERO PUSH1 0xF JUMPI PUSH1 0x0 DUP1 REVERT JUMPDEST POP PUSH1 0x4 CALLDATASIZE LT PUSH1 0x32 JUMPI PUSH1 0x0 CALLDATALOAD PUSH1 0xE0 SHR DUP1 PUSH4 0xCA4FF4D3 EQ PUSH1 0x37 JUMPI DUP1 PUSH4 0xF6889D5D EQ PUSH1 0x3F JUMPI JUMPDEST PUSH1 0x0 DUP1 REVERT JUMPDEST PUSH1 0x3D PUSH1 0x57 JUMP JUMPDEST STOP JUMPDEST PUSH1 0x45 PUSH1 0x7A JUMP JUMPDEST PUSH1 0x40 DUP1 MLOAD SWAP2 DUP3 MSTORE MLOAD SWAP1 DUP2 SWAP1 SUB PUSH1 0x20 ADD SWAP1 RETURN JUMPDEST JUMPDEST PUSH1 0x2 SLOAD PUSH1 0x3 SLOAD LT ISZERO PUSH1 0x78 JUMPI PUSH1 0x3 DUP1 SLOAD PUSH1 0x4 DUP1 SLOAD DUP3 ADD SWAP1 SSTORE PUSH1 0x1 ADD SWAP1 SSTORE PUSH1 0x58 JUMP JUMPDEST JUMP JUMPDEST PUSH1 0x4 SLOAD SWAP1 JUMP INVALID LOG2 PUSH6 0x627A7A723158 KECCAK256 EXTCODECOPY 0xDF PUSH29 0x77B070D344524A5E25098B6D141DB2E49D5BF668CE2434052FA39D135F PUSH5 0x736F6C6343 STOP SDIV GT STOP ORIGIN ",
  "sha1": "4ccc8a05ee71b4a10f6a8726e94f134c4cd52603",
  "source": "pragma solidity ^0.5.0;\n\ncontract loops91 {\n    // define the loop size\n    uint256 loopSize = 10;\n\n    // define the loop start\n    uint256 loopStart = 1;\n\n    // define the loop end\n    uint256 loopEnd = loopStart + loopSize;\n\n    // define the loop counter\n    uint256 loopCounter = loopStart;\n\n    // define the loop result\n    uint256 loopResult = 0;\n\n    // function to start the loop\n    function startLoop() public {\n        // loop from the start to the end\n        while (loopCounter < loopEnd) {\n            // add the loop counter to the loop result\n            loopResult += loopCounter;\n\n            // increment the loop counter\n            loopCounter++;\n        }\n    }\n\n    // function to get the loop result\n    function getLoopResult() public view returns (uint256) {\n        // return the loop result\n        return loopResult;\n    }\n}",
  "sourcePath": "contracts/unOptimized_contracts/Loops91.sol",
  "type": "contract"
}