{
  "abi": [
    {
      "inputs": [],
      "payable": false,
      "stateMutability": "nonpayable",
      "type": "constructor"
    },
    {
      "constant": true,
      "inputs": [],
      "name": "count",
      "outputs": [
        {
          "internalType": "uint256",
          "name": "",
          "type": "uint256"
        }
      ],
      "payable": false,
      "stateMutability": "view",
      "type": "function"
    },
    {
      "constant": false,
      "inputs": [],
      "name": "loop44",
      "outputs": [],
      "payable": false,
      "stateMutability": "nonpayable",
      "type": "function"
    },
    {
      "constant": true,
      "inputs": [],
      "name": "maxCount",
      "outputs": [
        {
          "internalType": "uint256",
          "name": "",
          "type": "uint256"
        }
      ],
      "payable": false,
      "stateMutability": "view",
      "type": "function"
    }
  ],
  "bytecode": "608060405234801561001057600080fd5b5060008055602c60015560c3806100286000396000f3fe6080604052348015600f57600080fd5b5060043610603c5760003560e01c806306661abd1460415780639ef2d87a146059578063e7c3ab7914605f575b600080fd5b60476067565b60408051918252519081900360200190f35b6047606d565b60656073565b005b60005481565b60015481565b5b6001546000541015608c576000805460010190556074565b56fea265627a7a723158208a3aec91706dc490ca4a63df35794047cb4b2d85d59dbec6cdfa1d55cddb5b1564736f6c63430005110032",
  "bytecodeSha1": "36ccbfb32deaf0fe579818376fa5eb9660e5221e",
  "compiler": {
    "evm_version": "istanbul",
    "optimizer": {
      "enabled": true,
      "runs": 200
    },
    "version": "0.5.17+commit.d19bba13"
  },
  "contractName": "Loops44",
  "language": "Solidity",
  "natspec": {
    "methods": {}
  },
  "opcodes": "PUSH1 0x80 PUSH1 0x40 MSTORE CALLVALUE DUP1 ISZERO PUSH1 0xF JUMPI PUSH1 0x0 DUP1 REVERT JUMPDEST POP PUSH1 0x4 CALLDATASIZE LT PUSH1 0x3C JUMPI PUSH1 0x0 CALLDATALOAD PUSH1 0xE0 SHR DUP1 PUSH4 0x6661ABD EQ PUSH1 0x41 JUMPI DUP1 PUSH4 0x9EF2D87A EQ PUSH1 0x59 JUMPI DUP1 PUSH4 0xE7C3AB79 EQ PUSH1 0x5F JUMPI JUMPDEST PUSH1 0x0 DUP1 REVERT JUMPDEST PUSH1 0x47 PUSH1 0x67 JUMP JUMPDEST PUSH1 0x40 DUP1 MLOAD SWAP2 DUP3 MSTORE MLOAD SWAP1 DUP2 SWAP1 SUB PUSH1 0x20 ADD SWAP1 RETURN JUMPDEST PUSH1 0x47 PUSH1 0x6D JUMP JUMPDEST PUSH1 0x65 PUSH1 0x73 JUMP JUMPDEST STOP JUMPDEST PUSH1 0x0 SLOAD DUP2 JUMP JUMPDEST PUSH1 0x1 SLOAD DUP2 JUMP JUMPDEST JUMPDEST PUSH1 0x1 SLOAD PUSH1 0x0 SLOAD LT ISZERO PUSH1 0x8C JUMPI PUSH1 0x0 DUP1 SLOAD PUSH1 0x1 ADD SWAP1 SSTORE PUSH1 0x74 JUMP JUMPDEST JUMP INVALID LOG2 PUSH6 0x627A7A723158 KECCAK256 DUP11 GASPRICE 0xEC SWAP2 PUSH17 0x6DC490CA4A63DF35794047CB4B2D85D59D 0xBE 0xC6 0xCD STATICCALL SAR SSTORE 0xCD 0xDB JUMPDEST ISZERO PUSH5 0x736F6C6343 STOP SDIV GT STOP ORIGIN ",
  "sha1": "9e2ac9a10b5a2aca046a446321ddb69273eac5d2",
  "source": "// Solidity Contract for Loops44\npragma solidity ^0.5.0;\n\ncontract Loops44 {\n    // State Variables\n    uint public count;\n    uint public maxCount;\n\n    // Constructor\n    constructor() public {\n        count = 0;\n        maxCount = 44;\n    }\n\n    // Function to loop 44 times\n    function loop44() public {\n        while(count < maxCount) {\n            count++;\n        }\n    }\n}",
  "sourcePath": "contracts/verifiable_contracts_gpt/Loops44.sol",
  "type": "contract"
}