{
  "abi": [
    {
      "constant": true,
      "inputs": [],
      "name": "count",
      "outputs": [
        {
          "internalType": "uint256",
          "name": "",
          "type": "uint256"
        }
      ],
      "payable": false,
      "stateMutability": "view",
      "type": "function"
    },
    {
      "constant": false,
      "inputs": [],
      "name": "loop",
      "outputs": [],
      "payable": false,
      "stateMutability": "nonpayable",
      "type": "function"
    }
  ],
  "bytecode": "608060405234801561001057600080fd5b5060b48061001f6000396000f3fe6080604052348015600f57600080fd5b506004361060325760003560e01c806306661abd146037578063a92100cb14604f575b600080fd5b603d6057565b60408051918252519081900360200190f35b6055605d565b005b60005481565b60008080555b6011811015607c57600080546001908101909155016063565b5056fea265627a7a723158204190030e8ad954b2a3fd62e10158f0254b29025500e22289316d8395dee15cb664736f6c63430005110032",
  "bytecodeSha1": "ef9023b6f166685706d33ac414675d74b90ab2cd",
  "compiler": {
    "evm_version": "istanbul",
    "optimizer": {
      "enabled": true,
      "runs": 200
    },
    "version": "0.5.17+commit.d19bba13"
  },
  "contractName": "loops17",
  "language": "Solidity",
  "natspec": {
    "methods": {}
  },
  "opcodes": "PUSH1 0x80 PUSH1 0x40 MSTORE CALLVALUE DUP1 ISZERO PUSH1 0xF JUMPI PUSH1 0x0 DUP1 REVERT JUMPDEST POP PUSH1 0x4 CALLDATASIZE LT PUSH1 0x32 JUMPI PUSH1 0x0 CALLDATALOAD PUSH1 0xE0 SHR DUP1 PUSH4 0x6661ABD EQ PUSH1 0x37 JUMPI DUP1 PUSH4 0xA92100CB EQ PUSH1 0x4F JUMPI JUMPDEST PUSH1 0x0 DUP1 REVERT JUMPDEST PUSH1 0x3D PUSH1 0x57 JUMP JUMPDEST PUSH1 0x40 DUP1 MLOAD SWAP2 DUP3 MSTORE MLOAD SWAP1 DUP2 SWAP1 SUB PUSH1 0x20 ADD SWAP1 RETURN JUMPDEST PUSH1 0x55 PUSH1 0x5D JUMP JUMPDEST STOP JUMPDEST PUSH1 0x0 SLOAD DUP2 JUMP JUMPDEST PUSH1 0x0 DUP1 DUP1 SSTORE JUMPDEST PUSH1 0x11 DUP2 LT ISZERO PUSH1 0x7C JUMPI PUSH1 0x0 DUP1 SLOAD PUSH1 0x1 SWAP1 DUP2 ADD SWAP1 SWAP2 SSTORE ADD PUSH1 0x63 JUMP JUMPDEST POP JUMP INVALID LOG2 PUSH6 0x627A7A723158 KECCAK256 COINBASE SWAP1 SUB 0xE DUP11 0xD9 SLOAD 0xB2 LOG3 REVERT PUSH3 0xE10158 CREATE 0x25 0x4B 0x29 MUL SSTORE STOP 0xE2 0x22 DUP10 BALANCE PUSH14 0x8395DEE15CB664736F6C63430005 GT STOP ORIGIN ",
  "sha1": "58a115d3a1f3f7c8217fdc892831c9479a118735",
  "source": "pragma solidity ^0.5.0;\n\ncontract loops17 {\n    uint256 public count;\n\n    function loop() public {\n        count = 0;\n        for (uint256 i = 0; i < 17; i++) {\n            count++;\n        }\n    }\n}",
  "sourcePath": "contracts/verifiable_contracts_gpt/Loops17.sol",
  "type": "contract"
}