{
  "abi": [
    {
      "inputs": [],
      "payable": false,
      "stateMutability": "nonpayable",
      "type": "constructor"
    },
    {
      "constant": false,
      "inputs": [],
      "name": "loop",
      "outputs": [],
      "payable": false,
      "stateMutability": "nonpayable",
      "type": "function"
    }
  ],
  "bytecode": "6080604052348015600f57600080fd5b5060008055600a6001556085806100276000396000f3fe6080604052348015600f57600080fd5b506004361060285760003560e01c8063a92100cb14602d575b600080fd5b60336035565b005b5b6001546000541015604e576000805460010190556036565b56fea265627a7a72315820ca1ad43d6f4cddf32313fd2c7f618f7ae41c234b5f5b69a9d0549905254d3bf664736f6c63430005110032",
  "bytecodeSha1": "0d4968c363599ac2169b1f09bf5667a088fd7064",
  "compiler": {
    "evm_version": "istanbul",
    "optimizer": {
      "enabled": true,
      "runs": 200
    },
    "version": "0.5.17+commit.d19bba13"
  },
  "contractName": "loops14",
  "language": "Solidity",
  "natspec": {
    "methods": {}
  },
  "opcodes": "PUSH1 0x80 PUSH1 0x40 MSTORE CALLVALUE DUP1 ISZERO PUSH1 0xF JUMPI PUSH1 0x0 DUP1 REVERT JUMPDEST POP PUSH1 0x4 CALLDATASIZE LT PUSH1 0x28 JUMPI PUSH1 0x0 CALLDATALOAD PUSH1 0xE0 SHR DUP1 PUSH4 0xA92100CB EQ PUSH1 0x2D JUMPI JUMPDEST PUSH1 0x0 DUP1 REVERT JUMPDEST PUSH1 0x33 PUSH1 0x35 JUMP JUMPDEST STOP JUMPDEST JUMPDEST PUSH1 0x1 SLOAD PUSH1 0x0 SLOAD LT ISZERO PUSH1 0x4E JUMPI PUSH1 0x0 DUP1 SLOAD PUSH1 0x1 ADD SWAP1 SSTORE PUSH1 0x36 JUMP JUMPDEST JUMP INVALID LOG2 PUSH6 0x627A7A723158 KECCAK256 0xCA BYTE 0xD4 RETURNDATASIZE PUSH16 0x4CDDF32313FD2C7F618F7AE41C234B5F JUMPDEST PUSH10 0xA9D0549905254D3BF664 PUSH20 0x6F6C634300051100320000000000000000000000 ",
  "sha1": "28cceee9a58609b014fdeccd5f367163bd5071fd",
  "source": "pragma solidity ^0.5.0;\n\ncontract loops14 {\n    \n    // Declare variables\n    uint256 counter;\n    uint256 limit;\n    \n    // Constructor\n    constructor() public {\n        counter = 0;\n        limit = 10;\n    }\n    \n    // Loop function\n    function loop() public {\n        while (counter < limit) {\n            counter++;\n        }\n    }\n}",
  "sourcePath": "contracts/verifiable_contracts_gpt/Loops14.sol",
  "type": "contract"
}