{
  "abi": [
    {
      "constant": false,
      "inputs": [],
      "name": "loop",
      "outputs": [],
      "payable": false,
      "stateMutability": "nonpayable",
      "type": "function"
    }
  ],
  "bytecode": "6080604052348015600f57600080fd5b50608b8061001e6000396000f3fe6080604052348015600f57600080fd5b506004361060285760003560e01c8063a92100cb14602d575b600080fd5b60336035565b005b60005b600a8110156053576001016005811415604f576053565b6038565b5056fea265627a7a723158209d8d67e815f98c720835e3a9c46eac18dc5b2c49b83469e34541c395ed06f30264736f6c63430005110032",
  "bytecodeSha1": "39be40d908e3394df8ccec7aa925d4a8774bc0d7",
  "compiler": {
    "evm_version": "istanbul",
    "optimizer": {
      "enabled": true,
      "runs": 200
    },
    "version": "0.5.17+commit.d19bba13"
  },
  "contractName": "loops69",
  "language": "Solidity",
  "natspec": {
    "methods": {}
  },
  "opcodes": "PUSH1 0x80 PUSH1 0x40 MSTORE CALLVALUE DUP1 ISZERO PUSH1 0xF JUMPI PUSH1 0x0 DUP1 REVERT JUMPDEST POP PUSH1 0x4 CALLDATASIZE LT PUSH1 0x28 JUMPI PUSH1 0x0 CALLDATALOAD PUSH1 0xE0 SHR DUP1 PUSH4 0xA92100CB EQ PUSH1 0x2D JUMPI JUMPDEST PUSH1 0x0 DUP1 REVERT JUMPDEST PUSH1 0x33 PUSH1 0x35 JUMP JUMPDEST STOP JUMPDEST PUSH1 0x0 JUMPDEST PUSH1 0xA DUP2 LT ISZERO PUSH1 0x53 JUMPI PUSH1 0x1 ADD PUSH1 0x5 DUP2 EQ ISZERO PUSH1 0x4F JUMPI PUSH1 0x53 JUMP JUMPDEST PUSH1 0x38 JUMP JUMPDEST POP JUMP INVALID LOG2 PUSH6 0x627A7A723158 KECCAK256 SWAP14 DUP14 PUSH8 0xE815F98C720835E3 0xA9 0xC4 PUSH15 0xAC18DC5B2C49B83469E34541C395ED MOD RETURN MUL PUSH5 0x736F6C6343 STOP SDIV GT STOP ORIGIN ",
  "sha1": "d55e5fafba9f0dd139ab7bcb98ff256e7d0a628a",
  "source": "pragma solidity ^0.5.0;\n\ncontract loops69 {\n    \n    function loop() public {\n        uint x = 0;\n        while (x < 10) {\n            x++;\n            if (x == 5) {\n                break;\n            }\n        }\n    }\n}",
  "sourcePath": "contracts/verifiable_contracts_gpt/Loops69.sol",
  "type": "contract"
}