{
  "abi": [
    {
      "inputs": [],
      "payable": false,
      "stateMutability": "nonpayable",
      "type": "constructor"
    },
    {
      "constant": true,
      "inputs": [],
      "name": "counter",
      "outputs": [
        {
          "internalType": "uint256",
          "name": "",
          "type": "uint256"
        }
      ],
      "payable": false,
      "stateMutability": "view",
      "type": "function"
    },
    {
      "constant": false,
      "inputs": [],
      "name": "loopCounter",
      "outputs": [],
      "payable": false,
      "stateMutability": "nonpayable",
      "type": "function"
    }
  ],
  "bytecode": "608060405234801561001057600080fd5b506000805560b1806100236000396000f3fe6080604052348015600f57600080fd5b506004361060325760003560e01c806361bc221a146037578063fd19282014604f575b600080fd5b603d6057565b60408051918252519081900360200190f35b6055605d565b005b60005481565b60005b600a811015607957600080546001908101909155016060565b5056fea265627a7a72315820e7424340e71dfb1f8a1b4980cf8cd0c9f40759da8470c47325dd905d2f330ee464736f6c63430005110032",
  "bytecodeSha1": "cb29a70c8428883cea8178f721882746e19da15b",
  "compiler": {
    "evm_version": "istanbul",
    "optimizer": {
      "enabled": true,
      "runs": 200
    },
    "version": "0.5.17+commit.d19bba13"
  },
  "contractName": "loops23",
  "language": "Solidity",
  "natspec": {
    "methods": {}
  },
  "opcodes": "PUSH1 0x80 PUSH1 0x40 MSTORE CALLVALUE DUP1 ISZERO PUSH1 0xF JUMPI PUSH1 0x0 DUP1 REVERT JUMPDEST POP PUSH1 0x4 CALLDATASIZE LT PUSH1 0x32 JUMPI PUSH1 0x0 CALLDATALOAD PUSH1 0xE0 SHR DUP1 PUSH4 0x61BC221A EQ PUSH1 0x37 JUMPI DUP1 PUSH4 0xFD192820 EQ PUSH1 0x4F JUMPI JUMPDEST PUSH1 0x0 DUP1 REVERT JUMPDEST PUSH1 0x3D PUSH1 0x57 JUMP JUMPDEST PUSH1 0x40 DUP1 MLOAD SWAP2 DUP3 MSTORE MLOAD SWAP1 DUP2 SWAP1 SUB PUSH1 0x20 ADD SWAP1 RETURN JUMPDEST PUSH1 0x55 PUSH1 0x5D JUMP JUMPDEST STOP JUMPDEST PUSH1 0x0 SLOAD DUP2 JUMP JUMPDEST PUSH1 0x0 JUMPDEST PUSH1 0xA DUP2 LT ISZERO PUSH1 0x79 JUMPI PUSH1 0x0 DUP1 SLOAD PUSH1 0x1 SWAP1 DUP2 ADD SWAP1 SWAP2 SSTORE ADD PUSH1 0x60 JUMP JUMPDEST POP JUMP INVALID LOG2 PUSH6 0x627A7A723158 KECCAK256 0xE7 TIMESTAMP NUMBER BLOCKHASH 0xE7 SAR 0xFB 0x1F DUP11 SHL 0x49 DUP1 0xCF DUP13 0xD0 0xC9 DELEGATECALL SMOD MSIZE 0xDA DUP5 PUSH17 0xC47325DD905D2F330EE464736F6C634300 SDIV GT STOP ORIGIN ",
  "sha1": "d7f663d1b6d80807972814a6e391b3525b458d79",
  "source": "pragma solidity ^0.5.0;\n\ncontract loops23 {\n    // Loops23 contract\n\n    uint256 public counter;\n\n    constructor() public {\n        counter = 0;\n    }\n\n    function loopCounter() public {\n        // Simple unoptimized loop based pattern\n        for (uint256 i = 0; i < 10; i++) {\n            counter++;\n        }\n    }\n\n}",
  "sourcePath": "contracts/verifiable_contracts_gpt/Loops23.sol",
  "type": "contract"
}