{
  "abi": [
    {
      "inputs": [],
      "payable": false,
      "stateMutability": "nonpayable",
      "type": "constructor"
    },
    {
      "constant": true,
      "inputs": [],
      "name": "iterationCount",
      "outputs": [
        {
          "internalType": "uint256",
          "name": "",
          "type": "uint256"
        }
      ],
      "payable": false,
      "stateMutability": "view",
      "type": "function"
    },
    {
      "constant": false,
      "inputs": [
        {
          "internalType": "uint256",
          "name": "_max",
          "type": "uint256"
        }
      ],
      "name": "startLoop",
      "outputs": [],
      "payable": false,
      "stateMutability": "nonpayable",
      "type": "function"
    }
  ],
  "bytecode": "608060405234801561001057600080fd5b506000805560c4806100236000396000f3fe6080604052348015600f57600080fd5b506004361060325760003560e01c80632709a185146037578063782df4a0146053575b600080fd5b605160048036036020811015604b57600080fd5b5035606b565b005b60596089565b60408051918252519081900360200190f35b600080555b8060005410156086576000805460010190556070565b50565b6000548156fea265627a7a72315820be1d064f6bee746f30491c19212ff0b4f7b8da34849cb90bbc00d82e415323e964736f6c63430005110032",
  "bytecodeSha1": "c8cd532501dc2fff3c6f819e7c84a4849bbb767e",
  "compiler": {
    "evm_version": "istanbul",
    "optimizer": {
      "enabled": true,
      "runs": 200
    },
    "version": "0.5.17+commit.d19bba13"
  },
  "contractName": "loops98",
  "language": "Solidity",
  "natspec": {
    "methods": {}
  },
  "opcodes": "PUSH1 0x80 PUSH1 0x40 MSTORE CALLVALUE DUP1 ISZERO PUSH1 0xF JUMPI PUSH1 0x0 DUP1 REVERT JUMPDEST POP PUSH1 0x4 CALLDATASIZE LT PUSH1 0x32 JUMPI PUSH1 0x0 CALLDATALOAD PUSH1 0xE0 SHR DUP1 PUSH4 0x2709A185 EQ PUSH1 0x37 JUMPI DUP1 PUSH4 0x782DF4A0 EQ PUSH1 0x53 JUMPI JUMPDEST PUSH1 0x0 DUP1 REVERT JUMPDEST PUSH1 0x51 PUSH1 0x4 DUP1 CALLDATASIZE SUB PUSH1 0x20 DUP2 LT ISZERO PUSH1 0x4B JUMPI PUSH1 0x0 DUP1 REVERT JUMPDEST POP CALLDATALOAD PUSH1 0x6B JUMP JUMPDEST STOP JUMPDEST PUSH1 0x59 PUSH1 0x89 JUMP JUMPDEST PUSH1 0x40 DUP1 MLOAD SWAP2 DUP3 MSTORE MLOAD SWAP1 DUP2 SWAP1 SUB PUSH1 0x20 ADD SWAP1 RETURN JUMPDEST PUSH1 0x0 DUP1 SSTORE JUMPDEST DUP1 PUSH1 0x0 SLOAD LT ISZERO PUSH1 0x86 JUMPI PUSH1 0x0 DUP1 SLOAD PUSH1 0x1 ADD SWAP1 SSTORE PUSH1 0x70 JUMP JUMPDEST POP JUMP JUMPDEST PUSH1 0x0 SLOAD DUP2 JUMP INVALID LOG2 PUSH6 0x627A7A723158 KECCAK256 0xBE SAR MOD 0x4F PUSH12 0xEE746F30491C19212FF0B4F7 0xB8 0xDA CALLVALUE DUP5 SWAP13 0xB9 SIGNEXTEND 0xBC STOP 0xD8 0x2E COINBASE MSTORE8 0x23 0xE9 PUSH5 0x736F6C6343 STOP SDIV GT STOP ORIGIN ",
  "sha1": "1bb603b94e6a9ebc9be5da58e8aac20782ad7f10",
  "source": "pragma solidity ^0.5.0;\n\ncontract loops98 {\n    // Declare a variable to track the number of iterations\n    uint256 public iterationCount;\n    \n    constructor() public {\n        iterationCount = 0;\n    }\n    \n    // Function to start the loop\n    function startLoop(uint256 _max) public {\n        iterationCount = 0;\n        while(iterationCount < _max) {\n            iterationCount++;\n        }\n    }\n}",
  "sourcePath": "contracts/verifiable_contracts_gpt/Loops98.sol",
  "type": "contract"
}