{
  "abi": [
    {
      "inputs": [],
      "stateMutability": "nonpayable",
      "type": "constructor"
    },
    {
      "inputs": [],
      "name": "incrementCounter",
      "outputs": [],
      "stateMutability": "nonpayable",
      "type": "function"
    },
    {
      "inputs": [],
      "name": "loop",
      "outputs": [],
      "stateMutability": "nonpayable",
      "type": "function"
    }
  ],
  "bytecode": "6080604052348015600f57600080fd5b506000805560a1806100226000396000f3fe6080604052348015600f57600080fd5b506004361060325760003560e01c80635b34b966146037578063a92100cb14603f575b600080fd5b603d6045565b005b603d6050565b600080546001019055565b60005b603c81101560685760616045565b6001016053565b5056fea2646970667358221220df1a7d198d51e61ae46f8c49fd808582cb42b9ba2704ac7aae6b18c4a7dee96064736f6c634300060c0033",
  "bytecodeSha1": "237673b7aa644414d2ad3837e25e4e8bec13f8bc",
  "compiler": {
    "evm_version": "istanbul",
    "optimizer": {
      "enabled": true,
      "runs": 200
    },
    "version": "0.6.12+commit.27d51765"
  },
  "contractName": "loops60",
  "language": "Solidity",
  "natspec": {
    "kind": "dev",
    "methods": {},
    "version": 1
  },
  "opcodes": "PUSH1 0x80 PUSH1 0x40 MSTORE CALLVALUE DUP1 ISZERO PUSH1 0xF JUMPI PUSH1 0x0 DUP1 REVERT JUMPDEST POP PUSH1 0x4 CALLDATASIZE LT PUSH1 0x32 JUMPI PUSH1 0x0 CALLDATALOAD PUSH1 0xE0 SHR DUP1 PUSH4 0x5B34B966 EQ PUSH1 0x37 JUMPI DUP1 PUSH4 0xA92100CB EQ PUSH1 0x3F JUMPI JUMPDEST PUSH1 0x0 DUP1 REVERT JUMPDEST PUSH1 0x3D PUSH1 0x45 JUMP JUMPDEST STOP JUMPDEST PUSH1 0x3D PUSH1 0x50 JUMP JUMPDEST PUSH1 0x0 DUP1 SLOAD PUSH1 0x1 ADD SWAP1 SSTORE JUMP JUMPDEST PUSH1 0x0 JUMPDEST PUSH1 0x3C DUP2 LT ISZERO PUSH1 0x68 JUMPI PUSH1 0x61 PUSH1 0x45 JUMP JUMPDEST PUSH1 0x1 ADD PUSH1 0x53 JUMP JUMPDEST POP JUMP INVALID LOG2 PUSH5 0x6970667358 0x22 SLT KECCAK256 0xDF BYTE PUSH30 0x198D51E61AE46F8C49FD808582CB42B9BA2704AC7AAE6B18C4A7DEE96064 PUSH20 0x6F6C634300060C00330000000000000000000000 ",
  "sha1": "d2c5aa9a0583462a915e85b543f32f86370b698a",
  "source": "pragma solidity ^0.6.0;\n\ncontract loops60 {\n\n    // declare a counter\n    uint counter;\n\n    // constructor\n    constructor() public {\n        counter = 0;\n    }\n\n    // function to increment counter\n    function incrementCounter() public {\n        counter++;\n    }\n\n    // loop function\n    function loop() public {\n        for (uint i = 0; i < 60; i++) {\n            incrementCounter();\n        }\n    }\n\n}",
  "sourcePath": "contracts/verifiable_contracts_gpt/Loops60.sol",
  "type": "contract"
}