{
  "abi": [
    {
      "inputs": [],
      "payable": false,
      "stateMutability": "nonpayable",
      "type": "constructor"
    },
    {
      "constant": true,
      "inputs": [],
      "name": "counter",
      "outputs": [
        {
          "internalType": "uint256",
          "name": "",
          "type": "uint256"
        }
      ],
      "payable": false,
      "stateMutability": "view",
      "type": "function"
    },
    {
      "constant": false,
      "inputs": [],
      "name": "incrementCounter",
      "outputs": [],
      "payable": false,
      "stateMutability": "nonpayable",
      "type": "function"
    },
    {
      "constant": false,
      "inputs": [],
      "name": "runLoop",
      "outputs": [],
      "payable": false,
      "stateMutability": "nonpayable",
      "type": "function"
    }
  ],
  "bytecode": "608060405234801561001057600080fd5b506000805560c8806100236000396000f3fe6080604052348015600f57600080fd5b5060043610603c5760003560e01c806325609bee1460415780635b34b96614604957806361bc221a14604f575b600080fd5b60476067565b005b60476082565b6055608d565b60408051918252519081900360200190f35b60005b6040811015607f5760786082565b600101606a565b50565b600080546001019055565b6000548156fea265627a7a72315820c5052482658f670ade4c02a467e426e296726a57223518212cd876f1658c466164736f6c63430005110032",
  "bytecodeSha1": "e37910ebbf35d5c9d91142784cffef9f60d1da86",
  "compiler": {
    "evm_version": "istanbul",
    "optimizer": {
      "enabled": true,
      "runs": 200
    },
    "version": "0.5.17+commit.d19bba13"
  },
  "contractName": "loops64",
  "language": "Solidity",
  "natspec": {
    "methods": {}
  },
  "opcodes": "PUSH1 0x80 PUSH1 0x40 MSTORE CALLVALUE DUP1 ISZERO PUSH1 0xF JUMPI PUSH1 0x0 DUP1 REVERT JUMPDEST POP PUSH1 0x4 CALLDATASIZE LT PUSH1 0x3C JUMPI PUSH1 0x0 CALLDATALOAD PUSH1 0xE0 SHR DUP1 PUSH4 0x25609BEE EQ PUSH1 0x41 JUMPI DUP1 PUSH4 0x5B34B966 EQ PUSH1 0x49 JUMPI DUP1 PUSH4 0x61BC221A EQ PUSH1 0x4F JUMPI JUMPDEST PUSH1 0x0 DUP1 REVERT JUMPDEST PUSH1 0x47 PUSH1 0x67 JUMP JUMPDEST STOP JUMPDEST PUSH1 0x47 PUSH1 0x82 JUMP JUMPDEST PUSH1 0x55 PUSH1 0x8D JUMP JUMPDEST PUSH1 0x40 DUP1 MLOAD SWAP2 DUP3 MSTORE MLOAD SWAP1 DUP2 SWAP1 SUB PUSH1 0x20 ADD SWAP1 RETURN JUMPDEST PUSH1 0x0 JUMPDEST PUSH1 0x40 DUP2 LT ISZERO PUSH1 0x7F JUMPI PUSH1 0x78 PUSH1 0x82 JUMP JUMPDEST PUSH1 0x1 ADD PUSH1 0x6A JUMP JUMPDEST POP JUMP JUMPDEST PUSH1 0x0 DUP1 SLOAD PUSH1 0x1 ADD SWAP1 SSTORE JUMP JUMPDEST PUSH1 0x0 SLOAD DUP2 JUMP INVALID LOG2 PUSH6 0x627A7A723158 KECCAK256 0xC5 SDIV 0x24 DUP3 PUSH6 0x8F670ADE4C02 LOG4 PUSH8 0xE426E296726A5722 CALLDATALOAD XOR 0x21 0x2C 0xD8 PUSH23 0xF1658C466164736F6C6343000511003200000000000000 ",
  "sha1": "158491b8c7f10d8dca299514b1b9aeb479c58bf4",
  "source": "pragma solidity ^0.5.0;\n\ncontract loops64 {\n    // The storage variable for the counter\n    uint256 public counter;\n\n    // The constructor sets the initial value of counter to zero\n    constructor() public {\n        counter = 0;\n    }\n\n    // Increments the counter by 1\n    function incrementCounter() public {\n        counter++;\n    }\n\n    // This function runs a simple loop 64 times\n    function runLoop() public {\n        for (uint256 i = 0; i < 64; i++) {\n            incrementCounter();\n        }\n    }\n}",
  "sourcePath": "contracts/unOptimized_contracts/Loops64.sol",
  "type": "contract"
}