{
  "abi": [
    {
      "constant": true,
      "inputs": [],
      "name": "count",
      "outputs": [
        {
          "internalType": "uint256",
          "name": "",
          "type": "uint256"
        }
      ],
      "payable": false,
      "stateMutability": "view",
      "type": "function"
    },
    {
      "constant": false,
      "inputs": [],
      "name": "loopCounter",
      "outputs": [],
      "payable": false,
      "stateMutability": "nonpayable",
      "type": "function"
    }
  ],
  "bytecode": "608060405234801561001057600080fd5b5060b48061001f6000396000f3fe6080604052348015600f57600080fd5b506004361060325760003560e01c806306661abd146037578063fd19282014604f575b600080fd5b603d6057565b60408051918252519081900360200190f35b6055605d565b005b60005481565b60008080555b600a811015607c57600080546001908101909155016063565b5056fea265627a7a72315820f7513450f8b9694fada19a11b91e7a5afc03207307054739a05d244d4d5104bd64736f6c63430005110032",
  "bytecodeSha1": "d510c528b7f03f0ea8175fc059fdabd3a4c9c255",
  "compiler": {
    "evm_version": "istanbul",
    "optimizer": {
      "enabled": true,
      "runs": 200
    },
    "version": "0.5.17+commit.d19bba13"
  },
  "contractName": "loops13",
  "language": "Solidity",
  "natspec": {
    "methods": {}
  },
  "opcodes": "PUSH1 0x80 PUSH1 0x40 MSTORE CALLVALUE DUP1 ISZERO PUSH1 0xF JUMPI PUSH1 0x0 DUP1 REVERT JUMPDEST POP PUSH1 0x4 CALLDATASIZE LT PUSH1 0x32 JUMPI PUSH1 0x0 CALLDATALOAD PUSH1 0xE0 SHR DUP1 PUSH4 0x6661ABD EQ PUSH1 0x37 JUMPI DUP1 PUSH4 0xFD192820 EQ PUSH1 0x4F JUMPI JUMPDEST PUSH1 0x0 DUP1 REVERT JUMPDEST PUSH1 0x3D PUSH1 0x57 JUMP JUMPDEST PUSH1 0x40 DUP1 MLOAD SWAP2 DUP3 MSTORE MLOAD SWAP1 DUP2 SWAP1 SUB PUSH1 0x20 ADD SWAP1 RETURN JUMPDEST PUSH1 0x55 PUSH1 0x5D JUMP JUMPDEST STOP JUMPDEST PUSH1 0x0 SLOAD DUP2 JUMP JUMPDEST PUSH1 0x0 DUP1 DUP1 SSTORE JUMPDEST PUSH1 0xA DUP2 LT ISZERO PUSH1 0x7C JUMPI PUSH1 0x0 DUP1 SLOAD PUSH1 0x1 SWAP1 DUP2 ADD SWAP1 SWAP2 SSTORE ADD PUSH1 0x63 JUMP JUMPDEST POP JUMP INVALID LOG2 PUSH6 0x627A7A723158 KECCAK256 0xF7 MLOAD CALLVALUE POP 0xF8 0xB9 PUSH10 0x4FADA19A11B91E7A5AFC SUB KECCAK256 PUSH20 0x7054739A05D244D4D5104BD64736F6C63430005 GT STOP ORIGIN ",
  "sha1": "b0052c43be8461c686354f78ca239b4c5b8d5e95",
  "source": "pragma solidity ^0.5.0;\n\ncontract loops13 {\n    uint256 public count;\n\n    function loopCounter() public {\n        count = 0;\n        for (uint256 i = 0; i < 10; i++) {\n            count++;\n        }\n    }\n}",
  "sourcePath": "contracts/unOptimized_contracts/Loops13.sol",
  "type": "contract"
}