{
  "abi": [
    {
      "constant": false,
      "inputs": [],
      "name": "executeLoop",
      "outputs": [],
      "payable": false,
      "stateMutability": "nonpayable",
      "type": "function"
    },
    {
      "constant": false,
      "inputs": [
        {
          "internalType": "uint256",
          "name": "count",
          "type": "uint256"
        }
      ],
      "name": "setLoopCount",
      "outputs": [],
      "payable": false,
      "stateMutability": "nonpayable",
      "type": "function"
    }
  ],
  "bytecode": "608060405234801561001057600080fd5b5060a98061001f6000396000f3fe6080604052348015600f57600080fd5b506004361060325760003560e01c80630601e485146037578063438aa294146053575b600080fd5b605160048036036020811015604b57600080fd5b50356059565b005b6051605e565b600055565b60005b6000548110156071576001016061565b5056fea265627a7a7231582078619595658f02f46903583d1b111194465d829d371689af823a9fcef0de9ccc64736f6c63430005110032",
  "bytecodeSha1": "0b81c9be2e03fe5e369da305ec26b4865d1303fb",
  "compiler": {
    "evm_version": "istanbul",
    "optimizer": {
      "enabled": true,
      "runs": 200
    },
    "version": "0.5.17+commit.d19bba13"
  },
  "contractName": "loops89",
  "language": "Solidity",
  "natspec": {
    "methods": {}
  },
  "opcodes": "PUSH1 0x80 PUSH1 0x40 MSTORE CALLVALUE DUP1 ISZERO PUSH1 0xF JUMPI PUSH1 0x0 DUP1 REVERT JUMPDEST POP PUSH1 0x4 CALLDATASIZE LT PUSH1 0x32 JUMPI PUSH1 0x0 CALLDATALOAD PUSH1 0xE0 SHR DUP1 PUSH4 0x601E485 EQ PUSH1 0x37 JUMPI DUP1 PUSH4 0x438AA294 EQ PUSH1 0x53 JUMPI JUMPDEST PUSH1 0x0 DUP1 REVERT JUMPDEST PUSH1 0x51 PUSH1 0x4 DUP1 CALLDATASIZE SUB PUSH1 0x20 DUP2 LT ISZERO PUSH1 0x4B JUMPI PUSH1 0x0 DUP1 REVERT JUMPDEST POP CALLDATALOAD PUSH1 0x59 JUMP JUMPDEST STOP JUMPDEST PUSH1 0x51 PUSH1 0x5E JUMP JUMPDEST PUSH1 0x0 SSTORE JUMP JUMPDEST PUSH1 0x0 JUMPDEST PUSH1 0x0 SLOAD DUP2 LT ISZERO PUSH1 0x71 JUMPI PUSH1 0x1 ADD PUSH1 0x61 JUMP JUMPDEST POP JUMP INVALID LOG2 PUSH6 0x627A7A723158 KECCAK256 PUSH25 0x619595658F02F46903583D1B111194465D829D371689AF823A SWAP16 0xCE CREATE 0xDE SWAP13 0xCC PUSH5 0x736F6C6343 STOP SDIV GT STOP ORIGIN ",
  "sha1": "73c2cac591f5e32a218d514ed3a6bed4ba61288a",
  "source": "pragma solidity ^0.5.0;\n\ncontract loops89 {\n    // define a variable to store the loop count\n    uint loopCount;\n\n    // define a function to set the loop count\n    function setLoopCount(uint count) public {\n        loopCount = count;\n    }\n\n    // define a function to execute the loop\n    function executeLoop() public {\n        for (uint i = 0; i < loopCount; i++) {\n            // do some work\n        }\n    }\n}",
  "sourcePath": "contracts/unOptimized_contracts/Loops89.sol",
  "type": "contract"
}