{
  "abi": [
    {
      "inputs": [],
      "payable": false,
      "stateMutability": "nonpayable",
      "type": "constructor"
    },
    {
      "constant": true,
      "inputs": [],
      "name": "count",
      "outputs": [
        {
          "internalType": "uint256",
          "name": "",
          "type": "uint256"
        }
      ],
      "payable": false,
      "stateMutability": "view",
      "type": "function"
    },
    {
      "constant": false,
      "inputs": [],
      "name": "increaseCount",
      "outputs": [],
      "payable": false,
      "stateMutability": "nonpayable",
      "type": "function"
    }
  ],
  "bytecode": "608060405234801561001057600080fd5b506000805560b1806100236000396000f3fe6080604052348015600f57600080fd5b506004361060325760003560e01c806306661abd146037578063abd1b73d14604f575b600080fd5b603d6057565b60408051918252519081900360200190f35b6055605d565b005b60005481565b60005b6047811015607957600080546001908101909155016060565b5056fea265627a7a72315820eb3e502a72a61f3bded63e0417c19907466d1b3f09389c6a105d7b6cdbdda25d64736f6c63430005110032",
  "bytecodeSha1": "c9d4299b8fa6f2d2706465b52254c80fe92c1e05",
  "compiler": {
    "evm_version": "istanbul",
    "optimizer": {
      "enabled": true,
      "runs": 200
    },
    "version": "0.5.17+commit.d19bba13"
  },
  "contractName": "loops71",
  "language": "Solidity",
  "natspec": {
    "methods": {}
  },
  "opcodes": "PUSH1 0x80 PUSH1 0x40 MSTORE CALLVALUE DUP1 ISZERO PUSH1 0xF JUMPI PUSH1 0x0 DUP1 REVERT JUMPDEST POP PUSH1 0x4 CALLDATASIZE LT PUSH1 0x32 JUMPI PUSH1 0x0 CALLDATALOAD PUSH1 0xE0 SHR DUP1 PUSH4 0x6661ABD EQ PUSH1 0x37 JUMPI DUP1 PUSH4 0xABD1B73D EQ PUSH1 0x4F JUMPI JUMPDEST PUSH1 0x0 DUP1 REVERT JUMPDEST PUSH1 0x3D PUSH1 0x57 JUMP JUMPDEST PUSH1 0x40 DUP1 MLOAD SWAP2 DUP3 MSTORE MLOAD SWAP1 DUP2 SWAP1 SUB PUSH1 0x20 ADD SWAP1 RETURN JUMPDEST PUSH1 0x55 PUSH1 0x5D JUMP JUMPDEST STOP JUMPDEST PUSH1 0x0 SLOAD DUP2 JUMP JUMPDEST PUSH1 0x0 JUMPDEST PUSH1 0x47 DUP2 LT ISZERO PUSH1 0x79 JUMPI PUSH1 0x0 DUP1 SLOAD PUSH1 0x1 SWAP1 DUP2 ADD SWAP1 SWAP2 SSTORE ADD PUSH1 0x60 JUMP JUMPDEST POP JUMP INVALID LOG2 PUSH6 0x627A7A723158 KECCAK256 0xEB RETURNDATACOPY POP 0x2A PUSH19 0xA61F3BDED63E0417C19907466D1B3F09389C6A LT 0x5D PUSH28 0x6CDBDDA25D64736F6C63430005110032000000000000000000000000 ",
  "sha1": "13e6e41e36151d0bdcd2162b2dcafde60f9275b4",
  "source": "pragma solidity ^0.5.0;\n\ncontract loops71 {\n\n    // declare a storage variable\n    uint public count;\n\n    // constructor\n    constructor() public {\n        count = 0;\n    }\n\n    // function to increase count\n    function increaseCount() public {\n        for (uint i = 0; i < 71; i++) {\n            count++;\n        }\n    }\n\n}",
  "sourcePath": "contracts/verifiable_contracts_gpt/Loops71.sol",
  "type": "contract"
}