{
  "abi": [
    {
      "constant": true,
      "inputs": [],
      "name": "counter",
      "outputs": [
        {
          "internalType": "uint256",
          "name": "",
          "type": "uint256"
        }
      ],
      "payable": false,
      "stateMutability": "view",
      "type": "function"
    },
    {
      "constant": false,
      "inputs": [],
      "name": "looping",
      "outputs": [],
      "payable": false,
      "stateMutability": "nonpayable",
      "type": "function"
    }
  ],
  "bytecode": "608060405234801561001057600080fd5b5060b18061001f6000396000f3fe6080604052348015600f57600080fd5b506004361060325760003560e01c8063434e405914603757806361bc221a14603f575b600080fd5b603d6057565b005b60456076565b60408051918252519081900360200190f35b60005b600a81101560735760008054600190810190915501605a565b50565b6000548156fea265627a7a723158203c3b229a800dc9c4f40fd0806306c236d980dc8511dcf9aa4ebc48dea66c2b3664736f6c63430005110032",
  "bytecodeSha1": "e648a84bb15bfb3d020214b716ced882af8be71c",
  "compiler": {
    "evm_version": "istanbul",
    "optimizer": {
      "enabled": true,
      "runs": 200
    },
    "version": "0.5.17+commit.d19bba13"
  },
  "contractName": "loops66",
  "language": "Solidity",
  "natspec": {
    "methods": {}
  },
  "opcodes": "PUSH1 0x80 PUSH1 0x40 MSTORE CALLVALUE DUP1 ISZERO PUSH1 0xF JUMPI PUSH1 0x0 DUP1 REVERT JUMPDEST POP PUSH1 0x4 CALLDATASIZE LT PUSH1 0x32 JUMPI PUSH1 0x0 CALLDATALOAD PUSH1 0xE0 SHR DUP1 PUSH4 0x434E4059 EQ PUSH1 0x37 JUMPI DUP1 PUSH4 0x61BC221A EQ PUSH1 0x3F JUMPI JUMPDEST PUSH1 0x0 DUP1 REVERT JUMPDEST PUSH1 0x3D PUSH1 0x57 JUMP JUMPDEST STOP JUMPDEST PUSH1 0x45 PUSH1 0x76 JUMP JUMPDEST PUSH1 0x40 DUP1 MLOAD SWAP2 DUP3 MSTORE MLOAD SWAP1 DUP2 SWAP1 SUB PUSH1 0x20 ADD SWAP1 RETURN JUMPDEST PUSH1 0x0 JUMPDEST PUSH1 0xA DUP2 LT ISZERO PUSH1 0x73 JUMPI PUSH1 0x0 DUP1 SLOAD PUSH1 0x1 SWAP1 DUP2 ADD SWAP1 SWAP2 SSTORE ADD PUSH1 0x5A JUMP JUMPDEST POP JUMP JUMPDEST PUSH1 0x0 SLOAD DUP2 JUMP INVALID LOG2 PUSH6 0x627A7A723158 KECCAK256 EXTCODECOPY EXTCODESIZE 0x22 SWAP11 DUP1 0xD 0xC9 0xC4 DELEGATECALL 0xF 0xD0 DUP1 PUSH4 0x6C236D9 DUP1 0xDC DUP6 GT 0xDC 0xF9 0xAA 0x4E 0xBC 0x48 0xDE 0xA6 PUSH13 0x2B3664736F6C63430005110032 ",
  "sha1": "cf2d4eedbfd8f0edc3a7761c891a7e86385cc625",
  "source": "pragma solidity ^0.5.0;\n\ncontract loops66 {\n\n    uint256 public counter;\n\n    function looping() public {\n        for (uint256 i = 0; i < 10; i++) {\n            counter++;\n        }\n    }\n\n}",
  "sourcePath": "contracts/unOptimized_contracts/Loops66.sol",
  "type": "contract"
}