{
  "abi": [
    {
      "inputs": [],
      "payable": false,
      "stateMutability": "nonpayable",
      "type": "constructor"
    },
    {
      "constant": true,
      "inputs": [],
      "name": "counter",
      "outputs": [
        {
          "internalType": "uint256",
          "name": "",
          "type": "uint256"
        }
      ],
      "payable": false,
      "stateMutability": "view",
      "type": "function"
    },
    {
      "constant": false,
      "inputs": [],
      "name": "increaseCounter",
      "outputs": [],
      "payable": false,
      "stateMutability": "nonpayable",
      "type": "function"
    }
  ],
  "bytecode": "608060405234801561001057600080fd5b506000805560b1806100236000396000f3fe6080604052348015600f57600080fd5b506004361060325760003560e01c806361bc221a146037578063b49004e914604f575b600080fd5b603d6057565b60408051918252519081900360200190f35b6055605d565b005b60005481565b60005b600c811015607957600080546001908101909155016060565b5056fea265627a7a723158203ed28f529e16eafde14e68d3b12358cd2c3fbaeb25291d2c321478300806993764736f6c63430005110032",
  "bytecodeSha1": "2cef6598ed3c230917b8556ff1c477fd898b6aa6",
  "compiler": {
    "evm_version": "istanbul",
    "optimizer": {
      "enabled": true,
      "runs": 200
    },
    "version": "0.5.17+commit.d19bba13"
  },
  "contractName": "loops12",
  "language": "Solidity",
  "natspec": {
    "methods": {}
  },
  "opcodes": "PUSH1 0x80 PUSH1 0x40 MSTORE CALLVALUE DUP1 ISZERO PUSH1 0xF JUMPI PUSH1 0x0 DUP1 REVERT JUMPDEST POP PUSH1 0x4 CALLDATASIZE LT PUSH1 0x32 JUMPI PUSH1 0x0 CALLDATALOAD PUSH1 0xE0 SHR DUP1 PUSH4 0x61BC221A EQ PUSH1 0x37 JUMPI DUP1 PUSH4 0xB49004E9 EQ PUSH1 0x4F JUMPI JUMPDEST PUSH1 0x0 DUP1 REVERT JUMPDEST PUSH1 0x3D PUSH1 0x57 JUMP JUMPDEST PUSH1 0x40 DUP1 MLOAD SWAP2 DUP3 MSTORE MLOAD SWAP1 DUP2 SWAP1 SUB PUSH1 0x20 ADD SWAP1 RETURN JUMPDEST PUSH1 0x55 PUSH1 0x5D JUMP JUMPDEST STOP JUMPDEST PUSH1 0x0 SLOAD DUP2 JUMP JUMPDEST PUSH1 0x0 JUMPDEST PUSH1 0xC DUP2 LT ISZERO PUSH1 0x79 JUMPI PUSH1 0x0 DUP1 SLOAD PUSH1 0x1 SWAP1 DUP2 ADD SWAP1 SWAP2 SSTORE ADD PUSH1 0x60 JUMP JUMPDEST POP JUMP INVALID LOG2 PUSH6 0x627A7A723158 KECCAK256 RETURNDATACOPY 0xD2 DUP16 MSTORE SWAP15 AND 0xEA REVERT 0xE1 0x4E PUSH9 0xD3B12358CD2C3FBAEB 0x25 0x29 SAR 0x2C ORIGIN EQ PUSH25 0x300806993764736F6C63430005110032000000000000000000 ",
  "sha1": "834700d8cda7ae1d647fa2783e733ad48ed67b7d",
  "source": "pragma solidity ^0.5.0;\n\ncontract loops12 {\n    uint256 public counter;\n\n    // constructor\n    constructor() public {\n        counter = 0;\n    }\n\n    // function to increase counter\n    function increaseCounter() public {\n        for (uint256 i = 0; i < 12; i++) {\n            counter++;\n        }\n    }\n}",
  "sourcePath": "contracts/verifiable_contracts_gpt/Loops12.sol",
  "type": "contract"
}