{
  "abi": [
    {
      "inputs": [],
      "payable": false,
      "stateMutability": "nonpayable",
      "type": "constructor"
    },
    {
      "constant": false,
      "inputs": [],
      "name": "loop",
      "outputs": [],
      "payable": false,
      "stateMutability": "nonpayable",
      "type": "function"
    },
    {
      "constant": true,
      "inputs": [],
      "name": "totalLoops",
      "outputs": [
        {
          "internalType": "uint256",
          "name": "",
          "type": "uint256"
        }
      ],
      "payable": false,
      "stateMutability": "view",
      "type": "function"
    }
  ],
  "bytecode": "608060405234801561001057600080fd5b506000805560b1806100236000396000f3fe6080604052348015600f57600080fd5b506004361060325760003560e01c806353a3d056146037578063a92100cb14604f575b600080fd5b603d6057565b60408051918252519081900360200190f35b6055605d565b005b60005481565b60005b6058811015607957600080546001908101909155016060565b5056fea265627a7a723158203fa4faedd2b89462063a31f72f22e424f31bff342adf56809f079ceb7feddf2764736f6c63430005110032",
  "bytecodeSha1": "bdfc41b39e8a5be5c0aaa43aa4dd0d5ed9f5dfcf",
  "compiler": {
    "evm_version": "istanbul",
    "optimizer": {
      "enabled": true,
      "runs": 200
    },
    "version": "0.5.17+commit.d19bba13"
  },
  "contractName": "loops88",
  "language": "Solidity",
  "natspec": {
    "methods": {}
  },
  "opcodes": "PUSH1 0x80 PUSH1 0x40 MSTORE CALLVALUE DUP1 ISZERO PUSH1 0xF JUMPI PUSH1 0x0 DUP1 REVERT JUMPDEST POP PUSH1 0x4 CALLDATASIZE LT PUSH1 0x32 JUMPI PUSH1 0x0 CALLDATALOAD PUSH1 0xE0 SHR DUP1 PUSH4 0x53A3D056 EQ PUSH1 0x37 JUMPI DUP1 PUSH4 0xA92100CB EQ PUSH1 0x4F JUMPI JUMPDEST PUSH1 0x0 DUP1 REVERT JUMPDEST PUSH1 0x3D PUSH1 0x57 JUMP JUMPDEST PUSH1 0x40 DUP1 MLOAD SWAP2 DUP3 MSTORE MLOAD SWAP1 DUP2 SWAP1 SUB PUSH1 0x20 ADD SWAP1 RETURN JUMPDEST PUSH1 0x55 PUSH1 0x5D JUMP JUMPDEST STOP JUMPDEST PUSH1 0x0 SLOAD DUP2 JUMP JUMPDEST PUSH1 0x0 JUMPDEST PUSH1 0x58 DUP2 LT ISZERO PUSH1 0x79 JUMPI PUSH1 0x0 DUP1 SLOAD PUSH1 0x1 SWAP1 DUP2 ADD SWAP1 SWAP2 SSTORE ADD PUSH1 0x60 JUMP JUMPDEST POP JUMP INVALID LOG2 PUSH6 0x627A7A723158 KECCAK256 EXTCODEHASH LOG4 STATICCALL 0xED 0xD2 0xB8 SWAP5 PUSH3 0x63A31 0xF7 0x2F 0x22 0xE4 0x24 RETURN SHL SELFDESTRUCT CALLVALUE 0x2A 0xDF JUMP DUP1 SWAP16 SMOD SWAP13 0xEB PUSH32 0xEDDF2764736F6C63430005110032000000000000000000000000000000000000 ",
  "sha1": "e0d89ab06785c0d1e993ae2b8aa1545605fc2709",
  "source": "pragma solidity ^0.5.0;\n\ncontract loops88 {\n    uint256 public totalLoops;\n\n    constructor() public {\n        totalLoops = 0;\n    }\n\n    function loop() public {\n        for (uint256 i = 0; i < 88; i++) {\n            totalLoops++;\n        }\n    }\n}",
  "sourcePath": "contracts/verifiable_contracts_gpt/Loops88.sol",
  "type": "contract"
}