{
  "abi": [
    {
      "constant": true,
      "inputs": [],
      "name": "counter",
      "outputs": [
        {
          "internalType": "uint256",
          "name": "",
          "type": "uint256"
        }
      ],
      "payable": false,
      "stateMutability": "view",
      "type": "function"
    },
    {
      "constant": false,
      "inputs": [],
      "name": "increaseCounter",
      "outputs": [],
      "payable": false,
      "stateMutability": "nonpayable",
      "type": "function"
    },
    {
      "constant": false,
      "inputs": [],
      "name": "loopCounter",
      "outputs": [],
      "payable": false,
      "stateMutability": "nonpayable",
      "type": "function"
    }
  ],
  "bytecode": "608060405234801561001057600080fd5b5060c88061001f6000396000f3fe6080604052348015600f57600080fd5b5060043610603c5760003560e01c806361bc221a146041578063b49004e9146059578063fd192820146061575b600080fd5b60476067565b60408051918252519081900360200190f35b605f606d565b005b605f6078565b60005481565b600080546001019055565b60005b604e8110156090576089606d565b600101607b565b5056fea265627a7a72315820f6ebb19e1af9c29384db0d243ecb6673a6bb166285a114e106cf8e4f9e2c589364736f6c63430005110032",
  "bytecodeSha1": "929cc186ab269a9009ee7e85a51dcbdf1ddf5194",
  "compiler": {
    "evm_version": "istanbul",
    "optimizer": {
      "enabled": true,
      "runs": 200
    },
    "version": "0.5.17+commit.d19bba13"
  },
  "contractName": "loops78",
  "language": "Solidity",
  "natspec": {
    "methods": {}
  },
  "opcodes": "PUSH1 0x80 PUSH1 0x40 MSTORE CALLVALUE DUP1 ISZERO PUSH1 0xF JUMPI PUSH1 0x0 DUP1 REVERT JUMPDEST POP PUSH1 0x4 CALLDATASIZE LT PUSH1 0x3C JUMPI PUSH1 0x0 CALLDATALOAD PUSH1 0xE0 SHR DUP1 PUSH4 0x61BC221A EQ PUSH1 0x41 JUMPI DUP1 PUSH4 0xB49004E9 EQ PUSH1 0x59 JUMPI DUP1 PUSH4 0xFD192820 EQ PUSH1 0x61 JUMPI JUMPDEST PUSH1 0x0 DUP1 REVERT JUMPDEST PUSH1 0x47 PUSH1 0x67 JUMP JUMPDEST PUSH1 0x40 DUP1 MLOAD SWAP2 DUP3 MSTORE MLOAD SWAP1 DUP2 SWAP1 SUB PUSH1 0x20 ADD SWAP1 RETURN JUMPDEST PUSH1 0x5F PUSH1 0x6D JUMP JUMPDEST STOP JUMPDEST PUSH1 0x5F PUSH1 0x78 JUMP JUMPDEST PUSH1 0x0 SLOAD DUP2 JUMP JUMPDEST PUSH1 0x0 DUP1 SLOAD PUSH1 0x1 ADD SWAP1 SSTORE JUMP JUMPDEST PUSH1 0x0 JUMPDEST PUSH1 0x4E DUP2 LT ISZERO PUSH1 0x90 JUMPI PUSH1 0x89 PUSH1 0x6D JUMP JUMPDEST PUSH1 0x1 ADD PUSH1 0x7B JUMP JUMPDEST POP JUMP INVALID LOG2 PUSH6 0x627A7A723158 KECCAK256 0xF6 0xEB 0xB1 SWAP15 BYTE 0xF9 0xC2 SWAP4 DUP5 0xDB 0xD 0x24 RETURNDATACOPY 0xCB PUSH7 0x73A6BB166285A1 EQ 0xE1 MOD 0xCF DUP15 0x4F SWAP15 0x2C PC SWAP4 PUSH5 0x736F6C6343 STOP SDIV GT STOP ORIGIN ",
  "sha1": "fe7dd0971568849b2ca2d2c68efd6784c51207e5",
  "source": "pragma solidity ^0.5.0;\n\ncontract loops78 {\n    uint public counter;\n    \n    function increaseCounter() public {\n        counter++;\n    }\n    \n    function loopCounter() external {\n        for (uint i = 0; i < 78; i++) {\n            increaseCounter();\n        }\n    }\n}",
  "sourcePath": "contracts/verifiable_contracts_gpt/Loops78.sol",
  "type": "contract"
}