{
  "abi": [
    {
      "constant": true,
      "inputs": [],
      "name": "counter",
      "outputs": [
        {
          "internalType": "uint256",
          "name": "",
          "type": "uint256"
        }
      ],
      "payable": false,
      "stateMutability": "view",
      "type": "function"
    },
    {
      "constant": false,
      "inputs": [],
      "name": "incrementCounter",
      "outputs": [],
      "payable": false,
      "stateMutability": "nonpayable",
      "type": "function"
    },
    {
      "constant": false,
      "inputs": [],
      "name": "loop",
      "outputs": [],
      "payable": false,
      "stateMutability": "nonpayable",
      "type": "function"
    }
  ],
  "bytecode": "60806040526000805534801561001457600080fd5b5060c8806100236000396000f3fe6080604052348015600f57600080fd5b5060043610603c5760003560e01c80635b34b96614604157806361bc221a146049578063a92100cb146061575b600080fd5b60476067565b005b604f6072565b60408051918252519081900360200190f35b60476078565b600080546001019055565b60005481565b60005b604f81101560905760896067565b600101607b565b5056fea265627a7a7231582054157d16e37772cf816ddcdb67cf2beda12832bb5deb835f19773ceb1c1838e064736f6c63430005110032",
  "bytecodeSha1": "259617eb9524ed4a4fa92f0b22218fa03e5344b8",
  "compiler": {
    "evm_version": "istanbul",
    "optimizer": {
      "enabled": true,
      "runs": 200
    },
    "version": "0.5.17+commit.d19bba13"
  },
  "contractName": "loops79",
  "language": "Solidity",
  "natspec": {
    "methods": {}
  },
  "opcodes": "PUSH1 0x80 PUSH1 0x40 MSTORE CALLVALUE DUP1 ISZERO PUSH1 0xF JUMPI PUSH1 0x0 DUP1 REVERT JUMPDEST POP PUSH1 0x4 CALLDATASIZE LT PUSH1 0x3C JUMPI PUSH1 0x0 CALLDATALOAD PUSH1 0xE0 SHR DUP1 PUSH4 0x5B34B966 EQ PUSH1 0x41 JUMPI DUP1 PUSH4 0x61BC221A EQ PUSH1 0x49 JUMPI DUP1 PUSH4 0xA92100CB EQ PUSH1 0x61 JUMPI JUMPDEST PUSH1 0x0 DUP1 REVERT JUMPDEST PUSH1 0x47 PUSH1 0x67 JUMP JUMPDEST STOP JUMPDEST PUSH1 0x4F PUSH1 0x72 JUMP JUMPDEST PUSH1 0x40 DUP1 MLOAD SWAP2 DUP3 MSTORE MLOAD SWAP1 DUP2 SWAP1 SUB PUSH1 0x20 ADD SWAP1 RETURN JUMPDEST PUSH1 0x47 PUSH1 0x78 JUMP JUMPDEST PUSH1 0x0 DUP1 SLOAD PUSH1 0x1 ADD SWAP1 SSTORE JUMP JUMPDEST PUSH1 0x0 SLOAD DUP2 JUMP JUMPDEST PUSH1 0x0 JUMPDEST PUSH1 0x4F DUP2 LT ISZERO PUSH1 0x90 JUMPI PUSH1 0x89 PUSH1 0x67 JUMP JUMPDEST PUSH1 0x1 ADD PUSH1 0x7B JUMP JUMPDEST POP JUMP INVALID LOG2 PUSH6 0x627A7A723158 KECCAK256 SLOAD ISZERO PUSH30 0x16E37772CF816DDCDB67CF2BEDA12832BB5DEB835F19773CEB1C1838E064 PUSH20 0x6F6C634300051100320000000000000000000000 ",
  "sha1": "f1c678bb7391e3b211b291701b6edb0fcba0a2e4",
  "source": "pragma solidity ^0.5.0;\n\ncontract loops79 {\n    uint public counter = 0;\n\n    function incrementCounter() public {\n        counter += 1;\n    }\n\n    function loop() public {\n        for (uint i = 0; i < 79; i++) {\n            incrementCounter();\n        }\n    }\n}",
  "sourcePath": "contracts/unOptimized_contracts/Loops79.sol",
  "type": "contract"
}