{
  "abi": [
    {
      "constant": false,
      "inputs": [
        {
          "internalType": "uint256",
          "name": "value",
          "type": "uint256"
        }
      ],
      "name": "addValue",
      "outputs": [],
      "payable": false,
      "stateMutability": "nonpayable",
      "type": "function"
    },
    {
      "constant": false,
      "inputs": [],
      "name": "loopThroughValues",
      "outputs": [],
      "payable": false,
      "stateMutability": "nonpayable",
      "type": "function"
    },
    {
      "constant": true,
      "inputs": [
        {
          "internalType": "uint256",
          "name": "",
          "type": "uint256"
        }
      ],
      "name": "values",
      "outputs": [
        {
          "internalType": "uint256",
          "name": "",
          "type": "uint256"
        }
      ],
      "payable": false,
      "stateMutability": "view",
      "type": "function"
    }
  ],
  "bytecode": "608060405234801561001057600080fd5b50610129806100206000396000f3fe6080604052348015600f57600080fd5b5060043610603c5760003560e01c80632c0e2cb91460415780635b9af12b1460495780635e383d21146063575b600080fd5b6047608f565b005b604760048036036020811015605d57600080fd5b503560a5565b607d60048036036020811015607757600080fd5b503560d7565b60408051918252519081900360200190f35b60005b60005481101560a2576001016092565b50565b600080546001810182559080527f290decd9548b62a8d60345a988386fc84ba6bc95484008f6362f93160ef3e5630155565b6000818154811060e357fe5b60009182526020909120015490508156fea265627a7a723158207cb3a7a7daf1dee997f3bc8396f6547e1e9a706a36421fbdc95d9b4513154b9c64736f6c63430005110032",
  "bytecodeSha1": "101dafb9e928773151151751ea14265a5e5c9831",
  "compiler": {
    "evm_version": "istanbul",
    "optimizer": {
      "enabled": true,
      "runs": 200
    },
    "version": "0.5.17+commit.d19bba13"
  },
  "contractName": "loops84",
  "language": "Solidity",
  "natspec": {
    "methods": {}
  },
  "opcodes": "PUSH1 0x80 PUSH1 0x40 MSTORE CALLVALUE DUP1 ISZERO PUSH1 0xF JUMPI PUSH1 0x0 DUP1 REVERT JUMPDEST POP PUSH1 0x4 CALLDATASIZE LT PUSH1 0x3C JUMPI PUSH1 0x0 CALLDATALOAD PUSH1 0xE0 SHR DUP1 PUSH4 0x2C0E2CB9 EQ PUSH1 0x41 JUMPI DUP1 PUSH4 0x5B9AF12B EQ PUSH1 0x49 JUMPI DUP1 PUSH4 0x5E383D21 EQ PUSH1 0x63 JUMPI JUMPDEST PUSH1 0x0 DUP1 REVERT JUMPDEST PUSH1 0x47 PUSH1 0x8F JUMP JUMPDEST STOP JUMPDEST PUSH1 0x47 PUSH1 0x4 DUP1 CALLDATASIZE SUB PUSH1 0x20 DUP2 LT ISZERO PUSH1 0x5D JUMPI PUSH1 0x0 DUP1 REVERT JUMPDEST POP CALLDATALOAD PUSH1 0xA5 JUMP JUMPDEST PUSH1 0x7D PUSH1 0x4 DUP1 CALLDATASIZE SUB PUSH1 0x20 DUP2 LT ISZERO PUSH1 0x77 JUMPI PUSH1 0x0 DUP1 REVERT JUMPDEST POP CALLDATALOAD PUSH1 0xD7 JUMP JUMPDEST PUSH1 0x40 DUP1 MLOAD SWAP2 DUP3 MSTORE MLOAD SWAP1 DUP2 SWAP1 SUB PUSH1 0x20 ADD SWAP1 RETURN JUMPDEST PUSH1 0x0 JUMPDEST PUSH1 0x0 SLOAD DUP2 LT ISZERO PUSH1 0xA2 JUMPI PUSH1 0x1 ADD PUSH1 0x92 JUMP JUMPDEST POP JUMP JUMPDEST PUSH1 0x0 DUP1 SLOAD PUSH1 0x1 DUP2 ADD DUP3 SSTORE SWAP1 DUP1 MSTORE PUSH32 0x290DECD9548B62A8D60345A988386FC84BA6BC95484008F6362F93160EF3E563 ADD SSTORE JUMP JUMPDEST PUSH1 0x0 DUP2 DUP2 SLOAD DUP2 LT PUSH1 0xE3 JUMPI INVALID JUMPDEST PUSH1 0x0 SWAP2 DUP3 MSTORE PUSH1 0x20 SWAP1 SWAP2 KECCAK256 ADD SLOAD SWAP1 POP DUP2 JUMP INVALID LOG2 PUSH6 0x627A7A723158 KECCAK256 PUSH29 0xB3A7A7DAF1DEE997F3BC8396F6547E1E9A706A36421FBDC95D9B451315 0x4B SWAP13 PUSH5 0x736F6C6343 STOP SDIV GT STOP ORIGIN ",
  "sha1": "0c9f035296daff16ec66d99fcb4ac179e47434c6",
  "source": "pragma solidity ^0.5.7;\n\ncontract loops84 {\n    // An array to store values \n    uint[] public values;\n\n    // Function to add values to the array\n    function addValue(uint value) public {\n        values.push(value);\n    }\n\n    // Function to loop through the array\n    function loopThroughValues() public {\n        for (uint i = 0; i < values.length; i++) {\n            // Do something with each value\n            // ...\n        }\n    }\n}",
  "sourcePath": "contracts/verifiable_contracts_gpt/Loops84.sol",
  "type": "contract"
}