{
  "abi": [
    {
      "inputs": [],
      "payable": false,
      "stateMutability": "nonpayable",
      "type": "constructor"
    },
    {
      "constant": true,
      "inputs": [],
      "name": "counter",
      "outputs": [
        {
          "internalType": "uint256",
          "name": "",
          "type": "uint256"
        }
      ],
      "payable": false,
      "stateMutability": "view",
      "type": "function"
    },
    {
      "constant": false,
      "inputs": [],
      "name": "loop1",
      "outputs": [],
      "payable": false,
      "stateMutability": "nonpayable",
      "type": "function"
    },
    {
      "constant": false,
      "inputs": [],
      "name": "loop2",
      "outputs": [],
      "payable": false,
      "stateMutability": "nonpayable",
      "type": "function"
    }
  ],
  "bytecode": "608060405234801561001057600080fd5b506000805560bb806100236000396000f3fe6080604052348015600f57600080fd5b5060043610603c5760003560e01c806361bc221a146041578063a89edd59146059578063f5fb1bf8146059575b600080fd5b60476061565b60408051918252519081900360200190f35b605f6067565b005b60005481565b60005b600a81101560835760008054600190810190915501606a565b5056fea265627a7a723158209ba3951939ca81b7c5867ee0dc8eb01fcf52b2007c58de0842a6d81aac4e913564736f6c63430005110032",
  "bytecodeSha1": "24594dba84cbb2dfee19d081d8b99a91ce5b822c",
  "compiler": {
    "evm_version": "istanbul",
    "optimizer": {
      "enabled": true,
      "runs": 200
    },
    "version": "0.5.17+commit.d19bba13"
  },
  "contractName": "loops1",
  "language": "Solidity",
  "natspec": {
    "methods": {}
  },
  "opcodes": "PUSH1 0x80 PUSH1 0x40 MSTORE CALLVALUE DUP1 ISZERO PUSH1 0xF JUMPI PUSH1 0x0 DUP1 REVERT JUMPDEST POP PUSH1 0x4 CALLDATASIZE LT PUSH1 0x3C JUMPI PUSH1 0x0 CALLDATALOAD PUSH1 0xE0 SHR DUP1 PUSH4 0x61BC221A EQ PUSH1 0x41 JUMPI DUP1 PUSH4 0xA89EDD59 EQ PUSH1 0x59 JUMPI DUP1 PUSH4 0xF5FB1BF8 EQ PUSH1 0x59 JUMPI JUMPDEST PUSH1 0x0 DUP1 REVERT JUMPDEST PUSH1 0x47 PUSH1 0x61 JUMP JUMPDEST PUSH1 0x40 DUP1 MLOAD SWAP2 DUP3 MSTORE MLOAD SWAP1 DUP2 SWAP1 SUB PUSH1 0x20 ADD SWAP1 RETURN JUMPDEST PUSH1 0x5F PUSH1 0x67 JUMP JUMPDEST STOP JUMPDEST PUSH1 0x0 SLOAD DUP2 JUMP JUMPDEST PUSH1 0x0 JUMPDEST PUSH1 0xA DUP2 LT ISZERO PUSH1 0x83 JUMPI PUSH1 0x0 DUP1 SLOAD PUSH1 0x1 SWAP1 DUP2 ADD SWAP1 SWAP2 SSTORE ADD PUSH1 0x6A JUMP JUMPDEST POP JUMP INVALID LOG2 PUSH6 0x627A7A723158 KECCAK256 SWAP12 LOG3 SWAP6 NOT CODECOPY 0xCA DUP2 0xB7 0xC5 DUP7 PUSH31 0xE0DC8EB01FCF52B2007C58DE0842A6D81AAC4E913564736F6C634300051100 ORIGIN ",
  "sha1": "d8a73f569b87457e6c0f7043c78e0f883a354dfd",
  "source": "pragma solidity ^0.5.0;\n\ncontract loops1 {\n    \n    uint256 public counter;\n    \n    constructor() public {\n        counter = 0;\n    }\n    \n    function loop1() public {\n        for (uint256 i = 0; i < 10; i++) {\n            counter++;\n        }\n    }\n    \n    function loop2() public {\n        uint256 j = 0;\n        while (j < 10) {\n            counter++;\n            j++;\n        }\n    }\n}",
  "sourcePath": "contracts/unOptimized_contracts/Loops1.sol",
  "type": "contract"
}