{
  "abi": [
    {
      "inputs": [],
      "payable": false,
      "stateMutability": "nonpayable",
      "type": "constructor"
    },
    {
      "constant": true,
      "inputs": [],
      "name": "counter",
      "outputs": [
        {
          "internalType": "uint256",
          "name": "",
          "type": "uint256"
        }
      ],
      "payable": false,
      "stateMutability": "view",
      "type": "function"
    },
    {
      "constant": false,
      "inputs": [],
      "name": "loop24",
      "outputs": [],
      "payable": false,
      "stateMutability": "nonpayable",
      "type": "function"
    }
  ],
  "bytecode": "608060405234801561001057600080fd5b506000805560b1806100236000396000f3fe6080604052348015600f57600080fd5b506004361060325760003560e01c806361bc221a1460375780636dfe9e9014604f575b600080fd5b603d6057565b60408051918252519081900360200190f35b6055605d565b005b60005481565b60005b6018811015607957600080546001908101909155016060565b5056fea265627a7a72315820b2feec9deeae56fb293906441ecb428e3ad73914f0a48928976c7af06a60988764736f6c63430005110032",
  "bytecodeSha1": "b6252e974ee6157c9f21fccde290d6b1a28645d6",
  "compiler": {
    "evm_version": "istanbul",
    "optimizer": {
      "enabled": true,
      "runs": 200
    },
    "version": "0.5.17+commit.d19bba13"
  },
  "contractName": "loops24",
  "language": "Solidity",
  "natspec": {
    "methods": {}
  },
  "opcodes": "PUSH1 0x80 PUSH1 0x40 MSTORE CALLVALUE DUP1 ISZERO PUSH1 0xF JUMPI PUSH1 0x0 DUP1 REVERT JUMPDEST POP PUSH1 0x4 CALLDATASIZE LT PUSH1 0x32 JUMPI PUSH1 0x0 CALLDATALOAD PUSH1 0xE0 SHR DUP1 PUSH4 0x61BC221A EQ PUSH1 0x37 JUMPI DUP1 PUSH4 0x6DFE9E90 EQ PUSH1 0x4F JUMPI JUMPDEST PUSH1 0x0 DUP1 REVERT JUMPDEST PUSH1 0x3D PUSH1 0x57 JUMP JUMPDEST PUSH1 0x40 DUP1 MLOAD SWAP2 DUP3 MSTORE MLOAD SWAP1 DUP2 SWAP1 SUB PUSH1 0x20 ADD SWAP1 RETURN JUMPDEST PUSH1 0x55 PUSH1 0x5D JUMP JUMPDEST STOP JUMPDEST PUSH1 0x0 SLOAD DUP2 JUMP JUMPDEST PUSH1 0x0 JUMPDEST PUSH1 0x18 DUP2 LT ISZERO PUSH1 0x79 JUMPI PUSH1 0x0 DUP1 SLOAD PUSH1 0x1 SWAP1 DUP2 ADD SWAP1 SWAP2 SSTORE ADD PUSH1 0x60 JUMP JUMPDEST POP JUMP INVALID LOG2 PUSH6 0x627A7A723158 KECCAK256 0xB2 INVALID 0xEC SWAP14 0xEE 0xAE JUMP 0xFB 0x29 CODECOPY MOD DIFFICULTY 0x1E 0xCB TIMESTAMP DUP15 GASPRICE 0xD7 CODECOPY EQ CREATE LOG4 DUP10 0x28 SWAP8 PUSH13 0x7AF06A60988764736F6C634300 SDIV GT STOP ORIGIN ",
  "sha1": "e699472b3553bbd9b931df9587b4b7460f83a439",
  "source": "pragma solidity ^0.5.0;\n\ncontract loops24 {\n    uint256 public counter;\n    \n    constructor() public {\n        counter = 0;\n    }\n    \n    function loop24() public {\n        for (uint256 i = 0; i < 24; i++) {\n            counter++;\n        }\n    }\n}",
  "sourcePath": "contracts/unOptimized_contracts/Loops24.sol",
  "type": "contract"
}