{
  "abi": [
    {
      "constant": true,
      "inputs": [],
      "name": "counter",
      "outputs": [
        {
          "internalType": "uint256",
          "name": "",
          "type": "uint256"
        }
      ],
      "payable": false,
      "stateMutability": "view",
      "type": "function"
    },
    {
      "constant": false,
      "inputs": [],
      "name": "loop9",
      "outputs": [],
      "payable": false,
      "stateMutability": "nonpayable",
      "type": "function"
    }
  ],
  "bytecode": "608060405234801561001057600080fd5b5060b18061001f6000396000f3fe6080604052348015600f57600080fd5b506004361060325760003560e01c806342e36f2c14603757806361bc221a14603f575b600080fd5b603d6057565b005b60456076565b60408051918252519081900360200190f35b60005b600981101560735760008054600190810190915501605a565b50565b6000548156fea265627a7a723158208ba40690486c26ac0d08cf8f01b605e80b5854ce5cdd8bc7282724e64c9f7b6664736f6c63430005110032",
  "bytecodeSha1": "cb9aecdf61cfb0172d9c1504f660ae3a9da2c0d1",
  "compiler": {
    "evm_version": "istanbul",
    "optimizer": {
      "enabled": true,
      "runs": 200
    },
    "version": "0.5.17+commit.d19bba13"
  },
  "contractName": "Loops9",
  "language": "Solidity",
  "natspec": {
    "methods": {}
  },
  "opcodes": "PUSH1 0x80 PUSH1 0x40 MSTORE CALLVALUE DUP1 ISZERO PUSH1 0xF JUMPI PUSH1 0x0 DUP1 REVERT JUMPDEST POP PUSH1 0x4 CALLDATASIZE LT PUSH1 0x32 JUMPI PUSH1 0x0 CALLDATALOAD PUSH1 0xE0 SHR DUP1 PUSH4 0x42E36F2C EQ PUSH1 0x37 JUMPI DUP1 PUSH4 0x61BC221A EQ PUSH1 0x3F JUMPI JUMPDEST PUSH1 0x0 DUP1 REVERT JUMPDEST PUSH1 0x3D PUSH1 0x57 JUMP JUMPDEST STOP JUMPDEST PUSH1 0x45 PUSH1 0x76 JUMP JUMPDEST PUSH1 0x40 DUP1 MLOAD SWAP2 DUP3 MSTORE MLOAD SWAP1 DUP2 SWAP1 SUB PUSH1 0x20 ADD SWAP1 RETURN JUMPDEST PUSH1 0x0 JUMPDEST PUSH1 0x9 DUP2 LT ISZERO PUSH1 0x73 JUMPI PUSH1 0x0 DUP1 SLOAD PUSH1 0x1 SWAP1 DUP2 ADD SWAP1 SWAP2 SSTORE ADD PUSH1 0x5A JUMP JUMPDEST POP JUMP JUMPDEST PUSH1 0x0 SLOAD DUP2 JUMP INVALID LOG2 PUSH6 0x627A7A723158 KECCAK256 DUP12 LOG4 MOD SWAP1 0x48 PUSH13 0x26AC0D08CF8F01B605E80B5854 0xCE 0x5C 0xDD DUP12 0xC7 0x28 0x27 0x24 0xE6 0x4C SWAP16 PUSH28 0x6664736F6C6343000511003200000000000000000000000000000000 ",
  "sha1": "5e579367cc9f35cf471cd8f3256a109a1094ccbb",
  "source": "pragma solidity ^0.5.0;\n\ncontract Loops9 {\n    uint public counter;\n\n    function loop9() public {\n        for (uint i = 0; i < 9; i++) {\n            counter++;\n        }\n    }\n\n}",
  "sourcePath": "contracts/verifiable_contracts_gpt/Loops9.sol",
  "type": "contract"
}