{
  "abi": [
    {
      "inputs": [],
      "payable": false,
      "stateMutability": "nonpayable",
      "type": "constructor"
    },
    {
      "constant": true,
      "inputs": [],
      "name": "counter",
      "outputs": [
        {
          "internalType": "uint256",
          "name": "",
          "type": "uint256"
        }
      ],
      "payable": false,
      "stateMutability": "view",
      "type": "function"
    },
    {
      "constant": false,
      "inputs": [],
      "name": "loop90",
      "outputs": [],
      "payable": false,
      "stateMutability": "nonpayable",
      "type": "function"
    }
  ],
  "bytecode": "608060405234801561001057600080fd5b506000805560b0806100236000396000f3fe6080604052348015600f57600080fd5b506004361060315760003560e01c806203efc214603657806361bc221a14603e575b600080fd5b603c6056565b005b60446075565b60408051918252519081900360200190f35b60005b605a811015607257600080546001908101909155016059565b50565b6000548156fea265627a7a723158202d40384835fa081ef823cc2bec564573f528ac4da6fd7a4724f54da37e0eb45464736f6c63430005110032",
  "bytecodeSha1": "a1d556ae20e51b675ef45f5d4ce79a601cf2fe6e",
  "compiler": {
    "evm_version": "istanbul",
    "optimizer": {
      "enabled": true,
      "runs": 200
    },
    "version": "0.5.17+commit.d19bba13"
  },
  "contractName": "loops90",
  "language": "Solidity",
  "natspec": {
    "methods": {}
  },
  "opcodes": "PUSH1 0x80 PUSH1 0x40 MSTORE CALLVALUE DUP1 ISZERO PUSH1 0xF JUMPI PUSH1 0x0 DUP1 REVERT JUMPDEST POP PUSH1 0x4 CALLDATASIZE LT PUSH1 0x31 JUMPI PUSH1 0x0 CALLDATALOAD PUSH1 0xE0 SHR DUP1 PUSH3 0x3EFC2 EQ PUSH1 0x36 JUMPI DUP1 PUSH4 0x61BC221A EQ PUSH1 0x3E JUMPI JUMPDEST PUSH1 0x0 DUP1 REVERT JUMPDEST PUSH1 0x3C PUSH1 0x56 JUMP JUMPDEST STOP JUMPDEST PUSH1 0x44 PUSH1 0x75 JUMP JUMPDEST PUSH1 0x40 DUP1 MLOAD SWAP2 DUP3 MSTORE MLOAD SWAP1 DUP2 SWAP1 SUB PUSH1 0x20 ADD SWAP1 RETURN JUMPDEST PUSH1 0x0 JUMPDEST PUSH1 0x5A DUP2 LT ISZERO PUSH1 0x72 JUMPI PUSH1 0x0 DUP1 SLOAD PUSH1 0x1 SWAP1 DUP2 ADD SWAP1 SWAP2 SSTORE ADD PUSH1 0x59 JUMP JUMPDEST POP JUMP JUMPDEST PUSH1 0x0 SLOAD DUP2 JUMP INVALID LOG2 PUSH6 0x627A7A723158 KECCAK256 0x2D BLOCKHASH CODESIZE 0x48 CALLDATALOAD STATICCALL ADDMOD 0x1E 0xF8 0x23 0xCC 0x2B 0xEC JUMP GASLIMIT PUSH20 0xF528AC4DA6FD7A4724F54DA37E0EB45464736F6C PUSH4 0x43000511 STOP ORIGIN ",
  "sha1": "00e311e6dcfaaf096919fa921a984f901a1408a7",
  "source": "pragma solidity ^0.5.0;\n\ncontract loops90 {\n    uint public counter;\n\n    constructor() public {\n        counter = 0;\n    }\n\n    function loop90() public {\n        for (uint i = 0; i < 90; i++) {\n            counter++;\n        }\n    }\n}",
  "sourcePath": "contracts/unOptimized_contracts/Loops90.sol",
  "type": "contract"
}