{
  "abi": [
    {
      "inputs": [],
      "name": "incrementCounter",
      "outputs": [],
      "stateMutability": "nonpayable",
      "type": "function"
    },
    {
      "inputs": [],
      "name": "isComplete",
      "outputs": [
        {
          "internalType": "bool",
          "name": "",
          "type": "bool"
        }
      ],
      "stateMutability": "view",
      "type": "function"
    },
    {
      "inputs": [],
      "name": "resetCounter",
      "outputs": [],
      "stateMutability": "nonpayable",
      "type": "function"
    }
  ],
  "bytecode": "608060405260008055603260015534801561001957600080fd5b5060c9806100286000396000f3fe6080604052348015600f57600080fd5b5060043610603c5760003560e01c80635b34b966146041578063b2fa1c9e146049578063dbdf7fce146063575b600080fd5b60476069565b005b604f6083565b604080519115158252519081900360200190f35b6047608d565b60015460005410607857600080fd5b600080546001019055565b6001546000541490565b6000805556fea264697066735822122058f08551b187983b37e952ebda1445e231a83be36bd2ebf3e863202719b1c7c564736f6c634300060c0033",
  "bytecodeSha1": "fbe3b9cadd2f6f7320eff14ae4f9f03811530c26",
  "compiler": {
    "evm_version": "istanbul",
    "optimizer": {
      "enabled": true,
      "runs": 200
    },
    "version": "0.6.12+commit.27d51765"
  },
  "contractName": "loops50",
  "language": "Solidity",
  "natspec": {
    "kind": "dev",
    "methods": {},
    "version": 1
  },
  "opcodes": "PUSH1 0x80 PUSH1 0x40 MSTORE CALLVALUE DUP1 ISZERO PUSH1 0xF JUMPI PUSH1 0x0 DUP1 REVERT JUMPDEST POP PUSH1 0x4 CALLDATASIZE LT PUSH1 0x3C JUMPI PUSH1 0x0 CALLDATALOAD PUSH1 0xE0 SHR DUP1 PUSH4 0x5B34B966 EQ PUSH1 0x41 JUMPI DUP1 PUSH4 0xB2FA1C9E EQ PUSH1 0x49 JUMPI DUP1 PUSH4 0xDBDF7FCE EQ PUSH1 0x63 JUMPI JUMPDEST PUSH1 0x0 DUP1 REVERT JUMPDEST PUSH1 0x47 PUSH1 0x69 JUMP JUMPDEST STOP JUMPDEST PUSH1 0x4F PUSH1 0x83 JUMP JUMPDEST PUSH1 0x40 DUP1 MLOAD SWAP2 ISZERO ISZERO DUP3 MSTORE MLOAD SWAP1 DUP2 SWAP1 SUB PUSH1 0x20 ADD SWAP1 RETURN JUMPDEST PUSH1 0x47 PUSH1 0x8D JUMP JUMPDEST PUSH1 0x1 SLOAD PUSH1 0x0 SLOAD LT PUSH1 0x78 JUMPI PUSH1 0x0 DUP1 REVERT JUMPDEST PUSH1 0x0 DUP1 SLOAD PUSH1 0x1 ADD SWAP1 SSTORE JUMP JUMPDEST PUSH1 0x1 SLOAD PUSH1 0x0 SLOAD EQ SWAP1 JUMP JUMPDEST PUSH1 0x0 DUP1 SSTORE JUMP INVALID LOG2 PUSH5 0x6970667358 0x22 SLT KECCAK256 PC CREATE DUP6 MLOAD 0xB1 DUP8 SWAP9 EXTCODESIZE CALLDATACOPY 0xE9 MSTORE 0xEB 0xDA EQ GASLIMIT 0xE2 BALANCE 0xA8 EXTCODESIZE 0xE3 PUSH12 0xD2EBF3E863202719B1C7C564 PUSH20 0x6F6C634300060C00330000000000000000000000 ",
  "sha1": "34389459aed0bb43d7fb39646345d7a834f9e938",
  "source": "pragma solidity ^0.6.6;\n\ncontract loops50 {\n    \n    // Initialize a counter to 0\n    uint256 counter = 0;\n    \n    // Set the maximum counter value\n    uint256 maxCounter = 50;\n    \n    // Function to increment the counter\n    function incrementCounter() public {\n        // Check if counter is less than the maximum\n        require(counter < maxCounter);\n        // Increment the counter\n        counter++;\n    }\n    \n    // Function to reset the counter\n    function resetCounter() public {\n        // Set the counter to 0\n        counter = 0;\n    }\n    \n    // Function to check if the loop is complete\n    function isComplete() public view returns (bool) {\n        // Check if counter is equal to the maximum\n        return (counter == maxCounter);\n    }\n}",
  "sourcePath": "contracts/unOptimized_contracts/Loops50.sol",
  "type": "contract"
}