{
  "abi": [
    {
      "inputs": [],
      "name": "count",
      "outputs": [
        {
          "internalType": "uint256",
          "name": "",
          "type": "uint256"
        }
      ],
      "stateMutability": "view",
      "type": "function"
    },
    {
      "inputs": [],
      "name": "increment",
      "outputs": [],
      "stateMutability": "nonpayable",
      "type": "function"
    },
    {
      "inputs": [],
      "name": "loop",
      "outputs": [],
      "stateMutability": "nonpayable",
      "type": "function"
    }
  ],
  "bytecode": "608060405234801561001057600080fd5b5060c88061001f6000396000f3fe6080604052348015600f57600080fd5b5060043610603c5760003560e01c806306661abd146041578063a92100cb146059578063d09de08a146061575b600080fd5b60476067565b60408051918252519081900360200190f35b605f606d565b005b605f6087565b60005481565b60005b600a8111608457607d6087565b6001016070565b50565b60008054600101905556fea264697066735822122080e223f060e02dc2e4ee3c80653f62d5541ac297d27ebe687126ff073595361664736f6c634300060c0033",
  "bytecodeSha1": "140d2337669004d337830f2f17095f82a473e45c",
  "compiler": {
    "evm_version": "istanbul",
    "optimizer": {
      "enabled": true,
      "runs": 200
    },
    "version": "0.6.12+commit.27d51765"
  },
  "contractName": "loops62",
  "language": "Solidity",
  "natspec": {
    "kind": "dev",
    "methods": {},
    "version": 1
  },
  "opcodes": "PUSH1 0x80 PUSH1 0x40 MSTORE CALLVALUE DUP1 ISZERO PUSH1 0xF JUMPI PUSH1 0x0 DUP1 REVERT JUMPDEST POP PUSH1 0x4 CALLDATASIZE LT PUSH1 0x3C JUMPI PUSH1 0x0 CALLDATALOAD PUSH1 0xE0 SHR DUP1 PUSH4 0x6661ABD EQ PUSH1 0x41 JUMPI DUP1 PUSH4 0xA92100CB EQ PUSH1 0x59 JUMPI DUP1 PUSH4 0xD09DE08A EQ PUSH1 0x61 JUMPI JUMPDEST PUSH1 0x0 DUP1 REVERT JUMPDEST PUSH1 0x47 PUSH1 0x67 JUMP JUMPDEST PUSH1 0x40 DUP1 MLOAD SWAP2 DUP3 MSTORE MLOAD SWAP1 DUP2 SWAP1 SUB PUSH1 0x20 ADD SWAP1 RETURN JUMPDEST PUSH1 0x5F PUSH1 0x6D JUMP JUMPDEST STOP JUMPDEST PUSH1 0x5F PUSH1 0x87 JUMP JUMPDEST PUSH1 0x0 SLOAD DUP2 JUMP JUMPDEST PUSH1 0x0 JUMPDEST PUSH1 0xA DUP2 GT PUSH1 0x84 JUMPI PUSH1 0x7D PUSH1 0x87 JUMP JUMPDEST PUSH1 0x1 ADD PUSH1 0x70 JUMP JUMPDEST POP JUMP JUMPDEST PUSH1 0x0 DUP1 SLOAD PUSH1 0x1 ADD SWAP1 SSTORE JUMP INVALID LOG2 PUSH5 0x6970667358 0x22 SLT KECCAK256 DUP1 0xE2 0x23 CREATE PUSH1 0xE0 0x2D 0xC2 0xE4 0xEE EXTCODECOPY DUP1 PUSH6 0x3F62D5541AC2 SWAP8 0xD2 PUSH31 0xBE687126FF073595361664736F6C634300060C003300000000000000000000 ",
  "sha1": "3a0906211d6c09af4b7a8d6252a8e2ae285af914",
  "source": "pragma solidity ^0.6.2;\n\ncontract loops62 {\n\n    uint256 public count;\n\n    function increment() public {\n        count++;\n    }\n\n    function loop() public {\n        for (uint256 i = 0; i <= 10; i++) {\n            increment();\n        }\n    }\n}",
  "sourcePath": "contracts/verifiable_contracts_gpt/Loops62.sol",
  "type": "contract"
}