{
  "abi": [
    {
      "inputs": [],
      "name": "looping",
      "outputs": [],
      "stateMutability": "nonpayable",
      "type": "function"
    }
  ],
  "bytecode": "6080604052348015600f57600080fd5b5060808061001e6000396000f3fe6080604052348015600f57600080fd5b506004361060285760003560e01c8063434e405914602d575b600080fd5b60336035565b005b60005b600a8110156047576001016038565b5056fea264697066735822122018385a271e9323578ab2d7fa21025b5a6f825221b4c5978510dea66e1caa63c764736f6c634300060c0033",
  "bytecodeSha1": "1ccccdbdd519cf594fd0d9029fc3fd6d09188a22",
  "compiler": {
    "evm_version": "istanbul",
    "optimizer": {
      "enabled": true,
      "runs": 200
    },
    "version": "0.6.12+commit.27d51765"
  },
  "contractName": "loops61",
  "language": "Solidity",
  "natspec": {
    "kind": "dev",
    "methods": {},
    "version": 1
  },
  "opcodes": "PUSH1 0x80 PUSH1 0x40 MSTORE CALLVALUE DUP1 ISZERO PUSH1 0xF JUMPI PUSH1 0x0 DUP1 REVERT JUMPDEST POP PUSH1 0x4 CALLDATASIZE LT PUSH1 0x28 JUMPI PUSH1 0x0 CALLDATALOAD PUSH1 0xE0 SHR DUP1 PUSH4 0x434E4059 EQ PUSH1 0x2D JUMPI JUMPDEST PUSH1 0x0 DUP1 REVERT JUMPDEST PUSH1 0x33 PUSH1 0x35 JUMP JUMPDEST STOP JUMPDEST PUSH1 0x0 JUMPDEST PUSH1 0xA DUP2 LT ISZERO PUSH1 0x47 JUMPI PUSH1 0x1 ADD PUSH1 0x38 JUMP JUMPDEST POP JUMP INVALID LOG2 PUSH5 0x6970667358 0x22 SLT KECCAK256 XOR CODESIZE GAS 0x27 0x1E SWAP4 0x23 JUMPI DUP11 0xB2 0xD7 STATICCALL 0x21 MUL JUMPDEST GAS PUSH16 0x825221B4C5978510DEA66E1CAA63C764 PUSH20 0x6F6C634300060C00330000000000000000000000 ",
  "sha1": "a50270e9d0d5c8cb944213e03fb9a97123a6b39e",
  "source": "pragma solidity ^0.6.1;\n\ncontract loops61 {\n    function looping() public {\n        uint256 i;\n        for (i = 0; i < 10; i++) {\n            // do something\n        }\n    }\n}",
  "sourcePath": "contracts/unOptimized_contracts/Loops61.sol",
  "type": "contract"
}