{
  "abi": [
    {
      "inputs": [],
      "stateMutability": "nonpayable",
      "type": "constructor"
    },
    {
      "inputs": [],
      "name": "count",
      "outputs": [
        {
          "internalType": "uint256",
          "name": "",
          "type": "uint256"
        }
      ],
      "stateMutability": "view",
      "type": "function"
    },
    {
      "inputs": [],
      "name": "increment",
      "outputs": [],
      "stateMutability": "nonpayable",
      "type": "function"
    },
    {
      "inputs": [],
      "name": "loop",
      "outputs": [],
      "stateMutability": "nonpayable",
      "type": "function"
    }
  ],
  "bytecode": "608060405234801561001057600080fd5b506000805560c9806100236000396000f3fe6080604052348015600f57600080fd5b5060043610603c5760003560e01c806306661abd146041578063a92100cb146059578063d09de08a146061575b600080fd5b60476067565b60408051918252519081900360200190f35b605f606d565b005b605f6088565b60005481565b60005b600a811015608557607e6088565b6001016070565b50565b60008054600101905556fea2646970667358221220a53831c64276aecd588240cad186a00a19d6cef2e61ac614e05da382f7a75cdc64736f6c634300060c0033",
  "bytecodeSha1": "516ca4a4a5460f4edaa4740c434eb3b0949ecd9c",
  "compiler": {
    "evm_version": "istanbul",
    "optimizer": {
      "enabled": true,
      "runs": 200
    },
    "version": "0.6.12+commit.27d51765"
  },
  "contractName": "loops6",
  "language": "Solidity",
  "natspec": {
    "kind": "dev",
    "methods": {},
    "version": 1
  },
  "opcodes": "PUSH1 0x80 PUSH1 0x40 MSTORE CALLVALUE DUP1 ISZERO PUSH1 0xF JUMPI PUSH1 0x0 DUP1 REVERT JUMPDEST POP PUSH1 0x4 CALLDATASIZE LT PUSH1 0x3C JUMPI PUSH1 0x0 CALLDATALOAD PUSH1 0xE0 SHR DUP1 PUSH4 0x6661ABD EQ PUSH1 0x41 JUMPI DUP1 PUSH4 0xA92100CB EQ PUSH1 0x59 JUMPI DUP1 PUSH4 0xD09DE08A EQ PUSH1 0x61 JUMPI JUMPDEST PUSH1 0x0 DUP1 REVERT JUMPDEST PUSH1 0x47 PUSH1 0x67 JUMP JUMPDEST PUSH1 0x40 DUP1 MLOAD SWAP2 DUP3 MSTORE MLOAD SWAP1 DUP2 SWAP1 SUB PUSH1 0x20 ADD SWAP1 RETURN JUMPDEST PUSH1 0x5F PUSH1 0x6D JUMP JUMPDEST STOP JUMPDEST PUSH1 0x5F PUSH1 0x88 JUMP JUMPDEST PUSH1 0x0 SLOAD DUP2 JUMP JUMPDEST PUSH1 0x0 JUMPDEST PUSH1 0xA DUP2 LT ISZERO PUSH1 0x85 JUMPI PUSH1 0x7E PUSH1 0x88 JUMP JUMPDEST PUSH1 0x1 ADD PUSH1 0x70 JUMP JUMPDEST POP JUMP JUMPDEST PUSH1 0x0 DUP1 SLOAD PUSH1 0x1 ADD SWAP1 SSTORE JUMP INVALID LOG2 PUSH5 0x6970667358 0x22 SLT KECCAK256 0xA5 CODESIZE BALANCE 0xC6 TIMESTAMP PUSH23 0xAECD588240CAD186A00A19D6CEF2E61AC614E05DA382F7 0xA7 0x5C 0xDC PUSH5 0x736F6C6343 STOP MOD 0xC STOP CALLER ",
  "sha1": "92dc0729a0ace3524357e3b2b03b46770b2d49e5",
  "source": "pragma solidity ^0.6.0;\n\ncontract loops6 {\n    // State variable to track the number of iterations\n    uint256 public count;\n    \n    // Constructor\n    constructor() public {\n        count = 0;\n    }\n    \n    // Function to increment the count\n    function increment() public {\n        count += 1;\n    }\n    \n    // Function to loop through a range of numbers\n    function loop() public {\n        for (uint256 i = 0; i < 10; i++) {\n            increment();\n        }\n    }\n}",
  "sourcePath": "contracts/verifiable_contracts_gpt/Loops6.sol",
  "type": "contract"
}