{
  "abi": [
    {
      "constant": false,
      "inputs": [],
      "name": "loop",
      "outputs": [],
      "payable": false,
      "stateMutability": "nonpayable",
      "type": "function"
    },
    {
      "constant": true,
      "inputs": [],
      "name": "total",
      "outputs": [
        {
          "internalType": "uint256",
          "name": "",
          "type": "uint256"
        }
      ],
      "payable": false,
      "stateMutability": "view",
      "type": "function"
    }
  ],
  "bytecode": "608060405234801561001057600080fd5b5060b28061001f6000396000f3fe6080604052348015600f57600080fd5b506004361060325760003560e01c80632ddbd13a146037578063a92100cb14604f575b600080fd5b603d6057565b60408051918252519081900360200190f35b6055605d565b005b60005481565b60008080555b600a811015607a5760008054820190556001016063565b5056fea265627a7a72315820d594a807969cbd9255365b64acab38d370e144fa3f49b2524700d909c946d47464736f6c63430005110032",
  "bytecodeSha1": "c2d4200aec25c5a95a84006dbac7a4085e3a3fa0",
  "compiler": {
    "evm_version": "istanbul",
    "optimizer": {
      "enabled": true,
      "runs": 200
    },
    "version": "0.5.17+commit.d19bba13"
  },
  "contractName": "loops82",
  "language": "Solidity",
  "natspec": {
    "methods": {}
  },
  "opcodes": "PUSH1 0x80 PUSH1 0x40 MSTORE CALLVALUE DUP1 ISZERO PUSH1 0xF JUMPI PUSH1 0x0 DUP1 REVERT JUMPDEST POP PUSH1 0x4 CALLDATASIZE LT PUSH1 0x32 JUMPI PUSH1 0x0 CALLDATALOAD PUSH1 0xE0 SHR DUP1 PUSH4 0x2DDBD13A EQ PUSH1 0x37 JUMPI DUP1 PUSH4 0xA92100CB EQ PUSH1 0x4F JUMPI JUMPDEST PUSH1 0x0 DUP1 REVERT JUMPDEST PUSH1 0x3D PUSH1 0x57 JUMP JUMPDEST PUSH1 0x40 DUP1 MLOAD SWAP2 DUP3 MSTORE MLOAD SWAP1 DUP2 SWAP1 SUB PUSH1 0x20 ADD SWAP1 RETURN JUMPDEST PUSH1 0x55 PUSH1 0x5D JUMP JUMPDEST STOP JUMPDEST PUSH1 0x0 SLOAD DUP2 JUMP JUMPDEST PUSH1 0x0 DUP1 DUP1 SSTORE JUMPDEST PUSH1 0xA DUP2 LT ISZERO PUSH1 0x7A JUMPI PUSH1 0x0 DUP1 SLOAD DUP3 ADD SWAP1 SSTORE PUSH1 0x1 ADD PUSH1 0x63 JUMP JUMPDEST POP JUMP INVALID LOG2 PUSH6 0x627A7A723158 KECCAK256 0xD5 SWAP5 0xA8 SMOD SWAP7 SWAP13 0xBD SWAP3 SSTORE CALLDATASIZE JUMPDEST PUSH5 0xACAB38D370 0xE1 DIFFICULTY STATICCALL EXTCODEHASH 0x49 0xB2 MSTORE SELFBALANCE STOP 0xD9 MULMOD 0xC9 CHAINID 0xD4 PUSH21 0x64736F6C6343000511003200000000000000000000 ",
  "sha1": "1dbdf5f8587c1ffa7aadc62ba9c91c180dd1bfa1",
  "source": "pragma solidity ^0.5.0;\n\ncontract loops82 {\n    uint public total;\n\n    function loop() public {\n        total = 0;\n        for(uint i = 0; i < 10; i++) {\n            total += i;\n        }\n    }\n}",
  "sourcePath": "contracts/verifiable_contracts_gpt/Loops82.sol",
  "type": "contract"
}