{
  "abi": [
    {
      "inputs": [],
      "payable": false,
      "stateMutability": "nonpayable",
      "type": "constructor"
    },
    {
      "constant": true,
      "inputs": [],
      "name": "count",
      "outputs": [
        {
          "internalType": "uint256",
          "name": "",
          "type": "uint256"
        }
      ],
      "payable": false,
      "stateMutability": "view",
      "type": "function"
    },
    {
      "constant": false,
      "inputs": [],
      "name": "loop32",
      "outputs": [],
      "payable": false,
      "stateMutability": "nonpayable",
      "type": "function"
    }
  ],
  "bytecode": "60806040526000805534801561001457600080fd5b506000805560b1806100276000396000f3fe6080604052348015600f57600080fd5b506004361060325760003560e01c806306661abd146037578063f6cc642d14604f575b600080fd5b603d6057565b60408051918252519081900360200190f35b6055605d565b005b60005481565b60005b6020811015607957600080546001908101909155016060565b5056fea265627a7a72315820cf41e7c6faefe42945348ca9670b9fd6ed39c4dc1e2c8b2070042c81e00ce85464736f6c63430005110032",
  "bytecodeSha1": "fb1d8332d50bf597ed6adfef6f6addb32bd46c10",
  "compiler": {
    "evm_version": "istanbul",
    "optimizer": {
      "enabled": true,
      "runs": 200
    },
    "version": "0.5.17+commit.d19bba13"
  },
  "contractName": "loops32",
  "language": "Solidity",
  "natspec": {
    "methods": {}
  },
  "opcodes": "PUSH1 0x80 PUSH1 0x40 MSTORE CALLVALUE DUP1 ISZERO PUSH1 0xF JUMPI PUSH1 0x0 DUP1 REVERT JUMPDEST POP PUSH1 0x4 CALLDATASIZE LT PUSH1 0x32 JUMPI PUSH1 0x0 CALLDATALOAD PUSH1 0xE0 SHR DUP1 PUSH4 0x6661ABD EQ PUSH1 0x37 JUMPI DUP1 PUSH4 0xF6CC642D EQ PUSH1 0x4F JUMPI JUMPDEST PUSH1 0x0 DUP1 REVERT JUMPDEST PUSH1 0x3D PUSH1 0x57 JUMP JUMPDEST PUSH1 0x40 DUP1 MLOAD SWAP2 DUP3 MSTORE MLOAD SWAP1 DUP2 SWAP1 SUB PUSH1 0x20 ADD SWAP1 RETURN JUMPDEST PUSH1 0x55 PUSH1 0x5D JUMP JUMPDEST STOP JUMPDEST PUSH1 0x0 SLOAD DUP2 JUMP JUMPDEST PUSH1 0x0 JUMPDEST PUSH1 0x20 DUP2 LT ISZERO PUSH1 0x79 JUMPI PUSH1 0x0 DUP1 SLOAD PUSH1 0x1 SWAP1 DUP2 ADD SWAP1 SWAP2 SSTORE ADD PUSH1 0x60 JUMP JUMPDEST POP JUMP INVALID LOG2 PUSH6 0x627A7A723158 KECCAK256 0xCF COINBASE 0xE7 0xC6 STATICCALL 0xEF 0xE4 0x29 GASLIMIT CALLVALUE DUP13 0xA9 PUSH8 0xB9FD6ED39C4DC1E 0x2C DUP12 KECCAK256 PUSH17 0x42C81E00CE85464736F6C634300051100 ORIGIN ",
  "sha1": "8e1c3e15d8c2e5a70a8965d8f37bab9b59ac855f",
  "source": "pragma solidity ^0.5.0;\n\ncontract loops32 {\n    uint public count = 0;\n\n    constructor() public {\n        // Initialize the count to 0\n        count = 0;\n    }\n\n    function loop32() public {\n        // Unoptimized loop based pattern\n        for (uint i = 0; i < 32; i++) {\n            count++;\n        }\n    }\n}",
  "sourcePath": "contracts/verifiable_contracts_gpt/Loops32.sol",
  "type": "contract"
}