{
  "abi": [
    {
      "inputs": [],
      "payable": false,
      "stateMutability": "nonpayable",
      "type": "constructor"
    },
    {
      "constant": true,
      "inputs": [],
      "name": "counter",
      "outputs": [
        {
          "internalType": "uint256",
          "name": "",
          "type": "uint256"
        }
      ],
      "payable": false,
      "stateMutability": "view",
      "type": "function"
    },
    {
      "constant": false,
      "inputs": [],
      "name": "loop5",
      "outputs": [],
      "payable": false,
      "stateMutability": "nonpayable",
      "type": "function"
    }
  ],
  "bytecode": "608060405234801561001057600080fd5b506000805560b1806100236000396000f3fe6080604052348015600f57600080fd5b506004361060325760003560e01c80633fbd13e214603757806361bc221a14603f575b600080fd5b603d6057565b005b60456076565b60408051918252519081900360200190f35b60005b600581101560735760008054600190810190915501605a565b50565b6000548156fea265627a7a72315820be085de98e3bbaf11f8e4671033a6d63b6d2179c51c0b22bb6ffb44660d5fa9a64736f6c63430005110032",
  "bytecodeSha1": "ebc75fc71b319ac549db365843aed25dd630c50d",
  "compiler": {
    "evm_version": "istanbul",
    "optimizer": {
      "enabled": true,
      "runs": 200
    },
    "version": "0.5.17+commit.d19bba13"
  },
  "contractName": "loops5",
  "language": "Solidity",
  "natspec": {
    "methods": {}
  },
  "opcodes": "PUSH1 0x80 PUSH1 0x40 MSTORE CALLVALUE DUP1 ISZERO PUSH1 0xF JUMPI PUSH1 0x0 DUP1 REVERT JUMPDEST POP PUSH1 0x4 CALLDATASIZE LT PUSH1 0x32 JUMPI PUSH1 0x0 CALLDATALOAD PUSH1 0xE0 SHR DUP1 PUSH4 0x3FBD13E2 EQ PUSH1 0x37 JUMPI DUP1 PUSH4 0x61BC221A EQ PUSH1 0x3F JUMPI JUMPDEST PUSH1 0x0 DUP1 REVERT JUMPDEST PUSH1 0x3D PUSH1 0x57 JUMP JUMPDEST STOP JUMPDEST PUSH1 0x45 PUSH1 0x76 JUMP JUMPDEST PUSH1 0x40 DUP1 MLOAD SWAP2 DUP3 MSTORE MLOAD SWAP1 DUP2 SWAP1 SUB PUSH1 0x20 ADD SWAP1 RETURN JUMPDEST PUSH1 0x0 JUMPDEST PUSH1 0x5 DUP2 LT ISZERO PUSH1 0x73 JUMPI PUSH1 0x0 DUP1 SLOAD PUSH1 0x1 SWAP1 DUP2 ADD SWAP1 SWAP2 SSTORE ADD PUSH1 0x5A JUMP JUMPDEST POP JUMP JUMPDEST PUSH1 0x0 SLOAD DUP2 JUMP INVALID LOG2 PUSH6 0x627A7A723158 KECCAK256 0xBE ADDMOD 0x5D 0xE9 DUP15 EXTCODESIZE 0xBA CALL 0x1F DUP15 CHAINID PUSH18 0x33A6D63B6D2179C51C0B22BB6FFB44660D5 STATICCALL SWAP11 PUSH5 0x736F6C6343 STOP SDIV GT STOP ORIGIN ",
  "sha1": "3200f5c7b449c3b951cf5f2d8619046f78d749b3",
  "source": "pragma solidity ^0.5.0;\n\ncontract loops5 {\n    uint256 public counter;\n\n    constructor() public {\n        counter = 0;\n    }\n\n    function loop5() public {\n        for (uint256 i = 0; i < 5; i++) {\n            counter++;\n        }\n    }\n\n}",
  "sourcePath": "contracts/unOptimized_contracts/Loops5.sol",
  "type": "contract"
}