{
  "abi": [
    {
      "inputs": [],
      "payable": false,
      "stateMutability": "nonpayable",
      "type": "constructor"
    },
    {
      "constant": true,
      "inputs": [],
      "name": "counter",
      "outputs": [
        {
          "internalType": "uint256",
          "name": "",
          "type": "uint256"
        }
      ],
      "payable": false,
      "stateMutability": "view",
      "type": "function"
    },
    {
      "constant": false,
      "inputs": [],
      "name": "loopIt",
      "outputs": [],
      "payable": false,
      "stateMutability": "nonpayable",
      "type": "function"
    }
  ],
  "bytecode": "608060405234801561001057600080fd5b506000805560b1806100236000396000f3fe6080604052348015600f57600080fd5b506004361060325760003560e01c80634757f20f14603757806361bc221a14603f575b600080fd5b603d6057565b005b60456076565b60408051918252519081900360200190f35b60005b602a81101560735760008054600190810190915501605a565b50565b6000548156fea265627a7a7231582076cb126997930d0cc9cd3a5b030a1cbf7e4a3caa8192b565c4d26f3127c7468864736f6c63430005110032",
  "bytecodeSha1": "4415a63b73e0711b46002a63f3c4085497d08930",
  "compiler": {
    "evm_version": "istanbul",
    "optimizer": {
      "enabled": true,
      "runs": 200
    },
    "version": "0.5.17+commit.d19bba13"
  },
  "contractName": "loops42",
  "language": "Solidity",
  "natspec": {
    "methods": {}
  },
  "opcodes": "PUSH1 0x80 PUSH1 0x40 MSTORE CALLVALUE DUP1 ISZERO PUSH1 0xF JUMPI PUSH1 0x0 DUP1 REVERT JUMPDEST POP PUSH1 0x4 CALLDATASIZE LT PUSH1 0x32 JUMPI PUSH1 0x0 CALLDATALOAD PUSH1 0xE0 SHR DUP1 PUSH4 0x4757F20F EQ PUSH1 0x37 JUMPI DUP1 PUSH4 0x61BC221A EQ PUSH1 0x3F JUMPI JUMPDEST PUSH1 0x0 DUP1 REVERT JUMPDEST PUSH1 0x3D PUSH1 0x57 JUMP JUMPDEST STOP JUMPDEST PUSH1 0x45 PUSH1 0x76 JUMP JUMPDEST PUSH1 0x40 DUP1 MLOAD SWAP2 DUP3 MSTORE MLOAD SWAP1 DUP2 SWAP1 SUB PUSH1 0x20 ADD SWAP1 RETURN JUMPDEST PUSH1 0x0 JUMPDEST PUSH1 0x2A DUP2 LT ISZERO PUSH1 0x73 JUMPI PUSH1 0x0 DUP1 SLOAD PUSH1 0x1 SWAP1 DUP2 ADD SWAP1 SWAP2 SSTORE ADD PUSH1 0x5A JUMP JUMPDEST POP JUMP JUMPDEST PUSH1 0x0 SLOAD DUP2 JUMP INVALID LOG2 PUSH6 0x627A7A723158 KECCAK256 PUSH23 0xCB126997930D0CC9CD3A5B030A1CBF7E4A3CAA8192B565 0xC4 0xD2 PUSH16 0x3127C7468864736F6C63430005110032 ",
  "sha1": "16e7532d8c8803836e1290aaf6809af6f0e4f4ed",
  "source": "pragma solidity ^0.5.0;\n\ncontract loops42 {\n    uint public counter;\n\n    constructor() public {\n        counter = 0;\n    }\n\n    function loopIt() public {\n        for (uint i = 0; i < 42; i++) {\n            counter++;\n        }\n    }\n}",
  "sourcePath": "contracts/unOptimized_contracts/Loops42.sol",
  "type": "contract"
}