{
  "abi": [
    {
      "constant": true,
      "inputs": [
        {
          "internalType": "uint256",
          "name": "",
          "type": "uint256"
        }
      ],
      "name": "data",
      "outputs": [
        {
          "internalType": "uint256",
          "name": "",
          "type": "uint256"
        }
      ],
      "payable": false,
      "stateMutability": "view",
      "type": "function"
    },
    {
      "constant": false,
      "inputs": [],
      "name": "generateLoop",
      "outputs": [],
      "payable": false,
      "stateMutability": "nonpayable",
      "type": "function"
    }
  ],
  "bytecode": "608060405234801561001057600080fd5b5060d88061001f6000396000f3fe6080604052348015600f57600080fd5b506004361060325760003560e01c8063deae8209146037578063f0ba844014603f575b600080fd5b603d606b565b005b605960048036036020811015605357600080fd5b50356091565b60408051918252519081900360200190f35b60005b6045811015608e576000818152602081905260409020819055600101606e565b50565b6000602081905290815260409020548156fea265627a7a72315820f16ae5119ac1a84a08ff1e8e0846f23bef29d80cd1232bbe7f1abebe1fa70a9964736f6c63430005110032",
  "bytecodeSha1": "8fb9458a2262f17c9bce9bf7decab96970f4454c",
  "compiler": {
    "evm_version": "istanbul",
    "optimizer": {
      "enabled": true,
      "runs": 200
    },
    "version": "0.5.17+commit.d19bba13"
  },
  "contractName": "loops68",
  "language": "Solidity",
  "natspec": {
    "methods": {}
  },
  "opcodes": "PUSH1 0x80 PUSH1 0x40 MSTORE CALLVALUE DUP1 ISZERO PUSH1 0xF JUMPI PUSH1 0x0 DUP1 REVERT JUMPDEST POP PUSH1 0x4 CALLDATASIZE LT PUSH1 0x32 JUMPI PUSH1 0x0 CALLDATALOAD PUSH1 0xE0 SHR DUP1 PUSH4 0xDEAE8209 EQ PUSH1 0x37 JUMPI DUP1 PUSH4 0xF0BA8440 EQ PUSH1 0x3F JUMPI JUMPDEST PUSH1 0x0 DUP1 REVERT JUMPDEST PUSH1 0x3D PUSH1 0x6B JUMP JUMPDEST STOP JUMPDEST PUSH1 0x59 PUSH1 0x4 DUP1 CALLDATASIZE SUB PUSH1 0x20 DUP2 LT ISZERO PUSH1 0x53 JUMPI PUSH1 0x0 DUP1 REVERT JUMPDEST POP CALLDATALOAD PUSH1 0x91 JUMP JUMPDEST PUSH1 0x40 DUP1 MLOAD SWAP2 DUP3 MSTORE MLOAD SWAP1 DUP2 SWAP1 SUB PUSH1 0x20 ADD SWAP1 RETURN JUMPDEST PUSH1 0x0 JUMPDEST PUSH1 0x45 DUP2 LT ISZERO PUSH1 0x8E JUMPI PUSH1 0x0 DUP2 DUP2 MSTORE PUSH1 0x20 DUP2 SWAP1 MSTORE PUSH1 0x40 SWAP1 KECCAK256 DUP2 SWAP1 SSTORE PUSH1 0x1 ADD PUSH1 0x6E JUMP JUMPDEST POP JUMP JUMPDEST PUSH1 0x0 PUSH1 0x20 DUP2 SWAP1 MSTORE SWAP1 DUP2 MSTORE PUSH1 0x40 SWAP1 KECCAK256 SLOAD DUP2 JUMP INVALID LOG2 PUSH6 0x627A7A723158 KECCAK256 CALL PUSH11 0xE5119AC1A84A08FF1E8E08 CHAINID CALLCODE EXTCODESIZE 0xEF 0x29 0xD8 0xC 0xD1 0x23 0x2B 0xBE PUSH32 0x1ABEBE1FA70A9964736F6C634300051100320000000000000000000000000000 ",
  "sha1": "6643096bc90d09f03cc42b967fd77ff6d8335240",
  "source": "pragma solidity ^0.5.0;\n\ncontract loops68 {\n    // declare a mapping of uint to uint\n    mapping (uint => uint) public data;\n\n    // define a function to generate a loop\n    function generateLoop() public {\n        // loop from 0 to 68\n        for (uint i = 0; i < 69; i++) {\n            // set the value of data[i] to i\n            data[i] = i;\n        }\n    }\n}",
  "sourcePath": "contracts/unOptimized_contracts/Loops68.sol",
  "type": "contract"
}