{
  "abi": [
    {
      "constant": true,
      "inputs": [],
      "name": "count",
      "outputs": [
        {
          "internalType": "uint256",
          "name": "",
          "type": "uint256"
        }
      ],
      "payable": false,
      "stateMutability": "view",
      "type": "function"
    },
    {
      "constant": false,
      "inputs": [],
      "name": "loop59",
      "outputs": [],
      "payable": false,
      "stateMutability": "nonpayable",
      "type": "function"
    }
  ],
  "bytecode": "608060405234801561001057600080fd5b5060b48061001f6000396000f3fe6080604052348015600f57600080fd5b506004361060325760003560e01c806306661abd1460375780635a09476e14604f575b600080fd5b603d6057565b60408051918252519081900360200190f35b6055605d565b005b60005481565b60008080555b603b811015607c57600080546001908101909155016063565b5056fea265627a7a72315820a779b2c4c5242b4e8845fbcdfea8ffe39d56660570a4eaa0a6709a81eb8524b564736f6c63430005110032",
  "bytecodeSha1": "b84f642b1e8afcafa74f1646788c5ee4c03f4aa8",
  "compiler": {
    "evm_version": "istanbul",
    "optimizer": {
      "enabled": true,
      "runs": 200
    },
    "version": "0.5.17+commit.d19bba13"
  },
  "contractName": "loops59",
  "language": "Solidity",
  "natspec": {
    "methods": {}
  },
  "opcodes": "PUSH1 0x80 PUSH1 0x40 MSTORE CALLVALUE DUP1 ISZERO PUSH1 0xF JUMPI PUSH1 0x0 DUP1 REVERT JUMPDEST POP PUSH1 0x4 CALLDATASIZE LT PUSH1 0x32 JUMPI PUSH1 0x0 CALLDATALOAD PUSH1 0xE0 SHR DUP1 PUSH4 0x6661ABD EQ PUSH1 0x37 JUMPI DUP1 PUSH4 0x5A09476E EQ PUSH1 0x4F JUMPI JUMPDEST PUSH1 0x0 DUP1 REVERT JUMPDEST PUSH1 0x3D PUSH1 0x57 JUMP JUMPDEST PUSH1 0x40 DUP1 MLOAD SWAP2 DUP3 MSTORE MLOAD SWAP1 DUP2 SWAP1 SUB PUSH1 0x20 ADD SWAP1 RETURN JUMPDEST PUSH1 0x55 PUSH1 0x5D JUMP JUMPDEST STOP JUMPDEST PUSH1 0x0 SLOAD DUP2 JUMP JUMPDEST PUSH1 0x0 DUP1 DUP1 SSTORE JUMPDEST PUSH1 0x3B DUP2 LT ISZERO PUSH1 0x7C JUMPI PUSH1 0x0 DUP1 SLOAD PUSH1 0x1 SWAP1 DUP2 ADD SWAP1 SWAP2 SSTORE ADD PUSH1 0x63 JUMP JUMPDEST POP JUMP INVALID LOG2 PUSH6 0x627A7A723158 KECCAK256 0xA7 PUSH26 0xB2C4C5242B4E8845FBCDFEA8FFE39D56660570A4EAA0A6709A81 0xEB DUP6 0x24 0xB5 PUSH5 0x736F6C6343 STOP SDIV GT STOP ORIGIN ",
  "sha1": "020353b924788716c9b744350309d7b1be5a5082",
  "source": "pragma solidity ^0.5.0;\n\ncontract loops59 {\n    uint256 public count;\n\n    function loop59() public {\n        count = 0;\n        for (uint256 i = 0; i < 59; i++) {\n            count++;\n        }\n    }\n}",
  "sourcePath": "contracts/unOptimized_contracts/Loops59.sol",
  "type": "contract"
}