{
  "abi": [
    {
      "constant": true,
      "inputs": [],
      "name": "count",
      "outputs": [
        {
          "internalType": "uint256",
          "name": "",
          "type": "uint256"
        }
      ],
      "payable": false,
      "stateMutability": "view",
      "type": "function"
    },
    {
      "constant": false,
      "inputs": [],
      "name": "loopCount",
      "outputs": [
        {
          "internalType": "uint256",
          "name": "",
          "type": "uint256"
        }
      ],
      "payable": false,
      "stateMutability": "nonpayable",
      "type": "function"
    }
  ],
  "bytecode": "60806040526000805534801561001457600080fd5b5060b5806100236000396000f3fe6080604052348015600f57600080fd5b506004361060325760003560e01c806306661abd146037578063e91675b814604f575b600080fd5b603d6055565b60408051918252519081900360200190f35b603d605b565b60005481565b6000805b600f81101560785760008054600190810190915501605f565b50506000549056fea265627a7a72315820401c89d0eaf027737f95dfb4242c5696de80b4ac1bdd527dc5f45251aa7ac2b464736f6c63430005110032",
  "bytecodeSha1": "e2474cd48430166e40aafff3ffd5754c1ff66a08",
  "compiler": {
    "evm_version": "istanbul",
    "optimizer": {
      "enabled": true,
      "runs": 200
    },
    "version": "0.5.17+commit.d19bba13"
  },
  "contractName": "loops15",
  "language": "Solidity",
  "natspec": {
    "methods": {}
  },
  "opcodes": "PUSH1 0x80 PUSH1 0x40 MSTORE CALLVALUE DUP1 ISZERO PUSH1 0xF JUMPI PUSH1 0x0 DUP1 REVERT JUMPDEST POP PUSH1 0x4 CALLDATASIZE LT PUSH1 0x32 JUMPI PUSH1 0x0 CALLDATALOAD PUSH1 0xE0 SHR DUP1 PUSH4 0x6661ABD EQ PUSH1 0x37 JUMPI DUP1 PUSH4 0xE91675B8 EQ PUSH1 0x4F JUMPI JUMPDEST PUSH1 0x0 DUP1 REVERT JUMPDEST PUSH1 0x3D PUSH1 0x55 JUMP JUMPDEST PUSH1 0x40 DUP1 MLOAD SWAP2 DUP3 MSTORE MLOAD SWAP1 DUP2 SWAP1 SUB PUSH1 0x20 ADD SWAP1 RETURN JUMPDEST PUSH1 0x3D PUSH1 0x5B JUMP JUMPDEST PUSH1 0x0 SLOAD DUP2 JUMP JUMPDEST PUSH1 0x0 DUP1 JUMPDEST PUSH1 0xF DUP2 LT ISZERO PUSH1 0x78 JUMPI PUSH1 0x0 DUP1 SLOAD PUSH1 0x1 SWAP1 DUP2 ADD SWAP1 SWAP2 SSTORE ADD PUSH1 0x5F JUMP JUMPDEST POP POP PUSH1 0x0 SLOAD SWAP1 JUMP INVALID LOG2 PUSH6 0x627A7A723158 KECCAK256 BLOCKHASH SHR DUP10 0xD0 0xEA CREATE 0x27 PUSH20 0x7F95DFB4242C5696DE80B4AC1BDD527DC5F45251 0xAA PUSH27 0xC2B464736F6C634300051100320000000000000000000000000000 ",
  "sha1": "a0bb51150709e1a433f732c89f192d701a626c23",
  "source": "pragma solidity ^0.5.0;\n\ncontract loops15 {\n    uint public count = 0;\n\n    function loopCount() public returns (uint) {\n        for (uint i = 0; i < 15; i++) {\n            count++;\n        }\n        return count;\n    }\n}",
  "sourcePath": "contracts/verifiable_contracts_gpt/Loops15.sol",
  "type": "contract"
}