{
  "abi": [
    {
      "constant": false,
      "inputs": [
        {
          "internalType": "uint256[]",
          "name": "arr",
          "type": "uint256[]"
        }
      ],
      "name": "loopThroughArray",
      "outputs": [
        {
          "internalType": "uint256",
          "name": "",
          "type": "uint256"
        }
      ],
      "payable": false,
      "stateMutability": "nonpayable",
      "type": "function"
    },
    {
      "constant": false,
      "inputs": [],
      "name": "loopThroughMapping",
      "outputs": [
        {
          "internalType": "uint256",
          "name": "",
          "type": "uint256"
        }
      ],
      "payable": false,
      "stateMutability": "nonpayable",
      "type": "function"
    },
    {
      "constant": false,
      "inputs": [],
      "name": "loopThroughRange",
      "outputs": [
        {
          "internalType": "uint256",
          "name": "",
          "type": "uint256"
        }
      ],
      "payable": false,
      "stateMutability": "nonpayable",
      "type": "function"
    },
    {
      "constant": true,
      "inputs": [
        {
          "internalType": "uint256",
          "name": "",
          "type": "uint256"
        }
      ],
      "name": "m",
      "outputs": [
        {
          "internalType": "uint256",
          "name": "",
          "type": "uint256"
        }
      ],
      "payable": false,
      "stateMutability": "view",
      "type": "function"
    }
  ],
  "bytecode": "608060405234801561001057600080fd5b506101fe806100206000396000f3fe608060405234801561001057600080fd5b506004361061004c5760003560e01c80631b80fbe81461005157806337e907b81461006b57806341880323146100735780636e9410b614610116575b600080fd5b610059610133565b60408051918252519081900360200190f35b610059610163565b6100596004803603602081101561008957600080fd5b8101906020810181356401000000008111156100a457600080fd5b8201836020820111156100b657600080fd5b803590602001918460208302840111640100000000831117156100d857600080fd5b91908080602002602001604051908101604052809392919081815260200183836020028082843760009201919091525092955061017d945050505050565b6100596004803603602081101561012c57600080fd5b50356101b7565b600080805b606481101561015d576000818152602081905260409020549190910190600101610138565b50905090565b600080805b600a81101561015d5790810190600101610168565b600080805b83518110156101b05783818151811061019757fe5b6020026020010151820191508080600101915050610182565b5092915050565b6000602081905290815260409020548156fea265627a7a72315820880de54dd946ab350ad662ef4c5bac401895a27a36da5b64fbd9179d7606bb4564736f6c63430005110032",
  "bytecodeSha1": "949d053685aba73e6b164526222ad44130935c83",
  "compiler": {
    "evm_version": "istanbul",
    "optimizer": {
      "enabled": true,
      "runs": 200
    },
    "version": "0.5.17+commit.d19bba13"
  },
  "contractName": "loops67",
  "language": "Solidity",
  "natspec": {
    "methods": {}
  },
  "opcodes": "PUSH1 0x80 PUSH1 0x40 MSTORE CALLVALUE DUP1 ISZERO PUSH2 0x10 JUMPI PUSH1 0x0 DUP1 REVERT JUMPDEST POP PUSH1 0x4 CALLDATASIZE LT PUSH2 0x4C JUMPI PUSH1 0x0 CALLDATALOAD PUSH1 0xE0 SHR DUP1 PUSH4 0x1B80FBE8 EQ PUSH2 0x51 JUMPI DUP1 PUSH4 0x37E907B8 EQ PUSH2 0x6B JUMPI DUP1 PUSH4 0x41880323 EQ PUSH2 0x73 JUMPI DUP1 PUSH4 0x6E9410B6 EQ PUSH2 0x116 JUMPI JUMPDEST PUSH1 0x0 DUP1 REVERT JUMPDEST PUSH2 0x59 PUSH2 0x133 JUMP JUMPDEST PUSH1 0x40 DUP1 MLOAD SWAP2 DUP3 MSTORE MLOAD SWAP1 DUP2 SWAP1 SUB PUSH1 0x20 ADD SWAP1 RETURN JUMPDEST PUSH2 0x59 PUSH2 0x163 JUMP JUMPDEST PUSH2 0x59 PUSH1 0x4 DUP1 CALLDATASIZE SUB PUSH1 0x20 DUP2 LT ISZERO PUSH2 0x89 JUMPI PUSH1 0x0 DUP1 REVERT JUMPDEST DUP2 ADD SWAP1 PUSH1 0x20 DUP2 ADD DUP2 CALLDATALOAD PUSH5 0x100000000 DUP2 GT ISZERO PUSH2 0xA4 JUMPI PUSH1 0x0 DUP1 REVERT JUMPDEST DUP3 ADD DUP4 PUSH1 0x20 DUP3 ADD GT ISZERO PUSH2 0xB6 JUMPI PUSH1 0x0 DUP1 REVERT JUMPDEST DUP1 CALLDATALOAD SWAP1 PUSH1 0x20 ADD SWAP2 DUP5 PUSH1 0x20 DUP4 MUL DUP5 ADD GT PUSH5 0x100000000 DUP4 GT OR ISZERO PUSH2 0xD8 JUMPI PUSH1 0x0 DUP1 REVERT JUMPDEST SWAP2 SWAP1 DUP1 DUP1 PUSH1 0x20 MUL PUSH1 0x20 ADD PUSH1 0x40 MLOAD SWAP1 DUP2 ADD PUSH1 0x40 MSTORE DUP1 SWAP4 SWAP3 SWAP2 SWAP1 DUP2 DUP2 MSTORE PUSH1 0x20 ADD DUP4 DUP4 PUSH1 0x20 MUL DUP1 DUP3 DUP5 CALLDATACOPY PUSH1 0x0 SWAP3 ADD SWAP2 SWAP1 SWAP2 MSTORE POP SWAP3 SWAP6 POP PUSH2 0x17D SWAP5 POP POP POP POP POP JUMP JUMPDEST PUSH2 0x59 PUSH1 0x4 DUP1 CALLDATASIZE SUB PUSH1 0x20 DUP2 LT ISZERO PUSH2 0x12C JUMPI PUSH1 0x0 DUP1 REVERT JUMPDEST POP CALLDATALOAD PUSH2 0x1B7 JUMP JUMPDEST PUSH1 0x0 DUP1 DUP1 JUMPDEST PUSH1 0x64 DUP2 LT ISZERO PUSH2 0x15D JUMPI PUSH1 0x0 DUP2 DUP2 MSTORE PUSH1 0x20 DUP2 SWAP1 MSTORE PUSH1 0x40 SWAP1 KECCAK256 SLOAD SWAP2 SWAP1 SWAP2 ADD SWAP1 PUSH1 0x1 ADD PUSH2 0x138 JUMP JUMPDEST POP SWAP1 POP SWAP1 JUMP JUMPDEST PUSH1 0x0 DUP1 DUP1 JUMPDEST PUSH1 0xA DUP2 LT ISZERO PUSH2 0x15D JUMPI SWAP1 DUP2 ADD SWAP1 PUSH1 0x1 ADD PUSH2 0x168 JUMP JUMPDEST PUSH1 0x0 DUP1 DUP1 JUMPDEST DUP4 MLOAD DUP2 LT ISZERO PUSH2 0x1B0 JUMPI DUP4 DUP2 DUP2 MLOAD DUP2 LT PUSH2 0x197 JUMPI INVALID JUMPDEST PUSH1 0x20 MUL PUSH1 0x20 ADD ADD MLOAD DUP3 ADD SWAP2 POP DUP1 DUP1 PUSH1 0x1 ADD SWAP2 POP POP PUSH2 0x182 JUMP JUMPDEST POP SWAP3 SWAP2 POP POP JUMP JUMPDEST PUSH1 0x0 PUSH1 0x20 DUP2 SWAP1 MSTORE SWAP1 DUP2 MSTORE PUSH1 0x40 SWAP1 KECCAK256 SLOAD DUP2 JUMP INVALID LOG2 PUSH6 0x627A7A723158 KECCAK256 DUP9 0xD 0xE5 0x4D 0xD9 CHAINID 0xAB CALLDATALOAD EXP 0xD6 PUSH3 0xEF4C5B 0xAC BLOCKHASH XOR SWAP6 LOG2 PUSH27 0x36DA5B64FBD9179D7606BB4564736F6C6343000511003200000000 ",
  "sha1": "d747260f267684f2871d6c461cd4e5c68efd2d58",
  "source": "pragma solidity ^0.5.0;\n\ncontract loops67 {\n    \n    //Looping through a range of numbers\n    function loopThroughRange() public returns (uint) {\n        uint sum = 0;\n        for (uint i = 0; i < 10; i++) {\n            sum += i;\n        }\n        return sum;\n    }\n    \n    //Looping through an array\n    function loopThroughArray(uint[] memory arr) public returns (uint) {\n        uint sum = 0;\n        for (uint j = 0; j < arr.length; j++) {\n            sum += arr[j];\n        }\n        return sum;\n    }\n    \n    //Looping through a mapping\n    mapping (uint => uint) public m;\n    \n    function loopThroughMapping() public returns (uint) {\n        uint sum = 0;\n        for (uint k = 0; k < 100; k++) {\n            sum += m[k];\n        }\n        return sum;\n    }\n\n}",
  "sourcePath": "contracts/verifiable_contracts_gpt/Loops67.sol",
  "type": "contract"
}