{
  "abi": [
    {
      "constant": true,
      "inputs": [],
      "name": "counter",
      "outputs": [
        {
          "internalType": "uint256",
          "name": "",
          "type": "uint256"
        }
      ],
      "payable": false,
      "stateMutability": "view",
      "type": "function"
    },
    {
      "constant": false,
      "inputs": [],
      "name": "runLoop",
      "outputs": [],
      "payable": false,
      "stateMutability": "nonpayable",
      "type": "function"
    }
  ],
  "bytecode": "608060405234801561001057600080fd5b5060b18061001f6000396000f3fe6080604052348015600f57600080fd5b506004361060325760003560e01c806325609bee14603757806361bc221a14603f575b600080fd5b603d6057565b005b60456076565b60408051918252519081900360200190f35b60005b600a81101560735760008054600190810190915501605a565b50565b6000548156fea265627a7a72315820fc6a8daf518a927306c89354b21f4e183765da5b18d509994d9038113cba9f1c64736f6c63430005110032",
  "bytecodeSha1": "c9cffc6ddc37a6f50cdae7734121b5541df9fdb4",
  "compiler": {
    "evm_version": "istanbul",
    "optimizer": {
      "enabled": true,
      "runs": 200
    },
    "version": "0.5.17+commit.d19bba13"
  },
  "contractName": "loops11",
  "language": "Solidity",
  "natspec": {
    "methods": {}
  },
  "opcodes": "PUSH1 0x80 PUSH1 0x40 MSTORE CALLVALUE DUP1 ISZERO PUSH1 0xF JUMPI PUSH1 0x0 DUP1 REVERT JUMPDEST POP PUSH1 0x4 CALLDATASIZE LT PUSH1 0x32 JUMPI PUSH1 0x0 CALLDATALOAD PUSH1 0xE0 SHR DUP1 PUSH4 0x25609BEE EQ PUSH1 0x37 JUMPI DUP1 PUSH4 0x61BC221A EQ PUSH1 0x3F JUMPI JUMPDEST PUSH1 0x0 DUP1 REVERT JUMPDEST PUSH1 0x3D PUSH1 0x57 JUMP JUMPDEST STOP JUMPDEST PUSH1 0x45 PUSH1 0x76 JUMP JUMPDEST PUSH1 0x40 DUP1 MLOAD SWAP2 DUP3 MSTORE MLOAD SWAP1 DUP2 SWAP1 SUB PUSH1 0x20 ADD SWAP1 RETURN JUMPDEST PUSH1 0x0 JUMPDEST PUSH1 0xA DUP2 LT ISZERO PUSH1 0x73 JUMPI PUSH1 0x0 DUP1 SLOAD PUSH1 0x1 SWAP1 DUP2 ADD SWAP1 SWAP2 SSTORE ADD PUSH1 0x5A JUMP JUMPDEST POP JUMP JUMPDEST PUSH1 0x0 SLOAD DUP2 JUMP INVALID LOG2 PUSH6 0x627A7A723158 KECCAK256 0xFC PUSH11 0x8DAF518A927306C89354B2 0x1F 0x4E XOR CALLDATACOPY PUSH6 0xDA5B18D50999 0x4D SWAP1 CODESIZE GT EXTCODECOPY 0xBA SWAP16 SHR PUSH5 0x736F6C6343 STOP SDIV GT STOP ORIGIN ",
  "sha1": "0f00ccdac00d795b1b945790474d3bb6632399de",
  "source": "pragma solidity ^0.5.0;\n\ncontract loops11 {\n    uint public counter;\n\n    function runLoop() public {\n        for (uint i = 0; i < 10; i++) {\n            counter++;\n        }\n    }\n}",
  "sourcePath": "contracts/verifiable_contracts_gpt/Loops11.sol",
  "type": "contract"
}