{
  "abi": [
    {
      "inputs": [],
      "payable": false,
      "stateMutability": "nonpayable",
      "type": "constructor"
    },
    {
      "constant": true,
      "inputs": [],
      "name": "count",
      "outputs": [
        {
          "internalType": "uint256",
          "name": "",
          "type": "uint256"
        }
      ],
      "payable": false,
      "stateMutability": "view",
      "type": "function"
    },
    {
      "constant": false,
      "inputs": [],
      "name": "loop31",
      "outputs": [],
      "payable": false,
      "stateMutability": "nonpayable",
      "type": "function"
    }
  ],
  "bytecode": "608060405234801561001057600080fd5b506000805560b1806100236000396000f3fe6080604052348015600f57600080fd5b506004361060325760003560e01c806306661abd146037578063363ce9e114604f575b600080fd5b603d6057565b60408051918252519081900360200190f35b6055605d565b005b60005481565b60005b601f811015607957600080546001908101909155016060565b5056fea265627a7a72315820272b7282b31ecb8f2bc436d02b3e200eff284aa8da2775e9efd08cf1843ab9bf64736f6c63430005110032",
  "bytecodeSha1": "86cf7e6c56934a546bd4991cb89f002c38aa5168",
  "compiler": {
    "evm_version": "istanbul",
    "optimizer": {
      "enabled": true,
      "runs": 200
    },
    "version": "0.5.17+commit.d19bba13"
  },
  "contractName": "loops31",
  "language": "Solidity",
  "natspec": {
    "methods": {}
  },
  "opcodes": "PUSH1 0x80 PUSH1 0x40 MSTORE CALLVALUE DUP1 ISZERO PUSH1 0xF JUMPI PUSH1 0x0 DUP1 REVERT JUMPDEST POP PUSH1 0x4 CALLDATASIZE LT PUSH1 0x32 JUMPI PUSH1 0x0 CALLDATALOAD PUSH1 0xE0 SHR DUP1 PUSH4 0x6661ABD EQ PUSH1 0x37 JUMPI DUP1 PUSH4 0x363CE9E1 EQ PUSH1 0x4F JUMPI JUMPDEST PUSH1 0x0 DUP1 REVERT JUMPDEST PUSH1 0x3D PUSH1 0x57 JUMP JUMPDEST PUSH1 0x40 DUP1 MLOAD SWAP2 DUP3 MSTORE MLOAD SWAP1 DUP2 SWAP1 SUB PUSH1 0x20 ADD SWAP1 RETURN JUMPDEST PUSH1 0x55 PUSH1 0x5D JUMP JUMPDEST STOP JUMPDEST PUSH1 0x0 SLOAD DUP2 JUMP JUMPDEST PUSH1 0x0 JUMPDEST PUSH1 0x1F DUP2 LT ISZERO PUSH1 0x79 JUMPI PUSH1 0x0 DUP1 SLOAD PUSH1 0x1 SWAP1 DUP2 ADD SWAP1 SWAP2 SSTORE ADD PUSH1 0x60 JUMP JUMPDEST POP JUMP INVALID LOG2 PUSH6 0x627A7A723158 KECCAK256 0x27 0x2B PUSH19 0x82B31ECB8F2BC436D02B3E200EFF284AA8DA27 PUSH22 0xE9EFD08CF1843AB9BF64736F6C634300051100320000 ",
  "sha1": "bbf684b943a492d5f0da21c192f08a08461c8fe1",
  "source": "pragma solidity ^0.5.0;\n\ncontract loops31 {\n    uint256 public count;\n\n    constructor() public {\n        count = 0;\n    }\n\n    function loop31() public {\n        for (uint256 i = 0; i < 31; i++) {\n            count++;\n        }\n    }\n}",
  "sourcePath": "contracts/verifiable_contracts_gpt/Loops31.sol",
  "type": "contract"
}