{
  "abi": [
    {
      "inputs": [],
      "payable": false,
      "stateMutability": "nonpayable",
      "type": "constructor"
    },
    {
      "constant": true,
      "inputs": [],
      "name": "counter",
      "outputs": [
        {
          "internalType": "uint256",
          "name": "",
          "type": "uint256"
        }
      ],
      "payable": false,
      "stateMutability": "view",
      "type": "function"
    },
    {
      "constant": false,
      "inputs": [],
      "name": "loopCounter",
      "outputs": [
        {
          "internalType": "uint256",
          "name": "",
          "type": "uint256"
        }
      ],
      "payable": false,
      "stateMutability": "nonpayable",
      "type": "function"
    }
  ],
  "bytecode": "608060405234801561001057600080fd5b506000805560b5806100236000396000f3fe6080604052348015600f57600080fd5b506004361060325760003560e01c806361bc221a146037578063fd19282014604f575b600080fd5b603d6055565b60408051918252519081900360200190f35b603d605b565b60005481565b6000805b605081101560785760008054600190810190915501605f565b50506000549056fea265627a7a723158200aecdfe9d471680280270972c731d0e796c98e8779e82bb169775a327b7cd8e964736f6c63430005110032",
  "bytecodeSha1": "2adbae2261d272bbbdb6b42db2a037fd2a8d65b9",
  "compiler": {
    "evm_version": "istanbul",
    "optimizer": {
      "enabled": true,
      "runs": 200
    },
    "version": "0.5.17+commit.d19bba13"
  },
  "contractName": "loops80",
  "language": "Solidity",
  "natspec": {
    "methods": {}
  },
  "opcodes": "PUSH1 0x80 PUSH1 0x40 MSTORE CALLVALUE DUP1 ISZERO PUSH1 0xF JUMPI PUSH1 0x0 DUP1 REVERT JUMPDEST POP PUSH1 0x4 CALLDATASIZE LT PUSH1 0x32 JUMPI PUSH1 0x0 CALLDATALOAD PUSH1 0xE0 SHR DUP1 PUSH4 0x61BC221A EQ PUSH1 0x37 JUMPI DUP1 PUSH4 0xFD192820 EQ PUSH1 0x4F JUMPI JUMPDEST PUSH1 0x0 DUP1 REVERT JUMPDEST PUSH1 0x3D PUSH1 0x55 JUMP JUMPDEST PUSH1 0x40 DUP1 MLOAD SWAP2 DUP3 MSTORE MLOAD SWAP1 DUP2 SWAP1 SUB PUSH1 0x20 ADD SWAP1 RETURN JUMPDEST PUSH1 0x3D PUSH1 0x5B JUMP JUMPDEST PUSH1 0x0 SLOAD DUP2 JUMP JUMPDEST PUSH1 0x0 DUP1 JUMPDEST PUSH1 0x50 DUP2 LT ISZERO PUSH1 0x78 JUMPI PUSH1 0x0 DUP1 SLOAD PUSH1 0x1 SWAP1 DUP2 ADD SWAP1 SWAP2 SSTORE ADD PUSH1 0x5F JUMP JUMPDEST POP POP PUSH1 0x0 SLOAD SWAP1 JUMP INVALID LOG2 PUSH6 0x627A7A723158 KECCAK256 EXP 0xEC 0xDF 0xE9 0xD4 PUSH18 0x680280270972C731D0E796C98E8779E82BB1 PUSH10 0x775A327B7CD8E964736F PUSH13 0x63430005110032000000000000 ",
  "sha1": "a1b51ff7530135a4445e7c7cb7733df95120103f",
  "source": "pragma solidity ^0.5.11;\n\ncontract loops80 {\n    \n    uint public counter;\n    \n    constructor() public {\n        counter = 0;\n    }\n    \n    function loopCounter() public returns (uint) {\n        for (uint i = 0; i < 80; i++) {\n            counter++;\n        }\n        return counter;\n    }\n}",
  "sourcePath": "contracts/unOptimized_contracts/Loops80.sol",
  "type": "contract"
}