{
  "abi": [
    {
      "inputs": [],
      "stateMutability": "nonpayable",
      "type": "constructor"
    },
    {
      "inputs": [
        {
          "internalType": "uint256",
          "name": "",
          "type": "uint256"
        }
      ],
      "name": "array",
      "outputs": [
        {
          "internalType": "uint256",
          "name": "",
          "type": "uint256"
        }
      ],
      "stateMutability": "view",
      "type": "function"
    },
    {
      "inputs": [],
      "name": "counter",
      "outputs": [
        {
          "internalType": "uint256",
          "name": "",
          "type": "uint256"
        }
      ],
      "stateMutability": "view",
      "type": "function"
    },
    {
      "inputs": [],
      "name": "loop24",
      "outputs": [],
      "stateMutability": "nonpayable",
      "type": "function"
    },
    {
      "inputs": [
        {
          "internalType": "uint256[]",
          "name": "arr",
          "type": "uint256[]"
        }
      ],
      "name": "loop25",
      "outputs": [],
      "stateMutability": "nonpayable",
      "type": "function"
    },
    {
      "inputs": [],
      "name": "x",
      "outputs": [
        {
          "internalType": "uint256",
          "name": "",
          "type": "uint256"
        }
      ],
      "stateMutability": "view",
      "type": "function"
    }
  ],
  "bytecode": "6080604052600a60015534801561001557600080fd5b5063011f1c0060005561031c8061002d6000396000f3fe608060405234801561001057600080fd5b50600436106100575760003560e01c80630c55699c1461005c57806329238af21461007a57806338d941931461008f57806361bc221a146100a25780636dfe9e90146100aa575b600080fd5b6100646100b2565b604051610071919061025f565b60405180910390f35b61008d61008836600461018d565b6100b8565b005b61006461009d366004610247565b610124565b610064610145565b61008d61014b565b60015481565b60005b815181101561012057808282815181106100e557634e487b7160e01b600052603260045260246000fd5b60200260200101516100f79190610280565b600160008282546101089190610268565b909155508190506101188161029f565b9150506100bb565b5050565b6002818154811061013457600080fd5b600091825260209091200154905081565b60005481565b60005b601881101561018a5761016281600a610280565b6000808282546101729190610268565b909155508190506101828161029f565b91505061014e565b50565b6000602080838503121561019f578182fd5b823567ffffffffffffffff808211156101b6578384fd5b818501915085601f8301126101c9578384fd5b8135818111156101db576101db6102d0565b838102604051858282010181811085821117156101fa576101fa6102d0565b604052828152858101935084860182860187018a1015610218578788fd5b8795505b8386101561023a57803585526001959095019493860193860161021c565b5098975050505050505050565b600060208284031215610258578081fd5b5035919050565b90815260200190565b6000821982111561027b5761027b6102ba565b500190565b600081600019048311821515161561029a5761029a6102ba565b500290565b60006000198214156102b3576102b36102ba565b5060010190565b634e487b7160e01b600052601160045260246000fd5b634e487b7160e01b600052604160045260246000fdfea26469706673582212202dc13445f9362ef2e4438b30cae27cec45d11849215bfc5e47bf8fcf639bd68e64736f6c63430008000033",
  "bytecodeSha1": "543502da760f2988c972fa80403fc1d835b7c153",
  "compiler": {
    "evm_version": "istanbul",
    "optimizer": {
      "enabled": true,
      "runs": 200
    },
    "version": "0.8.0+commit.c7dfd78e"
  },
  "contractName": "mutated30",
  "language": "Solidity",
  "natspec": {
    "kind": "dev",
    "methods": {},
    "version": 1
  },
  "opcodes": "PUSH1 0x80 PUSH1 0x40 MSTORE CALLVALUE DUP1 ISZERO PUSH2 0x10 JUMPI PUSH1 0x0 DUP1 REVERT JUMPDEST POP PUSH1 0x4 CALLDATASIZE LT PUSH2 0x57 JUMPI PUSH1 0x0 CALLDATALOAD PUSH1 0xE0 SHR DUP1 PUSH4 0xC55699C EQ PUSH2 0x5C JUMPI DUP1 PUSH4 0x29238AF2 EQ PUSH2 0x7A JUMPI DUP1 PUSH4 0x38D94193 EQ PUSH2 0x8F JUMPI DUP1 PUSH4 0x61BC221A EQ PUSH2 0xA2 JUMPI DUP1 PUSH4 0x6DFE9E90 EQ PUSH2 0xAA JUMPI JUMPDEST PUSH1 0x0 DUP1 REVERT JUMPDEST PUSH2 0x64 PUSH2 0xB2 JUMP JUMPDEST PUSH1 0x40 MLOAD PUSH2 0x71 SWAP2 SWAP1 PUSH2 0x25F JUMP JUMPDEST PUSH1 0x40 MLOAD DUP1 SWAP2 SUB SWAP1 RETURN JUMPDEST PUSH2 0x8D PUSH2 0x88 CALLDATASIZE PUSH1 0x4 PUSH2 0x18D JUMP JUMPDEST PUSH2 0xB8 JUMP JUMPDEST STOP JUMPDEST PUSH2 0x64 PUSH2 0x9D CALLDATASIZE PUSH1 0x4 PUSH2 0x247 JUMP JUMPDEST PUSH2 0x124 JUMP JUMPDEST PUSH2 0x64 PUSH2 0x145 JUMP JUMPDEST PUSH2 0x8D PUSH2 0x14B JUMP JUMPDEST PUSH1 0x1 SLOAD DUP2 JUMP JUMPDEST PUSH1 0x0 JUMPDEST DUP2 MLOAD DUP2 LT ISZERO PUSH2 0x120 JUMPI DUP1 DUP3 DUP3 DUP2 MLOAD DUP2 LT PUSH2 0xE5 JUMPI PUSH4 0x4E487B71 PUSH1 0xE0 SHL PUSH1 0x0 MSTORE PUSH1 0x32 PUSH1 0x4 MSTORE PUSH1 0x24 PUSH1 0x0 REVERT JUMPDEST PUSH1 0x20 MUL PUSH1 0x20 ADD ADD MLOAD PUSH2 0xF7 SWAP2 SWAP1 PUSH2 0x280 JUMP JUMPDEST PUSH1 0x1 PUSH1 0x0 DUP3 DUP3 SLOAD PUSH2 0x108 SWAP2 SWAP1 PUSH2 0x268 JUMP JUMPDEST SWAP1 SWAP2 SSTORE POP DUP2 SWAP1 POP PUSH2 0x118 DUP2 PUSH2 0x29F JUMP JUMPDEST SWAP2 POP POP PUSH2 0xBB JUMP JUMPDEST POP POP JUMP JUMPDEST PUSH1 0x2 DUP2 DUP2 SLOAD DUP2 LT PUSH2 0x134 JUMPI PUSH1 0x0 DUP1 REVERT JUMPDEST PUSH1 0x0 SWAP2 DUP3 MSTORE PUSH1 0x20 SWAP1 SWAP2 KECCAK256 ADD SLOAD SWAP1 POP DUP2 JUMP JUMPDEST PUSH1 0x0 SLOAD DUP2 JUMP JUMPDEST PUSH1 0x0 JUMPDEST PUSH1 0x18 DUP2 LT ISZERO PUSH2 0x18A JUMPI PUSH2 0x162 DUP2 PUSH1 0xA PUSH2 0x280 JUMP JUMPDEST PUSH1 0x0 DUP1 DUP3 DUP3 SLOAD PUSH2 0x172 SWAP2 SWAP1 PUSH2 0x268 JUMP JUMPDEST SWAP1 SWAP2 SSTORE POP DUP2 SWAP1 POP PUSH2 0x182 DUP2 PUSH2 0x29F JUMP JUMPDEST SWAP2 POP POP PUSH2 0x14E JUMP JUMPDEST POP JUMP JUMPDEST PUSH1 0x0 PUSH1 0x20 DUP1 DUP4 DUP6 SUB SLT ISZERO PUSH2 0x19F JUMPI DUP2 DUP3 REVERT JUMPDEST DUP3 CALLDATALOAD PUSH8 0xFFFFFFFFFFFFFFFF DUP1 DUP3 GT ISZERO PUSH2 0x1B6 JUMPI DUP4 DUP5 REVERT JUMPDEST DUP2 DUP6 ADD SWAP2 POP DUP6 PUSH1 0x1F DUP4 ADD SLT PUSH2 0x1C9 JUMPI DUP4 DUP5 REVERT JUMPDEST DUP2 CALLDATALOAD DUP2 DUP2 GT ISZERO PUSH2 0x1DB JUMPI PUSH2 0x1DB PUSH2 0x2D0 JUMP JUMPDEST DUP4 DUP2 MUL PUSH1 0x40 MLOAD DUP6 DUP3 DUP3 ADD ADD DUP2 DUP2 LT DUP6 DUP3 GT OR ISZERO PUSH2 0x1FA JUMPI PUSH2 0x1FA PUSH2 0x2D0 JUMP JUMPDEST PUSH1 0x40 MSTORE DUP3 DUP2 MSTORE DUP6 DUP2 ADD SWAP4 POP DUP5 DUP7 ADD DUP3 DUP7 ADD DUP8 ADD DUP11 LT ISZERO PUSH2 0x218 JUMPI DUP8 DUP9 REVERT JUMPDEST DUP8 SWAP6 POP JUMPDEST DUP4 DUP7 LT ISZERO PUSH2 0x23A JUMPI DUP1 CALLDATALOAD DUP6 MSTORE PUSH1 0x1 SWAP6 SWAP1 SWAP6 ADD SWAP5 SWAP4 DUP7 ADD SWAP4 DUP7 ADD PUSH2 0x21C JUMP JUMPDEST POP SWAP9 SWAP8 POP POP POP POP POP POP POP POP JUMP JUMPDEST PUSH1 0x0 PUSH1 0x20 DUP3 DUP5 SUB SLT ISZERO PUSH2 0x258 JUMPI DUP1 DUP2 REVERT JUMPDEST POP CALLDATALOAD SWAP2 SWAP1 POP JUMP JUMPDEST SWAP1 DUP2 MSTORE PUSH1 0x20 ADD SWAP1 JUMP JUMPDEST PUSH1 0x0 DUP3 NOT DUP3 GT ISZERO PUSH2 0x27B JUMPI PUSH2 0x27B PUSH2 0x2BA JUMP JUMPDEST POP ADD SWAP1 JUMP JUMPDEST PUSH1 0x0 DUP2 PUSH1 0x0 NOT DIV DUP4 GT DUP3 ISZERO ISZERO AND ISZERO PUSH2 0x29A JUMPI PUSH2 0x29A PUSH2 0x2BA JUMP JUMPDEST POP MUL SWAP1 JUMP JUMPDEST PUSH1 0x0 PUSH1 0x0 NOT DUP3 EQ ISZERO PUSH2 0x2B3 JUMPI PUSH2 0x2B3 PUSH2 0x2BA JUMP JUMPDEST POP PUSH1 0x1 ADD SWAP1 JUMP JUMPDEST PUSH4 0x4E487B71 PUSH1 0xE0 SHL PUSH1 0x0 MSTORE PUSH1 0x11 PUSH1 0x4 MSTORE PUSH1 0x24 PUSH1 0x0 REVERT JUMPDEST PUSH4 0x4E487B71 PUSH1 0xE0 SHL PUSH1 0x0 MSTORE PUSH1 0x41 PUSH1 0x4 MSTORE PUSH1 0x24 PUSH1 0x0 REVERT INVALID LOG2 PUSH5 0x6970667358 0x22 SLT KECCAK256 0x2D 0xC1 CALLVALUE GASLIMIT 0xF9 CALLDATASIZE 0x2E CALLCODE 0xE4 NUMBER DUP12 ADDRESS 0xCA 0xE2 PUSH29 0xEC45D11849215BFC5E47BF8FCF639BD68E64736F6C6343000800003300 ",
  "sha1": "67f6be5b13ba1956b591e6b6b34ec37076dd1a92",
  "source": "pragma solidity ^0.8.0;\n\ncontract mutated30 {\n    uint public counter;\n    uint public x = 10;\n    uint [] public array;\n\n    constructor(){\n        counter = 10 * 20*30*56 *56;\n    }\n\n    function loop24() public {\n        for (uint256 i = 0; i < 24; i++) {\n            counter += 10 * i;\n        }\n    }\n\n    function loop25(uint [] memory arr) public {\n        for (uint256 i = 0; i < arr.length; i++) {\n            x += arr[i] * i;\n        }\n    }\n}",
  "sourcePath": "contracts/unOptimized_contracts/mutate30.sol",
  "type": "contract"
}