{
  "abi": [
    {
      "inputs": [],
      "stateMutability": "nonpayable",
      "type": "constructor"
    },
    {
      "inputs": [
        {
          "internalType": "uint256",
          "name": "",
          "type": "uint256"
        }
      ],
      "name": "array",
      "outputs": [
        {
          "internalType": "uint256",
          "name": "",
          "type": "uint256"
        }
      ],
      "stateMutability": "view",
      "type": "function"
    },
    {
      "inputs": [],
      "name": "counter",
      "outputs": [
        {
          "internalType": "int256",
          "name": "",
          "type": "int256"
        }
      ],
      "stateMutability": "view",
      "type": "function"
    },
    {
      "inputs": [],
      "name": "loop24",
      "outputs": [],
      "stateMutability": "nonpayable",
      "type": "function"
    },
    {
      "inputs": [
        {
          "internalType": "int256[]",
          "name": "arr",
          "type": "int256[]"
        }
      ],
      "name": "loop25",
      "outputs": [],
      "stateMutability": "nonpayable",
      "type": "function"
    },
    {
      "inputs": [
        {
          "internalType": "int256[]",
          "name": "arr",
          "type": "int256[]"
        }
      ],
      "name": "loop26",
      "outputs": [],
      "stateMutability": "nonpayable",
      "type": "function"
    },
    {
      "inputs": [],
      "name": "x",
      "outputs": [
        {
          "internalType": "int256",
          "name": "",
          "type": "int256"
        }
      ],
      "stateMutability": "view",
      "type": "function"
    }
  ],
  "bytecode": "6080604052600a60015534801561001557600080fd5b5063011f1c006000556103868061002d6000396000f3fe608060405234801561001057600080fd5b50600436106100625760003560e01c80630c55699c1461006757806338d941931461008557806361bc221a146100985780636dfe9e90146100a0578063ad7b30a7146100aa578063d37a0780146100bd575b600080fd5b61006f6100d0565b60405161007c91906102bf565b60405180910390f35b61006f6100933660046102a7565b6100d6565b61006f6100f7565b6100a86100fd565b005b6100a86100b83660046101ed565b610136565b6100a86100cb3660046101ed565b610197565b60015481565b600281815481106100e657600080fd5b600091825260209091200154905081565b60005481565b60005b601881101561013357600a60008082825461011b91906102c8565b9091555081905061012b81610309565b915050610100565b50565b60005b81518110156101935781818151811061016257634e487b7160e01b600052603260045260246000fd5b60200260200101516001600082825461017b91906102c8565b9091555081905061018b81610309565b915050610139565b5050565b60005b815181101561019357600280546001810182556000919091526101597f405787fa12a823e0f2b7631cc41b3ba8828b3321ca811111fa75cd3aa3bb5ace90910155806101e581610309565b91505061019a565b600060208083850312156101ff578182fd5b823567ffffffffffffffff80821115610216578384fd5b818501915085601f830112610229578384fd5b81358181111561023b5761023b61033a565b8381026040518582820101818110858211171561025a5761025a61033a565b604052828152858101935084860182860187018a1015610278578788fd5b8795505b8386101561029a57803585526001959095019493860193860161027c565b5098975050505050505050565b6000602082840312156102b8578081fd5b5035919050565b90815260200190565b600080821280156001600160ff1b03849003851316156102ea576102ea610324565b600160ff1b839003841281161561030357610303610324565b50500190565b600060001982141561031d5761031d610324565b5060010190565b634e487b7160e01b600052601160045260246000fd5b634e487b7160e01b600052604160045260246000fdfea26469706673582212201cba5e283e2927202ee0f984f0288f44d0a881d693b60cdf8b0d35d3e8e7335b64736f6c63430008000033",
  "bytecodeSha1": "6f5123f4d0c554e3b24c6c1dd78208360fb609a0",
  "compiler": {
    "evm_version": "istanbul",
    "optimizer": {
      "enabled": true,
      "runs": 200
    },
    "version": "0.8.0+commit.c7dfd78e"
  },
  "contractName": "mutated33",
  "language": "Solidity",
  "natspec": {
    "kind": "dev",
    "methods": {},
    "version": 1
  },
  "opcodes": "PUSH1 0x80 PUSH1 0x40 MSTORE CALLVALUE DUP1 ISZERO PUSH2 0x10 JUMPI PUSH1 0x0 DUP1 REVERT JUMPDEST POP PUSH1 0x4 CALLDATASIZE LT PUSH2 0x62 JUMPI PUSH1 0x0 CALLDATALOAD PUSH1 0xE0 SHR DUP1 PUSH4 0xC55699C EQ PUSH2 0x67 JUMPI DUP1 PUSH4 0x38D94193 EQ PUSH2 0x85 JUMPI DUP1 PUSH4 0x61BC221A EQ PUSH2 0x98 JUMPI DUP1 PUSH4 0x6DFE9E90 EQ PUSH2 0xA0 JUMPI DUP1 PUSH4 0xAD7B30A7 EQ PUSH2 0xAA JUMPI DUP1 PUSH4 0xD37A0780 EQ PUSH2 0xBD JUMPI JUMPDEST PUSH1 0x0 DUP1 REVERT JUMPDEST PUSH2 0x6F PUSH2 0xD0 JUMP JUMPDEST PUSH1 0x40 MLOAD PUSH2 0x7C SWAP2 SWAP1 PUSH2 0x2BF JUMP JUMPDEST PUSH1 0x40 MLOAD DUP1 SWAP2 SUB SWAP1 RETURN JUMPDEST PUSH2 0x6F PUSH2 0x93 CALLDATASIZE PUSH1 0x4 PUSH2 0x2A7 JUMP JUMPDEST PUSH2 0xD6 JUMP JUMPDEST PUSH2 0x6F PUSH2 0xF7 JUMP JUMPDEST PUSH2 0xA8 PUSH2 0xFD JUMP JUMPDEST STOP JUMPDEST PUSH2 0xA8 PUSH2 0xB8 CALLDATASIZE PUSH1 0x4 PUSH2 0x1ED JUMP JUMPDEST PUSH2 0x136 JUMP JUMPDEST PUSH2 0xA8 PUSH2 0xCB CALLDATASIZE PUSH1 0x4 PUSH2 0x1ED JUMP JUMPDEST PUSH2 0x197 JUMP JUMPDEST PUSH1 0x1 SLOAD DUP2 JUMP JUMPDEST PUSH1 0x2 DUP2 DUP2 SLOAD DUP2 LT PUSH2 0xE6 JUMPI PUSH1 0x0 DUP1 REVERT JUMPDEST PUSH1 0x0 SWAP2 DUP3 MSTORE PUSH1 0x20 SWAP1 SWAP2 KECCAK256 ADD SLOAD SWAP1 POP DUP2 JUMP JUMPDEST PUSH1 0x0 SLOAD DUP2 JUMP JUMPDEST PUSH1 0x0 JUMPDEST PUSH1 0x18 DUP2 LT ISZERO PUSH2 0x133 JUMPI PUSH1 0xA PUSH1 0x0 DUP1 DUP3 DUP3 SLOAD PUSH2 0x11B SWAP2 SWAP1 PUSH2 0x2C8 JUMP JUMPDEST SWAP1 SWAP2 SSTORE POP DUP2 SWAP1 POP PUSH2 0x12B DUP2 PUSH2 0x309 JUMP JUMPDEST SWAP2 POP POP PUSH2 0x100 JUMP JUMPDEST POP JUMP JUMPDEST PUSH1 0x0 JUMPDEST DUP2 MLOAD DUP2 LT ISZERO PUSH2 0x193 JUMPI DUP2 DUP2 DUP2 MLOAD DUP2 LT PUSH2 0x162 JUMPI PUSH4 0x4E487B71 PUSH1 0xE0 SHL PUSH1 0x0 MSTORE PUSH1 0x32 PUSH1 0x4 MSTORE PUSH1 0x24 PUSH1 0x0 REVERT JUMPDEST PUSH1 0x20 MUL PUSH1 0x20 ADD ADD MLOAD PUSH1 0x1 PUSH1 0x0 DUP3 DUP3 SLOAD PUSH2 0x17B SWAP2 SWAP1 PUSH2 0x2C8 JUMP JUMPDEST SWAP1 SWAP2 SSTORE POP DUP2 SWAP1 POP PUSH2 0x18B DUP2 PUSH2 0x309 JUMP JUMPDEST SWAP2 POP POP PUSH2 0x139 JUMP JUMPDEST POP POP JUMP JUMPDEST PUSH1 0x0 JUMPDEST DUP2 MLOAD DUP2 LT ISZERO PUSH2 0x193 JUMPI PUSH1 0x2 DUP1 SLOAD PUSH1 0x1 DUP2 ADD DUP3 SSTORE PUSH1 0x0 SWAP2 SWAP1 SWAP2 MSTORE PUSH2 0x159 PUSH32 0x405787FA12A823E0F2B7631CC41B3BA8828B3321CA811111FA75CD3AA3BB5ACE SWAP1 SWAP2 ADD SSTORE DUP1 PUSH2 0x1E5 DUP2 PUSH2 0x309 JUMP JUMPDEST SWAP2 POP POP PUSH2 0x19A JUMP JUMPDEST PUSH1 0x0 PUSH1 0x20 DUP1 DUP4 DUP6 SUB SLT ISZERO PUSH2 0x1FF JUMPI DUP2 DUP3 REVERT JUMPDEST DUP3 CALLDATALOAD PUSH8 0xFFFFFFFFFFFFFFFF DUP1 DUP3 GT ISZERO PUSH2 0x216 JUMPI DUP4 DUP5 REVERT JUMPDEST DUP2 DUP6 ADD SWAP2 POP DUP6 PUSH1 0x1F DUP4 ADD SLT PUSH2 0x229 JUMPI DUP4 DUP5 REVERT JUMPDEST DUP2 CALLDATALOAD DUP2 DUP2 GT ISZERO PUSH2 0x23B JUMPI PUSH2 0x23B PUSH2 0x33A JUMP JUMPDEST DUP4 DUP2 MUL PUSH1 0x40 MLOAD DUP6 DUP3 DUP3 ADD ADD DUP2 DUP2 LT DUP6 DUP3 GT OR ISZERO PUSH2 0x25A JUMPI PUSH2 0x25A PUSH2 0x33A JUMP JUMPDEST PUSH1 0x40 MSTORE DUP3 DUP2 MSTORE DUP6 DUP2 ADD SWAP4 POP DUP5 DUP7 ADD DUP3 DUP7 ADD DUP8 ADD DUP11 LT ISZERO PUSH2 0x278 JUMPI DUP8 DUP9 REVERT JUMPDEST DUP8 SWAP6 POP JUMPDEST DUP4 DUP7 LT ISZERO PUSH2 0x29A JUMPI DUP1 CALLDATALOAD DUP6 MSTORE PUSH1 0x1 SWAP6 SWAP1 SWAP6 ADD SWAP5 SWAP4 DUP7 ADD SWAP4 DUP7 ADD PUSH2 0x27C JUMP JUMPDEST POP SWAP9 SWAP8 POP POP POP POP POP POP POP POP JUMP JUMPDEST PUSH1 0x0 PUSH1 0x20 DUP3 DUP5 SUB SLT ISZERO PUSH2 0x2B8 JUMPI DUP1 DUP2 REVERT JUMPDEST POP CALLDATALOAD SWAP2 SWAP1 POP JUMP JUMPDEST SWAP1 DUP2 MSTORE PUSH1 0x20 ADD SWAP1 JUMP JUMPDEST PUSH1 0x0 DUP1 DUP3 SLT DUP1 ISZERO PUSH1 0x1 PUSH1 0x1 PUSH1 0xFF SHL SUB DUP5 SWAP1 SUB DUP6 SGT AND ISZERO PUSH2 0x2EA JUMPI PUSH2 0x2EA PUSH2 0x324 JUMP JUMPDEST PUSH1 0x1 PUSH1 0xFF SHL DUP4 SWAP1 SUB DUP5 SLT DUP2 AND ISZERO PUSH2 0x303 JUMPI PUSH2 0x303 PUSH2 0x324 JUMP JUMPDEST POP POP ADD SWAP1 JUMP JUMPDEST PUSH1 0x0 PUSH1 0x0 NOT DUP3 EQ ISZERO PUSH2 0x31D JUMPI PUSH2 0x31D PUSH2 0x324 JUMP JUMPDEST POP PUSH1 0x1 ADD SWAP1 JUMP JUMPDEST PUSH4 0x4E487B71 PUSH1 0xE0 SHL PUSH1 0x0 MSTORE PUSH1 0x11 PUSH1 0x4 MSTORE PUSH1 0x24 PUSH1 0x0 REVERT JUMPDEST PUSH4 0x4E487B71 PUSH1 0xE0 SHL PUSH1 0x0 MSTORE PUSH1 0x41 PUSH1 0x4 MSTORE PUSH1 0x24 PUSH1 0x0 REVERT INVALID LOG2 PUSH5 0x6970667358 0x22 SLT KECCAK256 SHR 0xBA 0x5E 0x28 RETURNDATACOPY 0x29 0x27 KECCAK256 0x2E 0xE0 0xF9 DUP5 CREATE 0x28 DUP16 DIFFICULTY 0xD0 0xA8 DUP2 0xD6 SWAP4 0xB6 0xC 0xDF DUP12 0xD CALLDATALOAD 0xD3 0xE8 0xE7 CALLER JUMPDEST PUSH5 0x736F6C6343 STOP ADDMOD STOP STOP CALLER ",
  "sha1": "5c172dc6faf4a0045a594d9262c9e643a6133f3f",
  "source": "pragma solidity ^0.8.0;\n\ncontract mutated33 {\n    int public counter;\n    int public x = 10;\n    uint [] public array;\n\n    constructor(){\n        counter = 10 * 20*30*56 *56;\n    }\n\n    function loop24() public {\n        for (uint256 i = 0; i < 24; i++) {\n            counter += 10;\n        }\n    }\n\n    function loop25(int [] memory arr) public {\n        for (uint256 i = 0; i < arr.length; i++) {\n            x += arr[i];\n        }\n    }\n\n    function loop26(int [] memory arr) public {\n        for (uint256 i = 0; i < arr.length; i++) {\n            array.push(345);\n        }\n    }\n}",
  "sourcePath": "contracts/unOptimized_contracts/mutate33.sol",
  "type": "contract"
}