{
  "abi": [
    {
      "inputs": [],
      "stateMutability": "nonpayable",
      "type": "constructor"
    },
    {
      "inputs": [
        {
          "internalType": "uint256",
          "name": "",
          "type": "uint256"
        }
      ],
      "name": "array",
      "outputs": [
        {
          "internalType": "uint256",
          "name": "",
          "type": "uint256"
        }
      ],
      "stateMutability": "view",
      "type": "function"
    },
    {
      "inputs": [],
      "name": "counter",
      "outputs": [
        {
          "internalType": "int256",
          "name": "",
          "type": "int256"
        }
      ],
      "stateMutability": "view",
      "type": "function"
    },
    {
      "inputs": [],
      "name": "loop24",
      "outputs": [],
      "stateMutability": "nonpayable",
      "type": "function"
    },
    {
      "inputs": [
        {
          "internalType": "int256[]",
          "name": "arr",
          "type": "int256[]"
        }
      ],
      "name": "loop25",
      "outputs": [],
      "stateMutability": "nonpayable",
      "type": "function"
    },
    {
      "inputs": [],
      "name": "x",
      "outputs": [
        {
          "internalType": "int256",
          "name": "",
          "type": "int256"
        }
      ],
      "stateMutability": "view",
      "type": "function"
    }
  ],
  "bytecode": "6080604052600a60015534801561001557600080fd5b5063011f1c006000556103498061002d6000396000f3fe608060405234801561001057600080fd5b50600436106100575760003560e01c80630c55699c1461005c57806338d941931461007a57806361bc221a1461008d5780636dfe9e9014610095578063ad7b30a71461009f575b600080fd5b6100646100b2565b6040516100719190610282565b60405180910390f35b61006461008836600461026a565b6100b8565b6100646100d9565b61009d6100df565b005b61009d6100ad3660046101b0565b610118565b60015481565b600281815481106100c857600080fd5b600091825260209091200154905081565b60005481565b60005b601881101561011557600a6000808282546100fd919061028b565b9091555081905061010d816102cc565b9150506100e2565b50565b60005b81518110156101ac5781818151811061014457634e487b7160e01b600052603260045260246000fd5b60200260200101516001600082825461015d919061028b565b9091555050600280546001810182556000919091526102a37f405787fa12a823e0f2b7631cc41b3ba8828b3321ca811111fa75cd3aa3bb5ace90910155806101a4816102cc565b91505061011b565b5050565b600060208083850312156101c2578182fd5b823567ffffffffffffffff808211156101d9578384fd5b818501915085601f8301126101ec578384fd5b8135818111156101fe576101fe6102fd565b8381026040518582820101818110858211171561021d5761021d6102fd565b604052828152858101935084860182860187018a101561023b578788fd5b8795505b8386101561025d57803585526001959095019493860193860161023f565b5098975050505050505050565b60006020828403121561027b578081fd5b5035919050565b90815260200190565b600080821280156001600160ff1b03849003851316156102ad576102ad6102e7565b600160ff1b83900384128116156102c6576102c66102e7565b50500190565b60006000198214156102e0576102e06102e7565b5060010190565b634e487b7160e01b600052601160045260246000fd5b634e487b7160e01b600052604160045260246000fdfea26469706673582212202086d1cea97683ced4eaca31f50c7746ae151575badb503f111a51fd176eb60164736f6c63430008000033",
  "bytecodeSha1": "2eacbb1b9a73e2c104fdf990e18f571120d1f254",
  "compiler": {
    "evm_version": "istanbul",
    "optimizer": {
      "enabled": true,
      "runs": 200
    },
    "version": "0.8.0+commit.c7dfd78e"
  },
  "contractName": "mutated34",
  "language": "Solidity",
  "natspec": {
    "kind": "dev",
    "methods": {},
    "version": 1
  },
  "opcodes": "PUSH1 0x80 PUSH1 0x40 MSTORE CALLVALUE DUP1 ISZERO PUSH2 0x10 JUMPI PUSH1 0x0 DUP1 REVERT JUMPDEST POP PUSH1 0x4 CALLDATASIZE LT PUSH2 0x57 JUMPI PUSH1 0x0 CALLDATALOAD PUSH1 0xE0 SHR DUP1 PUSH4 0xC55699C EQ PUSH2 0x5C JUMPI DUP1 PUSH4 0x38D94193 EQ PUSH2 0x7A JUMPI DUP1 PUSH4 0x61BC221A EQ PUSH2 0x8D JUMPI DUP1 PUSH4 0x6DFE9E90 EQ PUSH2 0x95 JUMPI DUP1 PUSH4 0xAD7B30A7 EQ PUSH2 0x9F JUMPI JUMPDEST PUSH1 0x0 DUP1 REVERT JUMPDEST PUSH2 0x64 PUSH2 0xB2 JUMP JUMPDEST PUSH1 0x40 MLOAD PUSH2 0x71 SWAP2 SWAP1 PUSH2 0x282 JUMP JUMPDEST PUSH1 0x40 MLOAD DUP1 SWAP2 SUB SWAP1 RETURN JUMPDEST PUSH2 0x64 PUSH2 0x88 CALLDATASIZE PUSH1 0x4 PUSH2 0x26A JUMP JUMPDEST PUSH2 0xB8 JUMP JUMPDEST PUSH2 0x64 PUSH2 0xD9 JUMP JUMPDEST PUSH2 0x9D PUSH2 0xDF JUMP JUMPDEST STOP JUMPDEST PUSH2 0x9D PUSH2 0xAD CALLDATASIZE PUSH1 0x4 PUSH2 0x1B0 JUMP JUMPDEST PUSH2 0x118 JUMP JUMPDEST PUSH1 0x1 SLOAD DUP2 JUMP JUMPDEST PUSH1 0x2 DUP2 DUP2 SLOAD DUP2 LT PUSH2 0xC8 JUMPI PUSH1 0x0 DUP1 REVERT JUMPDEST PUSH1 0x0 SWAP2 DUP3 MSTORE PUSH1 0x20 SWAP1 SWAP2 KECCAK256 ADD SLOAD SWAP1 POP DUP2 JUMP JUMPDEST PUSH1 0x0 SLOAD DUP2 JUMP JUMPDEST PUSH1 0x0 JUMPDEST PUSH1 0x18 DUP2 LT ISZERO PUSH2 0x115 JUMPI PUSH1 0xA PUSH1 0x0 DUP1 DUP3 DUP3 SLOAD PUSH2 0xFD SWAP2 SWAP1 PUSH2 0x28B JUMP JUMPDEST SWAP1 SWAP2 SSTORE POP DUP2 SWAP1 POP PUSH2 0x10D DUP2 PUSH2 0x2CC JUMP JUMPDEST SWAP2 POP POP PUSH2 0xE2 JUMP JUMPDEST POP JUMP JUMPDEST PUSH1 0x0 JUMPDEST DUP2 MLOAD DUP2 LT ISZERO PUSH2 0x1AC JUMPI DUP2 DUP2 DUP2 MLOAD DUP2 LT PUSH2 0x144 JUMPI PUSH4 0x4E487B71 PUSH1 0xE0 SHL PUSH1 0x0 MSTORE PUSH1 0x32 PUSH1 0x4 MSTORE PUSH1 0x24 PUSH1 0x0 REVERT JUMPDEST PUSH1 0x20 MUL PUSH1 0x20 ADD ADD MLOAD PUSH1 0x1 PUSH1 0x0 DUP3 DUP3 SLOAD PUSH2 0x15D SWAP2 SWAP1 PUSH2 0x28B JUMP JUMPDEST SWAP1 SWAP2 SSTORE POP POP PUSH1 0x2 DUP1 SLOAD PUSH1 0x1 DUP2 ADD DUP3 SSTORE PUSH1 0x0 SWAP2 SWAP1 SWAP2 MSTORE PUSH2 0x2A3 PUSH32 0x405787FA12A823E0F2B7631CC41B3BA8828B3321CA811111FA75CD3AA3BB5ACE SWAP1 SWAP2 ADD SSTORE DUP1 PUSH2 0x1A4 DUP2 PUSH2 0x2CC JUMP JUMPDEST SWAP2 POP POP PUSH2 0x11B JUMP JUMPDEST POP POP JUMP JUMPDEST PUSH1 0x0 PUSH1 0x20 DUP1 DUP4 DUP6 SUB SLT ISZERO PUSH2 0x1C2 JUMPI DUP2 DUP3 REVERT JUMPDEST DUP3 CALLDATALOAD PUSH8 0xFFFFFFFFFFFFFFFF DUP1 DUP3 GT ISZERO PUSH2 0x1D9 JUMPI DUP4 DUP5 REVERT JUMPDEST DUP2 DUP6 ADD SWAP2 POP DUP6 PUSH1 0x1F DUP4 ADD SLT PUSH2 0x1EC JUMPI DUP4 DUP5 REVERT JUMPDEST DUP2 CALLDATALOAD DUP2 DUP2 GT ISZERO PUSH2 0x1FE JUMPI PUSH2 0x1FE PUSH2 0x2FD JUMP JUMPDEST DUP4 DUP2 MUL PUSH1 0x40 MLOAD DUP6 DUP3 DUP3 ADD ADD DUP2 DUP2 LT DUP6 DUP3 GT OR ISZERO PUSH2 0x21D JUMPI PUSH2 0x21D PUSH2 0x2FD JUMP JUMPDEST PUSH1 0x40 MSTORE DUP3 DUP2 MSTORE DUP6 DUP2 ADD SWAP4 POP DUP5 DUP7 ADD DUP3 DUP7 ADD DUP8 ADD DUP11 LT ISZERO PUSH2 0x23B JUMPI DUP8 DUP9 REVERT JUMPDEST DUP8 SWAP6 POP JUMPDEST DUP4 DUP7 LT ISZERO PUSH2 0x25D JUMPI DUP1 CALLDATALOAD DUP6 MSTORE PUSH1 0x1 SWAP6 SWAP1 SWAP6 ADD SWAP5 SWAP4 DUP7 ADD SWAP4 DUP7 ADD PUSH2 0x23F JUMP JUMPDEST POP SWAP9 SWAP8 POP POP POP POP POP POP POP POP JUMP JUMPDEST PUSH1 0x0 PUSH1 0x20 DUP3 DUP5 SUB SLT ISZERO PUSH2 0x27B JUMPI DUP1 DUP2 REVERT JUMPDEST POP CALLDATALOAD SWAP2 SWAP1 POP JUMP JUMPDEST SWAP1 DUP2 MSTORE PUSH1 0x20 ADD SWAP1 JUMP JUMPDEST PUSH1 0x0 DUP1 DUP3 SLT DUP1 ISZERO PUSH1 0x1 PUSH1 0x1 PUSH1 0xFF SHL SUB DUP5 SWAP1 SUB DUP6 SGT AND ISZERO PUSH2 0x2AD JUMPI PUSH2 0x2AD PUSH2 0x2E7 JUMP JUMPDEST PUSH1 0x1 PUSH1 0xFF SHL DUP4 SWAP1 SUB DUP5 SLT DUP2 AND ISZERO PUSH2 0x2C6 JUMPI PUSH2 0x2C6 PUSH2 0x2E7 JUMP JUMPDEST POP POP ADD SWAP1 JUMP JUMPDEST PUSH1 0x0 PUSH1 0x0 NOT DUP3 EQ ISZERO PUSH2 0x2E0 JUMPI PUSH2 0x2E0 PUSH2 0x2E7 JUMP JUMPDEST POP PUSH1 0x1 ADD SWAP1 JUMP JUMPDEST PUSH4 0x4E487B71 PUSH1 0xE0 SHL PUSH1 0x0 MSTORE PUSH1 0x11 PUSH1 0x4 MSTORE PUSH1 0x24 PUSH1 0x0 REVERT JUMPDEST PUSH4 0x4E487B71 PUSH1 0xE0 SHL PUSH1 0x0 MSTORE PUSH1 0x41 PUSH1 0x4 MSTORE PUSH1 0x24 PUSH1 0x0 REVERT INVALID LOG2 PUSH5 0x6970667358 0x22 SLT KECCAK256 KECCAK256 DUP7 0xD1 0xCE 0xA9 PUSH23 0x83CED4EACA31F50C7746AE151575BADB503F111A51FD17 PUSH15 0xB60164736F6C634300080000330000 ",
  "sha1": "646bd93722e76ce42f4b9feae26e8732d66da943",
  "source": "pragma solidity ^0.8.0;\n\ncontract mutated34 {\n    int public counter;\n    int public x = 10;\n    uint [] public array;\n\n    constructor(){\n        counter = 10 * 20*30*56 *56;\n    }\n\n    function loop24() public {\n        for (uint256 i = 0; i < 24; i++) {\n            counter += 10;\n        }\n    }\n\n    function loop25(int [] memory arr) public {\n        for (uint256 i = 0; i < arr.length; i++) {\n            x += arr[i];\n            array.push(675);\n        }\n    }\n}",
  "sourcePath": "contracts/unOptimized_contracts/mutate34.sol",
  "type": "contract"
}