{
  "abi": [
    {
      "inputs": [],
      "stateMutability": "nonpayable",
      "type": "constructor"
    },
    {
      "inputs": [],
      "name": "bar",
      "outputs": [
        {
          "internalType": "int256",
          "name": "",
          "type": "int256"
        }
      ],
      "stateMutability": "pure",
      "type": "function"
    },
    {
      "inputs": [],
      "name": "foo",
      "outputs": [
        {
          "internalType": "int256",
          "name": "",
          "type": "int256"
        }
      ],
      "stateMutability": "pure",
      "type": "function"
    },
    {
      "inputs": [],
      "name": "fooBar",
      "outputs": [
        {
          "internalType": "int256",
          "name": "",
          "type": "int256"
        }
      ],
      "stateMutability": "nonpayable",
      "type": "function"
    },
    {
      "inputs": [],
      "name": "res",
      "outputs": [
        {
          "internalType": "int256",
          "name": "",
          "type": "int256"
        }
      ],
      "stateMutability": "view",
      "type": "function"
    }
  ],
  "bytecode": "6080604052601760005534801561001557600080fd5b5061019c806100256000396000f3fe608060405234801561001057600080fd5b506004361061004c5760003560e01c80636f10e2851461005157806390c0414d1461006f578063c298557814610077578063febb0f7e1461007f575b600080fd5b610059610087565b60405161006691906100eb565b60405180910390f35b61005961008d565b6100596100e1565b6100596100e6565b60005481565b60008054815b60648110156100d6576100a46100e1565b6100ae90836100f4565b91506100b86100e6565b6100c290836100f4565b9150806100ce81610135565b915050610093565b506000819055905090565b600a90565b601490565b90815260200190565b600080821280156001600160ff1b038490038513161561011657610116610150565b600160ff1b839003841281161561012f5761012f610150565b50500190565b600060001982141561014957610149610150565b5060010190565b634e487b7160e01b600052601160045260246000fdfea2646970667358221220efd88a3bbfb4b8a537d9bd896f6557699e2107e7b6b431cc95af52421be677e964736f6c63430008000033",
  "bytecodeSha1": "5c42112d246fac0d55cde652eb3f14a1ff0d1049",
  "compiler": {
    "evm_version": "istanbul",
    "optimizer": {
      "enabled": true,
      "runs": 200
    },
    "version": "0.8.0+commit.c7dfd78e"
  },
  "contractName": "Opt_A",
  "language": "Solidity",
  "natspec": {
    "kind": "dev",
    "methods": {},
    "version": 1
  },
  "opcodes": "PUSH1 0x80 PUSH1 0x40 MSTORE CALLVALUE DUP1 ISZERO PUSH2 0x10 JUMPI PUSH1 0x0 DUP1 REVERT JUMPDEST POP PUSH1 0x4 CALLDATASIZE LT PUSH2 0x4C JUMPI PUSH1 0x0 CALLDATALOAD PUSH1 0xE0 SHR DUP1 PUSH4 0x6F10E285 EQ PUSH2 0x51 JUMPI DUP1 PUSH4 0x90C0414D EQ PUSH2 0x6F JUMPI DUP1 PUSH4 0xC2985578 EQ PUSH2 0x77 JUMPI DUP1 PUSH4 0xFEBB0F7E EQ PUSH2 0x7F JUMPI JUMPDEST PUSH1 0x0 DUP1 REVERT JUMPDEST PUSH2 0x59 PUSH2 0x87 JUMP JUMPDEST PUSH1 0x40 MLOAD PUSH2 0x66 SWAP2 SWAP1 PUSH2 0xEB JUMP JUMPDEST PUSH1 0x40 MLOAD DUP1 SWAP2 SUB SWAP1 RETURN JUMPDEST PUSH2 0x59 PUSH2 0x8D JUMP JUMPDEST PUSH2 0x59 PUSH2 0xE1 JUMP JUMPDEST PUSH2 0x59 PUSH2 0xE6 JUMP JUMPDEST PUSH1 0x0 SLOAD DUP2 JUMP JUMPDEST PUSH1 0x0 DUP1 SLOAD DUP2 JUMPDEST PUSH1 0x64 DUP2 LT ISZERO PUSH2 0xD6 JUMPI PUSH2 0xA4 PUSH2 0xE1 JUMP JUMPDEST PUSH2 0xAE SWAP1 DUP4 PUSH2 0xF4 JUMP JUMPDEST SWAP2 POP PUSH2 0xB8 PUSH2 0xE6 JUMP JUMPDEST PUSH2 0xC2 SWAP1 DUP4 PUSH2 0xF4 JUMP JUMPDEST SWAP2 POP DUP1 PUSH2 0xCE DUP2 PUSH2 0x135 JUMP JUMPDEST SWAP2 POP POP PUSH2 0x93 JUMP JUMPDEST POP PUSH1 0x0 DUP2 SWAP1 SSTORE SWAP1 POP SWAP1 JUMP JUMPDEST PUSH1 0xA SWAP1 JUMP JUMPDEST PUSH1 0x14 SWAP1 JUMP JUMPDEST SWAP1 DUP2 MSTORE PUSH1 0x20 ADD SWAP1 JUMP JUMPDEST PUSH1 0x0 DUP1 DUP3 SLT DUP1 ISZERO PUSH1 0x1 PUSH1 0x1 PUSH1 0xFF SHL SUB DUP5 SWAP1 SUB DUP6 SGT AND ISZERO PUSH2 0x116 JUMPI PUSH2 0x116 PUSH2 0x150 JUMP JUMPDEST PUSH1 0x1 PUSH1 0xFF SHL DUP4 SWAP1 SUB DUP5 SLT DUP2 AND ISZERO PUSH2 0x12F JUMPI PUSH2 0x12F PUSH2 0x150 JUMP JUMPDEST POP POP ADD SWAP1 JUMP JUMPDEST PUSH1 0x0 PUSH1 0x0 NOT DUP3 EQ ISZERO PUSH2 0x149 JUMPI PUSH2 0x149 PUSH2 0x150 JUMP JUMPDEST POP PUSH1 0x1 ADD SWAP1 JUMP JUMPDEST PUSH4 0x4E487B71 PUSH1 0xE0 SHL PUSH1 0x0 MSTORE PUSH1 0x11 PUSH1 0x4 MSTORE PUSH1 0x24 PUSH1 0x0 REVERT INVALID LOG2 PUSH5 0x6970667358 0x22 SLT KECCAK256 0xEF 0xD8 DUP11 EXTCODESIZE 0xBF 0xB4 0xB8 0xA5 CALLDATACOPY 0xD9 0xBD DUP10 PUSH16 0x6557699E2107E7B6B431CC95AF52421B 0xE6 PUSH24 0xE964736F6C63430008000033000000000000000000000000 ",
  "sha1": "49e6b9a8f1ee2cf97cfb1a593d0def7cdb8a3b96",
  "source": "pragma solidity ^0.8.0;\ncontract Opt_A {\n    int public res = 23;\n\tconstructor()  {\n        \t}\n\tfunction foo() public pure returns (int) {\n        return 10;\n\t}\n\tfunction bar() public pure returns (int) {\n        return 20;\n\t}\n\tfunction fooBar() public returns (int) {\n        int  res_ = res;\n        for (uint  i = 0;\ni < 100; i++) {\n            res_ += foo();\nres_ += bar();\n        }\nres = res_;\nreturn res;\n\t}\n}\n",
  "sourcePath": "contracts/optimized_contracts/Opt_A.sol",
  "type": "contract"
}