{
  "abi": [
    {
      "inputs": [],
      "stateMutability": "nonpayable",
      "type": "constructor"
    },
    {
      "inputs": [],
      "name": "counter",
      "outputs": [
        {
          "internalType": "int256",
          "name": "",
          "type": "int256"
        }
      ],
      "stateMutability": "view",
      "type": "function"
    }
  ],
  "bytecode": "608060405263011f1c00600055348015601757600080fd5b50608c806100266000396000f3fe6080604052348015600f57600080fd5b506004361060285760003560e01c806361bc221a14602d575b600080fd5b60336047565b604051603e9190604d565b60405180910390f35b60005481565b9081526020019056fea26469706673582212203006b07c72c3263c5bbd33143cdac1879fab1e4eea473ac2cb5d88d890ce0fd264736f6c63430008000033",
  "bytecodeSha1": "2ea39a8017188073aa115a94aedd095a420b25c1",
  "compiler": {
    "evm_version": "istanbul",
    "optimizer": {
      "enabled": true,
      "runs": 200
    },
    "version": "0.8.0+commit.c7dfd78e"
  },
  "contractName": "Opt_simple1",
  "language": "Solidity",
  "natspec": {
    "kind": "dev",
    "methods": {},
    "version": 1
  },
  "opcodes": "PUSH1 0x80 PUSH1 0x40 MSTORE CALLVALUE DUP1 ISZERO PUSH1 0xF JUMPI PUSH1 0x0 DUP1 REVERT JUMPDEST POP PUSH1 0x4 CALLDATASIZE LT PUSH1 0x28 JUMPI PUSH1 0x0 CALLDATALOAD PUSH1 0xE0 SHR DUP1 PUSH4 0x61BC221A EQ PUSH1 0x2D JUMPI JUMPDEST PUSH1 0x0 DUP1 REVERT JUMPDEST PUSH1 0x33 PUSH1 0x47 JUMP JUMPDEST PUSH1 0x40 MLOAD PUSH1 0x3E SWAP2 SWAP1 PUSH1 0x4D JUMP JUMPDEST PUSH1 0x40 MLOAD DUP1 SWAP2 SUB SWAP1 RETURN JUMPDEST PUSH1 0x0 SLOAD DUP2 JUMP JUMPDEST SWAP1 DUP2 MSTORE PUSH1 0x20 ADD SWAP1 JUMP INVALID LOG2 PUSH5 0x6970667358 0x22 SLT KECCAK256 ADDRESS MOD 0xB0 PUSH29 0x72C3263C5BBD33143CDAC1879FAB1E4EEA473AC2CB5D88D890CE0FD264 PUSH20 0x6F6C634300080000330000000000000000000000 ",
  "sha1": "3e1a96eb154efc6bde48fdd9b52e41db175fe873",
  "source": "pragma solidity ^0.8.0;\ncontract Opt_simple1 {\n    int public counter = 18816000;\n\tconstructor()  {\n        \t}\n}\n",
  "sourcePath": "contracts/optimized_contracts/Opt_simple1.sol",
  "type": "contract"
}