{
  "abi": [
    {
      "inputs": [],
      "stateMutability": "nonpayable",
      "type": "constructor"
    },
    {
      "inputs": [],
      "name": "counter",
      "outputs": [
        {
          "internalType": "int256",
          "name": "",
          "type": "int256"
        }
      ],
      "stateMutability": "view",
      "type": "function"
    },
    {
      "inputs": [],
      "name": "loop24",
      "outputs": [],
      "stateMutability": "nonpayable",
      "type": "function"
    }
  ],
  "bytecode": "608060405263011f1c0060005534801561001857600080fd5b5061014e806100286000396000f3fe608060405234801561001057600080fd5b50600436106100365760003560e01c806361bc221a1461003b5780636dfe9e9014610059575b600080fd5b610043610063565b604051610050919061009d565b60405180910390f35b610061610069565b005b60005481565b60008054905b601881101561009757610083600a836100a6565b91508061008f816100e7565b91505061006f565b50600055565b90815260200190565b600080821280156001600160ff1b03849003851316156100c8576100c8610102565b600160ff1b83900384128116156100e1576100e1610102565b50500190565b60006000198214156100fb576100fb610102565b5060010190565b634e487b7160e01b600052601160045260246000fdfea26469706673582212200d2355e1ced973eb494659942de4e1c2a7b98ff85ea30dc77081edc6052e03c164736f6c63430008000033",
  "bytecodeSha1": "a848c4352401eb9aaf4295d148ccc89f0ea77fbb",
  "compiler": {
    "evm_version": "istanbul",
    "optimizer": {
      "enabled": true,
      "runs": 200
    },
    "version": "0.8.0+commit.c7dfd78e"
  },
  "contractName": "Opt_simple2",
  "language": "Solidity",
  "natspec": {
    "kind": "dev",
    "methods": {},
    "version": 1
  },
  "opcodes": "PUSH1 0x80 PUSH1 0x40 MSTORE CALLVALUE DUP1 ISZERO PUSH2 0x10 JUMPI PUSH1 0x0 DUP1 REVERT JUMPDEST POP PUSH1 0x4 CALLDATASIZE LT PUSH2 0x36 JUMPI PUSH1 0x0 CALLDATALOAD PUSH1 0xE0 SHR DUP1 PUSH4 0x61BC221A EQ PUSH2 0x3B JUMPI DUP1 PUSH4 0x6DFE9E90 EQ PUSH2 0x59 JUMPI JUMPDEST PUSH1 0x0 DUP1 REVERT JUMPDEST PUSH2 0x43 PUSH2 0x63 JUMP JUMPDEST PUSH1 0x40 MLOAD PUSH2 0x50 SWAP2 SWAP1 PUSH2 0x9D JUMP JUMPDEST PUSH1 0x40 MLOAD DUP1 SWAP2 SUB SWAP1 RETURN JUMPDEST PUSH2 0x61 PUSH2 0x69 JUMP JUMPDEST STOP JUMPDEST PUSH1 0x0 SLOAD DUP2 JUMP JUMPDEST PUSH1 0x0 DUP1 SLOAD SWAP1 JUMPDEST PUSH1 0x18 DUP2 LT ISZERO PUSH2 0x97 JUMPI PUSH2 0x83 PUSH1 0xA DUP4 PUSH2 0xA6 JUMP JUMPDEST SWAP2 POP DUP1 PUSH2 0x8F DUP2 PUSH2 0xE7 JUMP JUMPDEST SWAP2 POP POP PUSH2 0x6F JUMP JUMPDEST POP PUSH1 0x0 SSTORE JUMP JUMPDEST SWAP1 DUP2 MSTORE PUSH1 0x20 ADD SWAP1 JUMP JUMPDEST PUSH1 0x0 DUP1 DUP3 SLT DUP1 ISZERO PUSH1 0x1 PUSH1 0x1 PUSH1 0xFF SHL SUB DUP5 SWAP1 SUB DUP6 SGT AND ISZERO PUSH2 0xC8 JUMPI PUSH2 0xC8 PUSH2 0x102 JUMP JUMPDEST PUSH1 0x1 PUSH1 0xFF SHL DUP4 SWAP1 SUB DUP5 SLT DUP2 AND ISZERO PUSH2 0xE1 JUMPI PUSH2 0xE1 PUSH2 0x102 JUMP JUMPDEST POP POP ADD SWAP1 JUMP JUMPDEST PUSH1 0x0 PUSH1 0x0 NOT DUP3 EQ ISZERO PUSH2 0xFB JUMPI PUSH2 0xFB PUSH2 0x102 JUMP JUMPDEST POP PUSH1 0x1 ADD SWAP1 JUMP JUMPDEST PUSH4 0x4E487B71 PUSH1 0xE0 SHL PUSH1 0x0 MSTORE PUSH1 0x11 PUSH1 0x4 MSTORE PUSH1 0x24 PUSH1 0x0 REVERT INVALID LOG2 PUSH5 0x6970667358 0x22 SLT KECCAK256 0xD 0x23 SSTORE 0xE1 0xCE 0xD9 PUSH20 0xEB494659942DE4E1C2A7B98FF85EA30DC77081ED 0xC6 SDIV 0x2E SUB 0xC1 PUSH5 0x736F6C6343 STOP ADDMOD STOP STOP CALLER ",
  "sha1": "95177f938b191c394adaecdd576cee9b2e6e598c",
  "source": "pragma solidity ^0.8.0;\ncontract Opt_simple2 {\n    int public counter = 18816000;\n\tconstructor()  {\n        \t}\n\tfunction loop24() public {\n        int  counter_ = counter;\n        for (uint256  i = 0;\ni < 24; i++) {\n            counter_ += 10;\n        }\ncounter = counter_;\n\t}\n}\n",
  "sourcePath": "contracts/optimized_contracts/Opt_simple2.sol",
  "type": "contract"
}