{
  "abi": [
    {
      "inputs": [],
      "stateMutability": "nonpayable",
      "type": "constructor"
    },
    {
      "inputs": [],
      "name": "counter",
      "outputs": [
        {
          "internalType": "int256",
          "name": "",
          "type": "int256"
        }
      ],
      "stateMutability": "view",
      "type": "function"
    },
    {
      "inputs": [],
      "name": "loop24",
      "outputs": [],
      "stateMutability": "nonpayable",
      "type": "function"
    },
    {
      "inputs": [
        {
          "internalType": "int256[]",
          "name": "arr",
          "type": "int256[]"
        }
      ],
      "name": "loop25",
      "outputs": [],
      "stateMutability": "nonpayable",
      "type": "function"
    },
    {
      "inputs": [],
      "name": "x",
      "outputs": [
        {
          "internalType": "int256",
          "name": "",
          "type": "int256"
        }
      ],
      "stateMutability": "view",
      "type": "function"
    }
  ],
  "bytecode": "6080604052600a60005563011f1c0060015534801561001d57600080fd5b506102518061002d6000396000f3fe608060405234801561001057600080fd5b506004361061004c5760003560e01c80630c55699c1461005157806361bc221a1461006f5780636dfe9e9014610077578063ad7b30a714610081575b600080fd5b610059610094565b60405161006691906101a0565b60405180910390f35b61005961009a565b61007f6100a0565b005b61007f61008f366004610131565b6100d4565b60005481565b60015481565b60015460005b60188110156100ce576100ba600a836101a9565b9150806100c6816101ea565b9150506100a6565b50600155565b600080549082905b8181101561012a5784848281811061010457634e487b7160e01b600052603260045260246000fd5b905060200201358361011691906101a9565b925080610122816101ea565b9150506100dc565b5050505050565b60008060208385031215610143578182fd5b823567ffffffffffffffff8082111561015a578384fd5b818501915085601f83011261016d578384fd5b81358181111561017b578485fd5b866020808302850101111561018e578485fd5b60209290920196919550909350505050565b90815260200190565b600080821280156001600160ff1b03849003851316156101cb576101cb610205565b600160ff1b83900384128116156101e4576101e4610205565b50500190565b60006000198214156101fe576101fe610205565b5060010190565b634e487b7160e01b600052601160045260246000fdfea264697066735822122056318e82ba2e8a3833bfcd896e6156f40752bc40ae156427b6829e07d54b30c064736f6c63430008000033",
  "bytecodeSha1": "47b52a0094a6b6d06e424384ec4539952b42d59a",
  "compiler": {
    "evm_version": "istanbul",
    "optimizer": {
      "enabled": true,
      "runs": 200
    },
    "version": "0.8.0+commit.c7dfd78e"
  },
  "contractName": "Opt_simple3",
  "language": "Solidity",
  "natspec": {
    "kind": "dev",
    "methods": {},
    "version": 1
  },
  "opcodes": "PUSH1 0x80 PUSH1 0x40 MSTORE CALLVALUE DUP1 ISZERO PUSH2 0x10 JUMPI PUSH1 0x0 DUP1 REVERT JUMPDEST POP PUSH1 0x4 CALLDATASIZE LT PUSH2 0x4C JUMPI PUSH1 0x0 CALLDATALOAD PUSH1 0xE0 SHR DUP1 PUSH4 0xC55699C EQ PUSH2 0x51 JUMPI DUP1 PUSH4 0x61BC221A EQ PUSH2 0x6F JUMPI DUP1 PUSH4 0x6DFE9E90 EQ PUSH2 0x77 JUMPI DUP1 PUSH4 0xAD7B30A7 EQ PUSH2 0x81 JUMPI JUMPDEST PUSH1 0x0 DUP1 REVERT JUMPDEST PUSH2 0x59 PUSH2 0x94 JUMP JUMPDEST PUSH1 0x40 MLOAD PUSH2 0x66 SWAP2 SWAP1 PUSH2 0x1A0 JUMP JUMPDEST PUSH1 0x40 MLOAD DUP1 SWAP2 SUB SWAP1 RETURN JUMPDEST PUSH2 0x59 PUSH2 0x9A JUMP JUMPDEST PUSH2 0x7F PUSH2 0xA0 JUMP JUMPDEST STOP JUMPDEST PUSH2 0x7F PUSH2 0x8F CALLDATASIZE PUSH1 0x4 PUSH2 0x131 JUMP JUMPDEST PUSH2 0xD4 JUMP JUMPDEST PUSH1 0x0 SLOAD DUP2 JUMP JUMPDEST PUSH1 0x1 SLOAD DUP2 JUMP JUMPDEST PUSH1 0x1 SLOAD PUSH1 0x0 JUMPDEST PUSH1 0x18 DUP2 LT ISZERO PUSH2 0xCE JUMPI PUSH2 0xBA PUSH1 0xA DUP4 PUSH2 0x1A9 JUMP JUMPDEST SWAP2 POP DUP1 PUSH2 0xC6 DUP2 PUSH2 0x1EA JUMP JUMPDEST SWAP2 POP POP PUSH2 0xA6 JUMP JUMPDEST POP PUSH1 0x1 SSTORE JUMP JUMPDEST PUSH1 0x0 DUP1 SLOAD SWAP1 DUP3 SWAP1 JUMPDEST DUP2 DUP2 LT ISZERO PUSH2 0x12A JUMPI DUP5 DUP5 DUP3 DUP2 DUP2 LT PUSH2 0x104 JUMPI PUSH4 0x4E487B71 PUSH1 0xE0 SHL PUSH1 0x0 MSTORE PUSH1 0x32 PUSH1 0x4 MSTORE PUSH1 0x24 PUSH1 0x0 REVERT JUMPDEST SWAP1 POP PUSH1 0x20 MUL ADD CALLDATALOAD DUP4 PUSH2 0x116 SWAP2 SWAP1 PUSH2 0x1A9 JUMP JUMPDEST SWAP3 POP DUP1 PUSH2 0x122 DUP2 PUSH2 0x1EA JUMP JUMPDEST SWAP2 POP POP PUSH2 0xDC JUMP JUMPDEST POP POP POP POP POP JUMP JUMPDEST PUSH1 0x0 DUP1 PUSH1 0x20 DUP4 DUP6 SUB SLT ISZERO PUSH2 0x143 JUMPI DUP2 DUP3 REVERT JUMPDEST DUP3 CALLDATALOAD PUSH8 0xFFFFFFFFFFFFFFFF DUP1 DUP3 GT ISZERO PUSH2 0x15A JUMPI DUP4 DUP5 REVERT JUMPDEST DUP2 DUP6 ADD SWAP2 POP DUP6 PUSH1 0x1F DUP4 ADD SLT PUSH2 0x16D JUMPI DUP4 DUP5 REVERT JUMPDEST DUP2 CALLDATALOAD DUP2 DUP2 GT ISZERO PUSH2 0x17B JUMPI DUP5 DUP6 REVERT JUMPDEST DUP7 PUSH1 0x20 DUP1 DUP4 MUL DUP6 ADD ADD GT ISZERO PUSH2 0x18E JUMPI DUP5 DUP6 REVERT JUMPDEST PUSH1 0x20 SWAP3 SWAP1 SWAP3 ADD SWAP7 SWAP2 SWAP6 POP SWAP1 SWAP4 POP POP POP POP JUMP JUMPDEST SWAP1 DUP2 MSTORE PUSH1 0x20 ADD SWAP1 JUMP JUMPDEST PUSH1 0x0 DUP1 DUP3 SLT DUP1 ISZERO PUSH1 0x1 PUSH1 0x1 PUSH1 0xFF SHL SUB DUP5 SWAP1 SUB DUP6 SGT AND ISZERO PUSH2 0x1CB JUMPI PUSH2 0x1CB PUSH2 0x205 JUMP JUMPDEST PUSH1 0x1 PUSH1 0xFF SHL DUP4 SWAP1 SUB DUP5 SLT DUP2 AND ISZERO PUSH2 0x1E4 JUMPI PUSH2 0x1E4 PUSH2 0x205 JUMP JUMPDEST POP POP ADD SWAP1 JUMP JUMPDEST PUSH1 0x0 PUSH1 0x0 NOT DUP3 EQ ISZERO PUSH2 0x1FE JUMPI PUSH2 0x1FE PUSH2 0x205 JUMP JUMPDEST POP PUSH1 0x1 ADD SWAP1 JUMP JUMPDEST PUSH4 0x4E487B71 PUSH1 0xE0 SHL PUSH1 0x0 MSTORE PUSH1 0x11 PUSH1 0x4 MSTORE PUSH1 0x24 PUSH1 0x0 REVERT INVALID LOG2 PUSH5 0x6970667358 0x22 SLT KECCAK256 JUMP BALANCE DUP15 DUP3 0xBA 0x2E DUP11 CODESIZE CALLER 0xBF 0xCD DUP10 PUSH15 0x6156F40752BC40AE156427B6829E07 0xD5 0x4B ADDRESS 0xC0 PUSH5 0x736F6C6343 STOP ADDMOD STOP STOP CALLER ",
  "sha1": "2cef97141966b810a5b365d0a1ffaa6fab5fb0c5",
  "source": "pragma solidity ^0.8.0;\ncontract Opt_simple3 {\n    int public x = 10;\n    int public counter = 18816000;\n\tconstructor()  {\n        \t}\n\tfunction loop24() public {\n        int  counter_ = counter;\n        for (uint256  i = 0;\ni < 24; i++) {\n            counter_ += 10;\n        }\ncounter = counter_;\n\t}\n\tfunction loop25(int[] calldata arr) public {\n        int  x_ = x;\nuint256  arr_len = arr.length;\nx = x_;\n        for (uint256  i = 0;\ni < arr_len; i++) {\n            x_ += arr[i];\n        }\n\t}\n}\n",
  "sourcePath": "contracts/optimized_contracts/Opt_simple3.sol",
  "type": "contract"
}