{
  "abi": [
    {
      "inputs": [],
      "stateMutability": "nonpayable",
      "type": "constructor"
    },
    {
      "inputs": [],
      "name": "counter",
      "outputs": [
        {
          "internalType": "int256",
          "name": "",
          "type": "int256"
        }
      ],
      "stateMutability": "view",
      "type": "function"
    },
    {
      "inputs": [],
      "name": "loop24",
      "outputs": [],
      "stateMutability": "nonpayable",
      "type": "function"
    },
    {
      "inputs": [
        {
          "internalType": "int256[]",
          "name": "arr",
          "type": "int256[]"
        }
      ],
      "name": "loop25",
      "outputs": [],
      "stateMutability": "nonpayable",
      "type": "function"
    },
    {
      "inputs": [],
      "name": "x",
      "outputs": [
        {
          "internalType": "int256",
          "name": "",
          "type": "int256"
        }
      ],
      "stateMutability": "view",
      "type": "function"
    }
  ],
  "bytecode": "6080604052600a60005534801561001557600080fd5b5063011f1c006001556102bb8061002d6000396000f3fe608060405234801561001057600080fd5b506004361061004c5760003560e01c80630c55699c1461005157806361bc221a1461006f5780636dfe9e9014610077578063ad7b30a714610081575b600080fd5b610059610094565b60405161006691906101f4565b60405180910390f35b61005961009a565b61007f6100a0565b005b61007f61008f36600461013a565b6100da565b60005481565b60015481565b60005b60188110156100d757600a600160008282546100bf91906101fd565b909155508190506100cf8161023e565b9150506100a3565b50565b60005b81518110156101365781818151811061010657634e487b7160e01b600052603260045260246000fd5b602002602001015160008082825461011e91906101fd565b9091555081905061012e8161023e565b9150506100dd565b5050565b6000602080838503121561014c578182fd5b823567ffffffffffffffff80821115610163578384fd5b818501915085601f830112610176578384fd5b8135818111156101885761018861026f565b838102604051858282010181811085821117156101a7576101a761026f565b604052828152858101935084860182860187018a10156101c5578788fd5b8795505b838610156101e75780358552600195909501949386019386016101c9565b5098975050505050505050565b90815260200190565b600080821280156001600160ff1b038490038513161561021f5761021f610259565b600160ff1b839003841281161561023857610238610259565b50500190565b600060001982141561025257610252610259565b5060010190565b634e487b7160e01b600052601160045260246000fd5b634e487b7160e01b600052604160045260246000fdfea264697066735822122089f1fd396ede43e32dddb44526bb0df4a89de8528b73ae98088a09cea489221f64736f6c63430008000033",
  "bytecodeSha1": "01047708d404d096a668aaa951db3ab4786960a9",
  "compiler": {
    "evm_version": "istanbul",
    "optimizer": {
      "enabled": true,
      "runs": 200
    },
    "version": "0.8.0+commit.c7dfd78e"
  },
  "contractName": "simple3",
  "language": "Solidity",
  "natspec": {
    "kind": "dev",
    "methods": {},
    "version": 1
  },
  "opcodes": "PUSH1 0x80 PUSH1 0x40 MSTORE CALLVALUE DUP1 ISZERO PUSH2 0x10 JUMPI PUSH1 0x0 DUP1 REVERT JUMPDEST POP PUSH1 0x4 CALLDATASIZE LT PUSH2 0x4C JUMPI PUSH1 0x0 CALLDATALOAD PUSH1 0xE0 SHR DUP1 PUSH4 0xC55699C EQ PUSH2 0x51 JUMPI DUP1 PUSH4 0x61BC221A EQ PUSH2 0x6F JUMPI DUP1 PUSH4 0x6DFE9E90 EQ PUSH2 0x77 JUMPI DUP1 PUSH4 0xAD7B30A7 EQ PUSH2 0x81 JUMPI JUMPDEST PUSH1 0x0 DUP1 REVERT JUMPDEST PUSH2 0x59 PUSH2 0x94 JUMP JUMPDEST PUSH1 0x40 MLOAD PUSH2 0x66 SWAP2 SWAP1 PUSH2 0x1F4 JUMP JUMPDEST PUSH1 0x40 MLOAD DUP1 SWAP2 SUB SWAP1 RETURN JUMPDEST PUSH2 0x59 PUSH2 0x9A JUMP JUMPDEST PUSH2 0x7F PUSH2 0xA0 JUMP JUMPDEST STOP JUMPDEST PUSH2 0x7F PUSH2 0x8F CALLDATASIZE PUSH1 0x4 PUSH2 0x13A JUMP JUMPDEST PUSH2 0xDA JUMP JUMPDEST PUSH1 0x0 SLOAD DUP2 JUMP JUMPDEST PUSH1 0x1 SLOAD DUP2 JUMP JUMPDEST PUSH1 0x0 JUMPDEST PUSH1 0x18 DUP2 LT ISZERO PUSH2 0xD7 JUMPI PUSH1 0xA PUSH1 0x1 PUSH1 0x0 DUP3 DUP3 SLOAD PUSH2 0xBF SWAP2 SWAP1 PUSH2 0x1FD JUMP JUMPDEST SWAP1 SWAP2 SSTORE POP DUP2 SWAP1 POP PUSH2 0xCF DUP2 PUSH2 0x23E JUMP JUMPDEST SWAP2 POP POP PUSH2 0xA3 JUMP JUMPDEST POP JUMP JUMPDEST PUSH1 0x0 JUMPDEST DUP2 MLOAD DUP2 LT ISZERO PUSH2 0x136 JUMPI DUP2 DUP2 DUP2 MLOAD DUP2 LT PUSH2 0x106 JUMPI PUSH4 0x4E487B71 PUSH1 0xE0 SHL PUSH1 0x0 MSTORE PUSH1 0x32 PUSH1 0x4 MSTORE PUSH1 0x24 PUSH1 0x0 REVERT JUMPDEST PUSH1 0x20 MUL PUSH1 0x20 ADD ADD MLOAD PUSH1 0x0 DUP1 DUP3 DUP3 SLOAD PUSH2 0x11E SWAP2 SWAP1 PUSH2 0x1FD JUMP JUMPDEST SWAP1 SWAP2 SSTORE POP DUP2 SWAP1 POP PUSH2 0x12E DUP2 PUSH2 0x23E JUMP JUMPDEST SWAP2 POP POP PUSH2 0xDD JUMP JUMPDEST POP POP JUMP JUMPDEST PUSH1 0x0 PUSH1 0x20 DUP1 DUP4 DUP6 SUB SLT ISZERO PUSH2 0x14C JUMPI DUP2 DUP3 REVERT JUMPDEST DUP3 CALLDATALOAD PUSH8 0xFFFFFFFFFFFFFFFF DUP1 DUP3 GT ISZERO PUSH2 0x163 JUMPI DUP4 DUP5 REVERT JUMPDEST DUP2 DUP6 ADD SWAP2 POP DUP6 PUSH1 0x1F DUP4 ADD SLT PUSH2 0x176 JUMPI DUP4 DUP5 REVERT JUMPDEST DUP2 CALLDATALOAD DUP2 DUP2 GT ISZERO PUSH2 0x188 JUMPI PUSH2 0x188 PUSH2 0x26F JUMP JUMPDEST DUP4 DUP2 MUL PUSH1 0x40 MLOAD DUP6 DUP3 DUP3 ADD ADD DUP2 DUP2 LT DUP6 DUP3 GT OR ISZERO PUSH2 0x1A7 JUMPI PUSH2 0x1A7 PUSH2 0x26F JUMP JUMPDEST PUSH1 0x40 MSTORE DUP3 DUP2 MSTORE DUP6 DUP2 ADD SWAP4 POP DUP5 DUP7 ADD DUP3 DUP7 ADD DUP8 ADD DUP11 LT ISZERO PUSH2 0x1C5 JUMPI DUP8 DUP9 REVERT JUMPDEST DUP8 SWAP6 POP JUMPDEST DUP4 DUP7 LT ISZERO PUSH2 0x1E7 JUMPI DUP1 CALLDATALOAD DUP6 MSTORE PUSH1 0x1 SWAP6 SWAP1 SWAP6 ADD SWAP5 SWAP4 DUP7 ADD SWAP4 DUP7 ADD PUSH2 0x1C9 JUMP JUMPDEST POP SWAP9 SWAP8 POP POP POP POP POP POP POP POP JUMP JUMPDEST SWAP1 DUP2 MSTORE PUSH1 0x20 ADD SWAP1 JUMP JUMPDEST PUSH1 0x0 DUP1 DUP3 SLT DUP1 ISZERO PUSH1 0x1 PUSH1 0x1 PUSH1 0xFF SHL SUB DUP5 SWAP1 SUB DUP6 SGT AND ISZERO PUSH2 0x21F JUMPI PUSH2 0x21F PUSH2 0x259 JUMP JUMPDEST PUSH1 0x1 PUSH1 0xFF SHL DUP4 SWAP1 SUB DUP5 SLT DUP2 AND ISZERO PUSH2 0x238 JUMPI PUSH2 0x238 PUSH2 0x259 JUMP JUMPDEST POP POP ADD SWAP1 JUMP JUMPDEST PUSH1 0x0 PUSH1 0x0 NOT DUP3 EQ ISZERO PUSH2 0x252 JUMPI PUSH2 0x252 PUSH2 0x259 JUMP JUMPDEST POP PUSH1 0x1 ADD SWAP1 JUMP JUMPDEST PUSH4 0x4E487B71 PUSH1 0xE0 SHL PUSH1 0x0 MSTORE PUSH1 0x11 PUSH1 0x4 MSTORE PUSH1 0x24 PUSH1 0x0 REVERT JUMPDEST PUSH4 0x4E487B71 PUSH1 0xE0 SHL PUSH1 0x0 MSTORE PUSH1 0x41 PUSH1 0x4 MSTORE PUSH1 0x24 PUSH1 0x0 REVERT INVALID LOG2 PUSH5 0x6970667358 0x22 SLT KECCAK256 DUP10 CALL REVERT CODECOPY PUSH15 0xDE43E32DDDB44526BB0DF4A89DE852 DUP12 PUSH20 0xAE98088A09CEA489221F64736F6C634300080000 CALLER ",
  "sha1": "326c4a3b063f73d0fd02a20c7232b633d7d4d149",
  "source": "// SPDX-License-Identifier: UNLICENSED\npragma solidity ^0.8.0;\n\ncontract simple3 {\n    int public x = 10;\n    int public counter;\n    constructor(){\n        counter = 10 * 20*30*56 *56;\n    }\n\n    function loop24() public {\n        for (uint256 i = 0; i < 24; i++) {\n            counter += 10;\n        }\n    }\n\n    function loop25(int [] memory arr) public {\n        for (uint256 i = 0; i < arr.length; i++) {\n            x += arr[i];\n        }\n    }\n}\n",
  "sourcePath": "contracts/unOptimized_contracts/simple3.sol",
  "type": "contract"
}