{
  "abi": [
    {
      "inputs": [],
      "stateMutability": "nonpayable",
      "type": "constructor"
    },
    {
      "inputs": [],
      "name": "counter",
      "outputs": [
        {
          "internalType": "int256",
          "name": "",
          "type": "int256"
        }
      ],
      "stateMutability": "view",
      "type": "function"
    }
  ],
  "bytecode": "6080604052348015600f57600080fd5b5063011f1c00600055608c806100266000396000f3fe6080604052348015600f57600080fd5b506004361060285760003560e01c806361bc221a14602d575b600080fd5b60336047565b604051603e9190604d565b60405180910390f35b60005481565b9081526020019056fea26469706673582212208cf74cdd9d38f3302c98beadc9bd5fa51ca0654526202be19f1e897b528457f064736f6c63430008000033",
  "bytecodeSha1": "4e993e13caa7146b246327870e6db4d8edf0dfd3",
  "compiler": {
    "evm_version": "istanbul",
    "optimizer": {
      "enabled": true,
      "runs": 200
    },
    "version": "0.8.0+commit.c7dfd78e"
  },
  "contractName": "simple1",
  "language": "Solidity",
  "natspec": {
    "kind": "dev",
    "methods": {},
    "version": 1
  },
  "opcodes": "PUSH1 0x80 PUSH1 0x40 MSTORE CALLVALUE DUP1 ISZERO PUSH1 0xF JUMPI PUSH1 0x0 DUP1 REVERT JUMPDEST POP PUSH1 0x4 CALLDATASIZE LT PUSH1 0x28 JUMPI PUSH1 0x0 CALLDATALOAD PUSH1 0xE0 SHR DUP1 PUSH4 0x61BC221A EQ PUSH1 0x2D JUMPI JUMPDEST PUSH1 0x0 DUP1 REVERT JUMPDEST PUSH1 0x33 PUSH1 0x47 JUMP JUMPDEST PUSH1 0x40 MLOAD PUSH1 0x3E SWAP2 SWAP1 PUSH1 0x4D JUMP JUMPDEST PUSH1 0x40 MLOAD DUP1 SWAP2 SUB SWAP1 RETURN JUMPDEST PUSH1 0x0 SLOAD DUP2 JUMP JUMPDEST SWAP1 DUP2 MSTORE PUSH1 0x20 ADD SWAP1 JUMP INVALID LOG2 PUSH5 0x6970667358 0x22 SLT KECCAK256 DUP13 0xF7 0x4C 0xDD SWAP14 CODESIZE RETURN ADDRESS 0x2C SWAP9 0xBE 0xAD 0xC9 0xBD 0x5F 0xA5 SHR LOG0 PUSH6 0x4526202BE19F 0x1E DUP10 PUSH28 0x528457F064736F6C6343000800003300000000000000000000000000 ",
  "sha1": "978c3a8a7e07fd7344de558a05f6bc490d20666a",
  "source": "// SPDX-License-Identifier: UNLICENSED\npragma solidity ^0.8.0;\n\ncontract simple1 {\n    int public counter;\n    constructor(){\n        counter = 10 * 20*30*56 *56;\n    }\n}\n",
  "sourcePath": "contracts/unOptimized_contracts/simple1.sol",
  "type": "contract"
}