{
  "abi": [
    {
      "constant": true,
      "inputs": [],
      "name": "getBalance",
      "outputs": [
        {
          "name": "",
          "type": "uint256"
        }
      ],
      "payable": false,
      "stateMutability": "view",
      "type": "function"
    },
    {
      "constant": false,
      "inputs": [
        {
          "name": "amount",
          "type": "uint256"
        }
      ],
      "name": "withdraw",
      "outputs": [],
      "payable": false,
      "stateMutability": "nonpayable",
      "type": "function"
    },
    {
      "constant": true,
      "inputs": [],
      "name": "owner",
      "outputs": [
        {
          "name": "",
          "type": "address"
        }
      ],
      "payable": false,
      "stateMutability": "view",
      "type": "function"
    },
    {
      "constant": true,
      "inputs": [],
      "name": "balance",
      "outputs": [
        {
          "name": "",
          "type": "uint256"
        }
      ],
      "payable": false,
      "stateMutability": "view",
      "type": "function"
    },
    {
      "constant": false,
      "inputs": [],
      "name": "deposit",
      "outputs": [],
      "payable": true,
      "stateMutability": "payable",
      "type": "function"
    },
    {
      "inputs": [],
      "payable": false,
      "stateMutability": "nonpayable",
      "type": "constructor"
    }
  ],
  "bytecode": "608060405234801561001057600080fd5b5060008054600160a060020a031916331781556001556101b4806100356000396000f30060806040526004361061006c5763ffffffff7c010000000000000000000000000000000000000000000000000000000060003504166312065fe081146100715780632e1a7d4d146100985780638da5cb5b146100b2578063b69ef8a8146100f0578063d0e30db014610105575b600080fd5b34801561007d57600080fd5b5061008661010d565b60408051918252519081900360200190f35b3480156100a457600080fd5b506100b0600435610113565b005b3480156100be57600080fd5b506100c761015c565b6040805173ffffffffffffffffffffffffffffffffffffffff9092168252519081900360200190f35b3480156100fc57600080fd5b50610086610178565b6100b061017e565b60015490565b60015481111561012257600080fd5b600180548290039055604051339082156108fc029083906000818181858888f19350505050158015610158573d6000803e3d6000fd5b5050565b60005473ffffffffffffffffffffffffffffffffffffffff1681565b60015481565b60018054340190555600a165627a7a72305820b9ba95e015e84d3d26a4802b90a8d1c0a3f7d91fad1a5df91cb020659be534d50029",
  "bytecodeSha1": "c0c762ef97cd0ecb4654c1ecbfab78990d9cf064",
  "compiler": {
    "evm_version": "byzantium",
    "optimizer": {
      "enabled": true,
      "runs": 200
    },
    "version": "0.4.26+commit.4563c3fc"
  },
  "contractName": "unOptimizedContract80",
  "language": "Solidity",
  "natspec": {
    "methods": {}
  },
  "opcodes": "PUSH1 0x80 PUSH1 0x40 MSTORE PUSH1 0x4 CALLDATASIZE LT PUSH2 0x6C JUMPI PUSH4 0xFFFFFFFF PUSH29 0x100000000000000000000000000000000000000000000000000000000 PUSH1 0x0 CALLDATALOAD DIV AND PUSH4 0x12065FE0 DUP2 EQ PUSH2 0x71 JUMPI DUP1 PUSH4 0x2E1A7D4D EQ PUSH2 0x98 JUMPI DUP1 PUSH4 0x8DA5CB5B EQ PUSH2 0xB2 JUMPI DUP1 PUSH4 0xB69EF8A8 EQ PUSH2 0xF0 JUMPI DUP1 PUSH4 0xD0E30DB0 EQ PUSH2 0x105 JUMPI JUMPDEST PUSH1 0x0 DUP1 REVERT JUMPDEST CALLVALUE DUP1 ISZERO PUSH2 0x7D JUMPI PUSH1 0x0 DUP1 REVERT JUMPDEST POP PUSH2 0x86 PUSH2 0x10D JUMP JUMPDEST PUSH1 0x40 DUP1 MLOAD SWAP2 DUP3 MSTORE MLOAD SWAP1 DUP2 SWAP1 SUB PUSH1 0x20 ADD SWAP1 RETURN JUMPDEST CALLVALUE DUP1 ISZERO PUSH2 0xA4 JUMPI PUSH1 0x0 DUP1 REVERT JUMPDEST POP PUSH2 0xB0 PUSH1 0x4 CALLDATALOAD PUSH2 0x113 JUMP JUMPDEST STOP JUMPDEST CALLVALUE DUP1 ISZERO PUSH2 0xBE JUMPI PUSH1 0x0 DUP1 REVERT JUMPDEST POP PUSH2 0xC7 PUSH2 0x15C JUMP JUMPDEST PUSH1 0x40 DUP1 MLOAD PUSH20 0xFFFFFFFFFFFFFFFFFFFFFFFFFFFFFFFFFFFFFFFF SWAP1 SWAP3 AND DUP3 MSTORE MLOAD SWAP1 DUP2 SWAP1 SUB PUSH1 0x20 ADD SWAP1 RETURN JUMPDEST CALLVALUE DUP1 ISZERO PUSH2 0xFC JUMPI PUSH1 0x0 DUP1 REVERT JUMPDEST POP PUSH2 0x86 PUSH2 0x178 JUMP JUMPDEST PUSH2 0xB0 PUSH2 0x17E JUMP JUMPDEST PUSH1 0x1 SLOAD SWAP1 JUMP JUMPDEST PUSH1 0x1 SLOAD DUP2 GT ISZERO PUSH2 0x122 JUMPI PUSH1 0x0 DUP1 REVERT JUMPDEST PUSH1 0x1 DUP1 SLOAD DUP3 SWAP1 SUB SWAP1 SSTORE PUSH1 0x40 MLOAD CALLER SWAP1 DUP3 ISZERO PUSH2 0x8FC MUL SWAP1 DUP4 SWAP1 PUSH1 0x0 DUP2 DUP2 DUP2 DUP6 DUP9 DUP9 CALL SWAP4 POP POP POP POP ISZERO DUP1 ISZERO PUSH2 0x158 JUMPI RETURNDATASIZE PUSH1 0x0 DUP1 RETURNDATACOPY RETURNDATASIZE PUSH1 0x0 REVERT JUMPDEST POP POP JUMP JUMPDEST PUSH1 0x0 SLOAD PUSH20 0xFFFFFFFFFFFFFFFFFFFFFFFFFFFFFFFFFFFFFFFF AND DUP2 JUMP JUMPDEST PUSH1 0x1 SLOAD DUP2 JUMP JUMPDEST PUSH1 0x1 DUP1 SLOAD CALLVALUE ADD SWAP1 SSTORE JUMP STOP LOG1 PUSH6 0x627A7A723058 KECCAK256 0xb9 0xba SWAP6 0xe0 ISZERO 0xe8 0x4d RETURNDATASIZE 0x26 LOG4 DUP1 0x2b SWAP1 0xa8 0xd1 0xc0 LOG3 0xf7 0xd9 0x1f 0xad BYTE 0x5d 0xf9 SHR 0xb0 KECCAK256 PUSH6 0x9BE534D50029 ",
  "sha1": "bddd5f718a29de9531050e7941a76e5957709314",
  "source": "pragma solidity ^0.4.25;\n\ncontract unOptimizedContract80 {\n\n    address public owner;\n    uint public balance;\n\n    constructor() public {\n        owner = msg.sender;\n        balance = 0;\n    }\n\n    function deposit() public payable {\n        balance += msg.value;\n    }\n\n    function withdraw(uint amount) public {\n        require(balance >= amount);\n        balance -= amount;\n        msg.sender.transfer(amount);\n    }\n\n    function getBalance() public view returns (uint) {\n        return balance;\n    }\n\n}",
  "sourcePath": "contracts/verifiable_contracts_gpt/UnOptimizedContract80.sol",
  "type": "contract"
}