{
  "abi": [
    {
      "constant": true,
      "inputs": [],
      "name": "count",
      "outputs": [
        {
          "internalType": "uint256",
          "name": "",
          "type": "uint256"
        }
      ],
      "payable": false,
      "stateMutability": "view",
      "type": "function"
    },
    {
      "constant": false,
      "inputs": [],
      "name": "decreaseCounter",
      "outputs": [],
      "payable": false,
      "stateMutability": "nonpayable",
      "type": "function"
    },
    {
      "constant": false,
      "inputs": [],
      "name": "increaseCounter",
      "outputs": [],
      "payable": false,
      "stateMutability": "nonpayable",
      "type": "function"
    }
  ],
  "bytecode": "608060405234801561001057600080fd5b5060b98061001f6000396000f3fe6080604052348015600f57600080fd5b5060043610603c5760003560e01c806306661abd1460415780638bba42b3146059578063b49004e9146061575b600080fd5b60476067565b60408051918252519081900360200190f35b605f606d565b005b605f6079565b60005481565b60008054600019019055565b60008054600101905556fea265627a7a7231582078647569c896e8951b7ca05e9b7cf0cb4afc2ad8ce9859d8979cfe249158b4ba64736f6c63430005110032",
  "bytecodeSha1": "7ed28b57e3904205b8a541ee8917577bdaf2d896",
  "compiler": {
    "evm_version": "istanbul",
    "optimizer": {
      "enabled": true,
      "runs": 200
    },
    "version": "0.5.17+commit.d19bba13"
  },
  "contractName": "unOptimizedContract102",
  "language": "Solidity",
  "natspec": {
    "methods": {}
  },
  "opcodes": "PUSH1 0x80 PUSH1 0x40 MSTORE CALLVALUE DUP1 ISZERO PUSH1 0xF JUMPI PUSH1 0x0 DUP1 REVERT JUMPDEST POP PUSH1 0x4 CALLDATASIZE LT PUSH1 0x3C JUMPI PUSH1 0x0 CALLDATALOAD PUSH1 0xE0 SHR DUP1 PUSH4 0x6661ABD EQ PUSH1 0x41 JUMPI DUP1 PUSH4 0x8BBA42B3 EQ PUSH1 0x59 JUMPI DUP1 PUSH4 0xB49004E9 EQ PUSH1 0x61 JUMPI JUMPDEST PUSH1 0x0 DUP1 REVERT JUMPDEST PUSH1 0x47 PUSH1 0x67 JUMP JUMPDEST PUSH1 0x40 DUP1 MLOAD SWAP2 DUP3 MSTORE MLOAD SWAP1 DUP2 SWAP1 SUB PUSH1 0x20 ADD SWAP1 RETURN JUMPDEST PUSH1 0x5F PUSH1 0x6D JUMP JUMPDEST STOP JUMPDEST PUSH1 0x5F PUSH1 0x79 JUMP JUMPDEST PUSH1 0x0 SLOAD DUP2 JUMP JUMPDEST PUSH1 0x0 DUP1 SLOAD PUSH1 0x0 NOT ADD SWAP1 SSTORE JUMP JUMPDEST PUSH1 0x0 DUP1 SLOAD PUSH1 0x1 ADD SWAP1 SSTORE JUMP INVALID LOG2 PUSH6 0x627A7A723158 KECCAK256 PUSH25 0x647569C896E8951B7CA05E9B7CF0CB4AFC2AD8CE9859D8979C INVALID 0x24 SWAP2 PC 0xB4 0xBA PUSH5 0x736F6C6343 STOP SDIV GT STOP ORIGIN ",
  "sha1": "5572bb50f63e142fe0b42a3e5802f762ec3485df",
  "source": "pragma solidity ^0.5.0;\n\ncontract unOptimizedContract102 {\n    uint public count;\n\n    function increaseCounter() public {\n        count++;\n    }\n\n    function decreaseCounter() public {\n        count--;\n    }\n}",
  "sourcePath": "contracts/unOptimized_contracts/UnOptimizedContract102.sol",
  "type": "contract"
}