{
  "abi": [
    {
      "inputs": [],
      "payable": false,
      "stateMutability": "nonpayable",
      "type": "constructor"
    },
    {
      "constant": true,
      "inputs": [],
      "name": "getTotalSupply",
      "outputs": [
        {
          "internalType": "uint256",
          "name": "",
          "type": "uint256"
        }
      ],
      "payable": false,
      "stateMutability": "view",
      "type": "function"
    },
    {
      "constant": false,
      "inputs": [],
      "name": "incrementTotalSupply",
      "outputs": [],
      "payable": false,
      "stateMutability": "nonpayable",
      "type": "function"
    },
    {
      "constant": true,
      "inputs": [],
      "name": "totalSupply",
      "outputs": [
        {
          "internalType": "uint256",
          "name": "",
          "type": "uint256"
        }
      ],
      "payable": false,
      "stateMutability": "view",
      "type": "function"
    }
  ],
  "bytecode": "608060405234801561001057600080fd5b506000805560b3806100236000396000f3fe6080604052348015600f57600080fd5b5060043610603c5760003560e01c806318160ddd1460415780639e896187146059578063c4e41b22146061575b600080fd5b60476067565b60408051918252519081900360200190f35b605f606d565b005b60476078565b60005481565b600080546001019055565b6000549056fea265627a7a72315820257291bf6ace853cc4e098e7f3b4c9aeeb6f7b17bb623c711d16d0558445512c64736f6c63430005110032",
  "bytecodeSha1": "2dfcbaad06c495ae688d754ef6ccdcf754a5b71c",
  "compiler": {
    "evm_version": "istanbul",
    "optimizer": {
      "enabled": true,
      "runs": 200
    },
    "version": "0.5.17+commit.d19bba13"
  },
  "contractName": "unOptimizedContract123",
  "language": "Solidity",
  "natspec": {
    "methods": {}
  },
  "opcodes": "PUSH1 0x80 PUSH1 0x40 MSTORE CALLVALUE DUP1 ISZERO PUSH1 0xF JUMPI PUSH1 0x0 DUP1 REVERT JUMPDEST POP PUSH1 0x4 CALLDATASIZE LT PUSH1 0x3C JUMPI PUSH1 0x0 CALLDATALOAD PUSH1 0xE0 SHR DUP1 PUSH4 0x18160DDD EQ PUSH1 0x41 JUMPI DUP1 PUSH4 0x9E896187 EQ PUSH1 0x59 JUMPI DUP1 PUSH4 0xC4E41B22 EQ PUSH1 0x61 JUMPI JUMPDEST PUSH1 0x0 DUP1 REVERT JUMPDEST PUSH1 0x47 PUSH1 0x67 JUMP JUMPDEST PUSH1 0x40 DUP1 MLOAD SWAP2 DUP3 MSTORE MLOAD SWAP1 DUP2 SWAP1 SUB PUSH1 0x20 ADD SWAP1 RETURN JUMPDEST PUSH1 0x5F PUSH1 0x6D JUMP JUMPDEST STOP JUMPDEST PUSH1 0x47 PUSH1 0x78 JUMP JUMPDEST PUSH1 0x0 SLOAD DUP2 JUMP JUMPDEST PUSH1 0x0 DUP1 SLOAD PUSH1 0x1 ADD SWAP1 SSTORE JUMP JUMPDEST PUSH1 0x0 SLOAD SWAP1 JUMP INVALID LOG2 PUSH6 0x627A7A723158 KECCAK256 0x25 PUSH19 0x91BF6ACE853CC4E098E7F3B4C9AEEB6F7B17BB PUSH3 0x3C711D AND 0xD0 SSTORE DUP5 GASLIMIT MLOAD 0x2C PUSH5 0x736F6C6343 STOP SDIV GT STOP ORIGIN ",
  "sha1": "37c1328c1cec17d59bcb0c0fb3ed6eb8678a5566",
  "source": "pragma solidity ^0.5.0;\n\ncontract unOptimizedContract123 {\n    \n    uint public totalSupply;\n    \n    constructor() public {\n        totalSupply = 0;\n    }\n    \n    function incrementTotalSupply() public {\n        totalSupply++;\n    }\n    \n    function getTotalSupply() public view returns (uint) {\n        return totalSupply;\n    }\n}",
  "sourcePath": "contracts/unOptimized_contracts/UnOptimizedContract123.sol",
  "type": "contract"
}