{
  "abi": [
    {
      "inputs": [],
      "payable": false,
      "stateMutability": "nonpayable",
      "type": "constructor"
    },
    {
      "constant": true,
      "inputs": [],
      "name": "counter",
      "outputs": [
        {
          "internalType": "uint256",
          "name": "",
          "type": "uint256"
        }
      ],
      "payable": false,
      "stateMutability": "view",
      "type": "function"
    },
    {
      "constant": false,
      "inputs": [],
      "name": "decrementCounter",
      "outputs": [],
      "payable": false,
      "stateMutability": "nonpayable",
      "type": "function"
    },
    {
      "constant": false,
      "inputs": [],
      "name": "incrementCounter",
      "outputs": [],
      "payable": false,
      "stateMutability": "nonpayable",
      "type": "function"
    }
  ],
  "bytecode": "608060405234801561001057600080fd5b506000805560b9806100236000396000f3fe6080604052348015600f57600080fd5b5060043610603c5760003560e01c80635b34b96614604157806361bc221a146049578063f5c5ad83146061575b600080fd5b60476067565b005b604f6072565b60408051918252519081900360200190f35b60476078565b600080546001019055565b60005481565b6000805460001901905556fea265627a7a723158205efd21ef548be7608be198ef9bcc3feb60554d19c96761a20cdd7edb5591a7e464736f6c63430005110032",
  "bytecodeSha1": "843d9c9204b07b260e72451f29063023393bac39",
  "compiler": {
    "evm_version": "istanbul",
    "optimizer": {
      "enabled": true,
      "runs": 200
    },
    "version": "0.5.17+commit.d19bba13"
  },
  "contractName": "unOptimizedContract50",
  "language": "Solidity",
  "natspec": {
    "methods": {}
  },
  "opcodes": "PUSH1 0x80 PUSH1 0x40 MSTORE CALLVALUE DUP1 ISZERO PUSH1 0xF JUMPI PUSH1 0x0 DUP1 REVERT JUMPDEST POP PUSH1 0x4 CALLDATASIZE LT PUSH1 0x3C JUMPI PUSH1 0x0 CALLDATALOAD PUSH1 0xE0 SHR DUP1 PUSH4 0x5B34B966 EQ PUSH1 0x41 JUMPI DUP1 PUSH4 0x61BC221A EQ PUSH1 0x49 JUMPI DUP1 PUSH4 0xF5C5AD83 EQ PUSH1 0x61 JUMPI JUMPDEST PUSH1 0x0 DUP1 REVERT JUMPDEST PUSH1 0x47 PUSH1 0x67 JUMP JUMPDEST STOP JUMPDEST PUSH1 0x4F PUSH1 0x72 JUMP JUMPDEST PUSH1 0x40 DUP1 MLOAD SWAP2 DUP3 MSTORE MLOAD SWAP1 DUP2 SWAP1 SUB PUSH1 0x20 ADD SWAP1 RETURN JUMPDEST PUSH1 0x47 PUSH1 0x78 JUMP JUMPDEST PUSH1 0x0 DUP1 SLOAD PUSH1 0x1 ADD SWAP1 SSTORE JUMP JUMPDEST PUSH1 0x0 SLOAD DUP2 JUMP JUMPDEST PUSH1 0x0 DUP1 SLOAD PUSH1 0x0 NOT ADD SWAP1 SSTORE JUMP INVALID LOG2 PUSH6 0x627A7A723158 KECCAK256 0x5E REVERT 0x21 0xEF SLOAD DUP12 0xE7 PUSH1 0x8B 0xE1 SWAP9 0xEF SWAP12 0xCC EXTCODEHASH 0xEB PUSH1 0x55 0x4D NOT 0xC9 PUSH8 0x61A20CDD7EDB5591 0xA7 0xE4 PUSH5 0x736F6C6343 STOP SDIV GT STOP ORIGIN ",
  "sha1": "142f475ff40bc738ca3b9e63bae39920b4b0e0af",
  "source": "pragma solidity ^0.5.0;\n\ncontract unOptimizedContract50 {\n    uint public counter;\n\n    constructor() public {\n        counter = 0;\n    }\n\n    function incrementCounter() public {\n        counter++;\n    }\n\n    function decrementCounter() public {\n        counter--;\n    }\n}",
  "sourcePath": "contracts/unOptimized_contracts/UnOptimizedContract50.sol",
  "type": "contract"
}