{
  "abi": [
    {
      "inputs": [],
      "payable": false,
      "stateMutability": "nonpayable",
      "type": "constructor"
    },
    {
      "constant": false,
      "inputs": [],
      "name": "decrement",
      "outputs": [],
      "payable": false,
      "stateMutability": "nonpayable",
      "type": "function"
    },
    {
      "constant": true,
      "inputs": [],
      "name": "getX",
      "outputs": [
        {
          "internalType": "uint256",
          "name": "",
          "type": "uint256"
        }
      ],
      "payable": false,
      "stateMutability": "view",
      "type": "function"
    },
    {
      "constant": false,
      "inputs": [],
      "name": "increment",
      "outputs": [],
      "payable": false,
      "stateMutability": "nonpayable",
      "type": "function"
    },
    {
      "constant": true,
      "inputs": [],
      "name": "x",
      "outputs": [
        {
          "internalType": "uint256",
          "name": "",
          "type": "uint256"
        }
      ],
      "payable": false,
      "stateMutability": "view",
      "type": "function"
    }
  ],
  "bytecode": "608060405234801561001057600080fd5b506000805560cf806100236000396000f3fe6080604052348015600f57600080fd5b506004361060465760003560e01c80630c55699c14604b5780632baeceb71460635780635197c7aa14606b578063d09de08a146071575b600080fd5b60516077565b60408051918252519081900360200190f35b6069607d565b005b60516089565b6069608f565b60005481565b60008054600019019055565b60005490565b60008054600101905556fea265627a7a72315820ddafd7fc3f6f1b465f2472e1fd00de9281a079d3212b9d0d7b02c84eae7c970964736f6c63430005110032",
  "bytecodeSha1": "e73a8b18642ceae6aa955734f2c026c8f5ca4946",
  "compiler": {
    "evm_version": "istanbul",
    "optimizer": {
      "enabled": true,
      "runs": 200
    },
    "version": "0.5.17+commit.d19bba13"
  },
  "contractName": "unOptimizedContract40",
  "language": "Solidity",
  "natspec": {
    "methods": {}
  },
  "opcodes": "PUSH1 0x80 PUSH1 0x40 MSTORE CALLVALUE DUP1 ISZERO PUSH1 0xF JUMPI PUSH1 0x0 DUP1 REVERT JUMPDEST POP PUSH1 0x4 CALLDATASIZE LT PUSH1 0x46 JUMPI PUSH1 0x0 CALLDATALOAD PUSH1 0xE0 SHR DUP1 PUSH4 0xC55699C EQ PUSH1 0x4B JUMPI DUP1 PUSH4 0x2BAECEB7 EQ PUSH1 0x63 JUMPI DUP1 PUSH4 0x5197C7AA EQ PUSH1 0x6B JUMPI DUP1 PUSH4 0xD09DE08A EQ PUSH1 0x71 JUMPI JUMPDEST PUSH1 0x0 DUP1 REVERT JUMPDEST PUSH1 0x51 PUSH1 0x77 JUMP JUMPDEST PUSH1 0x40 DUP1 MLOAD SWAP2 DUP3 MSTORE MLOAD SWAP1 DUP2 SWAP1 SUB PUSH1 0x20 ADD SWAP1 RETURN JUMPDEST PUSH1 0x69 PUSH1 0x7D JUMP JUMPDEST STOP JUMPDEST PUSH1 0x51 PUSH1 0x89 JUMP JUMPDEST PUSH1 0x69 PUSH1 0x8F JUMP JUMPDEST PUSH1 0x0 SLOAD DUP2 JUMP JUMPDEST PUSH1 0x0 DUP1 SLOAD PUSH1 0x0 NOT ADD SWAP1 SSTORE JUMP JUMPDEST PUSH1 0x0 SLOAD SWAP1 JUMP JUMPDEST PUSH1 0x0 DUP1 SLOAD PUSH1 0x1 ADD SWAP1 SSTORE JUMP INVALID LOG2 PUSH6 0x627A7A723158 KECCAK256 0xDD 0xAF 0xD7 0xFC EXTCODEHASH PUSH16 0x1B465F2472E1FD00DE9281A079D3212B SWAP14 0xD PUSH28 0x2C84EAE7C970964736F6C6343000511003200000000000000000000 ",
  "sha1": "04b35a62d6ff37bf84359f7b0d0a5d8e563f6fc5",
  "source": "pragma solidity ^0.5.0;\n\ncontract unOptimizedContract40 {\n  \n    uint public x;\n    \n    constructor() public {\n        x = 0;\n    }\n    \n    function increment() public {\n        x++;\n    }\n    \n    function decrement() public {\n        x--;\n    }\n    \n    function getX() public view returns (uint) {\n        return x;\n    }\n\n}",
  "sourcePath": "contracts/unOptimized_contracts/UnOptimizedContract40.sol",
  "type": "contract"
}