{
  "abi": [
    {
      "inputs": [],
      "payable": false,
      "stateMutability": "nonpayable",
      "type": "constructor"
    },
    {
      "constant": true,
      "inputs": [],
      "name": "getMyNumber",
      "outputs": [
        {
          "internalType": "uint256",
          "name": "",
          "type": "uint256"
        }
      ],
      "payable": false,
      "stateMutability": "view",
      "type": "function"
    },
    {
      "constant": true,
      "inputs": [],
      "name": "myNumber",
      "outputs": [
        {
          "internalType": "uint256",
          "name": "",
          "type": "uint256"
        }
      ],
      "payable": false,
      "stateMutability": "view",
      "type": "function"
    }
  ],
  "bytecode": "6080604052348015600f57600080fd5b50604a6000556096806100236000396000f3fe6080604052348015600f57600080fd5b506004361060325760003560e01c806323fd0e40146037578063b32e737f14604f575b600080fd5b603d6055565b60408051918252519081900360200190f35b603d605b565b60005481565b6000549056fea265627a7a72315820f1b422b84bfde3167ef51c333c8290a9e0f70e659a7df1ff0bb4effe8922b50064736f6c63430005110032",
  "bytecodeSha1": "7768032b454ee9cc66aea9f85d707698e192a220",
  "compiler": {
    "evm_version": "istanbul",
    "optimizer": {
      "enabled": true,
      "runs": 200
    },
    "version": "0.5.17+commit.d19bba13"
  },
  "contractName": "unOptimizedContract74",
  "language": "Solidity",
  "natspec": {
    "methods": {}
  },
  "opcodes": "PUSH1 0x80 PUSH1 0x40 MSTORE CALLVALUE DUP1 ISZERO PUSH1 0xF JUMPI PUSH1 0x0 DUP1 REVERT JUMPDEST POP PUSH1 0x4 CALLDATASIZE LT PUSH1 0x32 JUMPI PUSH1 0x0 CALLDATALOAD PUSH1 0xE0 SHR DUP1 PUSH4 0x23FD0E40 EQ PUSH1 0x37 JUMPI DUP1 PUSH4 0xB32E737F EQ PUSH1 0x4F JUMPI JUMPDEST PUSH1 0x0 DUP1 REVERT JUMPDEST PUSH1 0x3D PUSH1 0x55 JUMP JUMPDEST PUSH1 0x40 DUP1 MLOAD SWAP2 DUP3 MSTORE MLOAD SWAP1 DUP2 SWAP1 SUB PUSH1 0x20 ADD SWAP1 RETURN JUMPDEST PUSH1 0x3D PUSH1 0x5B JUMP JUMPDEST PUSH1 0x0 SLOAD DUP2 JUMP JUMPDEST PUSH1 0x0 SLOAD SWAP1 JUMP INVALID LOG2 PUSH6 0x627A7A723158 KECCAK256 CALL 0xB4 0x22 0xB8 0x4B REVERT 0xE3 AND PUSH31 0xF51C333C8290A9E0F70E659A7DF1FF0BB4EFFE8922B50064736F6C63430005 GT STOP ORIGIN ",
  "sha1": "fba9de3d3bb8789a28e42fc5dfe7127340f73977",
  "source": "pragma solidity ^0.5.0;\n\ncontract unOptimizedContract74 {\n\n    // Data\n    uint256 public myNumber;\n\n    // Constructor\n    constructor() public {\n        myNumber = 74;\n    }\n\n    // Getter function for myNumber\n    function getMyNumber() public view returns (uint256) {\n        return myNumber;\n    }\n\n}",
  "sourcePath": "contracts/unOptimized_contracts/UnOptimizedContract74.sol",
  "type": "contract"
}