{
  "abi": [
    {
      "inputs": [],
      "stateMutability": "nonpayable",
      "type": "constructor"
    },
    {
      "inputs": [],
      "name": "getOwner",
      "outputs": [
        {
          "internalType": "address",
          "name": "",
          "type": "address"
        }
      ],
      "stateMutability": "view",
      "type": "function"
    },
    {
      "inputs": [],
      "name": "owner",
      "outputs": [
        {
          "internalType": "address",
          "name": "",
          "type": "address"
        }
      ],
      "stateMutability": "view",
      "type": "function"
    },
    {
      "inputs": [
        {
          "internalType": "address",
          "name": "newOwner",
          "type": "address"
        }
      ],
      "name": "setOwner",
      "outputs": [],
      "stateMutability": "nonpayable",
      "type": "function"
    }
  ],
  "bytecode": "608060405234801561001057600080fd5b50600080546001600160a01b0319163317905561011a806100326000396000f3fe6080604052348015600f57600080fd5b5060043610603c5760003560e01c806313af4035146041578063893d20e81460665780638da5cb5b146088575b600080fd5b606460048036036020811015605557600080fd5b50356001600160a01b0316608e565b005b606c60c6565b604080516001600160a01b039092168252519081900360200190f35b606c60d5565b6000546001600160a01b0316331460a457600080fd5b600080546001600160a01b0319166001600160a01b0392909216919091179055565b6000546001600160a01b031690565b6000546001600160a01b03168156fea2646970667358221220b5d5dd3efd61a92624d3346d74eb37e157b5688a057071e5d56d12a5393abdb564736f6c63430007060033",
  "bytecodeSha1": "858e7dc72dee4970639efaf8154714d7b86417a4",
  "compiler": {
    "evm_version": "istanbul",
    "optimizer": {
      "enabled": true,
      "runs": 200
    },
    "version": "0.7.6+commit.7338295f"
  },
  "contractName": "unOptimizedContract70",
  "language": "Solidity",
  "natspec": {
    "kind": "dev",
    "methods": {},
    "version": 1
  },
  "opcodes": "PUSH1 0x80 PUSH1 0x40 MSTORE CALLVALUE DUP1 ISZERO PUSH1 0xF JUMPI PUSH1 0x0 DUP1 REVERT JUMPDEST POP PUSH1 0x4 CALLDATASIZE LT PUSH1 0x3C JUMPI PUSH1 0x0 CALLDATALOAD PUSH1 0xE0 SHR DUP1 PUSH4 0x13AF4035 EQ PUSH1 0x41 JUMPI DUP1 PUSH4 0x893D20E8 EQ PUSH1 0x66 JUMPI DUP1 PUSH4 0x8DA5CB5B EQ PUSH1 0x88 JUMPI JUMPDEST PUSH1 0x0 DUP1 REVERT JUMPDEST PUSH1 0x64 PUSH1 0x4 DUP1 CALLDATASIZE SUB PUSH1 0x20 DUP2 LT ISZERO PUSH1 0x55 JUMPI PUSH1 0x0 DUP1 REVERT JUMPDEST POP CALLDATALOAD PUSH1 0x1 PUSH1 0x1 PUSH1 0xA0 SHL SUB AND PUSH1 0x8E JUMP JUMPDEST STOP JUMPDEST PUSH1 0x6C PUSH1 0xC6 JUMP JUMPDEST PUSH1 0x40 DUP1 MLOAD PUSH1 0x1 PUSH1 0x1 PUSH1 0xA0 SHL SUB SWAP1 SWAP3 AND DUP3 MSTORE MLOAD SWAP1 DUP2 SWAP1 SUB PUSH1 0x20 ADD SWAP1 RETURN JUMPDEST PUSH1 0x6C PUSH1 0xD5 JUMP JUMPDEST PUSH1 0x0 SLOAD PUSH1 0x1 PUSH1 0x1 PUSH1 0xA0 SHL SUB AND CALLER EQ PUSH1 0xA4 JUMPI PUSH1 0x0 DUP1 REVERT JUMPDEST PUSH1 0x0 DUP1 SLOAD PUSH1 0x1 PUSH1 0x1 PUSH1 0xA0 SHL SUB NOT AND PUSH1 0x1 PUSH1 0x1 PUSH1 0xA0 SHL SUB SWAP3 SWAP1 SWAP3 AND SWAP2 SWAP1 SWAP2 OR SWAP1 SSTORE JUMP JUMPDEST PUSH1 0x0 SLOAD PUSH1 0x1 PUSH1 0x1 PUSH1 0xA0 SHL SUB AND SWAP1 JUMP JUMPDEST PUSH1 0x0 SLOAD PUSH1 0x1 PUSH1 0x1 PUSH1 0xA0 SHL SUB AND DUP2 JUMP INVALID LOG2 PUSH5 0x6970667358 0x22 SLT KECCAK256 0xB5 0xD5 0xDD RETURNDATACOPY REVERT PUSH2 0xA926 0x24 0xD3 CALLVALUE PUSH14 0x74EB37E157B5688A057071E5D56D SLT 0xA5 CODECOPY GASPRICE 0xBD 0xB5 PUSH5 0x736F6C6343 STOP SMOD MOD STOP CALLER ",
  "sha1": "557da1df9582a584b8f03d5af5e7c39861b93af9",
  "source": "pragma solidity ^0.7.0;\n\ncontract unOptimizedContract70 {\n\n    address public owner;\n\n    constructor() public {\n        owner = msg.sender;\n    }\n\n    function setOwner(address newOwner) public {\n        require(msg.sender == owner);\n        owner = newOwner;\n    }\n\n    function getOwner() public view returns (address) {\n        return owner;\n    }\n\n}",
  "sourcePath": "contracts/unOptimized_contracts/UnOptimizedContract70.sol",
  "type": "contract"
}