{
  "abi": [
    {
      "inputs": [],
      "payable": false,
      "stateMutability": "nonpayable",
      "type": "constructor"
    },
    {
      "constant": false,
      "inputs": [
        {
          "internalType": "uint256",
          "name": "_amount",
          "type": "uint256"
        }
      ],
      "name": "addBalance",
      "outputs": [],
      "payable": false,
      "stateMutability": "nonpayable",
      "type": "function"
    },
    {
      "constant": true,
      "inputs": [],
      "name": "balance",
      "outputs": [
        {
          "internalType": "uint256",
          "name": "",
          "type": "uint256"
        }
      ],
      "payable": false,
      "stateMutability": "view",
      "type": "function"
    },
    {
      "constant": true,
      "inputs": [],
      "name": "getBalance",
      "outputs": [
        {
          "internalType": "uint256",
          "name": "",
          "type": "uint256"
        }
      ],
      "payable": false,
      "stateMutability": "view",
      "type": "function"
    },
    {
      "constant": false,
      "inputs": [
        {
          "internalType": "uint256",
          "name": "_amount",
          "type": "uint256"
        }
      ],
      "name": "subtractBalance",
      "outputs": [],
      "payable": false,
      "stateMutability": "nonpayable",
      "type": "function"
    }
  ],
  "bytecode": "608060405234801561001057600080fd5b5060008055610100806100246000396000f3fe6080604052348015600f57600080fd5b506004361060465760003560e01c806312065fe014604b578063a046b552146063578063b69ef8a814607f578063d91921ed146085575b600080fd5b6051609f565b60408051918252519081900360200190f35b607d60048036036020811015607757600080fd5b503560a5565b005b605160ba565b607d60048036036020811015609957600080fd5b503560c0565b60005490565b806000541060b7576000805482900390555b50565b60005481565b60008054909101905556fea265627a7a72315820fdb6906cf89521d9a0c30c280f2f42044f61e69196b3dcb2af91a7dbf125b60464736f6c63430005110032",
  "bytecodeSha1": "56b595cebd254015ed04a8f587ef5aed53f68809",
  "compiler": {
    "evm_version": "istanbul",
    "optimizer": {
      "enabled": true,
      "runs": 200
    },
    "version": "0.5.17+commit.d19bba13"
  },
  "contractName": "unOptimizedContract54",
  "language": "Solidity",
  "natspec": {
    "methods": {}
  },
  "opcodes": "PUSH1 0x80 PUSH1 0x40 MSTORE CALLVALUE DUP1 ISZERO PUSH1 0xF JUMPI PUSH1 0x0 DUP1 REVERT JUMPDEST POP PUSH1 0x4 CALLDATASIZE LT PUSH1 0x46 JUMPI PUSH1 0x0 CALLDATALOAD PUSH1 0xE0 SHR DUP1 PUSH4 0x12065FE0 EQ PUSH1 0x4B JUMPI DUP1 PUSH4 0xA046B552 EQ PUSH1 0x63 JUMPI DUP1 PUSH4 0xB69EF8A8 EQ PUSH1 0x7F JUMPI DUP1 PUSH4 0xD91921ED EQ PUSH1 0x85 JUMPI JUMPDEST PUSH1 0x0 DUP1 REVERT JUMPDEST PUSH1 0x51 PUSH1 0x9F JUMP JUMPDEST PUSH1 0x40 DUP1 MLOAD SWAP2 DUP3 MSTORE MLOAD SWAP1 DUP2 SWAP1 SUB PUSH1 0x20 ADD SWAP1 RETURN JUMPDEST PUSH1 0x7D PUSH1 0x4 DUP1 CALLDATASIZE SUB PUSH1 0x20 DUP2 LT ISZERO PUSH1 0x77 JUMPI PUSH1 0x0 DUP1 REVERT JUMPDEST POP CALLDATALOAD PUSH1 0xA5 JUMP JUMPDEST STOP JUMPDEST PUSH1 0x51 PUSH1 0xBA JUMP JUMPDEST PUSH1 0x7D PUSH1 0x4 DUP1 CALLDATASIZE SUB PUSH1 0x20 DUP2 LT ISZERO PUSH1 0x99 JUMPI PUSH1 0x0 DUP1 REVERT JUMPDEST POP CALLDATALOAD PUSH1 0xC0 JUMP JUMPDEST PUSH1 0x0 SLOAD SWAP1 JUMP JUMPDEST DUP1 PUSH1 0x0 SLOAD LT PUSH1 0xB7 JUMPI PUSH1 0x0 DUP1 SLOAD DUP3 SWAP1 SUB SWAP1 SSTORE JUMPDEST POP JUMP JUMPDEST PUSH1 0x0 SLOAD DUP2 JUMP JUMPDEST PUSH1 0x0 DUP1 SLOAD SWAP1 SWAP2 ADD SWAP1 SSTORE JUMP INVALID LOG2 PUSH6 0x627A7A723158 KECCAK256 REVERT 0xB6 SWAP1 PUSH13 0xF89521D9A0C30C280F2F42044F PUSH2 0xE691 SWAP7 0xB3 0xDC 0xB2 0xAF SWAP2 0xA7 0xDB CALL 0x25 0xB6 DIV PUSH5 0x736F6C6343 STOP SDIV GT STOP ORIGIN ",
  "sha1": "63214ad08b6c90b48cf44e64396cdb72e6714f8a",
  "source": "pragma solidity ^0.5.0;\n\ncontract unOptimizedContract54 {\n    uint public balance;\n\n    constructor() public {\n        balance = 0;\n    }\n\n    function addBalance(uint _amount) public {\n        balance += _amount;\n    }\n\n    function subtractBalance(uint _amount) public {\n        if (balance >= _amount) {\n            balance -= _amount;\n        }\n    }\n\n    function getBalance() public view returns (uint) {\n        return balance;\n    }\n}",
  "sourcePath": "contracts/verifiable_contracts_gpt/UnOptimizedContract54.sol",
  "type": "contract"
}