{
  "abi": [
    {
      "inputs": [],
      "stateMutability": "nonpayable",
      "type": "constructor"
    },
    {
      "inputs": [],
      "name": "balance",
      "outputs": [
        {
          "internalType": "uint256",
          "name": "",
          "type": "uint256"
        }
      ],
      "stateMutability": "view",
      "type": "function"
    },
    {
      "inputs": [],
      "name": "deposit",
      "outputs": [],
      "stateMutability": "payable",
      "type": "function"
    },
    {
      "inputs": [
        {
          "internalType": "uint256",
          "name": "amount",
          "type": "uint256"
        }
      ],
      "name": "withdraw",
      "outputs": [],
      "stateMutability": "nonpayable",
      "type": "function"
    }
  ],
  "bytecode": "608060405234801561001057600080fd5b5060008055610112806100246000396000f3fe60806040526004361060305760003560e01c80632e1a7d4d146035578063b69ef8a814605d578063d0e30db0146081575b600080fd5b348015604057600080fd5b50605b60048036036020811015605557600080fd5b50356087565b005b348015606857600080fd5b50606f60cc565b60408051918252519081900360200190f35b605b60d2565b600054811115609557600080fd5b600080548290038155604051339183156108fc02918491818181858888f1935050505015801560c8573d6000803e3d6000fd5b5050565b60005481565b600080543401905556fea2646970667358221220ff5fddc7ea6fedeff7e1aba4962a498e6eb5326045ea93fad4f6ab87b583654e64736f6c634300060c0033",
  "bytecodeSha1": "eece79468a4c1c5793d231e128085371d6c4405d",
  "compiler": {
    "evm_version": "istanbul",
    "optimizer": {
      "enabled": true,
      "runs": 200
    },
    "version": "0.6.12+commit.27d51765"
  },
  "contractName": "unOptimizedContract91",
  "language": "Solidity",
  "natspec": {
    "kind": "dev",
    "methods": {},
    "version": 1
  },
  "opcodes": "PUSH1 0x80 PUSH1 0x40 MSTORE PUSH1 0x4 CALLDATASIZE LT PUSH1 0x30 JUMPI PUSH1 0x0 CALLDATALOAD PUSH1 0xE0 SHR DUP1 PUSH4 0x2E1A7D4D EQ PUSH1 0x35 JUMPI DUP1 PUSH4 0xB69EF8A8 EQ PUSH1 0x5D JUMPI DUP1 PUSH4 0xD0E30DB0 EQ PUSH1 0x81 JUMPI JUMPDEST PUSH1 0x0 DUP1 REVERT JUMPDEST CALLVALUE DUP1 ISZERO PUSH1 0x40 JUMPI PUSH1 0x0 DUP1 REVERT JUMPDEST POP PUSH1 0x5B PUSH1 0x4 DUP1 CALLDATASIZE SUB PUSH1 0x20 DUP2 LT ISZERO PUSH1 0x55 JUMPI PUSH1 0x0 DUP1 REVERT JUMPDEST POP CALLDATALOAD PUSH1 0x87 JUMP JUMPDEST STOP JUMPDEST CALLVALUE DUP1 ISZERO PUSH1 0x68 JUMPI PUSH1 0x0 DUP1 REVERT JUMPDEST POP PUSH1 0x6F PUSH1 0xCC JUMP JUMPDEST PUSH1 0x40 DUP1 MLOAD SWAP2 DUP3 MSTORE MLOAD SWAP1 DUP2 SWAP1 SUB PUSH1 0x20 ADD SWAP1 RETURN JUMPDEST PUSH1 0x5B PUSH1 0xD2 JUMP JUMPDEST PUSH1 0x0 SLOAD DUP2 GT ISZERO PUSH1 0x95 JUMPI PUSH1 0x0 DUP1 REVERT JUMPDEST PUSH1 0x0 DUP1 SLOAD DUP3 SWAP1 SUB DUP2 SSTORE PUSH1 0x40 MLOAD CALLER SWAP2 DUP4 ISZERO PUSH2 0x8FC MUL SWAP2 DUP5 SWAP2 DUP2 DUP2 DUP2 DUP6 DUP9 DUP9 CALL SWAP4 POP POP POP POP ISZERO DUP1 ISZERO PUSH1 0xC8 JUMPI RETURNDATASIZE PUSH1 0x0 DUP1 RETURNDATACOPY RETURNDATASIZE PUSH1 0x0 REVERT JUMPDEST POP POP JUMP JUMPDEST PUSH1 0x0 SLOAD DUP2 JUMP JUMPDEST PUSH1 0x0 DUP1 SLOAD CALLVALUE ADD SWAP1 SSTORE JUMP INVALID LOG2 PUSH5 0x6970667358 0x22 SLT KECCAK256 SELFDESTRUCT 0x5F 0xDD 0xC7 0xEA PUSH16 0xEDEFF7E1ABA4962A498E6EB5326045EA SWAP4 STATICCALL 0xD4 0xF6 0xAB DUP8 0xB5 DUP4 PUSH6 0x4E64736F6C63 NUMBER STOP MOD 0xC STOP CALLER ",
  "sha1": "8d77a18b23f71d204981da997c53a13ab08b4731",
  "source": "pragma solidity >=0.5.0 <0.7.0;\n\ncontract unOptimizedContract91 {\n    uint public balance;\n    \n    constructor() public {\n        balance = 0;\n    }\n    \n    function deposit() public payable {\n        balance += msg.value;\n    }\n    \n    function withdraw(uint amount) public {\n        require(amount <= balance);\n        balance -= amount;\n        msg.sender.transfer(amount);\n    }\n}",
  "sourcePath": "contracts/unOptimized_contracts/UnOptimizedContract91.sol",
  "type": "contract"
}