{
  "abi": [
    {
      "inputs": [],
      "payable": false,
      "stateMutability": "nonpayable",
      "type": "constructor"
    },
    {
      "constant": true,
      "inputs": [],
      "name": "getOwner",
      "outputs": [
        {
          "internalType": "address",
          "name": "",
          "type": "address"
        }
      ],
      "payable": false,
      "stateMutability": "view",
      "type": "function"
    },
    {
      "constant": true,
      "inputs": [],
      "name": "owner",
      "outputs": [
        {
          "internalType": "address",
          "name": "",
          "type": "address"
        }
      ],
      "payable": false,
      "stateMutability": "view",
      "type": "function"
    },
    {
      "constant": false,
      "inputs": [
        {
          "internalType": "address",
          "name": "newOwner",
          "type": "address"
        }
      ],
      "name": "transferOwnership",
      "outputs": [],
      "payable": false,
      "stateMutability": "nonpayable",
      "type": "function"
    }
  ],
  "bytecode": "608060405234801561001057600080fd5b50600080546001600160a01b03191633179055610119806100326000396000f3fe6080604052348015600f57600080fd5b5060043610603c5760003560e01c8063893d20e81460415780638da5cb5b146063578063f2fde38b146069575b600080fd5b6047608e565b604080516001600160a01b039092168252519081900360200190f35b6047609d565b608c60048036036020811015607d57600080fd5b50356001600160a01b031660ac565b005b6000546001600160a01b031690565b6000546001600160a01b031681565b6000546001600160a01b0316331460c257600080fd5b600080546001600160a01b0319166001600160a01b039290921691909117905556fea265627a7a7231582003ccb27a7c7ee36e8b519e7c3bbe10449867e718a13b6cdb0d414bebb6d133bc64736f6c63430005110032",
  "bytecodeSha1": "b593be4d098615536745ae1d64ae267a1de26eb1",
  "compiler": {
    "evm_version": "istanbul",
    "optimizer": {
      "enabled": true,
      "runs": 200
    },
    "version": "0.5.17+commit.d19bba13"
  },
  "contractName": "unOptimizedContract89",
  "language": "Solidity",
  "natspec": {
    "methods": {}
  },
  "opcodes": "PUSH1 0x80 PUSH1 0x40 MSTORE CALLVALUE DUP1 ISZERO PUSH1 0xF JUMPI PUSH1 0x0 DUP1 REVERT JUMPDEST POP PUSH1 0x4 CALLDATASIZE LT PUSH1 0x3C JUMPI PUSH1 0x0 CALLDATALOAD PUSH1 0xE0 SHR DUP1 PUSH4 0x893D20E8 EQ PUSH1 0x41 JUMPI DUP1 PUSH4 0x8DA5CB5B EQ PUSH1 0x63 JUMPI DUP1 PUSH4 0xF2FDE38B EQ PUSH1 0x69 JUMPI JUMPDEST PUSH1 0x0 DUP1 REVERT JUMPDEST PUSH1 0x47 PUSH1 0x8E JUMP JUMPDEST PUSH1 0x40 DUP1 MLOAD PUSH1 0x1 PUSH1 0x1 PUSH1 0xA0 SHL SUB SWAP1 SWAP3 AND DUP3 MSTORE MLOAD SWAP1 DUP2 SWAP1 SUB PUSH1 0x20 ADD SWAP1 RETURN JUMPDEST PUSH1 0x47 PUSH1 0x9D JUMP JUMPDEST PUSH1 0x8C PUSH1 0x4 DUP1 CALLDATASIZE SUB PUSH1 0x20 DUP2 LT ISZERO PUSH1 0x7D JUMPI PUSH1 0x0 DUP1 REVERT JUMPDEST POP CALLDATALOAD PUSH1 0x1 PUSH1 0x1 PUSH1 0xA0 SHL SUB AND PUSH1 0xAC JUMP JUMPDEST STOP JUMPDEST PUSH1 0x0 SLOAD PUSH1 0x1 PUSH1 0x1 PUSH1 0xA0 SHL SUB AND SWAP1 JUMP JUMPDEST PUSH1 0x0 SLOAD PUSH1 0x1 PUSH1 0x1 PUSH1 0xA0 SHL SUB AND DUP2 JUMP JUMPDEST PUSH1 0x0 SLOAD PUSH1 0x1 PUSH1 0x1 PUSH1 0xA0 SHL SUB AND CALLER EQ PUSH1 0xC2 JUMPI PUSH1 0x0 DUP1 REVERT JUMPDEST PUSH1 0x0 DUP1 SLOAD PUSH1 0x1 PUSH1 0x1 PUSH1 0xA0 SHL SUB NOT AND PUSH1 0x1 PUSH1 0x1 PUSH1 0xA0 SHL SUB SWAP3 SWAP1 SWAP3 AND SWAP2 SWAP1 SWAP2 OR SWAP1 SSTORE JUMP INVALID LOG2 PUSH6 0x627A7A723158 KECCAK256 SUB 0xCC 0xB2 PUSH27 0x7C7EE36E8B519E7C3BBE10449867E718A13B6CDB0D414BEBB6D133 0xBC PUSH5 0x736F6C6343 STOP SDIV GT STOP ORIGIN ",
  "sha1": "9eb4eaf5d0085d36828bb760c24b16a679b4f990",
  "source": "pragma solidity ^0.5.0;\n\ncontract unOptimizedContract89 {\n\n    // Declare and initialize a variable to store the contract owner\n    address public owner;\n    constructor() public {\n        owner = msg.sender;\n    }\n\n    // Declare a function to transfer ownership of this contract\n    function transferOwnership(address newOwner) public {\n        require(msg.sender == owner);\n        owner = newOwner;\n    }\n\n    // Declare a function to return the contract owner\n    function getOwner() public view returns (address) {\n        return owner;\n    }\n\n}",
  "sourcePath": "contracts/unOptimized_contracts/UnOptimizedContract89.sol",
  "type": "contract"
}