{
  "abi": [
    {
      "inputs": [],
      "payable": false,
      "stateMutability": "nonpayable",
      "type": "constructor"
    },
    {
      "constant": false,
      "inputs": [
        {
          "internalType": "address payable",
          "name": "recipient",
          "type": "address"
        },
        {
          "internalType": "uint256",
          "name": "amount",
          "type": "uint256"
        }
      ],
      "name": "transfer",
      "outputs": [],
      "payable": false,
      "stateMutability": "nonpayable",
      "type": "function"
    }
  ],
  "bytecode": "608060405234801561001057600080fd5b50600080546001600160a01b0319163317905560e9806100316000396000f3fe6080604052348015600f57600080fd5b506004361060285760003560e01c8063a9059cbb14602d575b600080fd5b605660048036036040811015604157600080fd5b506001600160a01b0381351690602001356058565b005b60008111606457600080fd5b6000546001600160a01b03163314607a57600080fd5b6040516001600160a01b0383169082156108fc029083906000818181858888f1935050505015801560af573d6000803e3d6000fd5b50505056fea265627a7a7231582081c36c9d3278203e90095bcca9a3ea4da259844f8093c70001bf13522817a67f64736f6c63430005110032",
  "bytecodeSha1": "42a9f0010e5e1fec1eb6ec53a4433678dc07c138",
  "compiler": {
    "evm_version": "istanbul",
    "optimizer": {
      "enabled": true,
      "runs": 200
    },
    "version": "0.5.17+commit.d19bba13"
  },
  "contractName": "unOptimizedContract129",
  "language": "Solidity",
  "natspec": {
    "methods": {}
  },
  "opcodes": "PUSH1 0x80 PUSH1 0x40 MSTORE CALLVALUE DUP1 ISZERO PUSH1 0xF JUMPI PUSH1 0x0 DUP1 REVERT JUMPDEST POP PUSH1 0x4 CALLDATASIZE LT PUSH1 0x28 JUMPI PUSH1 0x0 CALLDATALOAD PUSH1 0xE0 SHR DUP1 PUSH4 0xA9059CBB EQ PUSH1 0x2D JUMPI JUMPDEST PUSH1 0x0 DUP1 REVERT JUMPDEST PUSH1 0x56 PUSH1 0x4 DUP1 CALLDATASIZE SUB PUSH1 0x40 DUP2 LT ISZERO PUSH1 0x41 JUMPI PUSH1 0x0 DUP1 REVERT JUMPDEST POP PUSH1 0x1 PUSH1 0x1 PUSH1 0xA0 SHL SUB DUP2 CALLDATALOAD AND SWAP1 PUSH1 0x20 ADD CALLDATALOAD PUSH1 0x58 JUMP JUMPDEST STOP JUMPDEST PUSH1 0x0 DUP2 GT PUSH1 0x64 JUMPI PUSH1 0x0 DUP1 REVERT JUMPDEST PUSH1 0x0 SLOAD PUSH1 0x1 PUSH1 0x1 PUSH1 0xA0 SHL SUB AND CALLER EQ PUSH1 0x7A JUMPI PUSH1 0x0 DUP1 REVERT JUMPDEST PUSH1 0x40 MLOAD PUSH1 0x1 PUSH1 0x1 PUSH1 0xA0 SHL SUB DUP4 AND SWAP1 DUP3 ISZERO PUSH2 0x8FC MUL SWAP1 DUP4 SWAP1 PUSH1 0x0 DUP2 DUP2 DUP2 DUP6 DUP9 DUP9 CALL SWAP4 POP POP POP POP ISZERO DUP1 ISZERO PUSH1 0xAF JUMPI RETURNDATASIZE PUSH1 0x0 DUP1 RETURNDATACOPY RETURNDATASIZE PUSH1 0x0 REVERT JUMPDEST POP POP POP JUMP INVALID LOG2 PUSH6 0x627A7A723158 KECCAK256 DUP2 0xC3 PUSH13 0x9D3278203E90095BCCA9A3EA4D LOG2 MSIZE DUP5 0x4F DUP1 SWAP4 0xC7 STOP ADD 0xBF SGT MSTORE 0x28 OR 0xA6 PUSH32 0x64736F6C63430005110032000000000000000000000000000000000000000000 ",
  "sha1": "1334cd8edbe28671d01d0e05a03117104e045188",
  "source": "pragma solidity ^0.5.0;\n\ncontract unOptimizedContract129 {\n    address payable owner;\n\n    constructor() public {\n        owner = msg.sender;\n    }\n\n    function transfer(address payable recipient, uint256 amount) public {\n        require(amount > 0);\n        require(msg.sender == owner);\n        recipient.transfer(amount);\n    }\n}",
  "sourcePath": "contracts/unOptimized_contracts/UnOptimizedContract129.sol",
  "type": "contract"
}