{
  "abi": [
    {
      "inputs": [],
      "payable": false,
      "stateMutability": "nonpayable",
      "type": "constructor"
    },
    {
      "payable": true,
      "stateMutability": "payable",
      "type": "fallback"
    },
    {
      "constant": false,
      "inputs": [
        {
          "internalType": "address payable",
          "name": "newOwner",
          "type": "address"
        }
      ],
      "name": "transferOwner",
      "outputs": [],
      "payable": false,
      "stateMutability": "nonpayable",
      "type": "function"
    }
  ],
  "bytecode": "6080604052348015600f57600080fd5b50600080546001600160a01b0319163317905560b6806100306000396000f3fe608060405260043610601c5760003560e01c80634fb2e45d14601e575b005b348015602957600080fd5b50601c60048036036020811015603e57600080fd5b50356001600160a01b03166000546001600160a01b03163314605f57600080fd5b600080546001600160a01b0319166001600160a01b039290921691909117905556fea265627a7a72315820d49710d81a650bebdbaa8bec8403ec5edb53690669fc14aa957baf93f53eb24b64736f6c63430005110032",
  "bytecodeSha1": "d4b971e4e996d71c3bcee2a1fd3425341f35b9d6",
  "compiler": {
    "evm_version": "istanbul",
    "optimizer": {
      "enabled": true,
      "runs": 200
    },
    "version": "0.5.17+commit.d19bba13"
  },
  "contractName": "unOptimizedContract41",
  "language": "Solidity",
  "natspec": {
    "methods": {}
  },
  "opcodes": "PUSH1 0x80 PUSH1 0x40 MSTORE PUSH1 0x4 CALLDATASIZE LT PUSH1 0x1C JUMPI PUSH1 0x0 CALLDATALOAD PUSH1 0xE0 SHR DUP1 PUSH4 0x4FB2E45D EQ PUSH1 0x1E JUMPI JUMPDEST STOP JUMPDEST CALLVALUE DUP1 ISZERO PUSH1 0x29 JUMPI PUSH1 0x0 DUP1 REVERT JUMPDEST POP PUSH1 0x1C PUSH1 0x4 DUP1 CALLDATASIZE SUB PUSH1 0x20 DUP2 LT ISZERO PUSH1 0x3E JUMPI PUSH1 0x0 DUP1 REVERT JUMPDEST POP CALLDATALOAD PUSH1 0x1 PUSH1 0x1 PUSH1 0xA0 SHL SUB AND PUSH1 0x0 SLOAD PUSH1 0x1 PUSH1 0x1 PUSH1 0xA0 SHL SUB AND CALLER EQ PUSH1 0x5F JUMPI PUSH1 0x0 DUP1 REVERT JUMPDEST PUSH1 0x0 DUP1 SLOAD PUSH1 0x1 PUSH1 0x1 PUSH1 0xA0 SHL SUB NOT AND PUSH1 0x1 PUSH1 0x1 PUSH1 0xA0 SHL SUB SWAP3 SWAP1 SWAP3 AND SWAP2 SWAP1 SWAP2 OR SWAP1 SSTORE JUMP INVALID LOG2 PUSH6 0x627A7A723158 KECCAK256 0xD4 SWAP8 LT 0xD8 BYTE PUSH6 0xBEBDBAA8BEC DUP5 SUB 0xEC 0x5E 0xDB MSTORE8 PUSH10 0x669FC14AA957BAF93F5 RETURNDATACOPY 0xB2 0x4B PUSH5 0x736F6C6343 STOP SDIV GT STOP ORIGIN ",
  "sha1": "3a74d0338518d37de84ec355907629bdf1428f3e",
  "source": "pragma solidity ^0.5.0;\n\ncontract unOptimizedContract41 {\n    address payable owner;\n\n    constructor() public {\n        owner = msg.sender;\n    }\n\n    function () external payable {\n        // Do nothing\n    }\n\n    function transferOwner(address payable newOwner) public {\n        require(msg.sender == owner);\n        owner = newOwner;\n    }\n}",
  "sourcePath": "contracts/verifiable_contracts_gpt/UnOptimizedContract41.sol",
  "type": "contract"
}