{
  "abi": [
    {
      "constant": true,
      "inputs": [],
      "name": "count",
      "outputs": [
        {
          "name": "",
          "type": "uint256"
        }
      ],
      "payable": false,
      "stateMutability": "view",
      "type": "function"
    },
    {
      "constant": false,
      "inputs": [],
      "name": "incrementCount",
      "outputs": [],
      "payable": false,
      "stateMutability": "nonpayable",
      "type": "function"
    }
  ],
  "bytecode": "608060405234801561001057600080fd5b5060c28061001f6000396000f30060806040526004361060485763ffffffff7c010000000000000000000000000000000000000000000000000000000060003504166306661abd8114604d578063e5071b8e146071575b600080fd5b348015605857600080fd5b50605f6085565b60408051918252519081900360200190f35b348015607c57600080fd5b506083608b565b005b60005481565b6000805460010190555600a165627a7a72305820a0aa12a31b267afcb099f0c664963f7e9fa7238e68a11b905bfcf8d84a4460b20029",
  "bytecodeSha1": "47730a95c81d18795c741cdfb35e34dbbbf8a8ba",
  "compiler": {
    "evm_version": "byzantium",
    "optimizer": {
      "enabled": true,
      "runs": 200
    },
    "version": "0.4.26+commit.4563c3fc"
  },
  "contractName": "unOptimizedContract42",
  "language": "Solidity",
  "natspec": {
    "methods": {}
  },
  "opcodes": "PUSH1 0x80 PUSH1 0x40 MSTORE PUSH1 0x4 CALLDATASIZE LT PUSH1 0x48 JUMPI PUSH4 0xFFFFFFFF PUSH29 0x100000000000000000000000000000000000000000000000000000000 PUSH1 0x0 CALLDATALOAD DIV AND PUSH4 0x6661ABD DUP2 EQ PUSH1 0x4D JUMPI DUP1 PUSH4 0xE5071B8E EQ PUSH1 0x71 JUMPI JUMPDEST PUSH1 0x0 DUP1 REVERT JUMPDEST CALLVALUE DUP1 ISZERO PUSH1 0x58 JUMPI PUSH1 0x0 DUP1 REVERT JUMPDEST POP PUSH1 0x5F PUSH1 0x85 JUMP JUMPDEST PUSH1 0x40 DUP1 MLOAD SWAP2 DUP3 MSTORE MLOAD SWAP1 DUP2 SWAP1 SUB PUSH1 0x20 ADD SWAP1 RETURN JUMPDEST CALLVALUE DUP1 ISZERO PUSH1 0x7C JUMPI PUSH1 0x0 DUP1 REVERT JUMPDEST POP PUSH1 0x83 PUSH1 0x8B JUMP JUMPDEST STOP JUMPDEST PUSH1 0x0 SLOAD DUP2 JUMP JUMPDEST PUSH1 0x0 DUP1 SLOAD PUSH1 0x1 ADD SWAP1 SSTORE JUMP STOP LOG1 PUSH6 0x627A7A723058 KECCAK256 LOG0 0xaa SLT LOG3 SHL 0x26 PUSH27 0xFCB099F0C664963F7E9FA7238E68A11B905BFCF8D84A4460B20029 ",
  "sha1": "2972d05a849c55f5d4fd3426c856ed00510520cd",
  "source": "pragma solidity ^0.4.22;\n\ncontract unOptimizedContract42 {\n\n    // declare a uint variable to track the number of times the function has been called\n    uint public count;\n\n    // define a function to increment the count variable\n    function incrementCount() public {\n        count += 1;\n    }\n}",
  "sourcePath": "contracts/unOptimized_contracts/UnOptimizedContract42.sol",
  "type": "contract"
}