{
  "abi": [
    {
      "inputs": [],
      "payable": false,
      "stateMutability": "nonpayable",
      "type": "constructor"
    },
    {
      "constant": true,
      "inputs": [],
      "name": "getOwner",
      "outputs": [
        {
          "internalType": "address payable",
          "name": "",
          "type": "address"
        }
      ],
      "payable": false,
      "stateMutability": "view",
      "type": "function"
    },
    {
      "constant": true,
      "inputs": [],
      "name": "owner",
      "outputs": [
        {
          "internalType": "address payable",
          "name": "",
          "type": "address"
        }
      ],
      "payable": false,
      "stateMutability": "view",
      "type": "function"
    },
    {
      "constant": false,
      "inputs": [
        {
          "internalType": "address payable",
          "name": "_owner",
          "type": "address"
        }
      ],
      "name": "setOwner",
      "outputs": [],
      "payable": false,
      "stateMutability": "nonpayable",
      "type": "function"
    }
  ],
  "bytecode": "608060405234801561001057600080fd5b50600080546001600160a01b03191633179055610119806100326000396000f3fe6080604052348015600f57600080fd5b5060043610603c5760003560e01c806313af4035146041578063893d20e81460665780638da5cb5b146088575b600080fd5b606460048036036020811015605557600080fd5b50356001600160a01b0316608e565b005b606c60c6565b604080516001600160a01b039092168252519081900360200190f35b606c60d5565b6000546001600160a01b0316331460a457600080fd5b600080546001600160a01b0319166001600160a01b0392909216919091179055565b6000546001600160a01b031690565b6000546001600160a01b03168156fea265627a7a72315820738b413e110aac989144ce37c2b8155025c515680a9a54680bfd9ec3cb9f464f64736f6c63430005110032",
  "bytecodeSha1": "6d788bf91a0c4a5a84f351e31597bda9768beae9",
  "compiler": {
    "evm_version": "istanbul",
    "optimizer": {
      "enabled": true,
      "runs": 200
    },
    "version": "0.5.17+commit.d19bba13"
  },
  "contractName": "unOptimizedContract98",
  "language": "Solidity",
  "natspec": {
    "methods": {}
  },
  "opcodes": "PUSH1 0x80 PUSH1 0x40 MSTORE CALLVALUE DUP1 ISZERO PUSH1 0xF JUMPI PUSH1 0x0 DUP1 REVERT JUMPDEST POP PUSH1 0x4 CALLDATASIZE LT PUSH1 0x3C JUMPI PUSH1 0x0 CALLDATALOAD PUSH1 0xE0 SHR DUP1 PUSH4 0x13AF4035 EQ PUSH1 0x41 JUMPI DUP1 PUSH4 0x893D20E8 EQ PUSH1 0x66 JUMPI DUP1 PUSH4 0x8DA5CB5B EQ PUSH1 0x88 JUMPI JUMPDEST PUSH1 0x0 DUP1 REVERT JUMPDEST PUSH1 0x64 PUSH1 0x4 DUP1 CALLDATASIZE SUB PUSH1 0x20 DUP2 LT ISZERO PUSH1 0x55 JUMPI PUSH1 0x0 DUP1 REVERT JUMPDEST POP CALLDATALOAD PUSH1 0x1 PUSH1 0x1 PUSH1 0xA0 SHL SUB AND PUSH1 0x8E JUMP JUMPDEST STOP JUMPDEST PUSH1 0x6C PUSH1 0xC6 JUMP JUMPDEST PUSH1 0x40 DUP1 MLOAD PUSH1 0x1 PUSH1 0x1 PUSH1 0xA0 SHL SUB SWAP1 SWAP3 AND DUP3 MSTORE MLOAD SWAP1 DUP2 SWAP1 SUB PUSH1 0x20 ADD SWAP1 RETURN JUMPDEST PUSH1 0x6C PUSH1 0xD5 JUMP JUMPDEST PUSH1 0x0 SLOAD PUSH1 0x1 PUSH1 0x1 PUSH1 0xA0 SHL SUB AND CALLER EQ PUSH1 0xA4 JUMPI PUSH1 0x0 DUP1 REVERT JUMPDEST PUSH1 0x0 DUP1 SLOAD PUSH1 0x1 PUSH1 0x1 PUSH1 0xA0 SHL SUB NOT AND PUSH1 0x1 PUSH1 0x1 PUSH1 0xA0 SHL SUB SWAP3 SWAP1 SWAP3 AND SWAP2 SWAP1 SWAP2 OR SWAP1 SSTORE JUMP JUMPDEST PUSH1 0x0 SLOAD PUSH1 0x1 PUSH1 0x1 PUSH1 0xA0 SHL SUB AND SWAP1 JUMP JUMPDEST PUSH1 0x0 SLOAD PUSH1 0x1 PUSH1 0x1 PUSH1 0xA0 SHL SUB AND DUP2 JUMP INVALID LOG2 PUSH6 0x627A7A723158 KECCAK256 PUSH20 0x8B413E110AAC989144CE37C2B8155025C515680A SWAP11 SLOAD PUSH9 0xBFD9EC3CB9F464F64 PUSH20 0x6F6C634300051100320000000000000000000000 ",
  "sha1": "9033f0f9f14577efccc9c11c4ec7c202ceb3716e",
  "source": "pragma solidity ^0.5.0;\n\ncontract unOptimizedContract98 {\n    address payable public owner;\n    constructor() public {\n        owner = msg.sender;\n    }\n\n    function getOwner() public view returns (address payable) {\n        return owner;\n    }\n\n    function setOwner(address payable _owner) public onlyOwner {\n        owner = _owner;\n    }\n\n    modifier onlyOwner {\n        require(msg.sender == owner);\n        _;\n    }\n}",
  "sourcePath": "contracts/verifiable_contracts_gpt/UnOptimizedContract98.sol",
  "type": "contract"
}