{
  "abi": [
    {
      "inputs": [],
      "stateMutability": "nonpayable",
      "type": "constructor"
    },
    {
      "inputs": [
        {
          "internalType": "uint256",
          "name": "amount",
          "type": "uint256"
        }
      ],
      "name": "add",
      "outputs": [],
      "stateMutability": "nonpayable",
      "type": "function"
    },
    {
      "inputs": [],
      "name": "balance",
      "outputs": [
        {
          "internalType": "uint256",
          "name": "",
          "type": "uint256"
        }
      ],
      "stateMutability": "view",
      "type": "function"
    },
    {
      "inputs": [
        {
          "internalType": "uint256",
          "name": "amount",
          "type": "uint256"
        }
      ],
      "name": "subtract",
      "outputs": [],
      "stateMutability": "nonpayable",
      "type": "function"
    }
  ],
  "bytecode": "608060405234801561001057600080fd5b506000805560e2806100236000396000f3fe6080604052348015600f57600080fd5b5060043610603c5760003560e01c80631003e2d21460415780631dc05f1714605d578063b69ef8a8146077575b600080fd5b605b60048036036020811015605557600080fd5b5035608f565b005b605b60048036036020811015607157600080fd5b5035609a565b607d60a6565b60408051918252519081900360200190f35b600080549091019055565b60008054919091039055565b6000548156fea2646970667358221220f8969e5190de37f370906518880db437608fc97b40b1cbdefb7c3424883d969764736f6c634300060c0033",
  "bytecodeSha1": "320e63bedb10e61c284ce99fa20a381ca37133c2",
  "compiler": {
    "evm_version": "istanbul",
    "optimizer": {
      "enabled": true,
      "runs": 200
    },
    "version": "0.6.12+commit.27d51765"
  },
  "contractName": "unOptimizedContract63",
  "language": "Solidity",
  "natspec": {
    "kind": "dev",
    "methods": {},
    "version": 1
  },
  "opcodes": "PUSH1 0x80 PUSH1 0x40 MSTORE CALLVALUE DUP1 ISZERO PUSH1 0xF JUMPI PUSH1 0x0 DUP1 REVERT JUMPDEST POP PUSH1 0x4 CALLDATASIZE LT PUSH1 0x3C JUMPI PUSH1 0x0 CALLDATALOAD PUSH1 0xE0 SHR DUP1 PUSH4 0x1003E2D2 EQ PUSH1 0x41 JUMPI DUP1 PUSH4 0x1DC05F17 EQ PUSH1 0x5D JUMPI DUP1 PUSH4 0xB69EF8A8 EQ PUSH1 0x77 JUMPI JUMPDEST PUSH1 0x0 DUP1 REVERT JUMPDEST PUSH1 0x5B PUSH1 0x4 DUP1 CALLDATASIZE SUB PUSH1 0x20 DUP2 LT ISZERO PUSH1 0x55 JUMPI PUSH1 0x0 DUP1 REVERT JUMPDEST POP CALLDATALOAD PUSH1 0x8F JUMP JUMPDEST STOP JUMPDEST PUSH1 0x5B PUSH1 0x4 DUP1 CALLDATASIZE SUB PUSH1 0x20 DUP2 LT ISZERO PUSH1 0x71 JUMPI PUSH1 0x0 DUP1 REVERT JUMPDEST POP CALLDATALOAD PUSH1 0x9A JUMP JUMPDEST PUSH1 0x7D PUSH1 0xA6 JUMP JUMPDEST PUSH1 0x40 DUP1 MLOAD SWAP2 DUP3 MSTORE MLOAD SWAP1 DUP2 SWAP1 SUB PUSH1 0x20 ADD SWAP1 RETURN JUMPDEST PUSH1 0x0 DUP1 SLOAD SWAP1 SWAP2 ADD SWAP1 SSTORE JUMP JUMPDEST PUSH1 0x0 DUP1 SLOAD SWAP2 SWAP1 SWAP2 SUB SWAP1 SSTORE JUMP JUMPDEST PUSH1 0x0 SLOAD DUP2 JUMP INVALID LOG2 PUSH5 0x6970667358 0x22 SLT KECCAK256 0xF8 SWAP7 SWAP15 MLOAD SWAP1 0xDE CALLDATACOPY RETURN PUSH17 0x906518880DB437608FC97B40B1CBDEFB7C CALLVALUE 0x24 DUP9 RETURNDATASIZE SWAP7 SWAP8 PUSH5 0x736F6C6343 STOP MOD 0xC STOP CALLER ",
  "sha1": "a371e718267af9c846699023529bf7286e6f54f6",
  "source": "pragma solidity ^0.6.0;\n\ncontract unOptimizedContract63 {\n  uint public balance;\n\n  constructor() public {\n    balance = 0;\n  }\n\n  function add(uint amount) public {\n    balance += amount;\n  }\n\n  function subtract(uint amount) public {\n    balance -= amount;\n  }\n}",
  "sourcePath": "contracts/unOptimized_contracts/UnOptimizedContract63.sol",
  "type": "contract"
}