{
  "abi": [
    {
      "inputs": [],
      "payable": false,
      "stateMutability": "nonpayable",
      "type": "constructor"
    },
    {
      "constant": true,
      "inputs": [],
      "name": "balance",
      "outputs": [
        {
          "internalType": "uint256",
          "name": "",
          "type": "uint256"
        }
      ],
      "payable": false,
      "stateMutability": "view",
      "type": "function"
    },
    {
      "constant": false,
      "inputs": [],
      "name": "deposit",
      "outputs": [],
      "payable": true,
      "stateMutability": "payable",
      "type": "function"
    },
    {
      "constant": false,
      "inputs": [
        {
          "internalType": "uint256",
          "name": "amount",
          "type": "uint256"
        }
      ],
      "name": "withdraw",
      "outputs": [],
      "payable": false,
      "stateMutability": "nonpayable",
      "type": "function"
    }
  ],
  "bytecode": "608060405234801561001057600080fd5b5060008055610111806100246000396000f3fe60806040526004361060305760003560e01c80632e1a7d4d146035578063b69ef8a814605d578063d0e30db0146081575b600080fd5b348015604057600080fd5b50605b60048036036020811015605557600080fd5b50356087565b005b348015606857600080fd5b50606f60cc565b60408051918252519081900360200190f35b605b60d2565b600054811115609557600080fd5b600080548290038155604051339183156108fc02918491818181858888f1935050505015801560c8573d6000803e3d6000fd5b5050565b60005481565b600080543401905556fea265627a7a7231582054605e016cd84a2d7e306b24d8a7687a1f70bdb037c9d31ea893bb5d55d99ab464736f6c63430005110032",
  "bytecodeSha1": "dd23388ae896003a040d8379238eb7f02b8ccbfe",
  "compiler": {
    "evm_version": "istanbul",
    "optimizer": {
      "enabled": true,
      "runs": 200
    },
    "version": "0.5.17+commit.d19bba13"
  },
  "contractName": "unOptimizedContract114",
  "language": "Solidity",
  "natspec": {
    "methods": {}
  },
  "opcodes": "PUSH1 0x80 PUSH1 0x40 MSTORE PUSH1 0x4 CALLDATASIZE LT PUSH1 0x30 JUMPI PUSH1 0x0 CALLDATALOAD PUSH1 0xE0 SHR DUP1 PUSH4 0x2E1A7D4D EQ PUSH1 0x35 JUMPI DUP1 PUSH4 0xB69EF8A8 EQ PUSH1 0x5D JUMPI DUP1 PUSH4 0xD0E30DB0 EQ PUSH1 0x81 JUMPI JUMPDEST PUSH1 0x0 DUP1 REVERT JUMPDEST CALLVALUE DUP1 ISZERO PUSH1 0x40 JUMPI PUSH1 0x0 DUP1 REVERT JUMPDEST POP PUSH1 0x5B PUSH1 0x4 DUP1 CALLDATASIZE SUB PUSH1 0x20 DUP2 LT ISZERO PUSH1 0x55 JUMPI PUSH1 0x0 DUP1 REVERT JUMPDEST POP CALLDATALOAD PUSH1 0x87 JUMP JUMPDEST STOP JUMPDEST CALLVALUE DUP1 ISZERO PUSH1 0x68 JUMPI PUSH1 0x0 DUP1 REVERT JUMPDEST POP PUSH1 0x6F PUSH1 0xCC JUMP JUMPDEST PUSH1 0x40 DUP1 MLOAD SWAP2 DUP3 MSTORE MLOAD SWAP1 DUP2 SWAP1 SUB PUSH1 0x20 ADD SWAP1 RETURN JUMPDEST PUSH1 0x5B PUSH1 0xD2 JUMP JUMPDEST PUSH1 0x0 SLOAD DUP2 GT ISZERO PUSH1 0x95 JUMPI PUSH1 0x0 DUP1 REVERT JUMPDEST PUSH1 0x0 DUP1 SLOAD DUP3 SWAP1 SUB DUP2 SSTORE PUSH1 0x40 MLOAD CALLER SWAP2 DUP4 ISZERO PUSH2 0x8FC MUL SWAP2 DUP5 SWAP2 DUP2 DUP2 DUP2 DUP6 DUP9 DUP9 CALL SWAP4 POP POP POP POP ISZERO DUP1 ISZERO PUSH1 0xC8 JUMPI RETURNDATASIZE PUSH1 0x0 DUP1 RETURNDATACOPY RETURNDATASIZE PUSH1 0x0 REVERT JUMPDEST POP POP JUMP JUMPDEST PUSH1 0x0 SLOAD DUP2 JUMP JUMPDEST PUSH1 0x0 DUP1 SLOAD CALLVALUE ADD SWAP1 SSTORE JUMP INVALID LOG2 PUSH6 0x627A7A723158 KECCAK256 SLOAD PUSH1 0x5E ADD PUSH13 0xD84A2D7E306B24D8A7687A1F70 0xBD 0xB0 CALLDATACOPY 0xC9 0xD3 0x1E 0xA8 SWAP4 0xBB 0x5D SSTORE 0xD9 SWAP11 0xB4 PUSH5 0x736F6C6343 STOP SDIV GT STOP ORIGIN ",
  "sha1": "420f84bfb49ba52616619e99b74b6b3734ccf72f",
  "source": "pragma solidity ^0.5.0;\n\ncontract unOptimizedContract114 {\n    uint public balance;\n\n    constructor() public {\n        balance = 0;\n    }\n\n    function deposit() public payable {\n        balance += msg.value;\n    }\n\n    function withdraw(uint amount) public {\n        require(amount <= balance);\n        balance -= amount;\n        msg.sender.transfer(amount);\n    }\n}",
  "sourcePath": "contracts/unOptimized_contracts/UnOptimizedContract114.sol",
  "type": "contract"
}