{
  "abi": [
    {
      "inputs": [],
      "payable": false,
      "stateMutability": "nonpayable",
      "type": "constructor"
    },
    {
      "constant": true,
      "inputs": [],
      "name": "counter",
      "outputs": [
        {
          "internalType": "uint256",
          "name": "",
          "type": "uint256"
        }
      ],
      "payable": false,
      "stateMutability": "view",
      "type": "function"
    },
    {
      "constant": true,
      "inputs": [],
      "name": "getCounter",
      "outputs": [
        {
          "internalType": "uint256",
          "name": "",
          "type": "uint256"
        }
      ],
      "payable": false,
      "stateMutability": "view",
      "type": "function"
    },
    {
      "constant": true,
      "inputs": [],
      "name": "getOwner",
      "outputs": [
        {
          "internalType": "address",
          "name": "",
          "type": "address"
        }
      ],
      "payable": false,
      "stateMutability": "view",
      "type": "function"
    },
    {
      "constant": false,
      "inputs": [],
      "name": "incrementCounter",
      "outputs": [],
      "payable": false,
      "stateMutability": "nonpayable",
      "type": "function"
    },
    {
      "constant": true,
      "inputs": [],
      "name": "owner",
      "outputs": [
        {
          "internalType": "address",
          "name": "",
          "type": "address"
        }
      ],
      "payable": false,
      "stateMutability": "view",
      "type": "function"
    }
  ],
  "bytecode": "608060405234801561001057600080fd5b5060008055600180546001600160a01b0319163317905561010d806100366000396000f3fe6080604052348015600f57600080fd5b506004361060505760003560e01c80635b34b96614605557806361bc221a14605d578063893d20e81460755780638ada066e1460975780638da5cb5b14609d575b600080fd5b605b60a3565b005b606360ae565b60408051918252519081900360200190f35b607b60b4565b604080516001600160a01b039092168252519081900360200190f35b606360c3565b607b60c9565b600080546001019055565b60005481565b6001546001600160a01b031690565b60005490565b6001546001600160a01b03168156fea265627a7a723158204cb0c909e09d9da4739bc1bdb32be437aa5e69690db3256e0f286f5529a107a764736f6c63430005110032",
  "bytecodeSha1": "0728bfa3e417510f3206a180fd6c4e7c8471d7d1",
  "compiler": {
    "evm_version": "istanbul",
    "optimizer": {
      "enabled": true,
      "runs": 200
    },
    "version": "0.5.17+commit.d19bba13"
  },
  "contractName": "unOptimizedContract117",
  "language": "Solidity",
  "natspec": {
    "methods": {}
  },
  "opcodes": "PUSH1 0x80 PUSH1 0x40 MSTORE CALLVALUE DUP1 ISZERO PUSH1 0xF JUMPI PUSH1 0x0 DUP1 REVERT JUMPDEST POP PUSH1 0x4 CALLDATASIZE LT PUSH1 0x50 JUMPI PUSH1 0x0 CALLDATALOAD PUSH1 0xE0 SHR DUP1 PUSH4 0x5B34B966 EQ PUSH1 0x55 JUMPI DUP1 PUSH4 0x61BC221A EQ PUSH1 0x5D JUMPI DUP1 PUSH4 0x893D20E8 EQ PUSH1 0x75 JUMPI DUP1 PUSH4 0x8ADA066E EQ PUSH1 0x97 JUMPI DUP1 PUSH4 0x8DA5CB5B EQ PUSH1 0x9D JUMPI JUMPDEST PUSH1 0x0 DUP1 REVERT JUMPDEST PUSH1 0x5B PUSH1 0xA3 JUMP JUMPDEST STOP JUMPDEST PUSH1 0x63 PUSH1 0xAE JUMP JUMPDEST PUSH1 0x40 DUP1 MLOAD SWAP2 DUP3 MSTORE MLOAD SWAP1 DUP2 SWAP1 SUB PUSH1 0x20 ADD SWAP1 RETURN JUMPDEST PUSH1 0x7B PUSH1 0xB4 JUMP JUMPDEST PUSH1 0x40 DUP1 MLOAD PUSH1 0x1 PUSH1 0x1 PUSH1 0xA0 SHL SUB SWAP1 SWAP3 AND DUP3 MSTORE MLOAD SWAP1 DUP2 SWAP1 SUB PUSH1 0x20 ADD SWAP1 RETURN JUMPDEST PUSH1 0x63 PUSH1 0xC3 JUMP JUMPDEST PUSH1 0x7B PUSH1 0xC9 JUMP JUMPDEST PUSH1 0x0 DUP1 SLOAD PUSH1 0x1 ADD SWAP1 SSTORE JUMP JUMPDEST PUSH1 0x0 SLOAD DUP2 JUMP JUMPDEST PUSH1 0x1 SLOAD PUSH1 0x1 PUSH1 0x1 PUSH1 0xA0 SHL SUB AND SWAP1 JUMP JUMPDEST PUSH1 0x0 SLOAD SWAP1 JUMP JUMPDEST PUSH1 0x1 SLOAD PUSH1 0x1 PUSH1 0x1 PUSH1 0xA0 SHL SUB AND DUP2 JUMP INVALID LOG2 PUSH6 0x627A7A723158 KECCAK256 0x4C 0xB0 0xC9 MULMOD 0xE0 SWAP14 SWAP14 LOG4 PUSH20 0x9BC1BDB32BE437AA5E69690DB3256E0F286F5529 LOG1 SMOD 0xA7 PUSH5 0x736F6C6343 STOP SDIV GT STOP ORIGIN ",
  "sha1": "49adc9c69ed1a8a6e277970ed123c9213722fa69",
  "source": "pragma solidity ^0.5.0;\n\ncontract unOptimizedContract117 {\n    \n    //Variables\n    uint public counter;\n    address public owner;\n    \n    //Constructor\n    constructor() public {\n        counter = 0;\n        owner = msg.sender;\n    }\n    \n    //Public Functions\n    function incrementCounter() public {\n        counter++;\n    }\n    \n    //Getter Functions\n    function getCounter() public view returns (uint) {\n        return counter;\n    }\n    \n    function getOwner() public view returns (address) {\n        return owner;\n    }\n}",
  "sourcePath": "contracts/verifiable_contracts_gpt/UnOptimizedContract117.sol",
  "type": "contract"
}