{
  "abi": [
    {
      "inputs": [],
      "stateMutability": "nonpayable",
      "type": "constructor"
    },
    {
      "inputs": [],
      "name": "getValue",
      "outputs": [
        {
          "internalType": "uint256",
          "name": "",
          "type": "uint256"
        }
      ],
      "stateMutability": "view",
      "type": "function"
    },
    {
      "inputs": [
        {
          "internalType": "uint256",
          "name": "_value",
          "type": "uint256"
        }
      ],
      "name": "setValue",
      "outputs": [],
      "stateMutability": "nonpayable",
      "type": "function"
    },
    {
      "inputs": [],
      "name": "value",
      "outputs": [
        {
          "internalType": "uint256",
          "name": "",
          "type": "uint256"
        }
      ],
      "stateMutability": "view",
      "type": "function"
    }
  ],
  "bytecode": "608060405234801561001057600080fd5b506000805560c2806100236000396000f3fe6080604052348015600f57600080fd5b5060043610603c5760003560e01c8063209652551460415780633fa4f2451460595780635524107714605f575b600080fd5b6047607b565b60408051918252519081900360200190f35b60476081565b607960048036036020811015607357600080fd5b50356087565b005b60005490565b60005481565b60005556fea2646970667358221220bc6053c354792adc7a43904c0b76024d5db79f0e03411b5a70bfe7cad82eda5564736f6c63430007060033",
  "bytecodeSha1": "5c37d14085b8221c834d4bad7511c7963c37305b",
  "compiler": {
    "evm_version": "istanbul",
    "optimizer": {
      "enabled": true,
      "runs": 200
    },
    "version": "0.7.6+commit.7338295f"
  },
  "contractName": "unOptimizedContract49",
  "language": "Solidity",
  "natspec": {
    "kind": "dev",
    "methods": {},
    "version": 1
  },
  "opcodes": "PUSH1 0x80 PUSH1 0x40 MSTORE CALLVALUE DUP1 ISZERO PUSH1 0xF JUMPI PUSH1 0x0 DUP1 REVERT JUMPDEST POP PUSH1 0x4 CALLDATASIZE LT PUSH1 0x3C JUMPI PUSH1 0x0 CALLDATALOAD PUSH1 0xE0 SHR DUP1 PUSH4 0x20965255 EQ PUSH1 0x41 JUMPI DUP1 PUSH4 0x3FA4F245 EQ PUSH1 0x59 JUMPI DUP1 PUSH4 0x55241077 EQ PUSH1 0x5F JUMPI JUMPDEST PUSH1 0x0 DUP1 REVERT JUMPDEST PUSH1 0x47 PUSH1 0x7B JUMP JUMPDEST PUSH1 0x40 DUP1 MLOAD SWAP2 DUP3 MSTORE MLOAD SWAP1 DUP2 SWAP1 SUB PUSH1 0x20 ADD SWAP1 RETURN JUMPDEST PUSH1 0x47 PUSH1 0x81 JUMP JUMPDEST PUSH1 0x79 PUSH1 0x4 DUP1 CALLDATASIZE SUB PUSH1 0x20 DUP2 LT ISZERO PUSH1 0x73 JUMPI PUSH1 0x0 DUP1 REVERT JUMPDEST POP CALLDATALOAD PUSH1 0x87 JUMP JUMPDEST STOP JUMPDEST PUSH1 0x0 SLOAD SWAP1 JUMP JUMPDEST PUSH1 0x0 SLOAD DUP2 JUMP JUMPDEST PUSH1 0x0 SSTORE JUMP INVALID LOG2 PUSH5 0x6970667358 0x22 SLT KECCAK256 0xBC PUSH1 0x53 0xC3 SLOAD PUSH26 0x2ADC7A43904C0B76024D5DB79F0E03411B5A70BFE7CAD82EDA55 PUSH5 0x736F6C6343 STOP SMOD MOD STOP CALLER ",
  "sha1": "b19b46c55068203c042dffe3ba75a93d1ba09c8f",
  "source": "pragma solidity ^0.7.0;\n\ncontract unOptimizedContract49 {\n    // Initialize a public variable to store a value\n    uint public value;\n    \n    // Constructor to set the initial value\n    constructor() public {\n        value = 0;\n    }\n    \n    // Function to set the value\n    function setValue(uint _value) public {\n        value = _value;\n    }\n    \n    // Function to get the value\n    function getValue() public view returns (uint) {\n        return value;\n    }\n}",
  "sourcePath": "contracts/unOptimized_contracts/UnOptimizedContract49.sol",
  "type": "contract"
}