{
  "abi": [
    {
      "inputs": [],
      "payable": false,
      "stateMutability": "nonpayable",
      "type": "constructor"
    },
    {
      "constant": false,
      "inputs": [],
      "name": "doSomething",
      "outputs": [],
      "payable": false,
      "stateMutability": "nonpayable",
      "type": "function"
    },
    {
      "constant": false,
      "inputs": [],
      "name": "doSomethingElse",
      "outputs": [],
      "payable": false,
      "stateMutability": "nonpayable",
      "type": "function"
    },
    {
      "constant": true,
      "inputs": [],
      "name": "owner",
      "outputs": [
        {
          "internalType": "address",
          "name": "",
          "type": "address"
        }
      ],
      "payable": false,
      "stateMutability": "view",
      "type": "function"
    },
    {
      "constant": false,
      "inputs": [
        {
          "internalType": "address",
          "name": "newOwner",
          "type": "address"
        }
      ],
      "name": "transferOwnership",
      "outputs": [],
      "payable": false,
      "stateMutability": "nonpayable",
      "type": "function"
    }
  ],
  "bytecode": "608060405234801561001057600080fd5b50600080546001600160a01b03191633179055610116806100326000396000f3fe6080604052348015600f57600080fd5b506004361060465760003560e01c806354fc2cb214604b5780638269267914604b5780638da5cb5b146053578063f2fde38b146075575b600080fd5b60516098565b005b6059609a565b604080516001600160a01b039092168252519081900360200190f35b605160048036036020811015608957600080fd5b50356001600160a01b031660a9565b565b6000546001600160a01b031681565b6000546001600160a01b0316331460bf57600080fd5b600080546001600160a01b0319166001600160a01b039290921691909117905556fea265627a7a7231582072cda21f738b4aed00318ff400c23de1036fa515b941248f29d3f164917ecdad64736f6c63430005110032",
  "bytecodeSha1": "6945305db2fc8f9ed464b253514f67b3ee3b3cf5",
  "compiler": {
    "evm_version": "istanbul",
    "optimizer": {
      "enabled": true,
      "runs": 200
    },
    "version": "0.5.17+commit.d19bba13"
  },
  "contractName": "unOptimizedContract104",
  "language": "Solidity",
  "natspec": {
    "methods": {}
  },
  "opcodes": "PUSH1 0x80 PUSH1 0x40 MSTORE CALLVALUE DUP1 ISZERO PUSH1 0xF JUMPI PUSH1 0x0 DUP1 REVERT JUMPDEST POP PUSH1 0x4 CALLDATASIZE LT PUSH1 0x46 JUMPI PUSH1 0x0 CALLDATALOAD PUSH1 0xE0 SHR DUP1 PUSH4 0x54FC2CB2 EQ PUSH1 0x4B JUMPI DUP1 PUSH4 0x82692679 EQ PUSH1 0x4B JUMPI DUP1 PUSH4 0x8DA5CB5B EQ PUSH1 0x53 JUMPI DUP1 PUSH4 0xF2FDE38B EQ PUSH1 0x75 JUMPI JUMPDEST PUSH1 0x0 DUP1 REVERT JUMPDEST PUSH1 0x51 PUSH1 0x98 JUMP JUMPDEST STOP JUMPDEST PUSH1 0x59 PUSH1 0x9A JUMP JUMPDEST PUSH1 0x40 DUP1 MLOAD PUSH1 0x1 PUSH1 0x1 PUSH1 0xA0 SHL SUB SWAP1 SWAP3 AND DUP3 MSTORE MLOAD SWAP1 DUP2 SWAP1 SUB PUSH1 0x20 ADD SWAP1 RETURN JUMPDEST PUSH1 0x51 PUSH1 0x4 DUP1 CALLDATASIZE SUB PUSH1 0x20 DUP2 LT ISZERO PUSH1 0x89 JUMPI PUSH1 0x0 DUP1 REVERT JUMPDEST POP CALLDATALOAD PUSH1 0x1 PUSH1 0x1 PUSH1 0xA0 SHL SUB AND PUSH1 0xA9 JUMP JUMPDEST JUMP JUMPDEST PUSH1 0x0 SLOAD PUSH1 0x1 PUSH1 0x1 PUSH1 0xA0 SHL SUB AND DUP2 JUMP JUMPDEST PUSH1 0x0 SLOAD PUSH1 0x1 PUSH1 0x1 PUSH1 0xA0 SHL SUB AND CALLER EQ PUSH1 0xBF JUMPI PUSH1 0x0 DUP1 REVERT JUMPDEST PUSH1 0x0 DUP1 SLOAD PUSH1 0x1 PUSH1 0x1 PUSH1 0xA0 SHL SUB NOT AND PUSH1 0x1 PUSH1 0x1 PUSH1 0xA0 SHL SUB SWAP3 SWAP1 SWAP3 AND SWAP2 SWAP1 SWAP2 OR SWAP1 SSTORE JUMP INVALID LOG2 PUSH6 0x627A7A723158 KECCAK256 PUSH19 0xCDA21F738B4AED00318FF400C23DE1036FA515 0xB9 COINBASE 0x24 DUP16 0x29 0xD3 CALL PUSH5 0x917ECDAD64 PUSH20 0x6F6C634300051100320000000000000000000000 ",
  "sha1": "b1d05f627a38c0f7928e6e1aaf56e7f598fc93c5",
  "source": "pragma solidity ^0.5.0;\n\ncontract unOptimizedContract104 {\n    address public owner;\n    \n    constructor() public {\n        owner = msg.sender;\n    }\n    \n    function transferOwnership(address newOwner) public {\n        require(msg.sender == owner);\n        owner = newOwner;\n    }\n    \n    function doSomething() public {\n        // Do something\n    }\n    \n    function doSomethingElse() public {\n        // Do something else\n    }\n}",
  "sourcePath": "contracts/unOptimized_contracts/UnOptimizedContract104.sol",
  "type": "contract"
}