{
  "abi": [
    {
      "inputs": [],
      "payable": false,
      "stateMutability": "nonpayable",
      "type": "constructor"
    },
    {
      "constant": true,
      "inputs": [],
      "name": "balance",
      "outputs": [
        {
          "internalType": "uint256",
          "name": "",
          "type": "uint256"
        }
      ],
      "payable": false,
      "stateMutability": "view",
      "type": "function"
    },
    {
      "constant": false,
      "inputs": [],
      "name": "deposit",
      "outputs": [],
      "payable": true,
      "stateMutability": "payable",
      "type": "function"
    },
    {
      "constant": false,
      "inputs": [
        {
          "internalType": "uint256",
          "name": "amount",
          "type": "uint256"
        }
      ],
      "name": "withdraw",
      "outputs": [],
      "payable": false,
      "stateMutability": "nonpayable",
      "type": "function"
    }
  ],
  "bytecode": "608060405234801561001057600080fd5b50600080546001600160a01b03191633178155600155610146806100356000396000f3fe6080604052600436106100345760003560e01c80632e1a7d4d14610039578063b69ef8a814610065578063d0e30db01461008c575b600080fd5b34801561004557600080fd5b506100636004803603602081101561005c57600080fd5b5035610094565b005b34801561007157600080fd5b5061007a6100f4565b60408051918252519081900360200190f35b6100636100fa565b6001548111156100a357600080fd5b6000546001600160a01b031633146100ba57600080fd5b600180548290039055604051339082156108fc029083906000818181858888f193505050501580156100f0573d6000803e3d6000fd5b5050565b60015481565b6000341161010757600080fd5b600180543401905556fea265627a7a72315820c4fac4175d63f7da1984de9e5c3c8705fe274d506f6ab1fb944bf40c09a1e21b64736f6c63430005110032",
  "bytecodeSha1": "b28bd61af4205aa667eeba054e5de3333b0ccd13",
  "compiler": {
    "evm_version": "istanbul",
    "optimizer": {
      "enabled": true,
      "runs": 200
    },
    "version": "0.5.17+commit.d19bba13"
  },
  "contractName": "unOptimizedContract95",
  "language": "Solidity",
  "natspec": {
    "methods": {}
  },
  "opcodes": "PUSH1 0x80 PUSH1 0x40 MSTORE PUSH1 0x4 CALLDATASIZE LT PUSH2 0x34 JUMPI PUSH1 0x0 CALLDATALOAD PUSH1 0xE0 SHR DUP1 PUSH4 0x2E1A7D4D EQ PUSH2 0x39 JUMPI DUP1 PUSH4 0xB69EF8A8 EQ PUSH2 0x65 JUMPI DUP1 PUSH4 0xD0E30DB0 EQ PUSH2 0x8C JUMPI JUMPDEST PUSH1 0x0 DUP1 REVERT JUMPDEST CALLVALUE DUP1 ISZERO PUSH2 0x45 JUMPI PUSH1 0x0 DUP1 REVERT JUMPDEST POP PUSH2 0x63 PUSH1 0x4 DUP1 CALLDATASIZE SUB PUSH1 0x20 DUP2 LT ISZERO PUSH2 0x5C JUMPI PUSH1 0x0 DUP1 REVERT JUMPDEST POP CALLDATALOAD PUSH2 0x94 JUMP JUMPDEST STOP JUMPDEST CALLVALUE DUP1 ISZERO PUSH2 0x71 JUMPI PUSH1 0x0 DUP1 REVERT JUMPDEST POP PUSH2 0x7A PUSH2 0xF4 JUMP JUMPDEST PUSH1 0x40 DUP1 MLOAD SWAP2 DUP3 MSTORE MLOAD SWAP1 DUP2 SWAP1 SUB PUSH1 0x20 ADD SWAP1 RETURN JUMPDEST PUSH2 0x63 PUSH2 0xFA JUMP JUMPDEST PUSH1 0x1 SLOAD DUP2 GT ISZERO PUSH2 0xA3 JUMPI PUSH1 0x0 DUP1 REVERT JUMPDEST PUSH1 0x0 SLOAD PUSH1 0x1 PUSH1 0x1 PUSH1 0xA0 SHL SUB AND CALLER EQ PUSH2 0xBA JUMPI PUSH1 0x0 DUP1 REVERT JUMPDEST PUSH1 0x1 DUP1 SLOAD DUP3 SWAP1 SUB SWAP1 SSTORE PUSH1 0x40 MLOAD CALLER SWAP1 DUP3 ISZERO PUSH2 0x8FC MUL SWAP1 DUP4 SWAP1 PUSH1 0x0 DUP2 DUP2 DUP2 DUP6 DUP9 DUP9 CALL SWAP4 POP POP POP POP ISZERO DUP1 ISZERO PUSH2 0xF0 JUMPI RETURNDATASIZE PUSH1 0x0 DUP1 RETURNDATACOPY RETURNDATASIZE PUSH1 0x0 REVERT JUMPDEST POP POP JUMP JUMPDEST PUSH1 0x1 SLOAD DUP2 JUMP JUMPDEST PUSH1 0x0 CALLVALUE GT PUSH2 0x107 JUMPI PUSH1 0x0 DUP1 REVERT JUMPDEST PUSH1 0x1 DUP1 SLOAD CALLVALUE ADD SWAP1 SSTORE JUMP INVALID LOG2 PUSH6 0x627A7A723158 KECCAK256 0xC4 STATICCALL 0xC4 OR 0x5D PUSH4 0xF7DA1984 0xDE SWAP15 0x5C EXTCODECOPY DUP8 SDIV INVALID 0x27 0x4D POP PUSH16 0x6AB1FB944BF40C09A1E21B64736F6C63 NUMBER STOP SDIV GT STOP ORIGIN ",
  "sha1": "40261f377fd508707f682ea8e95a8a33eb9102d4",
  "source": "pragma solidity ^0.5.0;\n\ncontract unOptimizedContract95 {\n    address owner;\n    uint public balance;\n\n    constructor() public {\n        owner = msg.sender;\n        balance = 0;\n    }\n\n    function deposit() public payable {\n        require(msg.value > 0);\n        balance += msg.value;\n    }\n\n    function withdraw(uint amount) public {\n        require(amount <= balance);\n        require(msg.sender == owner);\n        balance -= amount;\n        msg.sender.transfer(amount);\n    }\n}",
  "sourcePath": "contracts/verifiable_contracts_gpt/UnOptimizedContract95.sol",
  "type": "contract"
}