{
  "abi": [
    {
      "inputs": [],
      "payable": false,
      "stateMutability": "nonpayable",
      "type": "constructor"
    },
    {
      "constant": true,
      "inputs": [],
      "name": "getOwner",
      "outputs": [
        {
          "internalType": "address",
          "name": "",
          "type": "address"
        }
      ],
      "payable": false,
      "stateMutability": "view",
      "type": "function"
    },
    {
      "constant": false,
      "inputs": [
        {
          "internalType": "address",
          "name": "newOwner",
          "type": "address"
        }
      ],
      "name": "setOwner",
      "outputs": [],
      "payable": false,
      "stateMutability": "nonpayable",
      "type": "function"
    }
  ],
  "bytecode": "608060405234801561001057600080fd5b50600080546001600160a01b0319163317905560f3806100316000396000f3fe6080604052348015600f57600080fd5b506004361060325760003560e01c806313af4035146037578063893d20e814605c575b600080fd5b605a60048036036020811015604b57600080fd5b50356001600160a01b0316607e565b005b606260af565b604080516001600160a01b039092168252519081900360200190f35b6000546001600160a01b031633141560ac57600080546001600160a01b0319166001600160a01b0383161790555b50565b6000546001600160a01b03169056fea265627a7a723158206a858114031927bb7a98a0a6b0deb0295498c44687f59bd3a76fbc53a4da7ccc64736f6c63430005110032",
  "bytecodeSha1": "52a8f94b3cd992d0db2e58b8c56b9c7f437dacd8",
  "compiler": {
    "evm_version": "istanbul",
    "optimizer": {
      "enabled": true,
      "runs": 200
    },
    "version": "0.5.17+commit.d19bba13"
  },
  "contractName": "unOptimizedContract94",
  "language": "Solidity",
  "natspec": {
    "methods": {}
  },
  "opcodes": "PUSH1 0x80 PUSH1 0x40 MSTORE CALLVALUE DUP1 ISZERO PUSH1 0xF JUMPI PUSH1 0x0 DUP1 REVERT JUMPDEST POP PUSH1 0x4 CALLDATASIZE LT PUSH1 0x32 JUMPI PUSH1 0x0 CALLDATALOAD PUSH1 0xE0 SHR DUP1 PUSH4 0x13AF4035 EQ PUSH1 0x37 JUMPI DUP1 PUSH4 0x893D20E8 EQ PUSH1 0x5C JUMPI JUMPDEST PUSH1 0x0 DUP1 REVERT JUMPDEST PUSH1 0x5A PUSH1 0x4 DUP1 CALLDATASIZE SUB PUSH1 0x20 DUP2 LT ISZERO PUSH1 0x4B JUMPI PUSH1 0x0 DUP1 REVERT JUMPDEST POP CALLDATALOAD PUSH1 0x1 PUSH1 0x1 PUSH1 0xA0 SHL SUB AND PUSH1 0x7E JUMP JUMPDEST STOP JUMPDEST PUSH1 0x62 PUSH1 0xAF JUMP JUMPDEST PUSH1 0x40 DUP1 MLOAD PUSH1 0x1 PUSH1 0x1 PUSH1 0xA0 SHL SUB SWAP1 SWAP3 AND DUP3 MSTORE MLOAD SWAP1 DUP2 SWAP1 SUB PUSH1 0x20 ADD SWAP1 RETURN JUMPDEST PUSH1 0x0 SLOAD PUSH1 0x1 PUSH1 0x1 PUSH1 0xA0 SHL SUB AND CALLER EQ ISZERO PUSH1 0xAC JUMPI PUSH1 0x0 DUP1 SLOAD PUSH1 0x1 PUSH1 0x1 PUSH1 0xA0 SHL SUB NOT AND PUSH1 0x1 PUSH1 0x1 PUSH1 0xA0 SHL SUB DUP4 AND OR SWAP1 SSTORE JUMPDEST POP JUMP JUMPDEST PUSH1 0x0 SLOAD PUSH1 0x1 PUSH1 0x1 PUSH1 0xA0 SHL SUB AND SWAP1 JUMP INVALID LOG2 PUSH6 0x627A7A723158 KECCAK256 PUSH11 0x858114031927BB7A98A0A6 0xB0 0xDE 0xB0 0x29 SLOAD SWAP9 0xC4 CHAINID DUP8 CREATE2 SWAP12 0xD3 0xA7 PUSH16 0xBC53A4DA7CCC64736F6C634300051100 ORIGIN ",
  "sha1": "fa2564f6e5ea0a2149698319f0841c9b3316dd3c",
  "source": "pragma solidity ^0.5.0;\n\ncontract unOptimizedContract94 {\n    address owner;\n\n    constructor() public {\n        owner = msg.sender;\n    }\n\n    // Function to return the owner address\n    function getOwner() external view returns (address) {\n        return owner;\n    }\n\n    // Function to set the owner address\n    function setOwner(address newOwner) external {\n        if (msg.sender == owner) {\n            owner = newOwner;\n        }\n    }\n}",
  "sourcePath": "contracts/verifiable_contracts_gpt/UnOptimizedContract94.sol",
  "type": "contract"
}