{
  "abi": [
    {
      "constant": true,
      "inputs": [],
      "name": "counter",
      "outputs": [
        {
          "internalType": "uint256",
          "name": "",
          "type": "uint256"
        }
      ],
      "payable": false,
      "stateMutability": "view",
      "type": "function"
    },
    {
      "constant": false,
      "inputs": [],
      "name": "decrementCounter",
      "outputs": [],
      "payable": false,
      "stateMutability": "nonpayable",
      "type": "function"
    },
    {
      "constant": true,
      "inputs": [],
      "name": "getCounter",
      "outputs": [
        {
          "internalType": "uint256",
          "name": "",
          "type": "uint256"
        }
      ],
      "payable": false,
      "stateMutability": "view",
      "type": "function"
    },
    {
      "constant": false,
      "inputs": [],
      "name": "incrementCounter",
      "outputs": [],
      "payable": false,
      "stateMutability": "nonpayable",
      "type": "function"
    }
  ],
  "bytecode": "608060405234801561001057600080fd5b5060cf8061001f6000396000f3fe6080604052348015600f57600080fd5b506004361060465760003560e01c80635b34b96614604b57806361bc221a1460535780638ada066e14606b578063f5c5ad83146071575b600080fd5b60516077565b005b60596082565b60408051918252519081900360200190f35b60596088565b6051608e565b600080546001019055565b60005481565b60005490565b6000805460001901905556fea265627a7a723158205ea440311febb1ae00eb029b2ca9079bc0d76ae3b88747fa6079c13dc571d49464736f6c63430005110032",
  "bytecodeSha1": "e2eb8dded99c89d398ab6f64a56a71d945d198d2",
  "compiler": {
    "evm_version": "istanbul",
    "optimizer": {
      "enabled": true,
      "runs": 200
    },
    "version": "0.5.17+commit.d19bba13"
  },
  "contractName": "unOptimizedContract87",
  "language": "Solidity",
  "natspec": {
    "methods": {}
  },
  "opcodes": "PUSH1 0x80 PUSH1 0x40 MSTORE CALLVALUE DUP1 ISZERO PUSH1 0xF JUMPI PUSH1 0x0 DUP1 REVERT JUMPDEST POP PUSH1 0x4 CALLDATASIZE LT PUSH1 0x46 JUMPI PUSH1 0x0 CALLDATALOAD PUSH1 0xE0 SHR DUP1 PUSH4 0x5B34B966 EQ PUSH1 0x4B JUMPI DUP1 PUSH4 0x61BC221A EQ PUSH1 0x53 JUMPI DUP1 PUSH4 0x8ADA066E EQ PUSH1 0x6B JUMPI DUP1 PUSH4 0xF5C5AD83 EQ PUSH1 0x71 JUMPI JUMPDEST PUSH1 0x0 DUP1 REVERT JUMPDEST PUSH1 0x51 PUSH1 0x77 JUMP JUMPDEST STOP JUMPDEST PUSH1 0x59 PUSH1 0x82 JUMP JUMPDEST PUSH1 0x40 DUP1 MLOAD SWAP2 DUP3 MSTORE MLOAD SWAP1 DUP2 SWAP1 SUB PUSH1 0x20 ADD SWAP1 RETURN JUMPDEST PUSH1 0x59 PUSH1 0x88 JUMP JUMPDEST PUSH1 0x51 PUSH1 0x8E JUMP JUMPDEST PUSH1 0x0 DUP1 SLOAD PUSH1 0x1 ADD SWAP1 SSTORE JUMP JUMPDEST PUSH1 0x0 SLOAD DUP2 JUMP JUMPDEST PUSH1 0x0 SLOAD SWAP1 JUMP JUMPDEST PUSH1 0x0 DUP1 SLOAD PUSH1 0x0 NOT ADD SWAP1 SSTORE JUMP INVALID LOG2 PUSH6 0x627A7A723158 KECCAK256 0x5E LOG4 BLOCKHASH BALANCE 0x1F 0xEB 0xB1 0xAE STOP 0xEB MUL SWAP12 0x2C 0xA9 SMOD SWAP12 0xC0 0xD7 PUSH11 0xE3B88747FA6079C13DC571 0xD4 SWAP5 PUSH5 0x736F6C6343 STOP SDIV GT STOP ORIGIN ",
  "sha1": "9f05b252c0a839e14cdd34166984dfd6ffbeead1",
  "source": "pragma solidity ^0.5.0;\n\ncontract unOptimizedContract87 {\n    uint public counter;\n\n    function incrementCounter() public {\n        counter++;\n    }\n\n    function decrementCounter() public {\n        counter--;\n    }\n\n    function getCounter() public view returns(uint) {\n        return counter;\n    }\n}",
  "sourcePath": "contracts/verifiable_contracts_gpt/UnOptimizedContract87.sol",
  "type": "contract"
}