{
  "abi": [
    {
      "inputs": [],
      "name": "counter",
      "outputs": [
        {
          "internalType": "uint256",
          "name": "",
          "type": "uint256"
        }
      ],
      "stateMutability": "view",
      "type": "function"
    },
    {
      "inputs": [],
      "name": "decrement",
      "outputs": [],
      "stateMutability": "nonpayable",
      "type": "function"
    },
    {
      "inputs": [],
      "name": "getCounter",
      "outputs": [
        {
          "internalType": "uint256",
          "name": "",
          "type": "uint256"
        }
      ],
      "stateMutability": "view",
      "type": "function"
    },
    {
      "inputs": [],
      "name": "increment",
      "outputs": [],
      "stateMutability": "nonpayable",
      "type": "function"
    }
  ],
  "bytecode": "608060405234801561001057600080fd5b5060d08061001f6000396000f3fe6080604052348015600f57600080fd5b506004361060465760003560e01c80632baeceb714604b57806361bc221a1460535780638ada066e14606b578063d09de08a146071575b600080fd5b60516077565b005b60596083565b60408051918252519081900360200190f35b60596089565b6051608f565b60008054600019019055565b60005481565b60005490565b60008054600101905556fea2646970667358221220f4d2c7e36912cf4261f6362750ceb320fef412c13b126366f6be2db0bc34141c64736f6c63430006060033",
  "bytecodeSha1": "84b4b92704f21b52c5472f749fdfd6cbfedf80eb",
  "compiler": {
    "evm_version": "istanbul",
    "optimizer": {
      "enabled": true,
      "runs": 200
    },
    "version": "0.6.6+commit.6c089d02"
  },
  "contractName": "unOptimizedContract84",
  "language": "Solidity",
  "natspec": {
    "methods": {}
  },
  "opcodes": "PUSH1 0x80 PUSH1 0x40 MSTORE CALLVALUE DUP1 ISZERO PUSH1 0xF JUMPI PUSH1 0x0 DUP1 REVERT JUMPDEST POP PUSH1 0x4 CALLDATASIZE LT PUSH1 0x46 JUMPI PUSH1 0x0 CALLDATALOAD PUSH1 0xE0 SHR DUP1 PUSH4 0x2BAECEB7 EQ PUSH1 0x4B JUMPI DUP1 PUSH4 0x61BC221A EQ PUSH1 0x53 JUMPI DUP1 PUSH4 0x8ADA066E EQ PUSH1 0x6B JUMPI DUP1 PUSH4 0xD09DE08A EQ PUSH1 0x71 JUMPI JUMPDEST PUSH1 0x0 DUP1 REVERT JUMPDEST PUSH1 0x51 PUSH1 0x77 JUMP JUMPDEST STOP JUMPDEST PUSH1 0x59 PUSH1 0x83 JUMP JUMPDEST PUSH1 0x40 DUP1 MLOAD SWAP2 DUP3 MSTORE MLOAD SWAP1 DUP2 SWAP1 SUB PUSH1 0x20 ADD SWAP1 RETURN JUMPDEST PUSH1 0x59 PUSH1 0x89 JUMP JUMPDEST PUSH1 0x51 PUSH1 0x8F JUMP JUMPDEST PUSH1 0x0 DUP1 SLOAD PUSH1 0x0 NOT ADD SWAP1 SSTORE JUMP JUMPDEST PUSH1 0x0 SLOAD DUP2 JUMP JUMPDEST PUSH1 0x0 SLOAD SWAP1 JUMP JUMPDEST PUSH1 0x0 DUP1 SLOAD PUSH1 0x1 ADD SWAP1 SSTORE JUMP INVALID LOG2 PUSH5 0x6970667358 0x22 SLT KECCAK256 DELEGATECALL 0xD2 0xC7 0xE3 PUSH10 0x12CF4261F6362750CEB3 KECCAK256 INVALID DELEGATECALL SLT 0xC1 EXTCODESIZE SLT PUSH4 0x66F6BE2D 0xB0 0xBC CALLVALUE EQ SHR PUSH5 0x736F6C6343 STOP MOD MOD STOP CALLER ",
  "sha1": "e18aa2f27a5048d8a6752c1b8e0870a28df8204e",
  "source": "pragma solidity 0.6.6;\n\ncontract unOptimizedContract84 {\n    uint public counter;\n    \n    function increment() public {\n        counter++;\n    }\n    \n    function decrement() public {\n        counter--;\n    }\n    \n    function getCounter() public view returns (uint) {\n        return counter;\n    }\n}",
  "sourcePath": "contracts/verifiable_contracts_gpt/UnOptimizedContract84.sol",
  "type": "contract"
}