{
  "abi": [
    {
      "inputs": [],
      "payable": false,
      "stateMutability": "nonpayable",
      "type": "constructor"
    },
    {
      "constant": true,
      "inputs": [],
      "name": "counter",
      "outputs": [
        {
          "internalType": "uint256",
          "name": "",
          "type": "uint256"
        }
      ],
      "payable": false,
      "stateMutability": "view",
      "type": "function"
    },
    {
      "constant": false,
      "inputs": [],
      "name": "decrementCounter",
      "outputs": [],
      "payable": false,
      "stateMutability": "nonpayable",
      "type": "function"
    },
    {
      "constant": false,
      "inputs": [],
      "name": "incrementCounter",
      "outputs": [],
      "payable": false,
      "stateMutability": "nonpayable",
      "type": "function"
    }
  ],
  "bytecode": "608060405234801561001057600080fd5b506000805560b9806100236000396000f3fe6080604052348015600f57600080fd5b5060043610603c5760003560e01c80635b34b96614604157806361bc221a146049578063f5c5ad83146061575b600080fd5b60476067565b005b604f6072565b60408051918252519081900360200190f35b60476078565b600080546001019055565b60005481565b6000805460001901905556fea265627a7a72315820aed8dff7e265bce9295582c3974681b46628e4aa2095b47901e59a0ea347b73b64736f6c63430005110032",
  "bytecodeSha1": "843d9c9204b07b260e72451f29063023393bac39",
  "compiler": {
    "evm_version": "istanbul",
    "optimizer": {
      "enabled": true,
      "runs": 200
    },
    "version": "0.5.17+commit.d19bba13"
  },
  "contractName": "unOptimizedContract105",
  "language": "Solidity",
  "natspec": {
    "methods": {}
  },
  "opcodes": "PUSH1 0x80 PUSH1 0x40 MSTORE CALLVALUE DUP1 ISZERO PUSH1 0xF JUMPI PUSH1 0x0 DUP1 REVERT JUMPDEST POP PUSH1 0x4 CALLDATASIZE LT PUSH1 0x3C JUMPI PUSH1 0x0 CALLDATALOAD PUSH1 0xE0 SHR DUP1 PUSH4 0x5B34B966 EQ PUSH1 0x41 JUMPI DUP1 PUSH4 0x61BC221A EQ PUSH1 0x49 JUMPI DUP1 PUSH4 0xF5C5AD83 EQ PUSH1 0x61 JUMPI JUMPDEST PUSH1 0x0 DUP1 REVERT JUMPDEST PUSH1 0x47 PUSH1 0x67 JUMP JUMPDEST STOP JUMPDEST PUSH1 0x4F PUSH1 0x72 JUMP JUMPDEST PUSH1 0x40 DUP1 MLOAD SWAP2 DUP3 MSTORE MLOAD SWAP1 DUP2 SWAP1 SUB PUSH1 0x20 ADD SWAP1 RETURN JUMPDEST PUSH1 0x47 PUSH1 0x78 JUMP JUMPDEST PUSH1 0x0 DUP1 SLOAD PUSH1 0x1 ADD SWAP1 SSTORE JUMP JUMPDEST PUSH1 0x0 SLOAD DUP2 JUMP JUMPDEST PUSH1 0x0 DUP1 SLOAD PUSH1 0x0 NOT ADD SWAP1 SSTORE JUMP INVALID LOG2 PUSH6 0x627A7A723158 KECCAK256 0xAE 0xD8 0xDF 0xF7 0xE2 PUSH6 0xBCE9295582C3 SWAP8 CHAINID DUP2 0xB4 PUSH7 0x28E4AA2095B479 ADD 0xE5 SWAP11 0xE LOG3 SELFBALANCE 0xB7 EXTCODESIZE PUSH5 0x736F6C6343 STOP SDIV GT STOP ORIGIN ",
  "sha1": "76b5798f916e68434f3211cfce1aa72e84b113f4",
  "source": "pragma solidity ^0.5.11;\n\ncontract unOptimizedContract105 {\n \n    // State Variables\n    uint public counter;\n \n    // Constructor\n    constructor() public {\n        counter = 0;\n    }\n \n    // Increment\n    function incrementCounter() public {\n        counter++;\n    }\n \n    // Decrement\n    function decrementCounter() public {\n        counter--;\n    }\n}",
  "sourcePath": "contracts/unOptimized_contracts/UnOptimizedContract105.sol",
  "type": "contract"
}