{
  "abi": [
    {
      "inputs": [],
      "payable": false,
      "stateMutability": "nonpayable",
      "type": "constructor"
    },
    {
      "constant": false,
      "inputs": [
        {
          "internalType": "uint256",
          "name": "_amount",
          "type": "uint256"
        }
      ],
      "name": "addBalance",
      "outputs": [],
      "payable": false,
      "stateMutability": "nonpayable",
      "type": "function"
    },
    {
      "constant": true,
      "inputs": [],
      "name": "balance",
      "outputs": [
        {
          "internalType": "uint256",
          "name": "",
          "type": "uint256"
        }
      ],
      "payable": false,
      "stateMutability": "view",
      "type": "function"
    },
    {
      "constant": true,
      "inputs": [],
      "name": "getBalance",
      "outputs": [
        {
          "internalType": "uint256",
          "name": "",
          "type": "uint256"
        }
      ],
      "payable": false,
      "stateMutability": "view",
      "type": "function"
    }
  ],
  "bytecode": "608060405234801561001057600080fd5b506000805560c7806100236000396000f3fe6080604052348015600f57600080fd5b5060043610603c5760003560e01c806312065fe0146041578063b69ef8a8146059578063d91921ed14605f575b600080fd5b6047607b565b60408051918252519081900360200190f35b60476081565b607960048036036020811015607357600080fd5b50356087565b005b60005490565b60005481565b60008054909101905556fea265627a7a723158207d3931e6c7ca9fcc06fed8771acae2290f3c8318d614bd29c4cdb443060d93eb64736f6c63430005110032",
  "bytecodeSha1": "340cec144bda972223c83d3890673b014b3dbb56",
  "compiler": {
    "evm_version": "istanbul",
    "optimizer": {
      "enabled": true,
      "runs": 200
    },
    "version": "0.5.17+commit.d19bba13"
  },
  "contractName": "unOptimizedContract43",
  "language": "Solidity",
  "natspec": {
    "methods": {}
  },
  "opcodes": "PUSH1 0x80 PUSH1 0x40 MSTORE CALLVALUE DUP1 ISZERO PUSH1 0xF JUMPI PUSH1 0x0 DUP1 REVERT JUMPDEST POP PUSH1 0x4 CALLDATASIZE LT PUSH1 0x3C JUMPI PUSH1 0x0 CALLDATALOAD PUSH1 0xE0 SHR DUP1 PUSH4 0x12065FE0 EQ PUSH1 0x41 JUMPI DUP1 PUSH4 0xB69EF8A8 EQ PUSH1 0x59 JUMPI DUP1 PUSH4 0xD91921ED EQ PUSH1 0x5F JUMPI JUMPDEST PUSH1 0x0 DUP1 REVERT JUMPDEST PUSH1 0x47 PUSH1 0x7B JUMP JUMPDEST PUSH1 0x40 DUP1 MLOAD SWAP2 DUP3 MSTORE MLOAD SWAP1 DUP2 SWAP1 SUB PUSH1 0x20 ADD SWAP1 RETURN JUMPDEST PUSH1 0x47 PUSH1 0x81 JUMP JUMPDEST PUSH1 0x79 PUSH1 0x4 DUP1 CALLDATASIZE SUB PUSH1 0x20 DUP2 LT ISZERO PUSH1 0x73 JUMPI PUSH1 0x0 DUP1 REVERT JUMPDEST POP CALLDATALOAD PUSH1 0x87 JUMP JUMPDEST STOP JUMPDEST PUSH1 0x0 SLOAD SWAP1 JUMP JUMPDEST PUSH1 0x0 SLOAD DUP2 JUMP JUMPDEST PUSH1 0x0 DUP1 SLOAD SWAP1 SWAP2 ADD SWAP1 SSTORE JUMP INVALID LOG2 PUSH6 0x627A7A723158 KECCAK256 PUSH30 0x3931E6C7CA9FCC06FED8771ACAE2290F3C8318D614BD29C4CDB443060D93 0xEB PUSH5 0x736F6C6343 STOP SDIV GT STOP ORIGIN ",
  "sha1": "508f58d3417723c3fcb3d2226d7df4b8ef59a552",
  "source": "// unOptimizedContract43.sol\npragma solidity ^0.5.0;\n\ncontract unOptimizedContract43 {\n    uint public balance;\n\n    constructor() public {\n        balance = 0;\n    }\n\n    function addBalance(uint _amount) public {\n        balance += _amount;\n    }\n\n    function getBalance() public view returns (uint) {\n        return balance;\n    }\n}",
  "sourcePath": "contracts/unOptimized_contracts/UnOptimizedContract43.sol",
  "type": "contract"
}