{
  "abi": [
    {
      "inputs": [],
      "name": "count",
      "outputs": [
        {
          "internalType": "uint256",
          "name": "",
          "type": "uint256"
        }
      ],
      "stateMutability": "view",
      "type": "function"
    },
    {
      "inputs": [],
      "name": "decrement",
      "outputs": [],
      "stateMutability": "nonpayable",
      "type": "function"
    },
    {
      "inputs": [],
      "name": "increment",
      "outputs": [],
      "stateMutability": "nonpayable",
      "type": "function"
    }
  ],
  "bytecode": "608060405234801561001057600080fd5b5060ba8061001f6000396000f3fe6080604052348015600f57600080fd5b5060043610603c5760003560e01c806306661abd1460415780632baeceb7146059578063d09de08a146061575b600080fd5b60476067565b60408051918252519081900360200190f35b605f606d565b005b605f6079565b60005481565b60008054600019019055565b60008054600101905556fea2646970667358221220b8fabefaa58a3882e85f812ace49020f605e6f01c335f7a835e5acfa532e7e8664736f6c634300060c0033",
  "bytecodeSha1": "f07b6771a84eb4cbcbaf405b4d9ae50c4de83c6c",
  "compiler": {
    "evm_version": "istanbul",
    "optimizer": {
      "enabled": true,
      "runs": 200
    },
    "version": "0.6.12+commit.27d51765"
  },
  "contractName": "unOptimizedContract65",
  "language": "Solidity",
  "natspec": {
    "kind": "dev",
    "methods": {},
    "version": 1
  },
  "opcodes": "PUSH1 0x80 PUSH1 0x40 MSTORE CALLVALUE DUP1 ISZERO PUSH1 0xF JUMPI PUSH1 0x0 DUP1 REVERT JUMPDEST POP PUSH1 0x4 CALLDATASIZE LT PUSH1 0x3C JUMPI PUSH1 0x0 CALLDATALOAD PUSH1 0xE0 SHR DUP1 PUSH4 0x6661ABD EQ PUSH1 0x41 JUMPI DUP1 PUSH4 0x2BAECEB7 EQ PUSH1 0x59 JUMPI DUP1 PUSH4 0xD09DE08A EQ PUSH1 0x61 JUMPI JUMPDEST PUSH1 0x0 DUP1 REVERT JUMPDEST PUSH1 0x47 PUSH1 0x67 JUMP JUMPDEST PUSH1 0x40 DUP1 MLOAD SWAP2 DUP3 MSTORE MLOAD SWAP1 DUP2 SWAP1 SUB PUSH1 0x20 ADD SWAP1 RETURN JUMPDEST PUSH1 0x5F PUSH1 0x6D JUMP JUMPDEST STOP JUMPDEST PUSH1 0x5F PUSH1 0x79 JUMP JUMPDEST PUSH1 0x0 SLOAD DUP2 JUMP JUMPDEST PUSH1 0x0 DUP1 SLOAD PUSH1 0x0 NOT ADD SWAP1 SSTORE JUMP JUMPDEST PUSH1 0x0 DUP1 SLOAD PUSH1 0x1 ADD SWAP1 SSTORE JUMP INVALID LOG2 PUSH5 0x6970667358 0x22 SLT KECCAK256 0xB8 STATICCALL 0xBE STATICCALL 0xA5 DUP11 CODESIZE DUP3 0xE8 0x5F DUP2 0x2A 0xCE 0x49 MUL 0xF PUSH1 0x5E PUSH16 0x1C335F7A835E5ACFA532E7E8664736F PUSH13 0x634300060C0033000000000000 ",
  "sha1": "ed869033ebe829f5be2b0b482b99f6e7b490160a",
  "source": "pragma solidity ^0.6.0;\n\ncontract unOptimizedContract65 {\n    uint public count;\n\n    function increment() public {\n        count++;\n    }\n\n    function decrement() public {\n        count--;\n    }\n}",
  "sourcePath": "contracts/unOptimized_contracts/UnOptimizedContract65.sol",
  "type": "contract"
}