{
  "abi": [
    {
      "inputs": [],
      "payable": false,
      "stateMutability": "nonpayable",
      "type": "constructor"
    },
    {
      "constant": false,
      "inputs": [],
      "name": "decrement",
      "outputs": [],
      "payable": false,
      "stateMutability": "nonpayable",
      "type": "function"
    },
    {
      "constant": false,
      "inputs": [],
      "name": "increment",
      "outputs": [],
      "payable": false,
      "stateMutability": "nonpayable",
      "type": "function"
    },
    {
      "constant": false,
      "inputs": [],
      "name": "reset",
      "outputs": [],
      "payable": false,
      "stateMutability": "nonpayable",
      "type": "function"
    },
    {
      "constant": true,
      "inputs": [],
      "name": "value",
      "outputs": [
        {
          "internalType": "uint256",
          "name": "",
          "type": "uint256"
        }
      ],
      "payable": false,
      "stateMutability": "view",
      "type": "function"
    }
  ],
  "bytecode": "608060405234801561001057600080fd5b506000805560cf806100236000396000f3fe6080604052348015600f57600080fd5b506004361060465760003560e01c80632baeceb714604b5780633fa4f245146053578063d09de08a14606b578063d826f88f146071575b600080fd5b60516077565b005b60596083565b60408051918252519081900360200190f35b60516089565b60516094565b60008054600019019055565b60005481565b600080546001019055565b6000805556fea265627a7a723158205b1ffcda49f469935d54a85887c6f470fb482941850f998e3d93cd3c271b451764736f6c63430005110032",
  "bytecodeSha1": "3b512109bf546ef6e9e223876ef715b7e5000902",
  "compiler": {
    "evm_version": "istanbul",
    "optimizer": {
      "enabled": true,
      "runs": 200
    },
    "version": "0.5.17+commit.d19bba13"
  },
  "contractName": "unOptimizedContract47",
  "language": "Solidity",
  "natspec": {
    "methods": {}
  },
  "opcodes": "PUSH1 0x80 PUSH1 0x40 MSTORE CALLVALUE DUP1 ISZERO PUSH1 0xF JUMPI PUSH1 0x0 DUP1 REVERT JUMPDEST POP PUSH1 0x4 CALLDATASIZE LT PUSH1 0x46 JUMPI PUSH1 0x0 CALLDATALOAD PUSH1 0xE0 SHR DUP1 PUSH4 0x2BAECEB7 EQ PUSH1 0x4B JUMPI DUP1 PUSH4 0x3FA4F245 EQ PUSH1 0x53 JUMPI DUP1 PUSH4 0xD09DE08A EQ PUSH1 0x6B JUMPI DUP1 PUSH4 0xD826F88F EQ PUSH1 0x71 JUMPI JUMPDEST PUSH1 0x0 DUP1 REVERT JUMPDEST PUSH1 0x51 PUSH1 0x77 JUMP JUMPDEST STOP JUMPDEST PUSH1 0x59 PUSH1 0x83 JUMP JUMPDEST PUSH1 0x40 DUP1 MLOAD SWAP2 DUP3 MSTORE MLOAD SWAP1 DUP2 SWAP1 SUB PUSH1 0x20 ADD SWAP1 RETURN JUMPDEST PUSH1 0x51 PUSH1 0x89 JUMP JUMPDEST PUSH1 0x51 PUSH1 0x94 JUMP JUMPDEST PUSH1 0x0 DUP1 SLOAD PUSH1 0x0 NOT ADD SWAP1 SSTORE JUMP JUMPDEST PUSH1 0x0 SLOAD DUP2 JUMP JUMPDEST PUSH1 0x0 DUP1 SLOAD PUSH1 0x1 ADD SWAP1 SSTORE JUMP JUMPDEST PUSH1 0x0 DUP1 SSTORE JUMP INVALID LOG2 PUSH6 0x627A7A723158 KECCAK256 JUMPDEST 0x1F 0xFC 0xDA 0x49 DELEGATECALL PUSH10 0x935D54A85887C6F470FB 0x48 0x29 COINBASE DUP6 0xF SWAP10 DUP15 RETURNDATASIZE SWAP4 0xCD EXTCODECOPY 0x27 SHL GASLIMIT OR PUSH5 0x736F6C6343 STOP SDIV GT STOP ORIGIN ",
  "sha1": "e9ac8258a05aaf8eb3f19bff6090d6653a2ddfd5",
  "source": "pragma solidity ^0.5.0;\n\n// unOptimizedContract47\ncontract unOptimizedContract47 {\n    // State variable to store the value\n    uint256 public value;\n\n    // Constructor to set the initial value\n    constructor() public {\n        value = 0;\n    }\n\n    // Function to increment the value\n    function increment() public {\n        value++;\n    }\n\n    // Function to decrement the value\n    function decrement() public {\n        value--;\n    }\n\n    // Function to reset the value\n    function reset() public {\n        value = 0;\n    }\n}",
  "sourcePath": "contracts/unOptimized_contracts/UnOptimizedContract47.sol",
  "type": "contract"
}