{
  "abi": [
    {
      "constant": false,
      "inputs": [
        {
          "name": "_amount",
          "type": "uint256"
        }
      ],
      "name": "add",
      "outputs": [],
      "payable": false,
      "stateMutability": "nonpayable",
      "type": "function"
    },
    {
      "constant": false,
      "inputs": [
        {
          "name": "_amount",
          "type": "uint256"
        }
      ],
      "name": "subtract",
      "outputs": [],
      "payable": false,
      "stateMutability": "nonpayable",
      "type": "function"
    },
    {
      "constant": true,
      "inputs": [
        {
          "name": "",
          "type": "address"
        }
      ],
      "name": "balances",
      "outputs": [
        {
          "name": "",
          "type": "uint256"
        }
      ],
      "payable": false,
      "stateMutability": "view",
      "type": "function"
    },
    {
      "inputs": [],
      "payable": false,
      "stateMutability": "nonpayable",
      "type": "constructor"
    }
  ],
  "bytecode": "608060405234801561001057600080fd5b503360009081526020819052604081205561013c806100306000396000f3006080604052600436106100565763ffffffff7c01000000000000000000000000000000000000000000000000000000006000350416631003e2d2811461005b5780631dc05f171461007557806327e235e31461008d575b600080fd5b34801561006757600080fd5b506100736004356100cd565b005b34801561008157600080fd5b506100736004356100e5565b34801561009957600080fd5b506100bb73ffffffffffffffffffffffffffffffffffffffff600435166100fe565b60408051918252519081900360200190f35b33600090815260208190526040902080549091019055565b3360009081526020819052604090208054919091039055565b600060208190529081526040902054815600a165627a7a7230582094bba9770ebda09c9ba432c0ced78fdc298172c1b2b7c91b57da05b22507aece0029",
  "bytecodeSha1": "48e9691a7f4083380aed4b469497eb9791e9dc77",
  "compiler": {
    "evm_version": "byzantium",
    "optimizer": {
      "enabled": true,
      "runs": 200
    },
    "version": "0.4.26+commit.4563c3fc"
  },
  "contractName": "unOptimizedContract116",
  "language": "Solidity",
  "natspec": {
    "methods": {}
  },
  "opcodes": "PUSH1 0x80 PUSH1 0x40 MSTORE PUSH1 0x4 CALLDATASIZE LT PUSH2 0x56 JUMPI PUSH4 0xFFFFFFFF PUSH29 0x100000000000000000000000000000000000000000000000000000000 PUSH1 0x0 CALLDATALOAD DIV AND PUSH4 0x1003E2D2 DUP2 EQ PUSH2 0x5B JUMPI DUP1 PUSH4 0x1DC05F17 EQ PUSH2 0x75 JUMPI DUP1 PUSH4 0x27E235E3 EQ PUSH2 0x8D JUMPI JUMPDEST PUSH1 0x0 DUP1 REVERT JUMPDEST CALLVALUE DUP1 ISZERO PUSH2 0x67 JUMPI PUSH1 0x0 DUP1 REVERT JUMPDEST POP PUSH2 0x73 PUSH1 0x4 CALLDATALOAD PUSH2 0xCD JUMP JUMPDEST STOP JUMPDEST CALLVALUE DUP1 ISZERO PUSH2 0x81 JUMPI PUSH1 0x0 DUP1 REVERT JUMPDEST POP PUSH2 0x73 PUSH1 0x4 CALLDATALOAD PUSH2 0xE5 JUMP JUMPDEST CALLVALUE DUP1 ISZERO PUSH2 0x99 JUMPI PUSH1 0x0 DUP1 REVERT JUMPDEST POP PUSH2 0xBB PUSH20 0xFFFFFFFFFFFFFFFFFFFFFFFFFFFFFFFFFFFFFFFF PUSH1 0x4 CALLDATALOAD AND PUSH2 0xFE JUMP JUMPDEST PUSH1 0x40 DUP1 MLOAD SWAP2 DUP3 MSTORE MLOAD SWAP1 DUP2 SWAP1 SUB PUSH1 0x20 ADD SWAP1 RETURN JUMPDEST CALLER PUSH1 0x0 SWAP1 DUP2 MSTORE PUSH1 0x20 DUP2 SWAP1 MSTORE PUSH1 0x40 SWAP1 KECCAK256 DUP1 SLOAD SWAP1 SWAP2 ADD SWAP1 SSTORE JUMP JUMPDEST CALLER PUSH1 0x0 SWAP1 DUP2 MSTORE PUSH1 0x20 DUP2 SWAP1 MSTORE PUSH1 0x40 SWAP1 KECCAK256 DUP1 SLOAD SWAP2 SWAP1 SWAP2 SUB SWAP1 SSTORE JUMP JUMPDEST PUSH1 0x0 PUSH1 0x20 DUP2 SWAP1 MSTORE SWAP1 DUP2 MSTORE PUSH1 0x40 SWAP1 KECCAK256 SLOAD DUP2 JUMP STOP LOG1 PUSH6 0x627A7A723058 KECCAK256 SWAP5 0xbb 0xa9 PUSH24 0xEBDA09C9BA432C0CED78FDC298172C1B2B7C91B57DA05B2 0x25 SMOD 0xae 0xce STOP 0x29 ",
  "sha1": "cbe9f47ad5a5588d30ae02b3408b680994c49e50",
  "source": "pragma solidity ^0.4.22;\n\ncontract unOptimizedContract116 {\n    // Declare a mapping of addresses to uints\n    mapping (address => uint) public balances;\n\n    // Declare a constructor\n    constructor() public {\n        // Set the initial balance of the contract to 0\n        balances[msg.sender] = 0;\n    }\n\n    // Declare a function to add an amount to the balance\n    function add(uint _amount) public {\n        // Add the amount to the balance\n        balances[msg.sender] += _amount;\n    }\n\n    // Declare a function to subtract an amount from the balance\n    function subtract(uint _amount) public {\n        // Subtract the amount from the balance\n        balances[msg.sender] -= _amount;\n    }\n}",
  "sourcePath": "contracts/unOptimized_contracts/UnOptimizedContract116.sol",
  "type": "contract"
}