{
  "abi": [
    {
      "inputs": [],
      "payable": false,
      "stateMutability": "nonpayable",
      "type": "constructor"
    },
    {
      "constant": false,
      "inputs": [],
      "name": "destroy",
      "outputs": [],
      "payable": false,
      "stateMutability": "nonpayable",
      "type": "function"
    },
    {
      "constant": true,
      "inputs": [],
      "name": "getOwner",
      "outputs": [
        {
          "internalType": "address",
          "name": "",
          "type": "address"
        }
      ],
      "payable": false,
      "stateMutability": "view",
      "type": "function"
    },
    {
      "constant": false,
      "inputs": [
        {
          "internalType": "address",
          "name": "newOwner",
          "type": "address"
        }
      ],
      "name": "transferOwnership",
      "outputs": [],
      "payable": false,
      "stateMutability": "nonpayable",
      "type": "function"
    }
  ],
  "bytecode": "608060405234801561001057600080fd5b50600080546001600160a01b0319163317905561012e806100326000396000f3fe6080604052348015600f57600080fd5b5060043610603c5760003560e01c806383197ef0146041578063893d20e8146049578063f2fde38b14606b575b600080fd5b6047608e565b005b604f60b2565b604080516001600160a01b039092168252519081900360200190f35b604760048036036020811015607f57600080fd5b50356001600160a01b031660c1565b6000546001600160a01b0316331460a457600080fd5b6000546001600160a01b0316ff5b6000546001600160a01b031690565b6000546001600160a01b0316331460d757600080fd5b600080546001600160a01b0319166001600160a01b039290921691909117905556fea265627a7a72315820f49b1f6cdcf145170eb9dcb92beaed71b47ac91504369c7e6219c560c444dfc964736f6c63430005110032",
  "bytecodeSha1": "9067f8037aa8583f4a5764f74dece1564163e0d4",
  "compiler": {
    "evm_version": "istanbul",
    "optimizer": {
      "enabled": true,
      "runs": 200
    },
    "version": "0.5.17+commit.d19bba13"
  },
  "contractName": "unOptimizedContract100",
  "language": "Solidity",
  "natspec": {
    "methods": {}
  },
  "opcodes": "PUSH1 0x80 PUSH1 0x40 MSTORE CALLVALUE DUP1 ISZERO PUSH1 0xF JUMPI PUSH1 0x0 DUP1 REVERT JUMPDEST POP PUSH1 0x4 CALLDATASIZE LT PUSH1 0x3C JUMPI PUSH1 0x0 CALLDATALOAD PUSH1 0xE0 SHR DUP1 PUSH4 0x83197EF0 EQ PUSH1 0x41 JUMPI DUP1 PUSH4 0x893D20E8 EQ PUSH1 0x49 JUMPI DUP1 PUSH4 0xF2FDE38B EQ PUSH1 0x6B JUMPI JUMPDEST PUSH1 0x0 DUP1 REVERT JUMPDEST PUSH1 0x47 PUSH1 0x8E JUMP JUMPDEST STOP JUMPDEST PUSH1 0x4F PUSH1 0xB2 JUMP JUMPDEST PUSH1 0x40 DUP1 MLOAD PUSH1 0x1 PUSH1 0x1 PUSH1 0xA0 SHL SUB SWAP1 SWAP3 AND DUP3 MSTORE MLOAD SWAP1 DUP2 SWAP1 SUB PUSH1 0x20 ADD SWAP1 RETURN JUMPDEST PUSH1 0x47 PUSH1 0x4 DUP1 CALLDATASIZE SUB PUSH1 0x20 DUP2 LT ISZERO PUSH1 0x7F JUMPI PUSH1 0x0 DUP1 REVERT JUMPDEST POP CALLDATALOAD PUSH1 0x1 PUSH1 0x1 PUSH1 0xA0 SHL SUB AND PUSH1 0xC1 JUMP JUMPDEST PUSH1 0x0 SLOAD PUSH1 0x1 PUSH1 0x1 PUSH1 0xA0 SHL SUB AND CALLER EQ PUSH1 0xA4 JUMPI PUSH1 0x0 DUP1 REVERT JUMPDEST PUSH1 0x0 SLOAD PUSH1 0x1 PUSH1 0x1 PUSH1 0xA0 SHL SUB AND SELFDESTRUCT JUMPDEST PUSH1 0x0 SLOAD PUSH1 0x1 PUSH1 0x1 PUSH1 0xA0 SHL SUB AND SWAP1 JUMP JUMPDEST PUSH1 0x0 SLOAD PUSH1 0x1 PUSH1 0x1 PUSH1 0xA0 SHL SUB AND CALLER EQ PUSH1 0xD7 JUMPI PUSH1 0x0 DUP1 REVERT JUMPDEST PUSH1 0x0 DUP1 SLOAD PUSH1 0x1 PUSH1 0x1 PUSH1 0xA0 SHL SUB NOT AND PUSH1 0x1 PUSH1 0x1 PUSH1 0xA0 SHL SUB SWAP3 SWAP1 SWAP3 AND SWAP2 SWAP1 SWAP2 OR SWAP1 SSTORE JUMP INVALID LOG2 PUSH6 0x627A7A723158 KECCAK256 DELEGATECALL SWAP12 0x1F PUSH13 0xDCF145170EB9DCB92BEAED71B4 PUSH27 0xC91504369C7E6219C560C444DFC964736F6C634300051100320000 ",
  "sha1": "d68ebced596336214c7d84f38a8a50e867ba6a8e",
  "source": "pragma solidity ^0.5.0;\n\ncontract unOptimizedContract100 {\n    \n    address payable owner;\n    \n    constructor() public {\n        owner = msg.sender;\n    }\n    \n    function transferOwnership(address newOwner) public {\n        require(msg.sender == owner);\n        owner = address(uint160(newOwner));\n    }\n    \n    function getOwner() public view returns (address) {\n        return owner;\n    }\n    \n    function destroy() public {\n        require(msg.sender == owner);\n        selfdestruct(owner);\n    }\n    \n}",
  "sourcePath": "contracts/verifiable_contracts_gpt/UnOptimizedContract100.sol",
  "type": "contract"
}