{
  "abi": [
    {
      "inputs": [],
      "stateMutability": "nonpayable",
      "type": "constructor"
    },
    {
      "inputs": [],
      "name": "decreaseValue",
      "outputs": [],
      "stateMutability": "nonpayable",
      "type": "function"
    },
    {
      "inputs": [],
      "name": "increaseValue",
      "outputs": [],
      "stateMutability": "nonpayable",
      "type": "function"
    },
    {
      "inputs": [],
      "name": "value",
      "outputs": [
        {
          "internalType": "uint256",
          "name": "",
          "type": "uint256"
        }
      ],
      "stateMutability": "view",
      "type": "function"
    }
  ],
  "bytecode": "608060405234801561001057600080fd5b506000805560ba806100236000396000f3fe6080604052348015600f57600080fd5b5060043610603c5760003560e01c80632070bc981460415780633fa4f24514604957806340fc6a96146061575b600080fd5b60476067565b005b604f6073565b60408051918252519081900360200190f35b60476079565b60008054600019019055565b60005481565b60008054600101905556fea26469706673582212200db0e8f08439854db6256e404ecf13bb8cd153aff65dd03e08f8f4b970c966ce64736f6c634300060c0033",
  "bytecodeSha1": "8238bf002fe0c85893d19389a55d4c7fc5569944",
  "compiler": {
    "evm_version": "istanbul",
    "optimizer": {
      "enabled": true,
      "runs": 200
    },
    "version": "0.6.12+commit.27d51765"
  },
  "contractName": "unOptimizedContract103",
  "language": "Solidity",
  "natspec": {
    "kind": "dev",
    "methods": {},
    "version": 1
  },
  "opcodes": "PUSH1 0x80 PUSH1 0x40 MSTORE CALLVALUE DUP1 ISZERO PUSH1 0xF JUMPI PUSH1 0x0 DUP1 REVERT JUMPDEST POP PUSH1 0x4 CALLDATASIZE LT PUSH1 0x3C JUMPI PUSH1 0x0 CALLDATALOAD PUSH1 0xE0 SHR DUP1 PUSH4 0x2070BC98 EQ PUSH1 0x41 JUMPI DUP1 PUSH4 0x3FA4F245 EQ PUSH1 0x49 JUMPI DUP1 PUSH4 0x40FC6A96 EQ PUSH1 0x61 JUMPI JUMPDEST PUSH1 0x0 DUP1 REVERT JUMPDEST PUSH1 0x47 PUSH1 0x67 JUMP JUMPDEST STOP JUMPDEST PUSH1 0x4F PUSH1 0x73 JUMP JUMPDEST PUSH1 0x40 DUP1 MLOAD SWAP2 DUP3 MSTORE MLOAD SWAP1 DUP2 SWAP1 SUB PUSH1 0x20 ADD SWAP1 RETURN JUMPDEST PUSH1 0x47 PUSH1 0x79 JUMP JUMPDEST PUSH1 0x0 DUP1 SLOAD PUSH1 0x0 NOT ADD SWAP1 SSTORE JUMP JUMPDEST PUSH1 0x0 SLOAD DUP2 JUMP JUMPDEST PUSH1 0x0 DUP1 SLOAD PUSH1 0x1 ADD SWAP1 SSTORE JUMP INVALID LOG2 PUSH5 0x6970667358 0x22 SLT KECCAK256 0xD 0xB0 0xE8 CREATE DUP5 CODECOPY DUP6 0x4D 0xB6 0x25 PUSH15 0x404ECF13BB8CD153AFF65DD03E08F8 DELEGATECALL 0xB9 PUSH17 0xC966CE64736F6C634300060C0033000000 ",
  "sha1": "0bbb4e4adf3fab82c95c6efe3b784edef5ff4c92",
  "source": "pragma solidity ^0.6.6;\n\ncontract unOptimizedContract103 {\n    uint public value;\n\n    constructor() public {\n        value = 0;\n    }\n\n    function increaseValue() public {\n        value += 1;\n    }\n\n    function decreaseValue() public {\n        value -= 1;\n    }\n}",
  "sourcePath": "contracts/verifiable_contracts_gpt/UnOptimizedContract103.sol",
  "type": "contract"
}