{
  "abi": [
    {
      "inputs": [],
      "payable": false,
      "stateMutability": "nonpayable",
      "type": "constructor"
    },
    {
      "constant": true,
      "inputs": [],
      "name": "balance",
      "outputs": [
        {
          "internalType": "uint256",
          "name": "",
          "type": "uint256"
        }
      ],
      "payable": false,
      "stateMutability": "view",
      "type": "function"
    },
    {
      "constant": false,
      "inputs": [],
      "name": "deposit",
      "outputs": [],
      "payable": true,
      "stateMutability": "payable",
      "type": "function"
    },
    {
      "constant": true,
      "inputs": [],
      "name": "getBalance",
      "outputs": [
        {
          "internalType": "uint256",
          "name": "",
          "type": "uint256"
        }
      ],
      "payable": false,
      "stateMutability": "view",
      "type": "function"
    },
    {
      "constant": true,
      "inputs": [],
      "name": "owner",
      "outputs": [
        {
          "internalType": "address",
          "name": "",
          "type": "address"
        }
      ],
      "payable": false,
      "stateMutability": "view",
      "type": "function"
    },
    {
      "constant": false,
      "inputs": [
        {
          "internalType": "uint256",
          "name": "_amount",
          "type": "uint256"
        }
      ],
      "name": "withdraw",
      "outputs": [],
      "payable": false,
      "stateMutability": "nonpayable",
      "type": "function"
    }
  ],
  "bytecode": "608060405234801561001057600080fd5b50600080546001600160a01b031916331781556001556101a0806100356000396000f3fe60806040526004361061004a5760003560e01c806312065fe01461004f5780632e1a7d4d146100765780638da5cb5b146100a2578063b69ef8a8146100d3578063d0e30db0146100e8575b600080fd5b34801561005b57600080fd5b506100646100f0565b60408051918252519081900360200190f35b34801561008257600080fd5b506100a06004803603602081101561009957600080fd5b50356100f6565b005b3480156100ae57600080fd5b506100b761013f565b604080516001600160a01b039092168252519081900360200190f35b3480156100df57600080fd5b5061006461014e565b6100a0610154565b60015490565b80600154101561010557600080fd5b600180548290039055604051339082156108fc029083906000818181858888f1935050505015801561013b573d6000803e3d6000fd5b5050565b6000546001600160a01b031681565b60015481565b6000341161016157600080fd5b600180543401905556fea265627a7a7231582019f69d08870a67e3e9eae0685cb7b419d8052222ac338ccaaf361a9946a7544d64736f6c63430005110032",
  "bytecodeSha1": "a099ecdb015e8b1cb3d54488296e497660465080",
  "compiler": {
    "evm_version": "istanbul",
    "optimizer": {
      "enabled": true,
      "runs": 200
    },
    "version": "0.5.17+commit.d19bba13"
  },
  "contractName": "unOptimizedContract118",
  "language": "Solidity",
  "natspec": {
    "methods": {}
  },
  "opcodes": "PUSH1 0x80 PUSH1 0x40 MSTORE PUSH1 0x4 CALLDATASIZE LT PUSH2 0x4A JUMPI PUSH1 0x0 CALLDATALOAD PUSH1 0xE0 SHR DUP1 PUSH4 0x12065FE0 EQ PUSH2 0x4F JUMPI DUP1 PUSH4 0x2E1A7D4D EQ PUSH2 0x76 JUMPI DUP1 PUSH4 0x8DA5CB5B EQ PUSH2 0xA2 JUMPI DUP1 PUSH4 0xB69EF8A8 EQ PUSH2 0xD3 JUMPI DUP1 PUSH4 0xD0E30DB0 EQ PUSH2 0xE8 JUMPI JUMPDEST PUSH1 0x0 DUP1 REVERT JUMPDEST CALLVALUE DUP1 ISZERO PUSH2 0x5B JUMPI PUSH1 0x0 DUP1 REVERT JUMPDEST POP PUSH2 0x64 PUSH2 0xF0 JUMP JUMPDEST PUSH1 0x40 DUP1 MLOAD SWAP2 DUP3 MSTORE MLOAD SWAP1 DUP2 SWAP1 SUB PUSH1 0x20 ADD SWAP1 RETURN JUMPDEST CALLVALUE DUP1 ISZERO PUSH2 0x82 JUMPI PUSH1 0x0 DUP1 REVERT JUMPDEST POP PUSH2 0xA0 PUSH1 0x4 DUP1 CALLDATASIZE SUB PUSH1 0x20 DUP2 LT ISZERO PUSH2 0x99 JUMPI PUSH1 0x0 DUP1 REVERT JUMPDEST POP CALLDATALOAD PUSH2 0xF6 JUMP JUMPDEST STOP JUMPDEST CALLVALUE DUP1 ISZERO PUSH2 0xAE JUMPI PUSH1 0x0 DUP1 REVERT JUMPDEST POP PUSH2 0xB7 PUSH2 0x13F JUMP JUMPDEST PUSH1 0x40 DUP1 MLOAD PUSH1 0x1 PUSH1 0x1 PUSH1 0xA0 SHL SUB SWAP1 SWAP3 AND DUP3 MSTORE MLOAD SWAP1 DUP2 SWAP1 SUB PUSH1 0x20 ADD SWAP1 RETURN JUMPDEST CALLVALUE DUP1 ISZERO PUSH2 0xDF JUMPI PUSH1 0x0 DUP1 REVERT JUMPDEST POP PUSH2 0x64 PUSH2 0x14E JUMP JUMPDEST PUSH2 0xA0 PUSH2 0x154 JUMP JUMPDEST PUSH1 0x1 SLOAD SWAP1 JUMP JUMPDEST DUP1 PUSH1 0x1 SLOAD LT ISZERO PUSH2 0x105 JUMPI PUSH1 0x0 DUP1 REVERT JUMPDEST PUSH1 0x1 DUP1 SLOAD DUP3 SWAP1 SUB SWAP1 SSTORE PUSH1 0x40 MLOAD CALLER SWAP1 DUP3 ISZERO PUSH2 0x8FC MUL SWAP1 DUP4 SWAP1 PUSH1 0x0 DUP2 DUP2 DUP2 DUP6 DUP9 DUP9 CALL SWAP4 POP POP POP POP ISZERO DUP1 ISZERO PUSH2 0x13B JUMPI RETURNDATASIZE PUSH1 0x0 DUP1 RETURNDATACOPY RETURNDATASIZE PUSH1 0x0 REVERT JUMPDEST POP POP JUMP JUMPDEST PUSH1 0x0 SLOAD PUSH1 0x1 PUSH1 0x1 PUSH1 0xA0 SHL SUB AND DUP2 JUMP JUMPDEST PUSH1 0x1 SLOAD DUP2 JUMP JUMPDEST PUSH1 0x0 CALLVALUE GT PUSH2 0x161 JUMPI PUSH1 0x0 DUP1 REVERT JUMPDEST PUSH1 0x1 DUP1 SLOAD CALLVALUE ADD SWAP1 SSTORE JUMP INVALID LOG2 PUSH6 0x627A7A723158 KECCAK256 NOT 0xF6 SWAP14 ADDMOD DUP8 EXP PUSH8 0xE3E9EAE0685CB7B4 NOT 0xD8 SDIV 0x22 0x22 0xAC CALLER DUP13 0xCA 0xAF CALLDATASIZE BYTE SWAP10 CHAINID 0xA7 SLOAD 0x4D PUSH5 0x736F6C6343 STOP SDIV GT STOP ORIGIN ",
  "sha1": "0d92997e162a5235f2cf850c82f1e0b508066013",
  "source": "pragma solidity ^0.5.0;\n\ncontract unOptimizedContract118 {\n\n    address public owner;\n    uint256 public balance;\n\n    constructor() public {\n        owner = msg.sender;\n        balance = 0;\n    }\n\n    function deposit() public payable {\n        require(msg.value > 0);\n        balance += msg.value;\n    }\n\n    function withdraw(uint256 _amount) public {\n        require(balance >= _amount);\n        balance -= _amount;\n        msg.sender.transfer(_amount);\n    }\n\n    function getBalance() public view returns (uint256) {\n        return balance;\n    }\n\n}",
  "sourcePath": "contracts/unOptimized_contracts/UnOptimizedContract118.sol",
  "type": "contract"
}