{
  "abi": [
    {
      "inputs": [],
      "name": "decrementValue",
      "outputs": [],
      "stateMutability": "nonpayable",
      "type": "function"
    },
    {
      "inputs": [],
      "name": "getValue",
      "outputs": [
        {
          "internalType": "uint256",
          "name": "",
          "type": "uint256"
        }
      ],
      "stateMutability": "view",
      "type": "function"
    },
    {
      "inputs": [],
      "name": "incrementValue",
      "outputs": [],
      "stateMutability": "nonpayable",
      "type": "function"
    },
    {
      "inputs": [
        {
          "internalType": "uint256",
          "name": "_value",
          "type": "uint256"
        }
      ],
      "name": "setValue",
      "outputs": [],
      "stateMutability": "nonpayable",
      "type": "function"
    }
  ],
  "bytecode": "608060405234801561001057600080fd5b5060e38061001f6000396000f3fe6080604052348015600f57600080fd5b506004361060465760003560e01c806316b7819114604b578063209652551460535780633bfd7fd314606b57806355241077146071575b600080fd5b6051608b565b005b60596097565b60408051918252519081900360200190f35b6051609d565b605160048036036020811015608557600080fd5b503560a8565b60008054600019019055565b60005490565b600080546001019055565b60005556fea264697066735822122027ec8503ffbd9d575923b2c4c249180177ad2b75c5b2b815e352011f9862ac1464736f6c634300060c0033",
  "bytecodeSha1": "0b97af4c29c3bc035ec6f5c948d830d64a1f0830",
  "compiler": {
    "evm_version": "istanbul",
    "optimizer": {
      "enabled": true,
      "runs": 200
    },
    "version": "0.6.12+commit.27d51765"
  },
  "contractName": "unOptimizedContract72",
  "language": "Solidity",
  "natspec": {
    "kind": "dev",
    "methods": {},
    "version": 1
  },
  "opcodes": "PUSH1 0x80 PUSH1 0x40 MSTORE CALLVALUE DUP1 ISZERO PUSH1 0xF JUMPI PUSH1 0x0 DUP1 REVERT JUMPDEST POP PUSH1 0x4 CALLDATASIZE LT PUSH1 0x46 JUMPI PUSH1 0x0 CALLDATALOAD PUSH1 0xE0 SHR DUP1 PUSH4 0x16B78191 EQ PUSH1 0x4B JUMPI DUP1 PUSH4 0x20965255 EQ PUSH1 0x53 JUMPI DUP1 PUSH4 0x3BFD7FD3 EQ PUSH1 0x6B JUMPI DUP1 PUSH4 0x55241077 EQ PUSH1 0x71 JUMPI JUMPDEST PUSH1 0x0 DUP1 REVERT JUMPDEST PUSH1 0x51 PUSH1 0x8B JUMP JUMPDEST STOP JUMPDEST PUSH1 0x59 PUSH1 0x97 JUMP JUMPDEST PUSH1 0x40 DUP1 MLOAD SWAP2 DUP3 MSTORE MLOAD SWAP1 DUP2 SWAP1 SUB PUSH1 0x20 ADD SWAP1 RETURN JUMPDEST PUSH1 0x51 PUSH1 0x9D JUMP JUMPDEST PUSH1 0x51 PUSH1 0x4 DUP1 CALLDATASIZE SUB PUSH1 0x20 DUP2 LT ISZERO PUSH1 0x85 JUMPI PUSH1 0x0 DUP1 REVERT JUMPDEST POP CALLDATALOAD PUSH1 0xA8 JUMP JUMPDEST PUSH1 0x0 DUP1 SLOAD PUSH1 0x0 NOT ADD SWAP1 SSTORE JUMP JUMPDEST PUSH1 0x0 SLOAD SWAP1 JUMP JUMPDEST PUSH1 0x0 DUP1 SLOAD PUSH1 0x1 ADD SWAP1 SSTORE JUMP JUMPDEST PUSH1 0x0 SSTORE JUMP INVALID LOG2 PUSH5 0x6970667358 0x22 SLT KECCAK256 0x27 0xEC DUP6 SUB SELFDESTRUCT 0xBD SWAP14 JUMPI MSIZE 0x23 0xB2 0xC4 0xC2 0x49 XOR ADD PUSH24 0xAD2B75C5B2B815E352011F9862AC1464736F6C634300060C STOP CALLER ",
  "sha1": "7eb31bb08d62329587ed68e041a7aee2e19a0c77",
  "source": "pragma solidity ^0.6.6;\n\ncontract unOptimizedContract72 {\n    \n    uint private value;\n    \n    function setValue(uint _value) public {\n        value = _value;\n    }\n    \n    function getValue() public view returns (uint) {\n        return value;\n    }\n    \n    function incrementValue() public {\n        value++;\n    }\n    \n    function decrementValue() public {\n        value--;\n    }\n}",
  "sourcePath": "contracts/unOptimized_contracts/UnOptimizedContract72.sol",
  "type": "contract"
}