{
  "abi": [
    {
      "inputs": [],
      "name": "counter",
      "outputs": [
        {
          "internalType": "uint256",
          "name": "",
          "type": "uint256"
        }
      ],
      "stateMutability": "view",
      "type": "function"
    },
    {
      "inputs": [],
      "name": "getCounter",
      "outputs": [
        {
          "internalType": "uint256",
          "name": "",
          "type": "uint256"
        }
      ],
      "stateMutability": "view",
      "type": "function"
    },
    {
      "inputs": [],
      "name": "increment",
      "outputs": [],
      "stateMutability": "nonpayable",
      "type": "function"
    }
  ],
  "bytecode": "608060405234801561001057600080fd5b5060b48061001f6000396000f3fe6080604052348015600f57600080fd5b5060043610603c5760003560e01c806361bc221a1460415780638ada066e146059578063d09de08a14605f575b600080fd5b60476067565b60408051918252519081900360200190f35b6047606d565b60656073565b005b60005481565b60005490565b60008054600101905556fea264697066735822122016f415a82ab8c8c033a7f58249099f3245ff530751205ae5779dea80e2b2abb264736f6c634300060c0033",
  "bytecodeSha1": "9c1936192f6b42fbccb3c97ae83c2138966a7d3a",
  "compiler": {
    "evm_version": "istanbul",
    "optimizer": {
      "enabled": true,
      "runs": 200
    },
    "version": "0.6.12+commit.27d51765"
  },
  "contractName": "unOptimizedContract75",
  "language": "Solidity",
  "natspec": {
    "kind": "dev",
    "methods": {},
    "version": 1
  },
  "opcodes": "PUSH1 0x80 PUSH1 0x40 MSTORE CALLVALUE DUP1 ISZERO PUSH1 0xF JUMPI PUSH1 0x0 DUP1 REVERT JUMPDEST POP PUSH1 0x4 CALLDATASIZE LT PUSH1 0x3C JUMPI PUSH1 0x0 CALLDATALOAD PUSH1 0xE0 SHR DUP1 PUSH4 0x61BC221A EQ PUSH1 0x41 JUMPI DUP1 PUSH4 0x8ADA066E EQ PUSH1 0x59 JUMPI DUP1 PUSH4 0xD09DE08A EQ PUSH1 0x5F JUMPI JUMPDEST PUSH1 0x0 DUP1 REVERT JUMPDEST PUSH1 0x47 PUSH1 0x67 JUMP JUMPDEST PUSH1 0x40 DUP1 MLOAD SWAP2 DUP3 MSTORE MLOAD SWAP1 DUP2 SWAP1 SUB PUSH1 0x20 ADD SWAP1 RETURN JUMPDEST PUSH1 0x47 PUSH1 0x6D JUMP JUMPDEST PUSH1 0x65 PUSH1 0x73 JUMP JUMPDEST STOP JUMPDEST PUSH1 0x0 SLOAD DUP2 JUMP JUMPDEST PUSH1 0x0 SLOAD SWAP1 JUMP JUMPDEST PUSH1 0x0 DUP1 SLOAD PUSH1 0x1 ADD SWAP1 SSTORE JUMP INVALID LOG2 PUSH5 0x6970667358 0x22 SLT KECCAK256 AND DELEGATECALL ISZERO 0xA8 0x2A 0xB8 0xC8 0xC0 CALLER 0xA7 CREATE2 DUP3 0x49 MULMOD SWAP16 ORIGIN GASLIMIT SELFDESTRUCT MSTORE8 SMOD MLOAD KECCAK256 GAS 0xE5 PUSH24 0x9DEA80E2B2ABB264736F6C634300060C0033000000000000 ",
  "sha1": "e6d0b1cc55c57700229877e2768f88e855d01bb6",
  "source": "pragma solidity ^0.6.0;\n\ncontract unOptimizedContract75 {\n    uint public counter;\n    \n    function increment() public {\n        counter++;\n    }\n    \n    function getCounter() public view returns (uint) {\n        return counter;\n    }\n}",
  "sourcePath": "contracts/verifiable_contracts_gpt/UnOptimizedContract75.sol",
  "type": "contract"
}