{
  "abi": [
    {
      "inputs": [],
      "stateMutability": "nonpayable",
      "type": "constructor"
    },
    {
      "inputs": [],
      "name": "balance",
      "outputs": [
        {
          "internalType": "uint256",
          "name": "",
          "type": "uint256"
        }
      ],
      "stateMutability": "view",
      "type": "function"
    },
    {
      "inputs": [],
      "name": "owner",
      "outputs": [
        {
          "internalType": "address",
          "name": "",
          "type": "address"
        }
      ],
      "stateMutability": "view",
      "type": "function"
    },
    {
      "inputs": [],
      "name": "withdraw",
      "outputs": [],
      "stateMutability": "nonpayable",
      "type": "function"
    },
    {
      "stateMutability": "payable",
      "type": "receive"
    }
  ],
  "bytecode": "608060405234801561001057600080fd5b50600080546001600160a01b03191633178155600155610153806100356000396000f3fe6080604052600436106100385760003560e01c80633ccfd60b1461004c5780638da5cb5b14610063578063b69ef8a81461009457610047565b36610047576001805434019055005b600080fd5b34801561005857600080fd5b506100616100bb565b005b34801561006f57600080fd5b50610078610108565b604080516001600160a01b039092168252519081900360200190f35b3480156100a057600080fd5b506100a9610117565b60408051918252519081900360200190f35b6000546001600160a01b031633146100d257600080fd5b600154604051339180156108fc02916000818181858888f19350505050158015610100573d6000803e3d6000fd5b506000600155565b6000546001600160a01b031681565b6001548156fea2646970667358221220fc2144b2210dc2caf9c725fd8f44392c5f2697daf5bb9aa00d2441a4cc08724c64736f6c634300060c0033",
  "bytecodeSha1": "3d84b64bc2da4a8934d4b9ed48645e6baf7475cd",
  "compiler": {
    "evm_version": "istanbul",
    "optimizer": {
      "enabled": true,
      "runs": 200
    },
    "version": "0.6.12+commit.27d51765"
  },
  "contractName": "unOptimizedContract78",
  "language": "Solidity",
  "natspec": {
    "kind": "dev",
    "methods": {},
    "version": 1
  },
  "opcodes": "PUSH1 0x80 PUSH1 0x40 MSTORE PUSH1 0x4 CALLDATASIZE LT PUSH2 0x38 JUMPI PUSH1 0x0 CALLDATALOAD PUSH1 0xE0 SHR DUP1 PUSH4 0x3CCFD60B EQ PUSH2 0x4C JUMPI DUP1 PUSH4 0x8DA5CB5B EQ PUSH2 0x63 JUMPI DUP1 PUSH4 0xB69EF8A8 EQ PUSH2 0x94 JUMPI PUSH2 0x47 JUMP JUMPDEST CALLDATASIZE PUSH2 0x47 JUMPI PUSH1 0x1 DUP1 SLOAD CALLVALUE ADD SWAP1 SSTORE STOP JUMPDEST PUSH1 0x0 DUP1 REVERT JUMPDEST CALLVALUE DUP1 ISZERO PUSH2 0x58 JUMPI PUSH1 0x0 DUP1 REVERT JUMPDEST POP PUSH2 0x61 PUSH2 0xBB JUMP JUMPDEST STOP JUMPDEST CALLVALUE DUP1 ISZERO PUSH2 0x6F JUMPI PUSH1 0x0 DUP1 REVERT JUMPDEST POP PUSH2 0x78 PUSH2 0x108 JUMP JUMPDEST PUSH1 0x40 DUP1 MLOAD PUSH1 0x1 PUSH1 0x1 PUSH1 0xA0 SHL SUB SWAP1 SWAP3 AND DUP3 MSTORE MLOAD SWAP1 DUP2 SWAP1 SUB PUSH1 0x20 ADD SWAP1 RETURN JUMPDEST CALLVALUE DUP1 ISZERO PUSH2 0xA0 JUMPI PUSH1 0x0 DUP1 REVERT JUMPDEST POP PUSH2 0xA9 PUSH2 0x117 JUMP JUMPDEST PUSH1 0x40 DUP1 MLOAD SWAP2 DUP3 MSTORE MLOAD SWAP1 DUP2 SWAP1 SUB PUSH1 0x20 ADD SWAP1 RETURN JUMPDEST PUSH1 0x0 SLOAD PUSH1 0x1 PUSH1 0x1 PUSH1 0xA0 SHL SUB AND CALLER EQ PUSH2 0xD2 JUMPI PUSH1 0x0 DUP1 REVERT JUMPDEST PUSH1 0x1 SLOAD PUSH1 0x40 MLOAD CALLER SWAP2 DUP1 ISZERO PUSH2 0x8FC MUL SWAP2 PUSH1 0x0 DUP2 DUP2 DUP2 DUP6 DUP9 DUP9 CALL SWAP4 POP POP POP POP ISZERO DUP1 ISZERO PUSH2 0x100 JUMPI RETURNDATASIZE PUSH1 0x0 DUP1 RETURNDATACOPY RETURNDATASIZE PUSH1 0x0 REVERT JUMPDEST POP PUSH1 0x0 PUSH1 0x1 SSTORE JUMP JUMPDEST PUSH1 0x0 SLOAD PUSH1 0x1 PUSH1 0x1 PUSH1 0xA0 SHL SUB AND DUP2 JUMP JUMPDEST PUSH1 0x1 SLOAD DUP2 JUMP INVALID LOG2 PUSH5 0x6970667358 0x22 SLT KECCAK256 0xFC 0x21 DIFFICULTY 0xB2 0x21 0xD 0xC2 0xCA 0xF9 0xC7 0x25 REVERT DUP16 DIFFICULTY CODECOPY 0x2C 0x5F 0x26 SWAP8 0xDA CREATE2 0xBB SWAP11 LOG0 0xD 0x24 COINBASE LOG4 0xCC ADDMOD PUSH19 0x4C64736F6C634300060C003300000000000000 ",
  "sha1": "caa8dc94cae85c5c238bb6f6cefa8d9c7508ebd4",
  "source": "pragma solidity ^0.6.0;\n\ncontract unOptimizedContract78 {\n    // Declare state variables\n    address public owner;\n    uint public balance;\n    \n    // Constructor\n    constructor() public {\n        owner = msg.sender;\n        balance = 0;\n    }\n    \n    // Fallback function\n    receive() external payable {\n        balance += msg.value;\n    }\n    \n    // Withdraw function\n    function withdraw() public {\n        require(msg.sender == owner);\n        msg.sender.transfer(balance);\n        balance = 0;\n    }\n}",
  "sourcePath": "contracts/unOptimized_contracts/UnOptimizedContract78.sol",
  "type": "contract"
}