{
  "abi": [
    {
      "constant": true,
      "inputs": [],
      "name": "count",
      "outputs": [
        {
          "internalType": "uint256",
          "name": "",
          "type": "uint256"
        }
      ],
      "payable": false,
      "stateMutability": "view",
      "type": "function"
    },
    {
      "constant": false,
      "inputs": [],
      "name": "decrement",
      "outputs": [],
      "payable": false,
      "stateMutability": "nonpayable",
      "type": "function"
    },
    {
      "constant": true,
      "inputs": [],
      "name": "getCount",
      "outputs": [
        {
          "internalType": "uint256",
          "name": "",
          "type": "uint256"
        }
      ],
      "payable": false,
      "stateMutability": "view",
      "type": "function"
    },
    {
      "constant": false,
      "inputs": [],
      "name": "increment",
      "outputs": [],
      "payable": false,
      "stateMutability": "nonpayable",
      "type": "function"
    },
    {
      "constant": false,
      "inputs": [
        {
          "internalType": "uint256",
          "name": "_count",
          "type": "uint256"
        }
      ],
      "name": "setCount",
      "outputs": [],
      "payable": false,
      "stateMutability": "nonpayable",
      "type": "function"
    }
  ],
  "bytecode": "608060405234801561001057600080fd5b5060f88061001f6000396000f3fe6080604052348015600f57600080fd5b506004361060505760003560e01c806306661abd1460555780632baeceb714606d578063a87d942c146075578063d09de08a14607b578063d14e62b8146081575b600080fd5b605b609b565b60408051918252519081900360200190f35b607360a1565b005b605b60ad565b607360b3565b607360048036036020811015609557600080fd5b503560be565b60005481565b60008054600019019055565b60005490565b600080546001019055565b60005556fea265627a7a72315820cf6040e336c40d34ca700fc55c322732a4f80ab64ec2a3220edc7d0b5112d5b664736f6c63430005110032",
  "bytecodeSha1": "2704b95c003c823b9987905ef4ca15b4d8ce58d1",
  "compiler": {
    "evm_version": "istanbul",
    "optimizer": {
      "enabled": true,
      "runs": 200
    },
    "version": "0.5.17+commit.d19bba13"
  },
  "contractName": "unOptimizedContract111",
  "language": "Solidity",
  "natspec": {
    "methods": {}
  },
  "opcodes": "PUSH1 0x80 PUSH1 0x40 MSTORE CALLVALUE DUP1 ISZERO PUSH1 0xF JUMPI PUSH1 0x0 DUP1 REVERT JUMPDEST POP PUSH1 0x4 CALLDATASIZE LT PUSH1 0x50 JUMPI PUSH1 0x0 CALLDATALOAD PUSH1 0xE0 SHR DUP1 PUSH4 0x6661ABD EQ PUSH1 0x55 JUMPI DUP1 PUSH4 0x2BAECEB7 EQ PUSH1 0x6D JUMPI DUP1 PUSH4 0xA87D942C EQ PUSH1 0x75 JUMPI DUP1 PUSH4 0xD09DE08A EQ PUSH1 0x7B JUMPI DUP1 PUSH4 0xD14E62B8 EQ PUSH1 0x81 JUMPI JUMPDEST PUSH1 0x0 DUP1 REVERT JUMPDEST PUSH1 0x5B PUSH1 0x9B JUMP JUMPDEST PUSH1 0x40 DUP1 MLOAD SWAP2 DUP3 MSTORE MLOAD SWAP1 DUP2 SWAP1 SUB PUSH1 0x20 ADD SWAP1 RETURN JUMPDEST PUSH1 0x73 PUSH1 0xA1 JUMP JUMPDEST STOP JUMPDEST PUSH1 0x5B PUSH1 0xAD JUMP JUMPDEST PUSH1 0x73 PUSH1 0xB3 JUMP JUMPDEST PUSH1 0x73 PUSH1 0x4 DUP1 CALLDATASIZE SUB PUSH1 0x20 DUP2 LT ISZERO PUSH1 0x95 JUMPI PUSH1 0x0 DUP1 REVERT JUMPDEST POP CALLDATALOAD PUSH1 0xBE JUMP JUMPDEST PUSH1 0x0 SLOAD DUP2 JUMP JUMPDEST PUSH1 0x0 DUP1 SLOAD PUSH1 0x0 NOT ADD SWAP1 SSTORE JUMP JUMPDEST PUSH1 0x0 SLOAD SWAP1 JUMP JUMPDEST PUSH1 0x0 DUP1 SLOAD PUSH1 0x1 ADD SWAP1 SSTORE JUMP JUMPDEST PUSH1 0x0 SSTORE JUMP INVALID LOG2 PUSH6 0x627A7A723158 KECCAK256 0xCF PUSH1 0x40 0xE3 CALLDATASIZE 0xC4 0xD CALLVALUE 0xCA PUSH17 0xFC55C322732A4F80AB64EC2A3220EDC7D SIGNEXTEND MLOAD SLT 0xD5 0xB6 PUSH5 0x736F6C6343 STOP SDIV GT STOP ORIGIN ",
  "sha1": "a5be32a85fb3024b352d1228da9533d7074ecf14",
  "source": "pragma solidity ^0.5.0;\n\ncontract unOptimizedContract111 {\n    uint public count;\n\n    function increment() public {\n        count++;\n    }\n\n    function decrement() public {\n        count--;\n    }\n\n    function setCount(uint _count) public {\n        count = _count;\n    }\n\n    function getCount() public view returns (uint) {\n        return count;\n    }\n}",
  "sourcePath": "contracts/unOptimized_contracts/UnOptimizedContract111.sol",
  "type": "contract"
}