{
  "abi": [
    {
      "inputs": [],
      "payable": false,
      "stateMutability": "nonpayable",
      "type": "constructor"
    },
    {
      "constant": true,
      "inputs": [],
      "name": "balance",
      "outputs": [
        {
          "internalType": "uint256",
          "name": "",
          "type": "uint256"
        }
      ],
      "payable": false,
      "stateMutability": "view",
      "type": "function"
    },
    {
      "constant": false,
      "inputs": [
        {
          "internalType": "uint256",
          "name": "_amount",
          "type": "uint256"
        }
      ],
      "name": "deposit",
      "outputs": [],
      "payable": false,
      "stateMutability": "nonpayable",
      "type": "function"
    },
    {
      "constant": true,
      "inputs": [],
      "name": "getBalance",
      "outputs": [
        {
          "internalType": "uint256",
          "name": "",
          "type": "uint256"
        }
      ],
      "payable": false,
      "stateMutability": "view",
      "type": "function"
    },
    {
      "constant": false,
      "inputs": [
        {
          "internalType": "uint256",
          "name": "_amount",
          "type": "uint256"
        }
      ],
      "name": "withdraw",
      "outputs": [],
      "payable": false,
      "stateMutability": "nonpayable",
      "type": "function"
    }
  ],
  "bytecode": "608060405234801561001057600080fd5b5060008055610155806100246000396000f3fe608060405234801561001057600080fd5b506004361061004c5760003560e01c806312065fe0146100515780632e1a7d4d1461006b578063b69ef8a81461008a578063b6b55f2514610092575b600080fd5b6100596100af565b60408051918252519081900360200190f35b6100886004803603602081101561008157600080fd5b50356100b5565b005b61005961010f565b610088600480360360208110156100a857600080fd5b5035610115565b60005490565b806000541015610103576040805162461bcd60e51b8152602060048201526014602482015273496e73756666696369656e742062616c616e636560601b604482015290519081900360640190fd5b60008054919091039055565b60005481565b60008054909101905556fea265627a7a7231582089730302553b557c621c62c048bab5c6e0b18781346222e45b4c82b66e9eaa1f64736f6c63430005110032",
  "bytecodeSha1": "d9db1c54d9bc0bd69ffd3b2ddee7b63a277a726f",
  "compiler": {
    "evm_version": "istanbul",
    "optimizer": {
      "enabled": true,
      "runs": 200
    },
    "version": "0.5.17+commit.d19bba13"
  },
  "contractName": "unOptimizedContract82",
  "language": "Solidity",
  "natspec": {
    "methods": {}
  },
  "opcodes": "PUSH1 0x80 PUSH1 0x40 MSTORE CALLVALUE DUP1 ISZERO PUSH2 0x10 JUMPI PUSH1 0x0 DUP1 REVERT JUMPDEST POP PUSH1 0x4 CALLDATASIZE LT PUSH2 0x4C JUMPI PUSH1 0x0 CALLDATALOAD PUSH1 0xE0 SHR DUP1 PUSH4 0x12065FE0 EQ PUSH2 0x51 JUMPI DUP1 PUSH4 0x2E1A7D4D EQ PUSH2 0x6B JUMPI DUP1 PUSH4 0xB69EF8A8 EQ PUSH2 0x8A JUMPI DUP1 PUSH4 0xB6B55F25 EQ PUSH2 0x92 JUMPI JUMPDEST PUSH1 0x0 DUP1 REVERT JUMPDEST PUSH2 0x59 PUSH2 0xAF JUMP JUMPDEST PUSH1 0x40 DUP1 MLOAD SWAP2 DUP3 MSTORE MLOAD SWAP1 DUP2 SWAP1 SUB PUSH1 0x20 ADD SWAP1 RETURN JUMPDEST PUSH2 0x88 PUSH1 0x4 DUP1 CALLDATASIZE SUB PUSH1 0x20 DUP2 LT ISZERO PUSH2 0x81 JUMPI PUSH1 0x0 DUP1 REVERT JUMPDEST POP CALLDATALOAD PUSH2 0xB5 JUMP JUMPDEST STOP JUMPDEST PUSH2 0x59 PUSH2 0x10F JUMP JUMPDEST PUSH2 0x88 PUSH1 0x4 DUP1 CALLDATASIZE SUB PUSH1 0x20 DUP2 LT ISZERO PUSH2 0xA8 JUMPI PUSH1 0x0 DUP1 REVERT JUMPDEST POP CALLDATALOAD PUSH2 0x115 JUMP JUMPDEST PUSH1 0x0 SLOAD SWAP1 JUMP JUMPDEST DUP1 PUSH1 0x0 SLOAD LT ISZERO PUSH2 0x103 JUMPI PUSH1 0x40 DUP1 MLOAD PUSH3 0x461BCD PUSH1 0xE5 SHL DUP2 MSTORE PUSH1 0x20 PUSH1 0x4 DUP3 ADD MSTORE PUSH1 0x14 PUSH1 0x24 DUP3 ADD MSTORE PUSH20 0x496E73756666696369656E742062616C616E6365 PUSH1 0x60 SHL PUSH1 0x44 DUP3 ADD MSTORE SWAP1 MLOAD SWAP1 DUP2 SWAP1 SUB PUSH1 0x64 ADD SWAP1 REVERT JUMPDEST PUSH1 0x0 DUP1 SLOAD SWAP2 SWAP1 SWAP2 SUB SWAP1 SSTORE JUMP JUMPDEST PUSH1 0x0 SLOAD DUP2 JUMP JUMPDEST PUSH1 0x0 DUP1 SLOAD SWAP1 SWAP2 ADD SWAP1 SSTORE JUMP INVALID LOG2 PUSH6 0x627A7A723158 KECCAK256 DUP10 PUSH20 0x302553B557C621C62C048BAB5C6E0B187813462 0x22 0xE4 JUMPDEST 0x4C DUP3 0xB6 PUSH15 0x9EAA1F64736F6C6343000511003200 ",
  "sha1": "69cf92f4ce63d8e31cdeb36d4647291cd6c6eb86",
  "source": "pragma solidity ^0.5.0;\n\ncontract unOptimizedContract82 {\n  \n  // Variables\n  uint256 public balance;\n  \n  // Constructor\n  constructor() public {\n    balance = 0;\n  }\n  \n  // Deposit function\n  function deposit(uint256 _amount) public {\n    balance += _amount;\n  }\n  \n  // Withdraw function\n  function withdraw(uint256 _amount) public {\n    require(balance >= _amount, \"Insufficient balance\");\n    balance -= _amount;\n  }\n  \n  // Get balance\n  function getBalance() public view returns (uint256) {\n    return balance;\n  }\n  \n}",
  "sourcePath": "contracts/unOptimized_contracts/UnOptimizedContract82.sol",
  "type": "contract"
}