{
  "abi": [
    {
      "inputs": [],
      "payable": false,
      "stateMutability": "nonpayable",
      "type": "constructor"
    },
    {
      "constant": true,
      "inputs": [],
      "name": "counter",
      "outputs": [
        {
          "internalType": "uint256",
          "name": "",
          "type": "uint256"
        }
      ],
      "payable": false,
      "stateMutability": "view",
      "type": "function"
    },
    {
      "constant": true,
      "inputs": [],
      "name": "getCounter",
      "outputs": [
        {
          "internalType": "uint256",
          "name": "",
          "type": "uint256"
        }
      ],
      "payable": false,
      "stateMutability": "view",
      "type": "function"
    },
    {
      "constant": false,
      "inputs": [],
      "name": "incrementCounter",
      "outputs": [],
      "payable": false,
      "stateMutability": "nonpayable",
      "type": "function"
    }
  ],
  "bytecode": "608060405234801561001057600080fd5b506000805560b3806100236000396000f3fe6080604052348015600f57600080fd5b5060043610603c5760003560e01c80635b34b96614604157806361bc221a1460495780638ada066e146061575b600080fd5b60476067565b005b604f6072565b60408051918252519081900360200190f35b604f6078565b600080546001019055565b60005481565b6000549056fea265627a7a723158203a99a34eacc03e5c191a18867116f69685c0dc5c78bb1f219ee55d6919e545a364736f6c63430005110032",
  "bytecodeSha1": "f97a74546863071612c67e10948480a45863d6be",
  "compiler": {
    "evm_version": "istanbul",
    "optimizer": {
      "enabled": true,
      "runs": 200
    },
    "version": "0.5.17+commit.d19bba13"
  },
  "contractName": "unOptimizedContract112",
  "language": "Solidity",
  "natspec": {
    "methods": {}
  },
  "opcodes": "PUSH1 0x80 PUSH1 0x40 MSTORE CALLVALUE DUP1 ISZERO PUSH1 0xF JUMPI PUSH1 0x0 DUP1 REVERT JUMPDEST POP PUSH1 0x4 CALLDATASIZE LT PUSH1 0x3C JUMPI PUSH1 0x0 CALLDATALOAD PUSH1 0xE0 SHR DUP1 PUSH4 0x5B34B966 EQ PUSH1 0x41 JUMPI DUP1 PUSH4 0x61BC221A EQ PUSH1 0x49 JUMPI DUP1 PUSH4 0x8ADA066E EQ PUSH1 0x61 JUMPI JUMPDEST PUSH1 0x0 DUP1 REVERT JUMPDEST PUSH1 0x47 PUSH1 0x67 JUMP JUMPDEST STOP JUMPDEST PUSH1 0x4F PUSH1 0x72 JUMP JUMPDEST PUSH1 0x40 DUP1 MLOAD SWAP2 DUP3 MSTORE MLOAD SWAP1 DUP2 SWAP1 SUB PUSH1 0x20 ADD SWAP1 RETURN JUMPDEST PUSH1 0x4F PUSH1 0x78 JUMP JUMPDEST PUSH1 0x0 DUP1 SLOAD PUSH1 0x1 ADD SWAP1 SSTORE JUMP JUMPDEST PUSH1 0x0 SLOAD DUP2 JUMP JUMPDEST PUSH1 0x0 SLOAD SWAP1 JUMP INVALID LOG2 PUSH6 0x627A7A723158 KECCAK256 GASPRICE SWAP10 LOG3 0x4E 0xAC 0xC0 RETURNDATACOPY 0x5C NOT BYTE XOR DUP7 PUSH18 0x16F69685C0DC5C78BB1F219EE55D6919E545 LOG3 PUSH5 0x736F6C6343 STOP SDIV GT STOP ORIGIN ",
  "sha1": "ed5a377adf5c65c4574250a2d21eb5d58fce3be5",
  "source": "pragma solidity ^0.5.0;\n\ncontract unOptimizedContract112 {\n    uint public counter;\n\n    // Constructor\n    constructor() public {\n        counter = 0;\n    }\n\n    // Increment counter\n    function incrementCounter() public {\n        counter++;\n    }\n\n    // Get current counter value\n    function getCounter() public view returns (uint) {\n        return counter;\n    }\n}",
  "sourcePath": "contracts/verifiable_contracts_gpt/UnOptimizedContract112.sol",
  "type": "contract"
}