{
  "abi": [
    {
      "inputs": [],
      "payable": false,
      "stateMutability": "nonpayable",
      "type": "constructor"
    },
    {
      "constant": false,
      "inputs": [],
      "name": "decrementValue",
      "outputs": [],
      "payable": false,
      "stateMutability": "nonpayable",
      "type": "function"
    },
    {
      "constant": false,
      "inputs": [],
      "name": "incrementValue",
      "outputs": [],
      "payable": false,
      "stateMutability": "nonpayable",
      "type": "function"
    },
    {
      "constant": true,
      "inputs": [],
      "name": "value",
      "outputs": [
        {
          "internalType": "uint256",
          "name": "",
          "type": "uint256"
        }
      ],
      "payable": false,
      "stateMutability": "view",
      "type": "function"
    }
  ],
  "bytecode": "608060405234801561001057600080fd5b506000805560b9806100236000396000f3fe6080604052348015600f57600080fd5b5060043610603c5760003560e01c806316b781911460415780633bfd7fd31460495780633fa4f24514604f575b600080fd5b60476067565b005b60476073565b6055607e565b60408051918252519081900360200190f35b60008054600019019055565b600080546001019055565b6000548156fea265627a7a72315820eaf686b7c6445978bc1fa2b2e74e680888ddb9d20b11a657ae4ce0b12a4a423664736f6c63430005110032",
  "bytecodeSha1": "2c7daefe687ad432b5a3d6f5803901765edb227e",
  "compiler": {
    "evm_version": "istanbul",
    "optimizer": {
      "enabled": true,
      "runs": 200
    },
    "version": "0.5.17+commit.d19bba13"
  },
  "contractName": "unOptimizedContract97",
  "language": "Solidity",
  "natspec": {
    "methods": {}
  },
  "opcodes": "PUSH1 0x80 PUSH1 0x40 MSTORE CALLVALUE DUP1 ISZERO PUSH1 0xF JUMPI PUSH1 0x0 DUP1 REVERT JUMPDEST POP PUSH1 0x4 CALLDATASIZE LT PUSH1 0x3C JUMPI PUSH1 0x0 CALLDATALOAD PUSH1 0xE0 SHR DUP1 PUSH4 0x16B78191 EQ PUSH1 0x41 JUMPI DUP1 PUSH4 0x3BFD7FD3 EQ PUSH1 0x49 JUMPI DUP1 PUSH4 0x3FA4F245 EQ PUSH1 0x4F JUMPI JUMPDEST PUSH1 0x0 DUP1 REVERT JUMPDEST PUSH1 0x47 PUSH1 0x67 JUMP JUMPDEST STOP JUMPDEST PUSH1 0x47 PUSH1 0x73 JUMP JUMPDEST PUSH1 0x55 PUSH1 0x7E JUMP JUMPDEST PUSH1 0x40 DUP1 MLOAD SWAP2 DUP3 MSTORE MLOAD SWAP1 DUP2 SWAP1 SUB PUSH1 0x20 ADD SWAP1 RETURN JUMPDEST PUSH1 0x0 DUP1 SLOAD PUSH1 0x0 NOT ADD SWAP1 SSTORE JUMP JUMPDEST PUSH1 0x0 DUP1 SLOAD PUSH1 0x1 ADD SWAP1 SSTORE JUMP JUMPDEST PUSH1 0x0 SLOAD DUP2 JUMP INVALID LOG2 PUSH6 0x627A7A723158 KECCAK256 0xEA 0xF6 DUP7 0xB7 0xC6 DIFFICULTY MSIZE PUSH25 0xBC1FA2B2E74E680888DDB9D20B11A657AE4CE0B12A4A423664 PUSH20 0x6F6C634300051100320000000000000000000000 ",
  "sha1": "94a0f1a6eb997fb311f562cd0e3348d69a441ca6",
  "source": "pragma solidity ^0.5.0;\n\ncontract unOptimizedContract97 {\n\n    // Define internal variables\n    uint public value;\n\n    // Constructor\n    constructor() public {\n        value = 0;\n    }\n\n    // Increment value by one\n    function incrementValue() public {\n        value += 1;\n    }\n\n    // Decrement value by one\n    function decrementValue() public {\n        value -= 1;\n    }\n}",
  "sourcePath": "contracts/unOptimized_contracts/UnOptimizedContract97.sol",
  "type": "contract"
}