{
  "abi": [
    {
      "inputs": [],
      "payable": false,
      "stateMutability": "nonpayable",
      "type": "constructor"
    },
    {
      "constant": true,
      "inputs": [],
      "name": "balance",
      "outputs": [
        {
          "internalType": "uint256",
          "name": "",
          "type": "uint256"
        }
      ],
      "payable": false,
      "stateMutability": "view",
      "type": "function"
    },
    {
      "constant": false,
      "inputs": [
        {
          "internalType": "uint256",
          "name": "amount",
          "type": "uint256"
        }
      ],
      "name": "deposit",
      "outputs": [],
      "payable": false,
      "stateMutability": "nonpayable",
      "type": "function"
    },
    {
      "constant": false,
      "inputs": [
        {
          "internalType": "uint256",
          "name": "amount",
          "type": "uint256"
        }
      ],
      "name": "withdraw",
      "outputs": [],
      "payable": false,
      "stateMutability": "nonpayable",
      "type": "function"
    }
  ],
  "bytecode": "608060405234801561001057600080fd5b506000805560ef806100236000396000f3fe6080604052348015600f57600080fd5b5060043610603c5760003560e01c80632e1a7d4d146041578063b69ef8a814605d578063b6b55f25146075575b600080fd5b605b60048036036020811015605557600080fd5b5035608f565b005b606360a9565b60408051918252519081900360200190f35b605b60048036036020811015608957600080fd5b503560af565b806000541015609d57600080fd5b60008054919091039055565b60005481565b60008054909101905556fea265627a7a723158207a8c18453c02d31f82fe80daad579b1406b619c6ed378ea4264ed50daefce4b364736f6c63430005110032",
  "bytecodeSha1": "e4eb1cf9f022f444aa0582f6b37a35df0db4e72f",
  "compiler": {
    "evm_version": "istanbul",
    "optimizer": {
      "enabled": true,
      "runs": 200
    },
    "version": "0.5.17+commit.d19bba13"
  },
  "contractName": "unOptimizedContract37",
  "language": "Solidity",
  "natspec": {
    "methods": {}
  },
  "opcodes": "PUSH1 0x80 PUSH1 0x40 MSTORE CALLVALUE DUP1 ISZERO PUSH1 0xF JUMPI PUSH1 0x0 DUP1 REVERT JUMPDEST POP PUSH1 0x4 CALLDATASIZE LT PUSH1 0x3C JUMPI PUSH1 0x0 CALLDATALOAD PUSH1 0xE0 SHR DUP1 PUSH4 0x2E1A7D4D EQ PUSH1 0x41 JUMPI DUP1 PUSH4 0xB69EF8A8 EQ PUSH1 0x5D JUMPI DUP1 PUSH4 0xB6B55F25 EQ PUSH1 0x75 JUMPI JUMPDEST PUSH1 0x0 DUP1 REVERT JUMPDEST PUSH1 0x5B PUSH1 0x4 DUP1 CALLDATASIZE SUB PUSH1 0x20 DUP2 LT ISZERO PUSH1 0x55 JUMPI PUSH1 0x0 DUP1 REVERT JUMPDEST POP CALLDATALOAD PUSH1 0x8F JUMP JUMPDEST STOP JUMPDEST PUSH1 0x63 PUSH1 0xA9 JUMP JUMPDEST PUSH1 0x40 DUP1 MLOAD SWAP2 DUP3 MSTORE MLOAD SWAP1 DUP2 SWAP1 SUB PUSH1 0x20 ADD SWAP1 RETURN JUMPDEST PUSH1 0x5B PUSH1 0x4 DUP1 CALLDATASIZE SUB PUSH1 0x20 DUP2 LT ISZERO PUSH1 0x89 JUMPI PUSH1 0x0 DUP1 REVERT JUMPDEST POP CALLDATALOAD PUSH1 0xAF JUMP JUMPDEST DUP1 PUSH1 0x0 SLOAD LT ISZERO PUSH1 0x9D JUMPI PUSH1 0x0 DUP1 REVERT JUMPDEST PUSH1 0x0 DUP1 SLOAD SWAP2 SWAP1 SWAP2 SUB SWAP1 SSTORE JUMP JUMPDEST PUSH1 0x0 SLOAD DUP2 JUMP JUMPDEST PUSH1 0x0 DUP1 SLOAD SWAP1 SWAP2 ADD SWAP1 SSTORE JUMP INVALID LOG2 PUSH6 0x627A7A723158 KECCAK256 PUSH27 0x8C18453C02D31F82FE80DAAD579B1406B619C6ED378EA4264ED50D 0xAE 0xFC 0xE4 0xB3 PUSH5 0x736F6C6343 STOP SDIV GT STOP ORIGIN ",
  "sha1": "469ad0dacbbc6e5a08d5357a843cba3d6d63ffde",
  "source": "pragma solidity ^0.5.0;\n\ncontract unOptimizedContract37 {\n    uint public balance;\n\n    constructor() public {\n        balance = 0;\n    }\n\n    function deposit(uint amount) public {\n        balance += amount;\n    }\n\n    function withdraw(uint amount) public {\n        require(balance >= amount);\n        balance -= amount;\n    }\n}",
  "sourcePath": "contracts/verifiable_contracts_gpt/UnOptimizedContract37.sol",
  "type": "contract"
}